{
  "contractName": "WhirlFaucet",
  "abi": [
    {
      "inputs": [
        {
          "internalType": "string",
          "name": "name_",
          "type": "string"
        },
        {
          "internalType": "string",
          "name": "symbol_",
          "type": "string"
        }
      ],
      "stateMutability": "nonpayable",
      "type": "constructor"
    },
    {
      "anonymous": false,
      "inputs": [
        {
          "indexed": true,
          "internalType": "address",
          "name": "owner",
          "type": "address"
        },
        {
          "indexed": true,
          "internalType": "address",
          "name": "approved",
          "type": "address"
        },
        {
          "indexed": true,
          "internalType": "uint256",
          "name": "tokenId",
          "type": "uint256"
        }
      ],
      "name": "Approval",
      "type": "event"
    },
    {
      "anonymous": false,
      "inputs": [
        {
          "indexed": true,
          "internalType": "address",
          "name": "owner",
          "type": "address"
        },
        {
          "indexed": true,
          "internalType": "address",
          "name": "operator",
          "type": "address"
        },
        {
          "indexed": false,
          "internalType": "bool",
          "name": "approved",
          "type": "bool"
        }
      ],
      "name": "ApprovalForAll",
      "type": "event"
    },
    {
      "anonymous": false,
      "inputs": [
        {
          "indexed": true,
          "internalType": "address",
          "name": "owner",
          "type": "address"
        },
        {
          "indexed": false,
          "internalType": "address",
          "name": "tokenAddress",
          "type": "address"
        },
        {
          "indexed": false,
          "internalType": "string",
          "name": "tokenUri",
          "type": "string"
        },
        {
          "indexed": false,
          "internalType": "uint256",
          "name": "tokenId",
          "type": "uint256"
        }
      ],
      "name": "NFTMinted",
      "type": "event"
    },
    {
      "anonymous": false,
      "inputs": [
        {
          "indexed": true,
          "internalType": "address",
          "name": "previousOwner",
          "type": "address"
        },
        {
          "indexed": true,
          "internalType": "address",
          "name": "newOwner",
          "type": "address"
        }
      ],
      "name": "OwnershipTransferStarted",
      "type": "event"
    },
    {
      "anonymous": false,
      "inputs": [
        {
          "indexed": true,
          "internalType": "address",
          "name": "previousOwner",
          "type": "address"
        },
        {
          "indexed": true,
          "internalType": "address",
          "name": "newOwner",
          "type": "address"
        }
      ],
      "name": "OwnershipTransferred",
      "type": "event"
    },
    {
      "anonymous": false,
      "inputs": [
        {
          "indexed": true,
          "internalType": "address",
          "name": "from",
          "type": "address"
        },
        {
          "indexed": true,
          "internalType": "address",
          "name": "to",
          "type": "address"
        },
        {
          "indexed": true,
          "internalType": "uint256",
          "name": "tokenId",
          "type": "uint256"
        }
      ],
      "name": "Transfer",
      "type": "event"
    },
    {
      "inputs": [
        {
          "internalType": "uint256",
          "name": "",
          "type": "uint256"
        }
      ],
      "name": "_tokenURIS",
      "outputs": [
        {
          "internalType": "string",
          "name": "",
          "type": "string"
        }
      ],
      "stateMutability": "view",
      "type": "function"
    },
    {
      "inputs": [],
      "name": "acceptOwnership",
      "outputs": [],
      "stateMutability": "nonpayable",
      "type": "function"
    },
    {
      "inputs": [
        {
          "internalType": "address",
          "name": "to",
          "type": "address"
        },
        {
          "internalType": "uint256",
          "name": "tokenId",
          "type": "uint256"
        }
      ],
      "name": "approve",
      "outputs": [],
      "stateMutability": "nonpayable",
      "type": "function"
    },
    {
      "inputs": [
        {
          "internalType": "address",
          "name": "owner",
          "type": "address"
        }
      ],
      "name": "balanceOf",
      "outputs": [
        {
          "internalType": "uint256",
          "name": "",
          "type": "uint256"
        }
      ],
      "stateMutability": "view",
      "type": "function"
    },
    {
      "inputs": [
        {
          "internalType": "uint256",
          "name": "tokenId",
          "type": "uint256"
        }
      ],
      "name": "burn",
      "outputs": [],
      "stateMutability": "nonpayable",
      "type": "function"
    },
    {
      "inputs": [
        {
          "internalType": "uint256",
          "name": "tokenId",
          "type": "uint256"
        }
      ],
      "name": "getApproved",
      "outputs": [
        {
          "internalType": "address",
          "name": "",
          "type": "address"
        }
      ],
      "stateMutability": "view",
      "type": "function"
    },
    {
      "inputs": [
        {
          "internalType": "address",
          "name": "owner",
          "type": "address"
        },
        {
          "internalType": "address",
          "name": "operator",
          "type": "address"
        }
      ],
      "name": "isApprovedForAll",
      "outputs": [
        {
          "internalType": "bool",
          "name": "",
          "type": "bool"
        }
      ],
      "stateMutability": "view",
      "type": "function"
    },
    {
      "inputs": [
        {
          "internalType": "address",
          "name": "to",
          "type": "address"
        },
        {
          "internalType": "uint256",
          "name": "tokenId",
          "type": "uint256"
        },
        {
          "internalType": "string",
          "name": "uri",
          "type": "string"
        }
      ],
      "name": "mint",
      "outputs": [],
      "stateMutability": "nonpayable",
      "type": "function"
    },
    {
      "inputs": [],
      "name": "name",
      "outputs": [
        {
          "internalType": "string",
          "name": "",
          "type": "string"
        }
      ],
      "stateMutability": "view",
      "type": "function"
    },
    {
      "inputs": [],
      "name": "owner",
      "outputs": [
        {
          "internalType": "address",
          "name": "",
          "type": "address"
        }
      ],
      "stateMutability": "view",
      "type": "function"
    },
    {
      "inputs": [
        {
          "internalType": "uint256",
          "name": "tokenId",
          "type": "uint256"
        }
      ],
      "name": "ownerOf",
      "outputs": [
        {
          "internalType": "address",
          "name": "",
          "type": "address"
        }
      ],
      "stateMutability": "view",
      "type": "function"
    },
    {
      "inputs": [],
      "name": "parent",
      "outputs": [
        {
          "internalType": "address",
          "name": "",
          "type": "address"
        }
      ],
      "stateMutability": "view",
      "type": "function"
    },
    {
      "inputs": [],
      "name": "parentId",
      "outputs": [
        {
          "internalType": "uint256",
          "name": "",
          "type": "uint256"
        }
      ],
      "stateMutability": "view",
      "type": "function"
    },
    {
      "inputs": [],
      "name": "pendingOwner",
      "outputs": [
        {
          "internalType": "address",
          "name": "",
          "type": "address"
        }
      ],
      "stateMutability": "view",
      "type": "function"
    },
    {
      "inputs": [],
      "name": "renounceOwnership",
      "outputs": [],
      "stateMutability": "nonpayable",
      "type": "function"
    },
    {
      "inputs": [
        {
          "internalType": "address",
          "name": "from",
          "type": "address"
        },
        {
          "internalType": "address",
          "name": "to",
          "type": "address"
        },
        {
          "internalType": "uint256",
          "name": "tokenId",
          "type": "uint256"
        }
      ],
      "name": "safeTransferFrom",
      "outputs": [],
      "stateMutability": "nonpayable",
      "type": "function"
    },
    {
      "inputs": [
        {
          "internalType": "address",
          "name": "from",
          "type": "address"
        },
        {
          "internalType": "address",
          "name": "to",
          "type": "address"
        },
        {
          "internalType": "uint256",
          "name": "tokenId",
          "type": "uint256"
        },
        {
          "internalType": "bytes",
          "name": "data",
          "type": "bytes"
        }
      ],
      "name": "safeTransferFrom",
      "outputs": [],
      "stateMutability": "nonpayable",
      "type": "function"
    },
    {
      "inputs": [
        {
          "internalType": "address",
          "name": "operator",
          "type": "address"
        },
        {
          "internalType": "bool",
          "name": "approved",
          "type": "bool"
        }
      ],
      "name": "setApprovalForAll",
      "outputs": [],
      "stateMutability": "nonpayable",
      "type": "function"
    },
    {
      "inputs": [
        {
          "internalType": "bytes4",
          "name": "interfaceId",
          "type": "bytes4"
        }
      ],
      "name": "supportsInterface",
      "outputs": [
        {
          "internalType": "bool",
          "name": "",
          "type": "bool"
        }
      ],
      "stateMutability": "view",
      "type": "function"
    },
    {
      "inputs": [],
      "name": "symbol",
      "outputs": [
        {
          "internalType": "string",
          "name": "",
          "type": "string"
        }
      ],
      "stateMutability": "view",
      "type": "function"
    },
    {
      "inputs": [
        {
          "internalType": "uint256",
          "name": "tokenId",
          "type": "uint256"
        }
      ],
      "name": "tokenURI",
      "outputs": [
        {
          "internalType": "string",
          "name": "",
          "type": "string"
        }
      ],
      "stateMutability": "view",
      "type": "function"
    },
    {
      "inputs": [
        {
          "internalType": "address",
          "name": "from",
          "type": "address"
        },
        {
          "internalType": "address",
          "name": "to",
          "type": "address"
        },
        {
          "internalType": "uint256",
          "name": "tokenId",
          "type": "uint256"
        }
      ],
      "name": "transferFrom",
      "outputs": [],
      "stateMutability": "nonpayable",
      "type": "function"
    },
    {
      "inputs": [
        {
          "internalType": "address",
          "name": "newOwner",
          "type": "address"
        }
      ],
      "name": "transferOwnership",
      "outputs": [],
      "stateMutability": "nonpayable",
      "type": "function"
    },
    {
      "inputs": [
        {
          "internalType": "string",
          "name": "uri",
          "type": "string"
        }
      ],
      "name": "getFreeNft",
      "outputs": [],
      "stateMutability": "nonpayable",
      "type": "function"
    }
  ],
  "bytecode": "0x608060405234620003ed5762001ce6803803806200001d81620003f2565b928339810190604081830312620003ed578051916001604060020a0392838111620003ed57816200005091840162000418565b9160209182820151858111620003ed576200006c920162000418565b928251818111620003be576000938454936002928386049260018097168015620003b3575b8385101462000386578190601f9485811162000334575b508390858311600114620002ca578992620002be575b505060088202850a6000190419169084021786555b865193841162000291578454858482049116801562000286575b82821014620002595782811162000213575b508091808511600114620001a75750508495839495936200019b575b505082810292600802900a6000190419161790555b60078054600160a060020a03199081169091556006805433818416811790925560405193929190600160a060020a03167f8be0079c531659141344cd1fd0a4f28419497f9722a3daafe3b4186f6b6457e08480a360095416600955600a5561185b90816200048b8239f35b0151915038806200011b565b9091601f949394198416978688528388209388905b8a8210620001fb5750508487989910620001df575b505050500201905562000130565b0151908316600802840a600019041916905538808080620001d1565b808985978294968601518155019601930190620001bc565b858752818720828481818901048301938289106200024f575b0104019086905b82811062000243575050620000ff565b88815501869062000233565b935082936200022c565b6024877f4e487b710000000000000000000000000000000000000000000000000000000081526022600452fd5b90607f1690620000ed565b6024867f4e487b710000000000000000000000000000000000000000000000000000000081526041600452fd5b015190503880620000be565b898052848a208994508793929091601f1984168c5b888282106200031a5750508411620002ff575b50505002018655620000d3565b0151600883881602840a6000190419169055388080620002f2565b8484015186558d988c9850909501949384019301620002df565b909150888052838920848681818701048301938287106200037c575b9186959493918c93010401915b8281106200036d575050620000a8565b8b81558594508a91016200035d565b9350829362000350565b6024887f4e487b710000000000000000000000000000000000000000000000000000000081526022600452fd5b93607f169362000091565b7f4e487b7100000000000000000000000000000000000000000000000000000000600052604160045260246000fd5b600080fd5b6040519190601f01601f191682016001604060020a03811183821017620003be57604052565b919080601f84011215620003ed5782516001604060020a038111620003be576020906200044e601f8201601f19168301620003f2565b92818452828287010111620003ed5760005b8181106200047657508260009394955001015290565b85810183015184820184015282016200046056fe60806040908082526004918236101561001757600080fd5b6000927c010000000000000000000000000000000000000000000000000000000084350492836301ffc9a714610e4457508263054bf3b114610e1957826306fdde0314610d71578263081812fc14610d49578263095ea7b314610bad578263186e811b14610b8e57826323b872dd14610b6457826342842e0e14610b135783836342966c6814610a7a5750826360f96a8f14610a525782636352211e14610a2257826370a0823114610976578263715018a61461091957826379ba50971461083e5782637f2b8c8c146106695782638da5cb5b1461064157826395d89b411461055f578263a22cb46514610491578263b88d4fde14610429578263c87b56dd146103bb578263d3fc98641461023457508163e30c39781461020c578163e985e9c5146101ba575063f2fde38b1461014d57600080fd5b346101b75760203660031901126101b75761016661106e565b61016e611145565b600160a060020a038091169081600160a060020a03196007541617600755600654167f38d16b8cac22d99fc7c124b9cd0de2d3fa1faef420bfe791d8c362d765e227008380a380f35b80fd5b90503461020857806003193601126102085760ff816020936101da61106e565b6101e2611089565b600160a060020a0391821683526005875283832091168252855220549151911615158152f35b5080fd5b905034610208578160031936011261020857602090600160a060020a03600754169051908152f35b8382346102085760603660031901126102085761024f61106e565b9067ffffffffffffffff906024356044358381116103b757816102786102869236908a01611127565b95610281611145565b61172c565b84526020906008825284209280519283116103a1579082916102a88554610f10565b601f8111610351575b5081601f84116001146102ea575085926102df575b5050816002029160080260020a60001904191617905580f35b0151905084806102c6565b8587528087209350601f1985169087905b828210610339575050916002939185600196941061031e575b5050500201905580f35b01516008601f841602840a6000190419169055858080610314565b806001869782949787015181550196019401906102fb565b909192508486528286208380601f870104820192818710610397575b94601f87969594939295010401905b81811061038957506102b1565b87815585945060010161037c565b919250829161036d565b60248560418860e060020a634e487b7102835252fd5b8580fd5b9091503461042557602036600319011261042557816104219361040e92356104016103fc826000526002602052600160a060020a0360406000205416151590565b6111a0565b8152600860205220610f89565b905191829160208352602083019061102e565b0390f35b8280fd5b8390346102085760803660031901126102085761044461106e565b61044c611089565b9060643567ffffffffffffffff811161048d573660238201121561048d5761048a93816024610480933693013591016110f0565b91604435916112c1565b80f35b8480fd5b9150346104255780600319360112610425576104ab61106e565b906024359182151580930361048d57600160a060020a03169283331461051a5750338452600560205280842083855260205280842060ff1981541660ff8416179055519081527f17307eab39ab6107e8899845ad3d59bd9653f200f220920489ca2b5937696c3160203392a380f35b6020606492519160e560020a62461bcd028352820152601960248201527f4552433732313a20617070726f766520746f2063616c6c6572000000000000006044820152fd5b83823461020857816003193601126102085780519082600180549161058383610f10565b8086529282811690811561061a57506001146105be575b5050506105ac82610421940383610f4e565b5191829160208352602083019061102e565b94508085527fb10e2d527612073b26eecdfd717e6a320cf44b4afac2b0732d9fcbe2b7fa0cf65b828610610602575050506105ac826020610421958201019461059a565b805460208787018101919091529095019481016105e5565b6104219750869350602092506105ac94915060ff191682840152151581028201019461059a565b838234610208578160031936011261020857602090600160a060020a03600654169051908152f35b838234610208576020806003193601126104255767ffffffffffffffff93803585811161048d5761069d9036908301611127565b9060016106b281600b540180600b553361172c565b600b5486526008845284862091835197881161082857506106d38254610f10565b601f81116107e4575b508390601f88116001146107625750958086977fc838a7fd61cef6ed117ca9829550cd25002c8912a0846c98e8b6ea66a79a80d8969791610757575b50816002029160080260020a6000190419161790555b61074a600b54916060865194308652850152606084019061102e565b938201528033930390a280f35b905083015188610718565b8287528487209091601f198916885b8181106107cf57509189917fc838a7fd61cef6ed117ca9829550cd25002c8912a0846c98e8b6ea66a79a80d898999a600294106107b4575b50500201905561072e565b8601516008601f841602840a600019041916905589806107a9565b86830151845592840192918701918701610771565b8287528487208580601f8b0104820192818b1061081e575b601f0104019082905b8281106108135750506106dc565b888155018290610805565b91925082916107fc565b86604160249260e060020a634e487b7102835252fd5b91503461042557826003193601126104255760075491600160a060020a039133838516036108ad575050600160a060020a03198092166007556006549133908316176006553391167f8be0079c531659141344cd1fd0a4f28419497f9722a3daafe3b4186f6b6457e08380a380f35b906020608492519160e560020a62461bcd028352820152602960248201527f4f776e61626c6532537465703a2063616c6c6572206973206e6f74207468652060448201527f6e6577206f776e657200000000000000000000000000000000000000000000006064820152fd5b83346101b757806003193601126101b757610932611145565b80600160a060020a0380198060075416600755600654908116600655167f8be0079c531659141344cd1fd0a4f28419497f9722a3daafe3b4186f6b6457e08280a380f35b83903461020857602036600319011261020857600160a060020a0361099961106e565b169081156109b65760208480858581526003845220549051908152f35b608490602085519160e560020a62461bcd028352820152602960248201527f4552433732313a2061646472657373207a65726f206973206e6f74206120766160448201527f6c6964206f776e657200000000000000000000000000000000000000000000006064820152fd5b9083346101b75760203660031901126101b75750600160a060020a03610a4a602093356111ee565b915191168152f35b838234610208578160031936011261020857602090600160a060020a03600954169051908152f35b80923461020857602036600319011261020857823592610a98611145565b610aa1846111ee565b50610aab846111ee565b90848452602052600160a060020a0382842091811992838154169055169182845260036020528084206000198154019055848452600260205283209081541690557fddf252ad1be2c89b69c2b068fc378daa952ba7f163c4a11628f55a4df523b3ef8280a480f35b83823461020857610b233661109f565b91835193602085019085821067ffffffffffffffff831117610b4e5761048a969750528584526112c1565b60248760418a60e060020a634e487b7102835252fd5b83346101b75761048a610b763661109f565b91610b89610b84843361136a565b61124d565b61144c565b838234610208578160031936011261020857602090600a549051908152f35b90915034610425578160031936011261042557610bc861106e565b9060243592600160a060020a03918280610be1876111ee565b16941693808514610cdd57803314908115610cbe575b5015610c53578486526020528420805473ffffffffffffffffffffffffffffffffffffffff191683179055610c2b836111ee565b167f8c5be1e5ebec7d5bd14f71427d1e84f3dd0314c0f7b2291e5b200ac8c7c3b9258480a480f35b6020608492519160e560020a62461bcd028352820152603d60248201527f4552433732313a20617070726f76652063616c6c6572206973206e6f7420746f60448201527f6b656e206f776e6572206f7220617070726f76656420666f7220616c6c0000006064820152fd5b90508652600560205281862033875260205260ff828720541638610bf7565b506020608492519160e560020a62461bcd028352820152602160248201527f4552433732313a20617070726f76616c20746f2063757272656e74206f776e6560448201527f72000000000000000000000000000000000000000000000000000000000000006064820152fd5b9083346101b75760203660031901126101b75750600160a060020a03610a4a60209335611210565b838234610208578160031936011261020857805190828054610d9281610f10565b8085529160019180831690811561061a5750600114610dbd575050506105ac82610421940383610f4e565b80809650527f290decd9548b62a8d60345a988386fc84ba6bc95484008f6362f93160ef3e5635b828610610e01575050506105ac826020610421958201019461059a565b80546020878701810191909152909501948101610de4565b9091503461042557602036600319011261042557816104219361040e92358152600860205220610f89565b84913461042557602036600319011261042557357bffffffffffffffffffffffffffffffffffffffffffffffffffffffff19811680910361042557602092507f80ac58cd000000000000000000000000000000000000000000000000000000008114908115610ee6575b8115610ebc575b5015158152f35b7f01ffc9a70000000000000000000000000000000000000000000000000000000091501483610eb5565b7f5b5e139f0000000000000000000000000000000000000000000000000000000081149150610eae565b9060016002830492168015610f44575b6020831014610f2b57565b60e060020a634e487b7102600052602260045260246000fd5b91607f1691610f20565b90601f8019910116810190811067ffffffffffffffff821117610f7057604052565b60e060020a634e487b7102600052604160045260246000fd5b9060405191826000825492610f9d84610f10565b90818452600194858116908160001461100c5750600114610fc9575b5050610fc792500383610f4e565b565b9093915060005260209081600020936000915b818310610ff4575050610fc793508201013880610fb9565b85548884018501529485019487945091830191610fdc565b915050610fc794506020925060ff191682840152151581028201013880610fb9565b919082519283825260005b84811061105a575050826000602080949584010152601f8019910116010190565b602081830181015184830182015201611039565b60043590600160a060020a038216820361108457565b600080fd5b60243590600160a060020a038216820361108457565b606090600319011261108457600160a060020a0390600435828116810361108457916024359081168103611084579060443590565b67ffffffffffffffff8111610f7057601f01601f191660200190565b9291926110fc826110d4565b9161110a6040519384610f4e565b829481845281830111611084578281602093846000960137010152565b9080601f8301121561108457816020611142933591016110f0565b90565b600160a060020a0360065416330361115957565b606460405160e560020a62461bcd02815260206004820152602060248201527f4f776e61626c653a2063616c6c6572206973206e6f7420746865206f776e65726044820152fd5b156111a757565b606460405160e560020a62461bcd02815260206004820152601860248201527f4552433732313a20696e76616c696420746f6b656e20494400000000000000006044820152fd5b6000526002602052600160a060020a03604060002054166111428115156111a0565b6112336103fc826000526002602052600160a060020a0360406000205416151590565b6000526004602052600160a060020a036040600020541690565b1561125457565b608460405160e560020a62461bcd02815260206004820152602d60248201527f4552433732313a2063616c6c6572206973206e6f7420746f6b656e206f776e6560448201527f72206f7220617070726f766564000000000000000000000000000000000000006064820152fd5b906112e59392916112d5610b84843361136a565b6112e083838361144c565b611576565b156112ec57565b60405160e560020a62461bcd028152806113086004820161130c565b0390fd5b60809060208152603260208201527f4552433732313a207472616e7366657220746f206e6f6e20455243373231526560408201527f63656976657220696d706c656d656e746572000000000000000000000000000060608201520190565b90600160a060020a03808061137e846111ee565b169316918383149384156113b1575b50831561139b575b50505090565b6113a791929350611210565b1614388080611395565b909350600052600560205260406000208260005260205260ff60406000205416923861138d565b156113df57565b608460405160e560020a62461bcd02815260206004820152602560248201527f4552433732313a207472616e736665722066726f6d20696e636f72726563742060448201527f6f776e65720000000000000000000000000000000000000000000000000000006064820152fd5b906114749161145a846111ee565b91600160a060020a039384938480941694859116146113d8565b1691821561150a57816114919161148a866111ee565b16146113d8565b7fddf252ad1be2c89b69c2b068fc378daa952ba7f163c4a11628f55a4df523b3ef6000848152600460205260408120600160a060020a03199081815416905583825260036020526040822060001981540190558482526040822060018154019055858252600260205284604083209182541617905580a4565b608460405160e560020a62461bcd028152602060048201526024808201527f4552433732313a207472616e7366657220746f20746865207a65726f2061646460448201527f72657373000000000000000000000000000000000000000000000000000000006064820152fd5b9293600093909291803b156116d3579484916115ea96604051809481937f150b7a020000000000000000000000000000000000000000000000000000000097888452336004850152600160a060020a0380921660248501526044840152608060648401528260209b8c97608483019061102e565b0393165af184918161167e575b50611658575050503d600014611650573d611611816110d4565b9061161f6040519283610f4e565b81528091833d92013e5b8051918261164d5760405160e560020a62461bcd028152806113086004820161130c565b01fd5b506060611629565b7bffffffffffffffffffffffffffffffffffffffffffffffffffffffff19161492509050565b9091508581813d83116116cc575b6116968183610f4e565b8101031261048d57517bffffffffffffffffffffffffffffffffffffffffffffffffffffffff198116810361048d5790386115f7565b503d61168c565b505050915050600190565b156116e557565b606460405160e560020a62461bcd02815260206004820152601c60248201527f4552433732313a20746f6b656e20616c7265616479206d696e746564000000006044820152fd5b600160a060020a031680156117de5761176461175e836000526002602052600160a060020a0360406000205416151590565b156116de565b61178761175e836000526002602052600160a060020a0360406000205416151590565b60008181526003602052604081206001815401905582815260026020526040812082600160a060020a03198254161790557fddf252ad1be2c89b69c2b068fc378daa952ba7f163c4a11628f55a4df523b3ef8180a4565b606460405160e560020a62461bcd02815260206004820152602060248201527f4552433732313a206d696e7420746f20746865207a65726f20616464726573736044820152fdfea264697066735822122022f7c74203a6f2a8db62ed68f74d737809afdea4319495256649587f11dc85fb64736f6c63430008110033",
  "immutableReferences": {},
  "source": "// SPDX-License-Identifier: MIT\r\npragma solidity ^0.8.17;\r\n\r\nimport \"@openzeppelin/contracts/utils/Counters.sol\";\r\nimport \"./W3NFT.sol\";\r\n\r\ncontract WhirlFaucet is W3NFT {\r\n    using Counters for Counters.Counter;\r\n\r\n    Counters.Counter private _tokenId;\r\n\r\n    event NFTMinted(\r\n        address indexed owner,\r\n        address tokenAddress,\r\n        string tokenUri,\r\n        uint256 tokenId\r\n    );\r\n\r\n    constructor(\r\n        string memory name_,\r\n        string memory symbol_\r\n    ) W3NFT(name_, symbol_, address(0), 0) {}\r\n\r\n    function getFreeNft(string memory uri) external {\r\n        _tokenId.increment();\r\n\r\n        _mint(msg.sender, _tokenId.current());\r\n        _tokenURIS[_tokenId.current()] = uri;\r\n\r\n        emit NFTMinted(msg.sender, address(this), uri, _tokenId.current());\r\n    }\r\n}\r\n",
  "sourcePath": "C:\\Users\\DELL\\Documents\\w3link\\solidity\\contracts\\whirl\\WhirlFaucet.sol",
  "compiler": {
    "name": "solc",
    "version": "0.8.17+commit.8df45f5f.Emscripten.clang"
  },
  "schemaVersion": "3.4.11",
  "updatedAt": "2023-09-23T15:37:51.436Z",
  "devdoc": {
    "kind": "dev",
    "methods": {
      "acceptOwnership()": {
        "details": "The new owner accepts the ownership transfer."
      },
      "approve(address,uint256)": {
        "details": "See {IERC721-approve}."
      },
      "balanceOf(address)": {
        "details": "See {IERC721-balanceOf}."
      },
      "getApproved(uint256)": {
        "details": "See {IERC721-getApproved}."
      },
      "isApprovedForAll(address,address)": {
        "details": "See {IERC721-isApprovedForAll}."
      },
      "name()": {
        "details": "See {IERC721Metadata-name}."
      },
      "owner()": {
        "details": "Returns the address of the current owner."
      },
      "ownerOf(uint256)": {
        "details": "See {IERC721-ownerOf}."
      },
      "pendingOwner()": {
        "details": "Returns the address of the pending owner."
      },
      "renounceOwnership()": {
        "details": "Leaves the contract without owner. It will not be possible to call `onlyOwner` functions. Can only be called by the current owner. NOTE: Renouncing ownership will leave the contract without an owner, thereby disabling any functionality that is only available to the owner."
      },
      "safeTransferFrom(address,address,uint256)": {
        "details": "See {IERC721-safeTransferFrom}."
      },
      "safeTransferFrom(address,address,uint256,bytes)": {
        "details": "See {IERC721-safeTransferFrom}."
      },
      "setApprovalForAll(address,bool)": {
        "details": "See {IERC721-setApprovalForAll}."
      },
      "supportsInterface(bytes4)": {
        "details": "See {IERC165-supportsInterface}."
      },
      "symbol()": {
        "details": "See {IERC721Metadata-symbol}."
      },
      "tokenURI(uint256)": {
        "details": "See {IERC721Metadata-tokenURI}."
      },
      "transferFrom(address,address,uint256)": {
        "details": "See {IERC721-transferFrom}."
      },
      "transferOwnership(address)": {
        "details": "Starts the ownership transfer of the contract to a new account. Replaces the pending transfer if there is one. Can only be called by the current owner."
      }
    },
    "version": 1
  },
  "userdoc": {
    "kind": "user",
    "methods": {},
    "version": 1
  }
}