{
  "contractName": "Whirl",
  "abi": [
    {
      "inputs": [
        {
          "internalType": "address",
          "name": "w3link_",
          "type": "address"
        }
      ],
      "stateMutability": "nonpayable",
      "type": "constructor"
    },
    {
      "anonymous": false,
      "inputs": [
        {
          "indexed": false,
          "internalType": "address",
          "name": "tokenAddress",
          "type": "address"
        },
        {
          "indexed": false,
          "internalType": "uint256",
          "name": "tokenId",
          "type": "uint256"
        },
        {
          "indexed": false,
          "internalType": "address",
          "name": "from",
          "type": "address"
        },
        {
          "indexed": false,
          "internalType": "address",
          "name": "to",
          "type": "address"
        }
      ],
      "name": "NFTransferred",
      "type": "event"
    },
    {
      "inputs": [
        {
          "internalType": "uint256",
          "name": "destChainId",
          "type": "uint256"
        }
      ],
      "name": "estimateFee",
      "outputs": [
        {
          "internalType": "uint256",
          "name": "",
          "type": "uint256"
        }
      ],
      "stateMutability": "view",
      "type": "function"
    },
    {
      "inputs": [
        {
          "internalType": "uint256",
          "name": "destChainId",
          "type": "uint256"
        },
        {
          "internalType": "address",
          "name": "contractId",
          "type": "address"
        }
      ],
      "name": "setExtContract",
      "outputs": [],
      "stateMutability": "nonpayable",
      "type": "function"
    },
    {
      "inputs": [
        {
          "internalType": "uint256",
          "name": "destChainId",
          "type": "uint256"
        },
        {
          "internalType": "uint256",
          "name": "tokenId",
          "type": "uint256"
        },
        {
          "internalType": "address",
          "name": "nftContractId",
          "type": "address"
        }
      ],
      "name": "bridge",
      "outputs": [],
      "stateMutability": "nonpayable",
      "type": "function"
    },
    {
      "inputs": [
        {
          "internalType": "uint256",
          "name": "",
          "type": "uint256"
        },
        {
          "internalType": "bytes",
          "name": "data",
          "type": "bytes"
        },
        {
          "internalType": "bytes32",
          "name": "",
          "type": "bytes32"
        }
      ],
      "name": "execute",
      "outputs": [],
      "stateMutability": "nonpayable",
      "type": "function"
    },
    {
      "inputs": [
        {
          "internalType": "bytes",
          "name": "data",
          "type": "bytes"
        }
      ],
      "name": "onResult",
      "outputs": [],
      "stateMutability": "nonpayable",
      "type": "function"
    }
  ],
  "bytecode": "0x608080604052346100df57610a71803803809161001c82856100e4565b8339600160a060020a039182916100369190810190610135565b169060046020600160a060020a03199380856000541617600055604051928380927f79502c550000000000000000000000000000000000000000000000000000000082525afa9081156100d3576000916100a5575b501690600154161760015560405161091c90816101558239f35b6100c6915060203d81116100cc575b6100be81836100e4565b810190610135565b3861008b565b503d6100b4565b6040513d6000823e3d90fd5b600080fd5b90601f8019910116810190811067ffffffffffffffff82111761010657604052565b7f4e487b7100000000000000000000000000000000000000000000000000000000600052604160045260246000fd5b908160209103126100df5751600160a060020a03811681036100df579056fe6080604081815260048036101561001557600080fd5b6000927c0100000000000000000000000000000000000000000000000000000000843504908163127e8e4d146106b5575080631cf1b97c146102a4578063573043281461025b57806382408bb8146102265763913bebdc1461007657600080fd5b346102225760603660031901126102225760243567ffffffffffffffff81116101f2576100a690369083016107e1565b9083600160a060020a03918260015416803b1561022257828091838851809481937fb11d16fb0000000000000000000000000000000000000000000000000000000083525af1908115610218578391610204575b505060608480518101031261020057610115602085016108d2565b8360606101238888016108d2565b960151951693843b156101f25786517f23b872dd000000000000000000000000000000000000000000000000000000008152309381019384529116600160a060020a031660208301526040820185905290829082908190606001038183875af180156101f6576101de575b50509151600160a060020a03909216825260208201523060408201523360608201527fae62e955921d2efa2e797012d2562b552cf550fa049f70a00af4e0c1f4b5ce319080608081015b0390a180f35b6101e790610760565b6101f257833861018e565b8380fd5b85513d84823e3d90fd5b5080fd5b61020d90610760565b6102005781386100fa565b86513d85823e3d90fd5b8280fd5b8382346102005760203660031901126102005780359067ffffffffffffffff821161022257610257913691016107e1565b5080f35b50903461022257806003193601126102225760243591600160a060020a03831680930361029f573583526002602052822090600160a060020a031982541617905580f35b600080fd5b5034610222576060366003190112610222578035906024359160443591600160a060020a03808416908185036105e357813b156105e35786517f23b872dd0000000000000000000000000000000000000000000000000000000081523384820190815230602082015260408101889052899082908190606001038183875af180156106ab57610692575b5086517f06fdde03000000000000000000000000000000000000000000000000000000008152889493929185828581865afa91821561068857869261066c575b508851917f95d89b4100000000000000000000000000000000000000000000000000000000835286838681875afa9283156105d9578793610650575b508951927fc87b56dd00000000000000000000000000000000000000000000000000000000845289868501528a8885602481895afa948515610646578b9561045694610444928c8093610618575b50506104216104349185519a8b9660209b8c89015287015260c0606087015260e08601906108ad565b601f1995868683030160808701526108ad565b90848483030160a08501526108ad565b3360c0830152039081018552846107a3565b60248282600154168b51928380927f39b37ab00000000000000000000000000000000000000000000000000000000082528a8a8301525afa9081156105d95787916105e7575b5081875416803b156105e3578790868c51809481937fd0e30db00000000000000000000000000000000000000000000000000000000083525af19081156105d95787916105c5575b5081600291541692868852528886205416813b156105c157858094610543968b51978896879586947f4964e6990000000000000000000000000000000000000000000000000000000086528501526080602485015260848401906108ad565b9060448301526000606483015203925af180156101f6576105ad575b50509151600160a060020a03909216825260208201523360408201523060608201527fae62e955921d2efa2e797012d2562b552cf550fa049f70a00af4e0c1f4b5ce319080608081016101d8565b6105b690610760565b6101f257833861055f565b8580fd5b6105ce90610760565b6105c15785386104e4565b8a513d89823e3d90fd5b8780fd5b809750838092503d8311610611575b61060081836107a3565b8101031261029f578995513861049c565b503d6105f6565b6104349293506104219161063d913d8091833e61063581836107a3565b81019061084b565b9291508c6103f8565b81513d8b823e3d90fd5b6106659193503d8089833e61063581836107a3565b91386103aa565b6106819192503d8088833e61063581836107a3565b903861036e565b89513d88823e3d90fd5b6106a190989194939298610760565b969091923861032e565b88513d8b823e3d90fd5b848484923461022257602093846003193601126101f257816024818793600160a060020a0360015416907f39b37ab00000000000000000000000000000000000000000000000000000000083528035908301525afa928315610755578093610720575b505051908152f35b909192508382813d831161074e575b61073981836107a3565b8101031261074b575051908380610718565b80fd5b503d61072f565b8251903d90823e3d90fd5b67ffffffffffffffff811161077457604052565b7f4e487b7100000000000000000000000000000000000000000000000000000000600052604160045260246000fd5b90601f8019910116810190811067ffffffffffffffff82111761077457604052565b67ffffffffffffffff811161077457601f01601f191660200190565b81601f8201121561029f578035906107f8826107c5565b9261080660405194856107a3565b8284526020838301011161029f57816000926020809301838601378301015290565b60005b83811061083b5750506000910152565b818101518382015260200161082b565b60208183031261029f5780519067ffffffffffffffff821161029f570181601f8201121561029f57805161087e816107c5565b9261088c60405194856107a3565b8184526020828401011161029f576108aa9160208085019101610828565b90565b906020916108c681518092818552858086019101610828565b601f01601f1916010190565b5190600160a060020a038216820361029f5756fea26469706673582212208b2d2e1b1604ffe9eff3da9bc127e0d121f8bc9ed39e3843cf4ea10c5634173664736f6c63430008110033",
  "immutableReferences": {},
  "source": "// SPDX-License-Identifier: MIT\r\npragma solidity ^0.8.17;\r\n\r\nimport \"./../interfaces/IW3Link.sol\";\r\nimport \"./../interfaces/IW3LinkApp.sol\";\r\nimport \"./../interfaces/IW3LinkConfig.sol\";\r\n\r\nimport \"@openzeppelin/contracts/token/ERC721/IERC721.sol\";\r\nimport \"@openzeppelin/contracts/token/ERC721/extensions/IERC721Metadata.sol\";\r\n\r\nimport \"@openzeppelin/contracts/utils/Context.sol\";\r\n\r\ncontract Whirl is IW3LinkApp, Context {\r\n    IW3Link private _w3link;\r\n    IW3LinkConfig private _w3linkConfig;\r\n    mapping(uint256 => address) private _extContractIds;\r\n\r\n    event NFTransferred(\r\n        address tokenAddress,\r\n        uint256 tokenId,\r\n        address from,\r\n        address to\r\n    );\r\n\r\n    constructor(address w3link_) {\r\n        _w3link = IW3Link(w3link_);\r\n        _w3linkConfig = IW3LinkConfig(_w3link.config());\r\n    }\r\n\r\n    /// @dev For getting briging fee\r\n    function estimateFee(uint256 destChainId) external view returns (uint256) {\r\n        return _w3linkConfig.fee(destChainId);\r\n    }\r\n\r\n    /// @dev For setting extension contract ids\r\n    function setExtContract(uint256 destChainId, address contractId) external {\r\n        _extContractIds[destChainId] = contractId;\r\n    }\r\n\r\n    /// @dev This function locks the Original NFT\r\n    /// and tell whirlExtension Contract to mint a new similar NFT\r\n    function bridge(\r\n        uint256 destChainId,\r\n        uint256 tokenId,\r\n        address nftContractId\r\n    ) external {\r\n        IERC721 nft = IERC721(nftContractId);\r\n        IERC721Metadata metadata = IERC721Metadata(nftContractId);\r\n\r\n        nft.transferFrom(_msgSender(), address(this), tokenId);\r\n\r\n        // Encode data for whirlExtension Contract\r\n        bytes memory data = abi.encode(\r\n            tokenId,\r\n            nftContractId,\r\n            metadata.name(),\r\n            metadata.symbol(),\r\n            metadata.tokenURI(tokenId),\r\n            _msgSender()\r\n        );\r\n\r\n        uint256 estFee = _w3linkConfig.fee(destChainId);\r\n        _w3link.deposit{value: estFee}();\r\n\r\n        // Send message to whirlExtension Contract\r\n        _w3link.dispatch(\r\n            _extContractIds[destChainId],\r\n            data,\r\n            destChainId,\r\n            \"\" /* no extra */\r\n        );\r\n\r\n        emit NFTransferred(nftContractId, tokenId, _msgSender(), address(this));\r\n    }\r\n\r\n    /// @dev This function unlocks the Original NFT to the\r\n    /// owner of the burnt similar NFT on whirlExtension\r\n    function execute(\r\n        uint256 /* fromChainId */,\r\n        bytes memory data,\r\n        bytes32 /* extra */\r\n    ) external override {\r\n        _w3linkConfig.onlyHandler();\r\n\r\n        // Decode data from whirlExtension Contract\r\n        (address holder, address nftContractId, uint256 tokenId) = abi.decode(\r\n            data,\r\n            (address, address, uint256)\r\n        );\r\n\r\n        // Unlock NFT to owner\r\n        IERC721 nft = IERC721(nftContractId);\r\n        nft.transferFrom(address(this), holder, tokenId);\r\n\r\n        emit NFTransferred(nftContractId, tokenId, address(this), _msgSender());\r\n    }\r\n\r\n    function onResult(bytes memory data) external override {}\r\n}\r\n",
  "sourcePath": "C:\\Users\\DELL\\Documents\\w3link\\solidity\\contracts\\whirl\\Whirl.sol",
  "compiler": {
    "name": "solc",
    "version": "0.8.17+commit.8df45f5f.Emscripten.clang"
  },
  "schemaVersion": "3.4.11",
  "updatedAt": "2023-09-23T15:37:51.428Z",
  "devdoc": {
    "kind": "dev",
    "methods": {
      "bridge(uint256,uint256,address)": {
        "details": "This function locks the Original NFT and tell whirlExtension Contract to mint a new similar NFT"
      },
      "estimateFee(uint256)": {
        "details": "For getting briging fee"
      },
      "execute(uint256,bytes,bytes32)": {
        "details": "This function unlocks the Original NFT to the owner of the burnt similar NFT on whirlExtension"
      },
      "setExtContract(uint256,address)": {
        "details": "For setting extension contract ids"
      }
    },
    "version": 1
  },
  "userdoc": {
    "kind": "user",
    "methods": {},
    "version": 1
  }
}