{
  "contractName": "WhirlFaucet",
  "abi": [
    {
      "inputs": [
        {
          "internalType": "string",
          "name": "name_",
          "type": "string"
        },
        {
          "internalType": "string",
          "name": "symbol_",
          "type": "string"
        }
      ],
      "stateMutability": "nonpayable",
      "type": "constructor"
    },
    {
      "anonymous": false,
      "inputs": [
        {
          "indexed": true,
          "internalType": "address",
          "name": "owner",
          "type": "address"
        },
        {
          "indexed": true,
          "internalType": "address",
          "name": "approved",
          "type": "address"
        },
        {
          "indexed": true,
          "internalType": "uint256",
          "name": "tokenId",
          "type": "uint256"
        }
      ],
      "name": "Approval",
      "type": "event"
    },
    {
      "anonymous": false,
      "inputs": [
        {
          "indexed": true,
          "internalType": "address",
          "name": "owner",
          "type": "address"
        },
        {
          "indexed": true,
          "internalType": "address",
          "name": "operator",
          "type": "address"
        },
        {
          "indexed": false,
          "internalType": "bool",
          "name": "approved",
          "type": "bool"
        }
      ],
      "name": "ApprovalForAll",
      "type": "event"
    },
    {
      "anonymous": false,
      "inputs": [
        {
          "indexed": true,
          "internalType": "address",
          "name": "owner",
          "type": "address"
        },
        {
          "indexed": false,
          "internalType": "address",
          "name": "tokenAddress",
          "type": "address"
        },
        {
          "indexed": false,
          "internalType": "string",
          "name": "tokenUri",
          "type": "string"
        },
        {
          "indexed": false,
          "internalType": "uint256",
          "name": "tokenId",
          "type": "uint256"
        }
      ],
      "name": "NFTMinted",
      "type": "event"
    },
    {
      "anonymous": false,
      "inputs": [
        {
          "indexed": true,
          "internalType": "address",
          "name": "previousOwner",
          "type": "address"
        },
        {
          "indexed": true,
          "internalType": "address",
          "name": "newOwner",
          "type": "address"
        }
      ],
      "name": "OwnershipTransferStarted",
      "type": "event"
    },
    {
      "anonymous": false,
      "inputs": [
        {
          "indexed": true,
          "internalType": "address",
          "name": "previousOwner",
          "type": "address"
        },
        {
          "indexed": true,
          "internalType": "address",
          "name": "newOwner",
          "type": "address"
        }
      ],
      "name": "OwnershipTransferred",
      "type": "event"
    },
    {
      "anonymous": false,
      "inputs": [
        {
          "indexed": true,
          "internalType": "address",
          "name": "from",
          "type": "address"
        },
        {
          "indexed": true,
          "internalType": "address",
          "name": "to",
          "type": "address"
        },
        {
          "indexed": true,
          "internalType": "uint256",
          "name": "tokenId",
          "type": "uint256"
        }
      ],
      "name": "Transfer",
      "type": "event"
    },
    {
      "inputs": [
        {
          "internalType": "uint256",
          "name": "",
          "type": "uint256"
        }
      ],
      "name": "_tokenURIS",
      "outputs": [
        {
          "internalType": "string",
          "name": "",
          "type": "string"
        }
      ],
      "stateMutability": "view",
      "type": "function"
    },
    {
      "inputs": [],
      "name": "acceptOwnership",
      "outputs": [],
      "stateMutability": "nonpayable",
      "type": "function"
    },
    {
      "inputs": [
        {
          "internalType": "address",
          "name": "to",
          "type": "address"
        },
        {
          "internalType": "uint256",
          "name": "tokenId",
          "type": "uint256"
        }
      ],
      "name": "approve",
      "outputs": [],
      "stateMutability": "nonpayable",
      "type": "function"
    },
    {
      "inputs": [
        {
          "internalType": "address",
          "name": "owner",
          "type": "address"
        }
      ],
      "name": "balanceOf",
      "outputs": [
        {
          "internalType": "uint256",
          "name": "",
          "type": "uint256"
        }
      ],
      "stateMutability": "view",
      "type": "function"
    },
    {
      "inputs": [
        {
          "internalType": "uint256",
          "name": "tokenId",
          "type": "uint256"
        }
      ],
      "name": "getApproved",
      "outputs": [
        {
          "internalType": "address",
          "name": "",
          "type": "address"
        }
      ],
      "stateMutability": "view",
      "type": "function"
    },
    {
      "inputs": [
        {
          "internalType": "address",
          "name": "owner",
          "type": "address"
        },
        {
          "internalType": "address",
          "name": "operator",
          "type": "address"
        }
      ],
      "name": "isApprovedForAll",
      "outputs": [
        {
          "internalType": "bool",
          "name": "",
          "type": "bool"
        }
      ],
      "stateMutability": "view",
      "type": "function"
    },
    {
      "inputs": [],
      "name": "name",
      "outputs": [
        {
          "internalType": "string",
          "name": "",
          "type": "string"
        }
      ],
      "stateMutability": "view",
      "type": "function"
    },
    {
      "inputs": [],
      "name": "owner",
      "outputs": [
        {
          "internalType": "address",
          "name": "",
          "type": "address"
        }
      ],
      "stateMutability": "view",
      "type": "function"
    },
    {
      "inputs": [
        {
          "internalType": "uint256",
          "name": "tokenId",
          "type": "uint256"
        }
      ],
      "name": "ownerOf",
      "outputs": [
        {
          "internalType": "address",
          "name": "",
          "type": "address"
        }
      ],
      "stateMutability": "view",
      "type": "function"
    },
    {
      "inputs": [],
      "name": "pendingOwner",
      "outputs": [
        {
          "internalType": "address",
          "name": "",
          "type": "address"
        }
      ],
      "stateMutability": "view",
      "type": "function"
    },
    {
      "inputs": [],
      "name": "renounceOwnership",
      "outputs": [],
      "stateMutability": "nonpayable",
      "type": "function"
    },
    {
      "inputs": [
        {
          "internalType": "address",
          "name": "from",
          "type": "address"
        },
        {
          "internalType": "address",
          "name": "to",
          "type": "address"
        },
        {
          "internalType": "uint256",
          "name": "tokenId",
          "type": "uint256"
        }
      ],
      "name": "safeTransferFrom",
      "outputs": [],
      "stateMutability": "nonpayable",
      "type": "function"
    },
    {
      "inputs": [
        {
          "internalType": "address",
          "name": "from",
          "type": "address"
        },
        {
          "internalType": "address",
          "name": "to",
          "type": "address"
        },
        {
          "internalType": "uint256",
          "name": "tokenId",
          "type": "uint256"
        },
        {
          "internalType": "bytes",
          "name": "data",
          "type": "bytes"
        }
      ],
      "name": "safeTransferFrom",
      "outputs": [],
      "stateMutability": "nonpayable",
      "type": "function"
    },
    {
      "inputs": [
        {
          "internalType": "address",
          "name": "operator",
          "type": "address"
        },
        {
          "internalType": "bool",
          "name": "approved",
          "type": "bool"
        }
      ],
      "name": "setApprovalForAll",
      "outputs": [],
      "stateMutability": "nonpayable",
      "type": "function"
    },
    {
      "inputs": [
        {
          "internalType": "bytes4",
          "name": "interfaceId",
          "type": "bytes4"
        }
      ],
      "name": "supportsInterface",
      "outputs": [
        {
          "internalType": "bool",
          "name": "",
          "type": "bool"
        }
      ],
      "stateMutability": "view",
      "type": "function"
    },
    {
      "inputs": [],
      "name": "symbol",
      "outputs": [
        {
          "internalType": "string",
          "name": "",
          "type": "string"
        }
      ],
      "stateMutability": "view",
      "type": "function"
    },
    {
      "inputs": [
        {
          "internalType": "address",
          "name": "from",
          "type": "address"
        },
        {
          "internalType": "address",
          "name": "to",
          "type": "address"
        },
        {
          "internalType": "uint256",
          "name": "tokenId",
          "type": "uint256"
        }
      ],
      "name": "transferFrom",
      "outputs": [],
      "stateMutability": "nonpayable",
      "type": "function"
    },
    {
      "inputs": [
        {
          "internalType": "address",
          "name": "newOwner",
          "type": "address"
        }
      ],
      "name": "transferOwnership",
      "outputs": [],
      "stateMutability": "nonpayable",
      "type": "function"
    },
    {
      "inputs": [
        {
          "internalType": "string",
          "name": "uri",
          "type": "string"
        }
      ],
      "name": "getFreeNft",
      "outputs": [],
      "stateMutability": "nonpayable",
      "type": "function"
    },
    {
      "inputs": [
        {
          "internalType": "uint256",
          "name": "tokenId",
          "type": "uint256"
        }
      ],
      "name": "tokenURI",
      "outputs": [
        {
          "internalType": "string",
          "name": "",
          "type": "string"
        }
      ],
      "stateMutability": "view",
      "type": "function"
    }
  ],
  "bytecode": "0x608060405234620003e35762001a2e803803806200001d81620003e8565b928339810190604081830312620003e3578051916001604060020a0392838111620003e35781620000509184016200040e565b9160209182820151858111620003e3576200006c92016200040e565b928251818111620003b4576000938454936002928386049260018097168015620003a9575b838510146200037c578190601f948581116200032a575b508390858311600114620002c0578992620002b4575b505060088202850a6000190419169084021786555b86519384116200028757845485848204911680156200027c575b828210146200024f5782811162000209575b5080918085116001146200019d57505084958394959362000191575b505082810292600802900a6000190419161790555b60078054600160a060020a03199081169091556006805433928116831790915560405192600160a060020a03909116907f8be0079c531659141344cd1fd0a4f28419497f9722a3daafe3b4186f6b6457e09080a36115ad9081620004818239f35b0151915038806200011b565b9091601f949394198416978688528388209388905b8a8210620001f15750508487989910620001d5575b505050500201905562000130565b0151908316600802840a600019041916905538808080620001c7565b808985978294968601518155019601930190620001b2565b8587528187208284818189010483019382891062000245575b0104019086905b82811062000239575050620000ff565b88815501869062000229565b9350829362000222565b6024877f4e487b710000000000000000000000000000000000000000000000000000000081526022600452fd5b90607f1690620000ed565b6024867f4e487b710000000000000000000000000000000000000000000000000000000081526041600452fd5b015190503880620000be565b898052848a208994508793929091601f1984168c5b88828210620003105750508411620002f5575b50505002018655620000d3565b0151600883881602840a6000190419169055388080620002e8565b8484015186558d988c9850909501949384019301620002d5565b9091508880528389208486818187010483019382871062000372575b9186959493918c93010401915b82811062000363575050620000a8565b8b81558594508a910162000353565b9350829362000346565b6024887f4e487b710000000000000000000000000000000000000000000000000000000081526022600452fd5b93607f169362000091565b7f4e487b7100000000000000000000000000000000000000000000000000000000600052604160045260246000fd5b600080fd5b6040519190601f01601f191682016001604060020a03811183821017620003b457604052565b919080601f84011215620003e35782516001604060020a038111620003b45760209062000444601f8201601f19168301620003e8565b92818452828287010111620003e35760005b8181106200046c57508260009394955001015290565b85810183015184820184015282016200045656fe60806040908082526004918236101561001757600080fd5b6000927c010000000000000000000000000000000000000000000000000000000084350492836301ffc9a714610caa57508263054bf3b114610c7f57826306fdde0314610bd7578263081812fc14610baf578263095ea7b314610a1357826323b872dd146109e957826342842e0e146109985782636352211e1461096857826370a08231146108bc578263715018a61461085f57826379ba5097146107845782637f2b8c8c146104b45782638da5cb5b1461048c57826395d89b41146103aa578263a22cb465146102dc578263b88d4fde14610274578263c87b56dd1461020657508163e30c3978146101de578163e985e9c51461018c575063f2fde38b1461011f57600080fd5b3461018957602036600319011261018957610138610ed4565b610140610f8d565b600160a060020a038091169081600160a060020a03196007541617600755600654167f38d16b8cac22d99fc7c124b9cd0de2d3fa1faef420bfe791d8c362d765e227008380a380f35b80fd5b9050346101da57806003193601126101da5760ff816020936101ac610ed4565b6101b4610eef565b600160a060020a0391821683526005875283832091168252855220549151911615158152f35b5080fd5b9050346101da57816003193601126101da57602090600160a060020a03600754169051908152f35b90915034610270576020366003190112610270578161026c93610259923561024c610247826000526002602052600160a060020a0360406000205416151590565b610fe8565b8152600960205220610def565b9051918291602083526020830190610e94565b0390f35b8280fd5b8390346101da5760803660031901126101da5761028f610ed4565b610297610eef565b9060643567ffffffffffffffff81116102d857366023820112156102d8576102d5938160246102cb93369301359101610f56565b916044359161110c565b80f35b8480fd5b9150346102705780600319360112610270576102f6610ed4565b90602435918215158093036102d857600160a060020a0316928333146103655750338452600560205280842083855260205280842060ff1981541660ff8416179055519081527f17307eab39ab6107e8899845ad3d59bd9653f200f220920489ca2b5937696c3160203392a380f35b6020606492519160e560020a62461bcd028352820152601960248201527f4552433732313a20617070726f766520746f2063616c6c6572000000000000006044820152fd5b8382346101da57816003193601126101da578051908260018054916103ce83610d76565b808652928281169081156104655750600114610409575b5050506103f78261026c940383610db4565b51918291602083526020830190610e94565b94508085527fb10e2d527612073b26eecdfd717e6a320cf44b4afac2b0732d9fcbe2b7fa0cf65b82861061044d575050506103f782602061026c95820101946103e5565b80546020878701810191909152909501948101610430565b61026c9750869350602092506103f794915060ff19168284015215158102820101946103e5565b8382346101da57816003193601126101da57602090600160a060020a03600654169051908152f35b9091503461027057602090816003193601126107805767ffffffffffffffff90803582811161077c573660238201121561077c576104fb9036906024818501359101610f56565b9060019283600854019384600855331561073857610538610532866000526002602052600160a060020a0360406000205416151590565b15611529565b61055b610532866000526002602052600160a060020a0360406000205416151590565b338852600386528688208181540190558488526002865286882033600160a060020a03198254161790558433897fddf252ad1be2c89b69c2b068fc378daa952ba7f163c4a11628f55a4df523b3ef8180a46009865286882092845192831161072257506105c88354610d76565b601f81116106de575b508590601f8311600114610655575091817fc838a7fd61cef6ed117ca9829550cd25002c8912a0846c98e8b6ea66a79a80d89695949261063d948a9161064a575b50816002029160080260020a6000190419161790555b60608651943086528501526060840190610e94565b938201528033930390a280f35b905083015138610612565b838952868920909291601f1983168a5b8181106106c95750927fc838a7fd61cef6ed117ca9829550cd25002c8912a0846c98e8b6ea66a79a80d898979694926002928261063d9896106106ae575b505002019055610628565b8601516008601f841602840a600019041916905538806106a3565b87830151845592850192918901918901610665565b8389528689208780601f860104820192818610610718575b601f0104019082905b82811061070d5750506105d1565b8a81550182906106ff565b91925082916106f6565b88604160249260e060020a634e487b7102835252fd5b60648387808a519260e560020a62461bcd02845283015260248201527f4552433732313a206d696e7420746f20746865207a65726f20616464726573736044820152fd5b8580fd5b8380fd5b91503461027057826003193601126102705760075491600160a060020a039133838516036107f3575050600160a060020a03198092166007556006549133908316176006553391167f8be0079c531659141344cd1fd0a4f28419497f9722a3daafe3b4186f6b6457e08380a380f35b906020608492519160e560020a62461bcd028352820152602960248201527f4f776e61626c6532537465703a2063616c6c6572206973206e6f74207468652060448201527f6e6577206f776e657200000000000000000000000000000000000000000000006064820152fd5b8334610189578060031936011261018957610878610f8d565b80600160a060020a0380198060075416600755600654908116600655167f8be0079c531659141344cd1fd0a4f28419497f9722a3daafe3b4186f6b6457e08280a380f35b8390346101da5760203660031901126101da57600160a060020a036108df610ed4565b169081156108fc5760208480858581526003845220549051908152f35b608490602085519160e560020a62461bcd028352820152602960248201527f4552433732313a2061646472657373207a65726f206973206e6f74206120766160448201527f6c6964206f776e657200000000000000000000000000000000000000000000006064820152fd5b9083346101895760203660031901126101895750600160a060020a0361099060209335611036565b915191168152f35b8382346101da576109a836610f05565b91835193602085019085821067ffffffffffffffff8311176109d3576102d59697505285845261110c565b60248760418a60e060020a634e487b7102835252fd5b8334610189576102d56109fb36610f05565b91610a0e610a0984336111b5565b611098565b611297565b90915034610270578160031936011261027057610a2e610ed4565b9060243592600160a060020a03918280610a4787611036565b16941693808514610b4357803314908115610b24575b5015610ab9578486526020528420805473ffffffffffffffffffffffffffffffffffffffff191683179055610a9183611036565b167f8c5be1e5ebec7d5bd14f71427d1e84f3dd0314c0f7b2291e5b200ac8c7c3b9258480a480f35b6020608492519160e560020a62461bcd028352820152603d60248201527f4552433732313a20617070726f76652063616c6c6572206973206e6f7420746f60448201527f6b656e206f776e6572206f7220617070726f76656420666f7220616c6c0000006064820152fd5b90508652600560205281862033875260205260ff828720541638610a5d565b506020608492519160e560020a62461bcd028352820152602160248201527f4552433732313a20617070726f76616c20746f2063757272656e74206f776e6560448201527f72000000000000000000000000000000000000000000000000000000000000006064820152fd5b9083346101895760203660031901126101895750600160a060020a036109906020933561105b565b8382346101da57816003193601126101da57805190828054610bf881610d76565b808552916001918083169081156104655750600114610c23575050506103f78261026c940383610db4565b80809650527f290decd9548b62a8d60345a988386fc84ba6bc95484008f6362f93160ef3e5635b828610610c67575050506103f782602061026c95820101946103e5565b80546020878701810191909152909501948101610c4a565b90915034610270576020366003190112610270578161026c9361025992358152600960205220610def565b84913461027057602036600319011261027057357bffffffffffffffffffffffffffffffffffffffffffffffffffffffff19811680910361027057602092507f80ac58cd000000000000000000000000000000000000000000000000000000008114908115610d4c575b8115610d22575b5015158152f35b7f01ffc9a70000000000000000000000000000000000000000000000000000000091501483610d1b565b7f5b5e139f0000000000000000000000000000000000000000000000000000000081149150610d14565b9060016002830492168015610daa575b6020831014610d9157565b60e060020a634e487b7102600052602260045260246000fd5b91607f1691610d86565b90601f8019910116810190811067ffffffffffffffff821117610dd657604052565b60e060020a634e487b7102600052604160045260246000fd5b9060405191826000825492610e0384610d76565b908184526001948581169081600014610e725750600114610e2f575b5050610e2d92500383610db4565b565b9093915060005260209081600020936000915b818310610e5a575050610e2d93508201013880610e1f565b85548884018501529485019487945091830191610e42565b915050610e2d94506020925060ff191682840152151581028201013880610e1f565b919082519283825260005b848110610ec0575050826000602080949584010152601f8019910116010190565b602081830181015184830182015201610e9f565b60043590600160a060020a0382168203610eea57565b600080fd5b60243590600160a060020a0382168203610eea57565b6060906003190112610eea57600160a060020a03906004358281168103610eea57916024359081168103610eea579060443590565b67ffffffffffffffff8111610dd657601f01601f191660200190565b929192610f6282610f3a565b91610f706040519384610db4565b829481845281830111610eea578281602093846000960137010152565b600160a060020a03600654163303610fa157565b606460405160e560020a62461bcd02815260206004820152602060248201527f4f776e61626c653a2063616c6c6572206973206e6f7420746865206f776e65726044820152fd5b15610fef57565b606460405160e560020a62461bcd02815260206004820152601860248201527f4552433732313a20696e76616c696420746f6b656e20494400000000000000006044820152fd5b6000526002602052600160a060020a0360406000205416611058811515610fe8565b90565b61107e610247826000526002602052600160a060020a0360406000205416151590565b6000526004602052600160a060020a036040600020541690565b1561109f57565b608460405160e560020a62461bcd02815260206004820152602d60248201527f4552433732313a2063616c6c6572206973206e6f7420746f6b656e206f776e6560448201527f72206f7220617070726f766564000000000000000000000000000000000000006064820152fd5b90611130939291611120610a0984336111b5565b61112b838383611297565b6113c1565b1561113757565b60405160e560020a62461bcd0281528061115360048201611157565b0390fd5b60809060208152603260208201527f4552433732313a207472616e7366657220746f206e6f6e20455243373231526560408201527f63656976657220696d706c656d656e746572000000000000000000000000000060608201520190565b90600160a060020a0380806111c984611036565b169316918383149384156111fc575b5083156111e6575b50505090565b6111f29192935061105b565b16143880806111e0565b909350600052600560205260406000208260005260205260ff6040600020541692386111d8565b1561122a57565b608460405160e560020a62461bcd02815260206004820152602560248201527f4552433732313a207472616e736665722066726f6d20696e636f72726563742060448201527f6f776e65720000000000000000000000000000000000000000000000000000006064820152fd5b906112bf916112a584611036565b91600160a060020a03938493848094169485911614611223565b1691821561135557816112dc916112d586611036565b1614611223565b7fddf252ad1be2c89b69c2b068fc378daa952ba7f163c4a11628f55a4df523b3ef6000848152600460205260408120600160a060020a03199081815416905583825260036020526040822060001981540190558482526040822060018154019055858252600260205284604083209182541617905580a4565b608460405160e560020a62461bcd028152602060048201526024808201527f4552433732313a207472616e7366657220746f20746865207a65726f2061646460448201527f72657373000000000000000000000000000000000000000000000000000000006064820152fd5b9293600093909291803b1561151e5794849161143596604051809481937f150b7a020000000000000000000000000000000000000000000000000000000097888452336004850152600160a060020a0380921660248501526044840152608060648401528260209b8c976084830190610e94565b0393165af18491816114c9575b506114a3575050503d60001461149b573d61145c81610f3a565b9061146a6040519283610db4565b81528091833d92013e5b805191826114985760405160e560020a62461bcd0281528061115360048201611157565b01fd5b506060611474565b7bffffffffffffffffffffffffffffffffffffffffffffffffffffffff19161492509050565b9091508581813d8311611517575b6114e18183610db4565b810103126102d857517bffffffffffffffffffffffffffffffffffffffffffffffffffffffff19811681036102d8579038611442565b503d6114d7565b505050915050600190565b1561153057565b606460405160e560020a62461bcd02815260206004820152601c60248201527f4552433732313a20746f6b656e20616c7265616479206d696e746564000000006044820152fdfea26469706673582212203d275268f9eb83851a6ca85dc197742b55e51fbfb9d7a2edc65df9e4c7104a7164736f6c63430008110033",
  "immutableReferences": {},
  "source": "// SPDX-License-Identifier: MIT\r\npragma solidity ^0.8.17;\r\n\r\nimport \"@openzeppelin/contracts/utils/Counters.sol\";\r\nimport \"@openzeppelin/contracts/token/ERC721/ERC721.sol\";\r\nimport \"@openzeppelin/contracts/access/Ownable2Step.sol\";\r\n\r\ncontract WhirlFaucet is ERC721, Ownable2Step {\r\n    using Counters for Counters.Counter;\r\n\r\n    Counters.Counter private _tokenId;\r\n\r\n    mapping(uint256 => string) public _tokenURIS;\r\n\r\n    event NFTMinted(\r\n        address indexed owner,\r\n        address tokenAddress,\r\n        string tokenUri,\r\n        uint256 tokenId\r\n    );\r\n\r\n    constructor(\r\n        string memory name_,\r\n        string memory symbol_\r\n    ) ERC721(name_, symbol_) Ownable2Step() {}\r\n\r\n    function getFreeNft(string memory uri) external {\r\n        _tokenId.increment();\r\n        uint256 tokenId = _tokenId.current();\r\n\r\n        _mint(_msgSender(), tokenId);\r\n        _tokenURIS[tokenId] = uri;\r\n\r\n        emit NFTMinted(_msgSender(), address(this), uri, tokenId);\r\n    }\r\n\r\n    function tokenURI(\r\n        uint256 tokenId\r\n    ) public view virtual override returns (string memory) {\r\n        _requireMinted(tokenId);\r\n        return _tokenURIS[tokenId];\r\n    }\r\n}\r\n",
  "sourcePath": "C:\\Users\\DELL\\Documents\\w3link\\solidity\\contracts\\whirl\\WhirlFaucet.sol",
  "compiler": {
    "name": "solc",
    "version": "0.8.17+commit.8df45f5f.Emscripten.clang"
  },
  "schemaVersion": "3.4.11",
  "updatedAt": "2023-09-25T08:43:50.685Z",
  "networkType": "ethereum",
  "devdoc": {
    "kind": "dev",
    "methods": {
      "acceptOwnership()": {
        "details": "The new owner accepts the ownership transfer."
      },
      "approve(address,uint256)": {
        "details": "See {IERC721-approve}."
      },
      "balanceOf(address)": {
        "details": "See {IERC721-balanceOf}."
      },
      "getApproved(uint256)": {
        "details": "See {IERC721-getApproved}."
      },
      "isApprovedForAll(address,address)": {
        "details": "See {IERC721-isApprovedForAll}."
      },
      "name()": {
        "details": "See {IERC721Metadata-name}."
      },
      "owner()": {
        "details": "Returns the address of the current owner."
      },
      "ownerOf(uint256)": {
        "details": "See {IERC721-ownerOf}."
      },
      "pendingOwner()": {
        "details": "Returns the address of the pending owner."
      },
      "renounceOwnership()": {
        "details": "Leaves the contract without owner. It will not be possible to call `onlyOwner` functions. Can only be called by the current owner. NOTE: Renouncing ownership will leave the contract without an owner, thereby disabling any functionality that is only available to the owner."
      },
      "safeTransferFrom(address,address,uint256)": {
        "details": "See {IERC721-safeTransferFrom}."
      },
      "safeTransferFrom(address,address,uint256,bytes)": {
        "details": "See {IERC721-safeTransferFrom}."
      },
      "setApprovalForAll(address,bool)": {
        "details": "See {IERC721-setApprovalForAll}."
      },
      "supportsInterface(bytes4)": {
        "details": "See {IERC165-supportsInterface}."
      },
      "symbol()": {
        "details": "See {IERC721Metadata-symbol}."
      },
      "tokenURI(uint256)": {
        "details": "See {IERC721Metadata-tokenURI}."
      },
      "transferFrom(address,address,uint256)": {
        "details": "See {IERC721-transferFrom}."
      },
      "transferOwnership(address)": {
        "details": "Starts the ownership transfer of the contract to a new account. Replaces the pending transfer if there is one. Can only be called by the current owner."
      }
    },
    "version": 1
  },
  "userdoc": {
    "kind": "user",
    "methods": {},
    "version": 1
  }
}