{
  "contractName": "AnyApiUint",
  "abi": [
    {
      "inputs": [
        {
          "internalType": "address",
          "name": "w3link_",
          "type": "address"
        },
        {
          "internalType": "address",
          "name": "oracle_",
          "type": "address"
        }
      ],
      "stateMutability": "nonpayable",
      "type": "constructor"
    },
    {
      "anonymous": false,
      "inputs": [
        {
          "indexed": true,
          "internalType": "bytes32",
          "name": "id",
          "type": "bytes32"
        }
      ],
      "name": "ChainlinkCancelled",
      "type": "event"
    },
    {
      "anonymous": false,
      "inputs": [
        {
          "indexed": true,
          "internalType": "bytes32",
          "name": "id",
          "type": "bytes32"
        }
      ],
      "name": "ChainlinkFulfilled",
      "type": "event"
    },
    {
      "anonymous": false,
      "inputs": [
        {
          "indexed": true,
          "internalType": "bytes32",
          "name": "id",
          "type": "bytes32"
        }
      ],
      "name": "ChainlinkRequested",
      "type": "event"
    },
    {
      "anonymous": false,
      "inputs": [
        {
          "indexed": true,
          "internalType": "address",
          "name": "previousOwner",
          "type": "address"
        },
        {
          "indexed": true,
          "internalType": "address",
          "name": "newOwner",
          "type": "address"
        }
      ],
      "name": "OwnershipTransferStarted",
      "type": "event"
    },
    {
      "anonymous": false,
      "inputs": [
        {
          "indexed": true,
          "internalType": "address",
          "name": "previousOwner",
          "type": "address"
        },
        {
          "indexed": true,
          "internalType": "address",
          "name": "newOwner",
          "type": "address"
        }
      ],
      "name": "OwnershipTransferred",
      "type": "event"
    },
    {
      "anonymous": false,
      "inputs": [
        {
          "indexed": true,
          "internalType": "bytes32",
          "name": "requestId",
          "type": "bytes32"
        },
        {
          "indexed": false,
          "internalType": "uint256",
          "name": "data",
          "type": "uint256"
        }
      ],
      "name": "Response",
      "type": "event"
    },
    {
      "inputs": [
        {
          "internalType": "bytes32",
          "name": "",
          "type": "bytes32"
        }
      ],
      "name": "_requests",
      "outputs": [
        {
          "internalType": "uint256",
          "name": "fromChainId",
          "type": "uint256"
        },
        {
          "internalType": "address",
          "name": "fromContractId",
          "type": "address"
        }
      ],
      "stateMutability": "view",
      "type": "function"
    },
    {
      "inputs": [],
      "name": "acceptOwnership",
      "outputs": [],
      "stateMutability": "nonpayable",
      "type": "function"
    },
    {
      "inputs": [],
      "name": "owner",
      "outputs": [
        {
          "internalType": "address",
          "name": "",
          "type": "address"
        }
      ],
      "stateMutability": "view",
      "type": "function"
    },
    {
      "inputs": [],
      "name": "pendingOwner",
      "outputs": [
        {
          "internalType": "address",
          "name": "",
          "type": "address"
        }
      ],
      "stateMutability": "view",
      "type": "function"
    },
    {
      "inputs": [],
      "name": "renounceOwnership",
      "outputs": [],
      "stateMutability": "nonpayable",
      "type": "function"
    },
    {
      "inputs": [
        {
          "internalType": "address",
          "name": "newOwner",
          "type": "address"
        }
      ],
      "name": "transferOwnership",
      "outputs": [],
      "stateMutability": "nonpayable",
      "type": "function"
    },
    {
      "inputs": [
        {
          "internalType": "uint256",
          "name": "fromChainId",
          "type": "uint256"
        },
        {
          "internalType": "bytes",
          "name": "data",
          "type": "bytes"
        },
        {
          "internalType": "bytes32",
          "name": "extra",
          "type": "bytes32"
        }
      ],
      "name": "execute",
      "outputs": [],
      "stateMutability": "nonpayable",
      "type": "function"
    },
    {
      "inputs": [
        {
          "internalType": "bytes32",
          "name": "_requestId",
          "type": "bytes32"
        },
        {
          "internalType": "uint256",
          "name": "_data",
          "type": "uint256"
        }
      ],
      "name": "response",
      "outputs": [],
      "stateMutability": "nonpayable",
      "type": "function"
    },
    {
      "inputs": [
        {
          "internalType": "bytes",
          "name": "data",
          "type": "bytes"
        }
      ],
      "name": "onResult",
      "outputs": [],
      "stateMutability": "nonpayable",
      "type": "function"
    }
  ],
  "bytecode": "0x60808060405234620001715760408162001f17803803809162000023828562000176565b83398101031262000171576200004760206200003f83620001c8565b9201620001c8565b906001600455600160a060020a03199182600754166007556006543384821617600655604051602081600481600160a060020a038098600097823391167f8be0079c531659141344cd1fd0a4f28419497f9722a3daafe3b4186f6b6457e08a80a316808a60085416176008557f79502c550000000000000000000000000000000000000000000000000000000082525afa9182156200016557908185936200011c575b5050168360095416176009551690600354161760035567016345785d8a0000600a55604051611d399081620001de8239f35b915091506020823d82116200015c575b816200013b6020938362000176565b81010312620001595750620001518391620001c8565b3880620000ea565b80fd5b3d91506200012c565b604051903d90823e3d90fd5b600080fd5b90601f8019910116810190811067ffffffffffffffff8211176200019957604052565b7f4e487b7100000000000000000000000000000000000000000000000000000000600052604160045260246000fd5b5190600160a060020a0382168203620001715756fe60806040526004361015610013575b600080fd5b60007c010000000000000000000000000000000000000000000000000000000081350490816307e4312e146100e657508063715018a6146100dd57806379ba5097146100d457806382408bb8146100cb5780638da5cb5b146100c2578063913bebdc146100b9578063d1c4598c146100b0578063e30c3978146100a75763f2fde38b1461009f57600080fd5b61000e610695565b5061000e61065c565b5061000e61061d565b5061000e6104b2565b5061000e61048a565b5061000e610456565b5061000e610251565b5061000e6101f2565b346101e45760403660031901126101e4576004358082526005602052600160a060020a03604083205416330361017f578061014e61013161017c936000526005602052604060002090565b805473ffffffffffffffffffffffffffffffffffffffff19169055565b807f7cc135e0cebb02c3480ae5d74d377283180a2601f8f644edf7987b009316c63a8480a260243590611ac7565b80f35b60e560020a62461bcd026080526020608452602860a4527f536f75726365206d75737420626520746865206f7261636c65206f662074686560c4527f207265717565737400000000000000000000000000000000000000000000000060e45260846080fd5b80fd5b600091031261000e57565b503461000e576000806003193601126101e45761020d610704565b80600160a060020a0380198060075416600755600654908116600655167f8be0079c531659141344cd1fd0a4f28419497f9722a3daafe3b4186f6b6457e08280a380f35b503461000e576000806003193601126101e457600754600160a060020a0333818316036102bd57600160a060020a03198092166007556006549133908316176006553391167f8be0079c531659141344cd1fd0a4f28419497f9722a3daafe3b4186f6b6457e08380a380f35b608460405160e560020a62461bcd02815260206004820152602960248201527f4f776e61626c6532537465703a2063616c6c6572206973206e6f74207468652060448201527f6e6577206f776e657200000000000000000000000000000000000000000000006064820152fd5b507f4e487b7100000000000000000000000000000000000000000000000000000000600052604160045260246000fd5b67ffffffffffffffff811161036e57604052565b61037661032a565b604052565b6040810190811067ffffffffffffffff82111761036e57604052565b6060810190811067ffffffffffffffff82111761036e57604052565b90601f8019910116810190811067ffffffffffffffff82111761036e57604052565b604051906103e28261037b565b565b60209067ffffffffffffffff8111610402575b601f01601f19160190565b61040a61032a565b6103f7565b81601f8201121561000e57803590610426826103e4565b9261043460405194856103b3565b8284526020838301011161000e57816000926020809301838601378301015290565b503461000e57602036600319011261000e5760043567ffffffffffffffff811161000e5761048890369060040161040f565b005b503461000e57600036600319011261000e576020600160a060020a0360065416604051908152f35b503461000e57606036600319011261000e5760243567ffffffffffffffff811161000e576104e490369060040161040f565b6105056104f9600954600160a060020a031690565b600160a060020a031690565b803b1561000e576105f26105b661059f61056d610488956000806105ad976004604051809481937fb11d16fb0000000000000000000000000000000000000000000000000000000083525af18015610610575b6105f7575b50602080825183010191016107d4565b91610591610582989495929830604435610ab6565b9561058b61082f565b8761090e565b610599610868565b8561090e565b6105a76108a1565b83610927565b600a5490610b33565b6105e2600160a060020a036105c96103d5565b946004358652166020850190600160a060020a03169052565b600052600b602052604060002090565b6108da565b8061060461060a9261035a565b806101e7565b3861055d565b61061861075f565b610558565b503461000e57602036600319011261000e57600435600052600b602052604080600020600160a060020a03600182549201541682519182526020820152f35b503461000e57600036600319011261000e576020600160a060020a0360075416604051908152f35b600160a060020a0381160361000e57565b503461000e57602036600319011261000e576004356106b381610684565b6106bb610704565b600160a060020a038091169081600160a060020a03196007541617600755600654167f38d16b8cac22d99fc7c124b9cd0de2d3fa1faef420bfe791d8c362d765e22700600080a3005b600160a060020a0360065416330361071857565b606460405160e560020a62461bcd02815260206004820152602060248201527f4f776e61626c653a2063616c6c6572206973206e6f7420746865206f776e65726044820152fd5b506040513d6000823e3d90fd5b60005b83811061077f5750506000910152565b818101518382015260200161076f565b81601f8201121561000e5780516107a5816103e4565b926107b360405194856103b3565b8184526020828401011161000e576107d1916020808501910161076c565b90565b91909160808184031261000e57805167ffffffffffffffff9081811161000e578461080091840161078f565b93602083015191821161000e5761081891830161078f565b916060604083015161082981610684565b92015190565b6040519061083c8261037b565b600382527f67657400000000000000000000000000000000000000000000000000000000006020830152565b604051906108758261037b565b600482527f70617468000000000000000000000000000000000000000000000000000000006020830152565b604051906108ae8261037b565b600582527f74696d65730000000000000000000000000000000000000000000000000000006020830152565b6001600160a060020a0360206103e29480518555015116910190600160a060020a0316600160a060020a0319825416179055565b60800180516103e2939261092191611a08565b51611a08565b60806109369101918251611a08565b5167ffffffffffffffff1982121561095257906103e29161196a565b67ffffffffffffffff8083131561096e5750906103e29161184f565b600083128061098357506103e2921690610ee9565b91921991600019831216610a1b575b8116601781116109b1575090602060ff6109ae93161790611489565b50565b905060ff81116109ce57816109c86109ae9361106c565b506117da565b61ffff81116109ea57816109e46109ae9361101b565b50611764565b63ffffffff8111610a085781610a026109ae93610fca565b506116ec565b81610a156109ae93610f5e565b50611666565b610a23610c16565b610992565b604051906040820182811067ffffffffffffffff821117610a54575b6040526000602083606081520152565b610a5c61032a565b610a44565b6040519060a0820182811067ffffffffffffffff821117610aa9575b60405281600081526000602082015260006040820152600060608201526080610aa4610a28565b910152565b610ab161032a565b610a7d565b90600160a060020a0390610ac8610a61565b50610ad1610a61565b92610ada610a61565b506101206080850151610aeb610a28565b506101006020820152604051809152600081520160405283521660208201527f07e4312e00000000000000000000000000000000000000000000000000000000604082015290565b6107d191600160a060020a03600354166004549060018201808311610c09575b600455610c048451610bf660807fffffffff00000000000000000000000000000000000000000000000000000000604089015116970151516040519788937f404299460000000000000000000000000000000000000000000000000000000060208601526000602486015260006044860152606485015230608485015260a48401528560c4840152600160e4840152610100610104840152610124830190610c69565b03601f1981018652856103b3565b610d3f565b610c11610c16565b610b53565b507f4e487b7100000000000000000000000000000000000000000000000000000000600052601160045260246000fd5b9060208201809211610c5457565b6103e2610c16565b91908201809211610c5457565b90602091610c828151809281855285808601910161076c565b601f01601f1916010190565b9081602091031261000e5751801515810361000e5790565b6107d19392600160a060020a0360609316825260208201528160408201520190610c69565b15610cd257565b608460405160e560020a62461bcd02815260206004820152602360248201527f756e61626c6520746f207472616e73666572416e6443616c6c20746f206f726160448201527f636c6500000000000000000000000000000000000000000000000000000000006064820152fd5b6103e2929493602091610e2093604051848101916c0100000000000000000000000030028352603482015260348152610d7781610397565b51902096610dae82610d938a6000526005602052604060002090565b90600160a060020a0316600160a060020a0319825416179055565b60006040518096819582948c7fb5e6e01e79f91267dc17b4e6314d5d4d03593d2ceee0fbb452b750bd70ea5af98680a2610df36104f9600254600160a060020a031690565b967f4000aea000000000000000000000000000000000000000000000000000000000855260048501610ca6565b03925af1908115610e68575b600091610e3a575b50610ccb565b610e5b915060203d8111610e61575b610e5381836103b3565b810190610c8e565b38610e34565b503d610e49565b610e7061075f565b610e2c565b601f19810191908211610c5457565b90610e8d610a28565b50601f811680610eb3575b50806020830152604051808352600081520160200160405290565b60200360208111610edc575b8101809111610ecf575b38610e98565b610ed7610c16565b610ec9565b610ee4610c16565b610ebf565b9067ffffffffffffffff811660178111610f0c57509060ff6109ae921690611489565b905060ff8111610f2357816109c86109ae936111b0565b61ffff8111610f3957816109e46109ae9361115f565b63ffffffff8111610f515781610a026109ae9361110e565b81610a156109ae936110bd565b610f66610a28565b50805151610f72610a28565b50602082015180821015610fa4575b50815190815181603b602083948601015314610f9c57505090565b600101905290565b610fb0610fc3916114ed565b610fbc84519185610e84565b5083611577565b5038610f81565b610fd2610a28565b50805151610fde610a28565b50602082015180821015611008575b50815190815181603a602083948601015314610f9c57505090565b610fb0611014916114ed565b5038610fed565b611023610a28565b5080515161102f610a28565b50602082015180821015611059575b508151908151816039602083948601015314610f9c57505090565b610fb0611065916114ed565b503861103e565b611074610a28565b50805151611080610a28565b506020820151808210156110aa575b508151908151816038602083948601015314610f9c57505090565b610fb06110b6916114ed565b503861108f565b6110c5610a28565b508051516110d1610a28565b506020820151808210156110fb575b50815190815181601b602083948601015314610f9c57505090565b610fb0611107916114ed565b50386110e0565b611116610a28565b50805151611122610a28565b5060208201518082101561114c575b50815190815181601a602083948601015314610f9c57505090565b610fb0611158916114ed565b5038611131565b611167610a28565b50805151611173610a28565b5060208201518082101561119d575b508151908151816019602083948601015314610f9c57505090565b610fb06111a9916114ed565b5038611182565b6111b8610a28565b508051516111c4610a28565b506020820151808210156111ee575b508151908151816018602083948601015314610f9c57505090565b610fb06111fa916114ed565b50386111d3565b611209610a28565b50805151611215610a28565b5060208201518082101561123f575b50815190815181605b602083948601015314610f9c57505090565b610fb061124b916114ed565b5038611224565b61125a610a28565b50805151611266610a28565b50602082015180821015611290575b50815190815181605a602083948601015314610f9c57505090565b610fb061129c916114ed565b5038611275565b6112ab610a28565b508051516112b7610a28565b506020820151808210156112e1575b508151908151816059602083948601015314610f9c57505090565b610fb06112ed916114ed565b50386112c6565b6112fc610a28565b50805151611308610a28565b50602082015180821015611332575b508151908151816058602083948601015314610f9c57505090565b610fb061133e916114ed565b5038611317565b61134d610a28565b50805151611359610a28565b50602082015180821015611383575b50815190815181607b602083948601015314610f9c57505090565b610fb061138f916114ed565b5038611368565b61139e610a28565b508051516113aa610a28565b506020820151808210156113d4575b50815190815181607a602083948601015314610f9c57505090565b610fb06113e0916114ed565b50386113b9565b6113ef610a28565b508051516113fb610a28565b50602082015180821015611425575b508151908151816079602083948601015314610f9c57505090565b610fb0611431916114ed565b503861140a565b611440610a28565b5080515161144c610a28565b50602082015180821015611476575b508151908151816078602083948601015314610f9c57505090565b610fb0611482916114ed565b503861145b565b90611492610a28565b5081515161149e610a28565b506020830151808210156114c7575b5082519182519182916020828601015314610f9c57505090565b6114d36114e6916114ed565b6114df85519186610e84565b5084611577565b50386114ad565b90600282029180830460021490151715610c5457565b906109ae9180519180611514610a28565b50601f81168061153d575b50508060208301526040518083526000815201602001604052611577565b9091506020036020811161156a575b810180911161155d575b388061151f565b611565610c16565b611556565b611572610c16565b61154c565b90611580610a28565b5081515190805190611590610a28565b5061159e815183111561164f565b6115a88284610c5c565b602091829182870151809111611624575b508551805190838782010196860191821161161c575b505001915b818110156115f65760001991036101000a019081199051169082511617905290565b919261161161160b6116179286518152610c46565b94610c46565b92610e75565b6115d4565b5238806115cf565b61164361163e611649926116388989610c5c565b90611656565b6114ed565b87611503565b386115b9565b1561000e57565b818111611661575090565b905090565b9061166f610a28565b508151519061167c610a28565b5081600801806008116116df575b602084015181116116c7575b508251906008838301019067ffffffffffffffff198251161790526008815192019182116116c357505090565b5290565b6116d36116d9916114ed565b84611503565b38611696565b6116e7610c16565b61168a565b906116f5610a28565b5081515190611702610a28565b508160040180600411611757575b60208401518111611745575b508251906004838301019063ffffffff198251161790526004815192019182116116c357505090565b6116d3611751916114ed565b3861171c565b61175f610c16565b611710565b9061176d610a28565b508151519061177a610a28565b5081600201806002116117cd575b602084015181116117bb575b508251906002838301019061ffff198251161790526002815192019182116116c357505090565b6116d36117c7916114ed565b38611794565b6117d5610c16565b611788565b906117e3610a28565b50815151906117f0610a28565b508160010180600111611842575b60208401518111611830575b508251906001838301019060ff198251161790526001815192019182116116c357505090565b6116d361183c916114ed565b3861180a565b61184a610c16565b6117fe565b906103e29161185c610a28565b50805151611868610a28565b506020820151808210156118b7575b5081519081518160c26020839486010153146118ab575b5050604051916020830152602082526118a68261037b565b6118ca565b6001019052388061188e565b610fb06118c3916114ed565b5038611877565b81516109ae92919067ffffffffffffffff8116601781116118fc5750604060ff6118f692161782611489565b50611577565b905060ff811161191a576118f690611913836112f4565b50826117da565b61ffff8111611937576118f690611930836112a3565b5082611764565b63ffffffff8111611956576118f69061194f83611252565b50826116ec565b6118f69061196383611201565b5082611666565b906103e291611977610a28565b50805151611983610a28565b506020820151808210156119f5575b5081519081518160c36020839486010153146119e9575b5050600082199212600019908184128116918413901516176119dc575b604051916020830152602082526118a68261037b565b6119e4610c16565b6119c6565b600101905238806119a9565b610fb0611a01916114ed565b5038611992565b81516109ae92919067ffffffffffffffff811660178111611a345750606060ff6118f692161782611489565b905060ff8111611a4b576118f69061191383611438565b61ffff8111611a61576118f690611930836113e7565b63ffffffff8111611a79576118f69061194f83611396565b6118f69061196383611345565b9081602091031261000e575190565b611abd600093600160a060020a03606094979697168352608060208401526080830190610c69565b9460408201520152565b90611adc82600052600b602052604060002090565b90611b336020611af76104f9600954600160a060020a031690565b84549060405180809581947f39b37ab0000000000000000000000000000000000000000000000000000000008352600483019190602083019252565b03915afa908115611cf6575b600091611cc8575b50611b5d6104f9600854600160a060020a031690565b803b1561000e576000906004604051809481937fd0e30db00000000000000000000000000000000000000000000000000000000083525af18015611cbb575b611ca8575b50611bb76104f9600854600160a060020a031690565b90611bcc6001840154600160a060020a031690565b9260405190611bf582611be785602083019190602083019252565b03601f1981018452836103b3565b5493833b1561000e577fcaff4b03d6053d4348d9a89ffb25a008089c8bb921744e50a8a5746d61a2502d94611c8394611c629360008094604051968795869485937f4964e69900000000000000000000000000000000000000000000000000000000855260048501611a95565b03925af18015611c9b575b611c88575b506040519081529081906020820190565b0390a2565b80610604611c959261035a565b38611c72565b611ca361075f565b611c6d565b80610604611cb59261035a565b38611ba1565b611cc361075f565b611b9c565b611ce9915060203d8111611cef575b611ce181836103b3565b810190611a86565b38611b47565b503d611cd7565b611cfe61075f565b611b3f56fea26469706673582212205871ac46a3ace00d1325f2c7ad958e792993ff2cc15a7dd24998a3a620b08b3264736f6c63430008110033",
  "immutableReferences": {},
  "source": "// SPDX-License-Identifier: MIT\r\npragma solidity ^0.8.7;\r\n\r\nimport \"./../interfaces/IW3Link.sol\";\r\nimport \"./../interfaces/IW3LinkApp.sol\";\r\nimport \"./../interfaces/IW3LinkConfig.sol\";\r\n\r\nimport \"@chainlink/contracts/src/v0.8/ChainlinkClient.sol\";\r\nimport \"@openzeppelin/contracts/access/Ownable2Step.sol\";\r\n\r\ncontract AnyApiUint is ChainlinkClient, Ownable2Step, IW3LinkApp {\r\n    using Chainlink for Chainlink.Request;\r\n\r\n    IW3Link private _w3link;\r\n    IW3LinkConfig private _w3linkConfig;\r\n\r\n    uint256 private _fee;\r\n\r\n    /* requestId --> requestStatus */\r\n    mapping(bytes32 => RequestStatus) public _requests;\r\n\r\n    struct RequestStatus {\r\n        uint256 fromChainId;\r\n        address fromContractId;\r\n    }\r\n\r\n    event Response(bytes32 indexed requestId, uint256 data);\r\n\r\n    constructor(address w3link_, address oracle_) Ownable2Step() {\r\n        _w3link = IW3Link(w3link_);\r\n        _w3linkConfig = IW3LinkConfig(_w3link.config());\r\n\r\n        setChainlinkOracle(oracle_);\r\n        _fee = (1 * LINK_DIVISIBILITY) / 10;\r\n    }\r\n\r\n    function execute(\r\n        uint256 fromChainId,\r\n        bytes memory data,\r\n        bytes32 extra /* jobId */\r\n    ) external override {\r\n        _w3linkConfig.onlyHandler();\r\n        \r\n        (\r\n            string memory url,\r\n            string memory path,\r\n            address fromContractId,\r\n            int256 times\r\n        ) = abi.decode(data, (string, string, address, int256));\r\n\r\n        Chainlink.Request memory req = buildChainlinkRequest(\r\n            extra,\r\n            address(this),\r\n            this.response.selector\r\n        );\r\n\r\n        req.add(\"get\", url);\r\n        req.add(\"path\", path);\r\n        req.addInt(\"times\", times);\r\n\r\n        bytes32 requestId = sendChainlinkRequest(req, _fee);\r\n\r\n        _requests[requestId] = RequestStatus({\r\n            fromChainId: fromChainId,\r\n            fromContractId: fromContractId\r\n        });\r\n    }\r\n\r\n    /* Receive the response in the form of uint256 */\r\n    function response(\r\n        bytes32 _requestId,\r\n        uint256 _data\r\n    ) public recordChainlinkFulfillment(_requestId) {\r\n        RequestStatus storage request = _requests[_requestId];\r\n\r\n        uint256 estFee = _w3linkConfig.fee(request.fromChainId);\r\n        _w3link.deposit{value: estFee}();\r\n\r\n        _w3link.dispatch(\r\n            request.fromContractId,\r\n            abi.encode(_data),\r\n            request.fromChainId,\r\n            \"\" /* no extra */\r\n        );\r\n\r\n        emit Response(_requestId, _data);\r\n    }\r\n\r\n    function onResult(bytes memory data) external override {}\r\n}\r\n",
  "sourcePath": "C:\\Users\\DELL\\Documents\\w3link\\solidity\\contracts\\services\\AnyApiUint.sol",
  "compiler": {
    "name": "solc",
    "version": "0.8.17+commit.8df45f5f.Emscripten.clang"
  },
  "schemaVersion": "3.4.11",
  "updatedAt": "2023-09-23T15:37:51.412Z",
  "devdoc": {
    "kind": "dev",
    "methods": {
      "acceptOwnership()": {
        "details": "The new owner accepts the ownership transfer."
      },
      "owner()": {
        "details": "Returns the address of the current owner."
      },
      "pendingOwner()": {
        "details": "Returns the address of the pending owner."
      },
      "renounceOwnership()": {
        "details": "Leaves the contract without owner. It will not be possible to call `onlyOwner` functions. Can only be called by the current owner. NOTE: Renouncing ownership will leave the contract without an owner, thereby disabling any functionality that is only available to the owner."
      },
      "transferOwnership(address)": {
        "details": "Starts the ownership transfer of the contract to a new account. Replaces the pending transfer if there is one. Can only be called by the current owner."
      }
    },
    "version": 1
  },
  "userdoc": {
    "kind": "user",
    "methods": {},
    "version": 1
  }
}