{
  "contractName": "AnyApiUint",
  "abi": [
    {
      "inputs": [
        {
          "internalType": "address",
          "name": "w3link_",
          "type": "address"
        },
        {
          "internalType": "address",
          "name": "oracle_",
          "type": "address"
        }
      ],
      "stateMutability": "nonpayable",
      "type": "constructor"
    },
    {
      "anonymous": false,
      "inputs": [
        {
          "indexed": true,
          "internalType": "bytes32",
          "name": "id",
          "type": "bytes32"
        }
      ],
      "name": "ChainlinkCancelled",
      "type": "event"
    },
    {
      "anonymous": false,
      "inputs": [
        {
          "indexed": true,
          "internalType": "bytes32",
          "name": "id",
          "type": "bytes32"
        }
      ],
      "name": "ChainlinkFulfilled",
      "type": "event"
    },
    {
      "anonymous": false,
      "inputs": [
        {
          "indexed": true,
          "internalType": "bytes32",
          "name": "id",
          "type": "bytes32"
        }
      ],
      "name": "ChainlinkRequested",
      "type": "event"
    },
    {
      "anonymous": false,
      "inputs": [
        {
          "indexed": true,
          "internalType": "address",
          "name": "previousOwner",
          "type": "address"
        },
        {
          "indexed": true,
          "internalType": "address",
          "name": "newOwner",
          "type": "address"
        }
      ],
      "name": "OwnershipTransferStarted",
      "type": "event"
    },
    {
      "anonymous": false,
      "inputs": [
        {
          "indexed": true,
          "internalType": "address",
          "name": "previousOwner",
          "type": "address"
        },
        {
          "indexed": true,
          "internalType": "address",
          "name": "newOwner",
          "type": "address"
        }
      ],
      "name": "OwnershipTransferred",
      "type": "event"
    },
    {
      "anonymous": false,
      "inputs": [
        {
          "indexed": true,
          "internalType": "bytes32",
          "name": "requestId",
          "type": "bytes32"
        },
        {
          "indexed": false,
          "internalType": "uint256",
          "name": "data",
          "type": "uint256"
        }
      ],
      "name": "Response",
      "type": "event"
    },
    {
      "inputs": [
        {
          "internalType": "bytes32",
          "name": "",
          "type": "bytes32"
        }
      ],
      "name": "_requests",
      "outputs": [
        {
          "internalType": "uint256",
          "name": "fromChainId",
          "type": "uint256"
        },
        {
          "internalType": "address",
          "name": "fromContractId",
          "type": "address"
        }
      ],
      "stateMutability": "view",
      "type": "function"
    },
    {
      "inputs": [],
      "name": "acceptOwnership",
      "outputs": [],
      "stateMutability": "nonpayable",
      "type": "function"
    },
    {
      "inputs": [],
      "name": "owner",
      "outputs": [
        {
          "internalType": "address",
          "name": "",
          "type": "address"
        }
      ],
      "stateMutability": "view",
      "type": "function"
    },
    {
      "inputs": [],
      "name": "pendingOwner",
      "outputs": [
        {
          "internalType": "address",
          "name": "",
          "type": "address"
        }
      ],
      "stateMutability": "view",
      "type": "function"
    },
    {
      "inputs": [],
      "name": "renounceOwnership",
      "outputs": [],
      "stateMutability": "nonpayable",
      "type": "function"
    },
    {
      "inputs": [
        {
          "internalType": "address",
          "name": "newOwner",
          "type": "address"
        }
      ],
      "name": "transferOwnership",
      "outputs": [],
      "stateMutability": "nonpayable",
      "type": "function"
    },
    {
      "inputs": [
        {
          "internalType": "uint256",
          "name": "fromChainId",
          "type": "uint256"
        },
        {
          "internalType": "bytes",
          "name": "data",
          "type": "bytes"
        },
        {
          "internalType": "bytes32",
          "name": "extra",
          "type": "bytes32"
        }
      ],
      "name": "execute",
      "outputs": [],
      "stateMutability": "nonpayable",
      "type": "function"
    },
    {
      "inputs": [
        {
          "internalType": "bytes32",
          "name": "_requestId",
          "type": "bytes32"
        },
        {
          "internalType": "uint256",
          "name": "_data",
          "type": "uint256"
        }
      ],
      "name": "response",
      "outputs": [],
      "stateMutability": "nonpayable",
      "type": "function"
    },
    {
      "inputs": [
        {
          "internalType": "bytes",
          "name": "data",
          "type": "bytes"
        }
      ],
      "name": "onResult",
      "outputs": [],
      "stateMutability": "nonpayable",
      "type": "function"
    }
  ],
  "bytecode": "0x608060405260016004553480156200001657600080fd5b50604051620027e8380380620027e883398181016040528101906200003c91906200036f565b6200005c62000050620001b560201b60201c565b620001bd60201b60201c565b81600860006101000a81548173ffffffffffffffffffffffffffffffffffffffff021916908373ffffffffffffffffffffffffffffffffffffffff160217905550600860009054906101000a900473ffffffffffffffffffffffffffffffffffffffff1673ffffffffffffffffffffffffffffffffffffffff166379502c556040518163ffffffff1660e01b8152600401602060405180830381865afa1580156200010b573d6000803e3d6000fd5b505050506040513d601f19601f82011682018060405250810190620001319190620003b6565b600960006101000a81548173ffffffffffffffffffffffffffffffffffffffff021916908373ffffffffffffffffffffffffffffffffffffffff1602179055506200018281620001fb60201b60201c565b600a670de0b6b3a764000060016200019b919062000421565b620001a791906200049b565b600a819055505050620004d3565b600033905090565b600760006101000a81549073ffffffffffffffffffffffffffffffffffffffff0219169055620001f8816200023f60201b6200088f1760201c565b50565b80600360006101000a81548173ffffffffffffffffffffffffffffffffffffffff021916908373ffffffffffffffffffffffffffffffffffffffff16021790555050565b6000600660009054906101000a900473ffffffffffffffffffffffffffffffffffffffff16905081600660006101000a81548173ffffffffffffffffffffffffffffffffffffffff021916908373ffffffffffffffffffffffffffffffffffffffff1602179055508173ffffffffffffffffffffffffffffffffffffffff168173ffffffffffffffffffffffffffffffffffffffff167f8be0079c531659141344cd1fd0a4f28419497f9722a3daafe3b4186f6b6457e060405160405180910390a35050565b600080fd5b600073ffffffffffffffffffffffffffffffffffffffff82169050919050565b600062000337826200030a565b9050919050565b62000349816200032a565b81146200035557600080fd5b50565b60008151905062000369816200033e565b92915050565b6000806040838503121562000389576200038862000305565b5b6000620003998582860162000358565b9250506020620003ac8582860162000358565b9150509250929050565b600060208284031215620003cf57620003ce62000305565b5b6000620003df8482850162000358565b91505092915050565b6000819050919050565b7f4e487b7100000000000000000000000000000000000000000000000000000000600052601160045260246000fd5b60006200042e82620003e8565b91506200043b83620003e8565b92508282026200044b81620003e8565b91508282048414831517620004655762000464620003f2565b5b5092915050565b7f4e487b7100000000000000000000000000000000000000000000000000000000600052601260045260246000fd5b6000620004a882620003e8565b9150620004b583620003e8565b925082620004c857620004c76200046c565b5b828204905092915050565b61230580620004e36000396000f3fe608060405234801561001057600080fd5b50600436106100935760003560e01c80638da5cb5b116100665780638da5cb5b146100e4578063913bebdc14610102578063d1c4598c1461011e578063e30c39781461014f578063f2fde38b1461016d57610093565b806307e4312e14610098578063715018a6146100b457806379ba5097146100be57806382408bb8146100c8575b600080fd5b6100b260048036038101906100ad9190611512565b610189565b005b6100bc6104e3565b005b6100c66104f7565b005b6100e260048036038101906100dd9190611698565b610584565b005b6100ec610587565b6040516100f99190611722565b60405180910390f35b61011c6004803603810190610117919061173d565b6105b1565b005b610138600480360381019061013391906117ac565b610774565b6040516101469291906117e8565b60405180910390f35b6101576107b8565b6040516101649190611722565b60405180910390f35b6101876004803603810190610182919061183d565b6107e2565b005b816005600082815260200190815260200160002060009054906101000a900473ffffffffffffffffffffffffffffffffffffffff1673ffffffffffffffffffffffffffffffffffffffff163373ffffffffffffffffffffffffffffffffffffffff161461022b576040517f08c379a0000000000000000000000000000000000000000000000000000000008152600401610222906118ed565b60405180910390fd5b6005600082815260200190815260200160002060006101000a81549073ffffffffffffffffffffffffffffffffffffffff0219169055807f7cc135e0cebb02c3480ae5d74d377283180a2601f8f644edf7987b009316c63a60405160405180910390a26000600b600085815260200190815260200160002090506000600960009054906101000a900473ffffffffffffffffffffffffffffffffffffffff1673ffffffffffffffffffffffffffffffffffffffff166339b37ab083600001546040518263ffffffff1660e01b8152600401610306919061190d565b602060405180830381865afa158015610323573d6000803e3d6000fd5b505050506040513d601f19601f82011682018060405250810190610347919061193d565b9050600860009054906101000a900473ffffffffffffffffffffffffffffffffffffffff1673ffffffffffffffffffffffffffffffffffffffff1663d0e30db0826040518263ffffffff1660e01b81526004016000604051808303818588803b1580156103b357600080fd5b505af11580156103c7573d6000803e3d6000fd5b5050505050600860009054906101000a900473ffffffffffffffffffffffffffffffffffffffff1673ffffffffffffffffffffffffffffffffffffffff16634964e6998360010160009054906101000a900473ffffffffffffffffffffffffffffffffffffffff1686604051602001610440919061190d565b60405160208183030381529060405285600001546040518463ffffffff1660e01b8152600401610472939291906119f0565b600060405180830381600087803b15801561048c57600080fd5b505af11580156104a0573d6000803e3d6000fd5b50505050847fcaff4b03d6053d4348d9a89ffb25a008089c8bb921744e50a8a5746d61a2502d856040516104d4919061190d565b60405180910390a25050505050565b6104eb610955565b6104f560006109d3565b565b6000610501610a04565b90508073ffffffffffffffffffffffffffffffffffffffff166105226107b8565b73ffffffffffffffffffffffffffffffffffffffff1614610578576040517f08c379a000000000000000000000000000000000000000000000000000000000815260040161056f90611aac565b60405180910390fd5b610581816109d3565b50565b50565b6000600660009054906101000a900473ffffffffffffffffffffffffffffffffffffffff16905090565b600080600080858060200190518101906105cb9190611be1565b935093509350935060006105e786306307e4312e60e01b610a0c565b90506106336040518060400160405280600381526020017f67657400000000000000000000000000000000000000000000000000000000008152508683610a3d9092919063ffffffff16565b61067d6040518060400160405280600481526020017f70617468000000000000000000000000000000000000000000000000000000008152508583610a3d9092919063ffffffff16565b6106c76040518060400160405280600581526020017f74696d65730000000000000000000000000000000000000000000000000000008152508383610a709092919063ffffffff16565b60006106d582600a54610aa3565b905060405180604001604052808a81526020018573ffffffffffffffffffffffffffffffffffffffff16815250600b60008381526020019081526020016000206000820151816000015560208201518160010160006101000a81548173ffffffffffffffffffffffffffffffffffffffff021916908373ffffffffffffffffffffffffffffffffffffffff160217905550905050505050505050505050565b600b6020528060005260406000206000915090508060000154908060010160009054906101000a900473ffffffffffffffffffffffffffffffffffffffff16905082565b6000600760009054906101000a900473ffffffffffffffffffffffffffffffffffffffff16905090565b6107ea610955565b80600760006101000a81548173ffffffffffffffffffffffffffffffffffffffff021916908373ffffffffffffffffffffffffffffffffffffffff1602179055508073ffffffffffffffffffffffffffffffffffffffff1661084a610587565b73ffffffffffffffffffffffffffffffffffffffff167f38d16b8cac22d99fc7c124b9cd0de2d3fa1faef420bfe791d8c362d765e2270060405160405180910390a350565b6000600660009054906101000a900473ffffffffffffffffffffffffffffffffffffffff16905081600660006101000a81548173ffffffffffffffffffffffffffffffffffffffff021916908373ffffffffffffffffffffffffffffffffffffffff1602179055508173ffffffffffffffffffffffffffffffffffffffff168173ffffffffffffffffffffffffffffffffffffffff167f8be0079c531659141344cd1fd0a4f28419497f9722a3daafe3b4186f6b6457e060405160405180910390a35050565b61095d610a04565b73ffffffffffffffffffffffffffffffffffffffff1661097b610587565b73ffffffffffffffffffffffffffffffffffffffff16146109d1576040517f08c379a00000000000000000000000000000000000000000000000000000000081526004016109c890611ccc565b60405180910390fd5b565b600760006101000a81549073ffffffffffffffffffffffffffffffffffffffff0219169055610a018161088f565b50565b600033905090565b610a1461140b565b610a1c61140b565b610a3385858584610ada909392919063ffffffff16565b9150509392505050565b610a54828460800151610b8a90919063ffffffff16565b610a6b818460800151610b8a90919063ffffffff16565b505050565b610a87828460800151610b8a90919063ffffffff16565b610a9e818460800151610baf90919063ffffffff16565b505050565b6000610ad2600360009054906101000a900473ffffffffffffffffffffffffffffffffffffffff168484610c5c565b905092915050565b610ae261140b565b610af28560800151610100610d28565b508385600001818152505082856020019073ffffffffffffffffffffffffffffffffffffffff16908173ffffffffffffffffffffffffffffffffffffffff16815250508185604001907bffffffffffffffffffffffffffffffffffffffffffffffffffffffff191690817bffffffffffffffffffffffffffffffffffffffffffffffffffffffff191681525050849050949350505050565b610b978260038351610d92565b610baa8183610f1790919063ffffffff16565b505050565b7fffffffffffffffffffffffffffffffffffffffffffffffff0000000000000000811215610be657610be18282610f39565b610c58565b67ffffffffffffffff811315610c0557610c008282610fb0565b610c57565b60008112610c1e57610c1982600083610d92565b610c56565b610c55826001837fffffffffffffffffffffffffffffffffffffffffffffffffffffffffffffffff610c509190611d1b565b610d92565b5b5b5b5050565b6000806004549050600181610c719190611d5e565b6004819055506000634042994660e01b60008087600001513089604001518760018c6080015160000151604051602401610cb2989796959493929190611ddc565b604051602081830303815290604052907bffffffffffffffffffffffffffffffffffffffffffffffffffffffff19166020820180517bffffffffffffffffffffffffffffffffffffffffffffffffffffffff83818316178352505050509050610d1d86838684610ffc565b925050509392505050565b610d30611478565b6000602083610d3f9190611e90565b14610d6b57602082610d519190611e90565b6020610d5d9190611ec1565b82610d689190611d5e565b91505b81836020018181525050604051808452600081528281016020016040525082905092915050565b60178167ffffffffffffffff1611610dc957610dc38160058460ff16901b60ff16178461119190919063ffffffff16565b50610f12565b60ff8167ffffffffffffffff1611610e1f57610df8601860058460ff16901b178461119190919063ffffffff16565b50610e198167ffffffffffffffff166001856111b19092919063ffffffff16565b50610f11565b61ffff8167ffffffffffffffff1611610e7657610e4f601960058460ff16901b178461119190919063ffffffff16565b50610e708167ffffffffffffffff166002856111b19092919063ffffffff16565b50610f10565b63ffffffff8167ffffffffffffffff1611610ecf57610ea8601a60058460ff16901b178461119190919063ffffffff16565b50610ec98167ffffffffffffffff166004856111b19092919063ffffffff16565b50610f0f565b610eec601b60058460ff16901b178461119190919063ffffffff16565b50610f0d8167ffffffffffffffff166008856111b19092919063ffffffff16565b505b5b5b5b505050565b610f1f611478565b610f31838460000151518485516111d3565b905092915050565b610f5760036005600660ff16901b178361119190919063ffffffff16565b50610fac82827fffffffffffffffffffffffffffffffffffffffffffffffffffffffffffffffff610f889190611d1b565b604051602001610f98919061190d565b6040516020818303038152906040526112c2565b5050565b610fce60026005600660ff16901b178361119190919063ffffffff16565b50610ff88282604051602001610fe4919061190d565b6040516020818303038152906040526112c2565b5050565b60003084604051602001611011929190611fae565b604051602081830303815290604052805190602001209050846005600083815260200190815260200160002060006101000a81548173ffffffffffffffffffffffffffffffffffffffff021916908373ffffffffffffffffffffffffffffffffffffffff160217905550807fb5e6e01e79f91267dc17b4e6314d5d4d03593d2ceee0fbb452b750bd70ea5af960405160405180910390a2600260009054906101000a900473ffffffffffffffffffffffffffffffffffffffff1673ffffffffffffffffffffffffffffffffffffffff16634000aea08685856040518463ffffffff1660e01b815260040161110793929190611fda565b6020604051808303816000875af1158015611126573d6000803e3d6000fd5b505050506040513d601f19601f8201168201806040525081019061114a9190612050565b611189576040517f08c379a0000000000000000000000000000000000000000000000000000000008152600401611180906120ef565b60405180910390fd5b949350505050565b611199611478565b6111a983846000015151846112e7565b905092915050565b6111b9611478565b6111ca84856000015151858561133d565b90509392505050565b6111db611478565b82518211156111e957600080fd5b846020015182856111fa9190611d5e565b111561122f5761122e85600261121f8860200151888761121a9190611d5e565b6113cb565b611229919061210f565b6113e7565b5b60008086518051876020830101935080888701111561124e5787860182525b60208701925050505b6020841061129557805182526020826112709190611d5e565b915060208161127f9190611d5e565b905060208461128e9190611ec1565b9350611257565b60006001856020036101000a03905080198251168184511681811785525050508692505050949350505050565b6112cf8260028351610d92565b6112e28183610f1790919063ffffffff16565b505050565b6112ef611478565b8360200151831061131557611314846002866020015161130f919061210f565b6113e7565b5b83518051602085830101848153818603611330576001820183525b5050508390509392505050565b611345611478565b846020015184836113569190611d5e565b111561137e5761137d856002868561136e9190611d5e565b611378919061210f565b6113e7565b5b60006001836101006113909190612284565b61139a9190611ec1565b905085518386820101858319825116178152815185880111156113bd5784870182525b505085915050949350505050565b6000818311156113dd578290506113e1565b8190505b92915050565b6000826000015190506113fa8383610d28565b506114058382610f17565b50505050565b6040518060a0016040528060008019168152602001600073ffffffffffffffffffffffffffffffffffffffff16815260200160007bffffffffffffffffffffffffffffffffffffffffffffffffffffffff1916815260200160008152602001611472611478565b81525090565b604051806040016040528060608152602001600081525090565b6000604051905090565b600080fd5b600080fd5b6000819050919050565b6114b9816114a6565b81146114c457600080fd5b50565b6000813590506114d6816114b0565b92915050565b6000819050919050565b6114ef816114dc565b81146114fa57600080fd5b50565b60008135905061150c816114e6565b92915050565b600080604083850312156115295761152861149c565b5b6000611537858286016114c7565b9250506020611548858286016114fd565b9150509250929050565b600080fd5b600080fd5b6000601f19601f8301169050919050565b7f4e487b7100000000000000000000000000000000000000000000000000000000600052604160045260246000fd5b6115a58261155c565b810181811067ffffffffffffffff821117156115c4576115c361156d565b5b80604052505050565b60006115d7611492565b90506115e3828261159c565b919050565b600067ffffffffffffffff8211156116035761160261156d565b5b61160c8261155c565b9050602081019050919050565b82818337600083830152505050565b600061163b611636846115e8565b6115cd565b90508281526020810184848401111561165757611656611557565b5b611662848285611619565b509392505050565b600082601f83011261167f5761167e611552565b5b813561168f848260208601611628565b91505092915050565b6000602082840312156116ae576116ad61149c565b5b600082013567ffffffffffffffff8111156116cc576116cb6114a1565b5b6116d88482850161166a565b91505092915050565b600073ffffffffffffffffffffffffffffffffffffffff82169050919050565b600061170c826116e1565b9050919050565b61171c81611701565b82525050565b60006020820190506117376000830184611713565b92915050565b6000806000606084860312156117565761175561149c565b5b6000611764868287016114fd565b935050602084013567ffffffffffffffff811115611785576117846114a1565b5b6117918682870161166a565b92505060406117a2868287016114c7565b9150509250925092565b6000602082840312156117c2576117c161149c565b5b60006117d0848285016114c7565b91505092915050565b6117e2816114dc565b82525050565b60006040820190506117fd60008301856117d9565b61180a6020830184611713565b9392505050565b61181a81611701565b811461182557600080fd5b50565b60008135905061183781611811565b92915050565b6000602082840312156118535761185261149c565b5b600061186184828501611828565b91505092915050565b600082825260208201905092915050565b7f536f75726365206d75737420626520746865206f7261636c65206f662074686560008201527f2072657175657374000000000000000000000000000000000000000000000000602082015250565b60006118d760288361186a565b91506118e28261187b565b604082019050919050565b60006020820190508181036000830152611906816118ca565b9050919050565b600060208201905061192260008301846117d9565b92915050565b600081519050611937816114e6565b92915050565b6000602082840312156119535761195261149c565b5b600061196184828501611928565b91505092915050565b600081519050919050565b600082825260208201905092915050565b60005b838110156119a4578082015181840152602081019050611989565b60008484015250505050565b60006119bb8261196a565b6119c58185611975565b93506119d5818560208601611986565b6119de8161155c565b840191505092915050565b6000815250565b6000608082019050611a056000830186611713565b8181036020830152611a1781856119b0565b9050611a2660408301846117d9565b611a32606083016119e9565b949350505050565b7f4f776e61626c6532537465703a2063616c6c6572206973206e6f74207468652060008201527f6e6577206f776e65720000000000000000000000000000000000000000000000602082015250565b6000611a9660298361186a565b9150611aa182611a3a565b604082019050919050565b60006020820190508181036000830152611ac581611a89565b9050919050565b600067ffffffffffffffff821115611ae757611ae661156d565b5b611af08261155c565b9050602081019050919050565b6000611b10611b0b84611acc565b6115cd565b905082815260208101848484011115611b2c57611b2b611557565b5b611b37848285611986565b509392505050565b600082601f830112611b5457611b53611552565b5b8151611b64848260208601611afd565b91505092915050565b6000611b78826116e1565b9050919050565b611b8881611b6d565b8114611b9357600080fd5b50565b600081519050611ba581611b7f565b92915050565b6000819050919050565b611bbe81611bab565b8114611bc957600080fd5b50565b600081519050611bdb81611bb5565b92915050565b60008060008060808587031215611bfb57611bfa61149c565b5b600085015167ffffffffffffffff811115611c1957611c186114a1565b5b611c2587828801611b3f565b945050602085015167ffffffffffffffff811115611c4657611c456114a1565b5b611c5287828801611b3f565b9350506040611c6387828801611b96565b9250506060611c7487828801611bcc565b91505092959194509250565b7f4f776e61626c653a2063616c6c6572206973206e6f7420746865206f776e6572600082015250565b6000611cb660208361186a565b9150611cc182611c80565b602082019050919050565b60006020820190508181036000830152611ce581611ca9565b9050919050565b7f4e487b7100000000000000000000000000000000000000000000000000000000600052601160045260246000fd5b6000611d2682611bab565b9150611d3183611bab565b9250828203905081811260008412168282136000851215161715611d5857611d57611cec565b5b92915050565b6000611d69826114dc565b9150611d74836114dc565b9250828201905080821115611d8c57611d8b611cec565b5b92915050565b611d9b816114a6565b82525050565b60007fffffffff0000000000000000000000000000000000000000000000000000000082169050919050565b611dd681611da1565b82525050565b600061010082019050611df2600083018b611713565b611dff602083018a6117d9565b611e0c6040830189611d92565b611e196060830188611713565b611e266080830187611dcd565b611e3360a08301866117d9565b611e4060c08301856117d9565b81810360e0830152611e5281846119b0565b90509998505050505050505050565b7f4e487b7100000000000000000000000000000000000000000000000000000000600052601260045260246000fd5b6000611e9b826114dc565b9150611ea6836114dc565b925082611eb657611eb5611e61565b5b828206905092915050565b6000611ecc826114dc565b9150611ed7836114dc565b9250828203905081811115611eef57611eee611cec565b5b92915050565b6000819050919050565b6000611f1a611f15611f10846116e1565b611ef5565b6116e1565b9050919050565b6000611f2c82611eff565b9050919050565b6000611f3e82611f21565b9050919050565b60008160601b9050919050565b6000611f5d82611f45565b9050919050565b6000611f6f82611f52565b9050919050565b611f87611f8282611f33565b611f64565b82525050565b6000819050919050565b611fa8611fa3826114dc565b611f8d565b82525050565b6000611fba8285611f76565b601482019150611fca8284611f97565b6020820191508190509392505050565b6000606082019050611fef6000830186611713565b611ffc60208301856117d9565b818103604083015261200e81846119b0565b9050949350505050565b60008115159050919050565b61202d81612018565b811461203857600080fd5b50565b60008151905061204a81612024565b92915050565b6000602082840312156120665761206561149c565b5b60006120748482850161203b565b91505092915050565b7f756e61626c6520746f207472616e73666572416e6443616c6c20746f206f726160008201527f636c650000000000000000000000000000000000000000000000000000000000602082015250565b60006120d960238361186a565b91506120e48261207d565b604082019050919050565b60006020820190508181036000830152612108816120cc565b9050919050565b600061211a826114dc565b9150612125836114dc565b9250828202612133816114dc565b9150828204841483151761214a57612149611cec565b5b5092915050565b60008160011c9050919050565b6000808291508390505b60018511156121a85780860481111561218457612183611cec565b5b60018516156121935780820291505b80810290506121a185612151565b9450612168565b94509492505050565b6000826121c1576001905061227d565b816121cf576000905061227d565b81600181146121e557600281146121ef5761221e565b600191505061227d565b60ff84111561220157612200611cec565b5b8360020a91508482111561221857612217611cec565b5b5061227d565b5060208310610133831016604e8410600b84101617156122535782820a90508381111561224e5761224d611cec565b5b61227d565b612260848484600161215e565b9250905081840481111561227757612276611cec565b5b81810290505b9392505050565b600061228f826114dc565b915061229a836114dc565b92506122c77fffffffffffffffffffffffffffffffffffffffffffffffffffffffffffffffff84846121b1565b90509291505056fea2646970667358221220c9112b4c9ec74d63003238b3e6d43df1d57a9f06161efaa9ef9c90f7c437f9b864736f6c63430008110033",
  "immutableReferences": {},
  "source": "// SPDX-License-Identifier: MIT\r\npragma solidity ^0.8.7;\r\n\r\nimport \"./../interfaces/IW3Link.sol\";\r\nimport \"./../interfaces/IW3LinkApp.sol\";\r\nimport \"./../interfaces/IW3LinkConfig.sol\";\r\n\r\nimport \"@chainlink/contracts/src/v0.8/ChainlinkClient.sol\";\r\nimport \"@openzeppelin/contracts/access/Ownable2Step.sol\";\r\n\r\ncontract AnyApiUint is ChainlinkClient, Ownable2Step, IW3LinkApp {\r\n    using Chainlink for Chainlink.Request;\r\n\r\n    IW3Link private _w3link;\r\n    IW3LinkConfig private _w3linkConfig;\r\n\r\n    uint256 private _fee;\r\n\r\n    /* requestId --> requestStatus */\r\n    mapping(bytes32 => RequestStatus) public _requests;\r\n\r\n    struct RequestStatus {\r\n        uint256 fromChainId;\r\n        address fromContractId;\r\n    }\r\n\r\n    event Response(bytes32 indexed requestId, uint256 data);\r\n\r\n    constructor(address w3link_, address oracle_) Ownable2Step() {\r\n        _w3link = IW3Link(w3link_);\r\n        _w3linkConfig = IW3LinkConfig(_w3link.config());\r\n\r\n        setChainlinkOracle(oracle_);\r\n        _fee = (1 * LINK_DIVISIBILITY) / 10;\r\n    }\r\n\r\n    function execute(\r\n        uint256 fromChainId,\r\n        bytes memory data,\r\n        bytes32 extra /* jobId */\r\n    ) external override {\r\n        (\r\n            string memory url,\r\n            string memory path,\r\n            address fromContractId,\r\n            int256 times\r\n        ) = abi.decode(data, (string, string, address, int256));\r\n\r\n        Chainlink.Request memory req = buildChainlinkRequest(\r\n            extra,\r\n            address(this),\r\n            this.response.selector\r\n        );\r\n\r\n        req.add(\"get\", url);\r\n        req.add(\"path\", path);\r\n        req.addInt(\"times\", times);\r\n\r\n        bytes32 requestId = sendChainlinkRequest(req, _fee);\r\n\r\n        _requests[requestId] = RequestStatus({\r\n            fromChainId: fromChainId,\r\n            fromContractId: fromContractId\r\n        });\r\n    }\r\n\r\n    /* Receive the response in the form of uint256 */\r\n    function response(\r\n        bytes32 _requestId,\r\n        uint256 _data\r\n    ) public recordChainlinkFulfillment(_requestId) {\r\n        RequestStatus storage request = _requests[_requestId];\r\n\r\n        uint256 estFee = _w3linkConfig.fee(request.fromChainId);\r\n        _w3link.deposit{value: estFee}();\r\n\r\n        _w3link.dispatch(\r\n            request.fromContractId,\r\n            abi.encode(_data),\r\n            request.fromChainId,\r\n            \"\" /* no extra */\r\n        );\r\n\r\n        emit Response(_requestId, _data);\r\n    }\r\n\r\n    function onResult(bytes memory data) external override {}\r\n}\r\n",
  "sourcePath": "C:\\Users\\DELL\\Documents\\w3link\\solidity\\contracts\\services\\AnyApiUint.sol",
  "compiler": {
    "name": "solc",
    "version": "0.8.17+commit.8df45f5f.Emscripten.clang"
  },
  "schemaVersion": "3.4.11",
  "updatedAt": "2023-08-27T09:14:53.622Z",
  "devdoc": {
    "kind": "dev",
    "methods": {
      "acceptOwnership()": {
        "details": "The new owner accepts the ownership transfer."
      },
      "owner()": {
        "details": "Returns the address of the current owner."
      },
      "pendingOwner()": {
        "details": "Returns the address of the pending owner."
      },
      "renounceOwnership()": {
        "details": "Leaves the contract without owner. It will not be possible to call `onlyOwner` functions. Can only be called by the current owner. NOTE: Renouncing ownership will leave the contract without an owner, thereby disabling any functionality that is only available to the owner."
      },
      "transferOwnership(address)": {
        "details": "Starts the ownership transfer of the contract to a new account. Replaces the pending transfer if there is one. Can only be called by the current owner."
      }
    },
    "version": 1
  },
  "userdoc": {
    "kind": "user",
    "methods": {},
    "version": 1
  }
}