{
  "contractName": "Signature",
  "abi": [
    {
      "inputs": [
        {
          "internalType": "bytes32",
          "name": "hash",
          "type": "bytes32"
        }
      ],
      "name": "verifyHash",
      "outputs": [
        {
          "internalType": "bool",
          "name": "",
          "type": "bool"
        }
      ],
      "stateMutability": "pure",
      "type": "function"
    },
    {
      "inputs": [
        {
          "internalType": "uint256",
          "name": "dispatchId",
          "type": "uint256"
        }
      ],
      "name": "getHash",
      "outputs": [
        {
          "internalType": "bytes32",
          "name": "",
          "type": "bytes32"
        }
      ],
      "stateMutability": "pure",
      "type": "function"
    }
  ],
  "bytecode": "0x608080604052346100195760b4908161001f823930815050f35b600080fdfe6080806040526004361015601257600080fd5b7c0100000000000000000000000000000000000000000000000000000000600035049081636b2fafa9146069575063ef020f4a14604e57600080fd5b6020366003190112606457602060405160018152f35b600080fd5b60203660031901126064576020906004358152f3fea26469706673582212201b0d2e1dd96fa838dbd13abc5f8ae051f8a92de448b09a20734eacd53a5fe76b64736f6c63430008110033",
  "immutableReferences": {},
  "source": "// SPDX-License-Identifier: MIT\r\npragma solidity ^0.8.17;\r\n\r\nlibrary Signature {\r\n    // @todo\r\n    function verifyHash(bytes32 hash) public pure returns (bool) {\r\n        return true;\r\n    }\r\n    \r\n    // @todo\r\n    function getHash(uint256 dispatchId) public pure returns (bytes32) {\r\n        return bytes32(dispatchId);\r\n    }\r\n}\r\n",
  "sourcePath": "C:\\Users\\DELL\\Documents\\w3link\\solidity\\contracts\\signature\\Signature.sol",
  "compiler": {
    "name": "solc",
    "version": "0.8.17+commit.8df45f5f.Emscripten.clang"
  },
  "schemaVersion": "3.4.11",
  "updatedAt": "2023-09-10T21:42:32.881Z",
  "devdoc": {
    "kind": "dev",
    "methods": {},
    "version": 1
  },
  "userdoc": {
    "kind": "user",
    "methods": {},
    "version": 1
  }
}