{
  "contractName": "Signature",
  "abi": [
    {
      "inputs": [
        {
          "internalType": "bytes32",
          "name": "",
          "type": "bytes32"
        }
      ],
      "name": "verifyHash",
      "outputs": [
        {
          "internalType": "bool",
          "name": "",
          "type": "bool"
        }
      ],
      "stateMutability": "pure",
      "type": "function"
    },
    {
      "inputs": [
        {
          "internalType": "uint256",
          "name": "dispatchId",
          "type": "uint256"
        }
      ],
      "name": "getHash",
      "outputs": [
        {
          "internalType": "bytes32",
          "name": "",
          "type": "bytes32"
        }
      ],
      "stateMutability": "pure",
      "type": "function"
    }
  ],
  "bytecode": "0x608080604052346100155760c2908161001b8239f35b600080fdfe6080806040526004361015601257600080fd5b6000907c01000000000000000000000000000000000000000000000000000000008235049081636b2fafa914606d575063ef020f4a14605057600080fd5b34606a576020366003190112606a57602060405160018152f35b80fd5b90503460885760203660031901126088576020906004358152f35b5080fdfea26469706673582212201798a6fc10756db91762f8901eae000794c62eb8d59a61b452bb628adabc298064736f6c63430008110033",
  "immutableReferences": {},
  "source": "// SPDX-License-Identifier: MIT\r\npragma solidity ^0.8.17;\r\n\r\ncontract Signature {\r\n    function verifyHash(bytes32 /* hash */) public pure virtual returns (bool) {\r\n        return true;\r\n    }\r\n\r\n    function getHash(uint256 dispatchId) public pure virtual returns (bytes32) {\r\n        return bytes32(dispatchId);\r\n    }\r\n}\r\n",
  "sourcePath": "C:\\Users\\DELL\\Documents\\w3link\\solidity\\contracts\\signature\\Signature.sol",
  "compiler": {
    "name": "solc",
    "version": "0.8.17+commit.8df45f5f.Emscripten.clang"
  },
  "schemaVersion": "3.4.11",
  "updatedAt": "2023-09-11T09:03:06.523Z",
  "devdoc": {
    "kind": "dev",
    "methods": {},
    "version": 1
  },
  "userdoc": {
    "kind": "user",
    "methods": {},
    "version": 1
  }
}