{
  "contractName": "TunnelExtension",
  "abi": [
    {
      "inputs": [
        {
          "internalType": "address",
          "name": "w3link_",
          "type": "address"
        }
      ],
      "stateMutability": "nonpayable",
      "type": "constructor"
    },
    {
      "inputs": [
        {
          "internalType": "address",
          "name": "nftContractId",
          "type": "address"
        },
        {
          "internalType": "uint256",
          "name": "tokenId",
          "type": "uint256"
        }
      ],
      "name": "revoke",
      "outputs": [],
      "stateMutability": "payable",
      "type": "function"
    },
    {
      "inputs": [
        {
          "internalType": "uint256",
          "name": "",
          "type": "uint256"
        },
        {
          "internalType": "bytes",
          "name": "data",
          "type": "bytes"
        },
        {
          "internalType": "bytes32",
          "name": "",
          "type": "bytes32"
        }
      ],
      "name": "execute",
      "outputs": [],
      "stateMutability": "nonpayable",
      "type": "function"
    },
    {
      "inputs": [
        {
          "internalType": "bytes",
          "name": "data",
          "type": "bytes"
        }
      ],
      "name": "onResult",
      "outputs": [],
      "stateMutability": "nonpayable",
      "type": "function"
    }
  ],
  "bytecode": "0x60806040523480156200001157600080fd5b506040516200462a3803806200462a8339818101604052810190620000379190620001ba565b806000806101000a81548173ffffffffffffffffffffffffffffffffffffffff021916908373ffffffffffffffffffffffffffffffffffffffff16021790555060008054906101000a900473ffffffffffffffffffffffffffffffffffffffff1673ffffffffffffffffffffffffffffffffffffffff166379502c556040518163ffffffff1660e01b8152600401602060405180830381865afa158015620000e3573d6000803e3d6000fd5b505050506040513d601f19601f82011682018060405250810190620001099190620001ba565b600160006101000a81548173ffffffffffffffffffffffffffffffffffffffff021916908373ffffffffffffffffffffffffffffffffffffffff16021790555050620001ec565b600080fd5b600073ffffffffffffffffffffffffffffffffffffffff82169050919050565b6000620001828262000155565b9050919050565b620001948162000175565b8114620001a057600080fd5b50565b600081519050620001b48162000189565b92915050565b600060208284031215620001d357620001d262000150565b5b6000620001e384828501620001a3565b91505092915050565b61442e80620001fc6000396000f3fe608060405260043610620000385760003560e01c806382408bb8146200003d578063913bebdc146200006b578063eac449d91462000099575b600080fd5b3480156200004a57600080fd5b50620000696004803603810190620000639190620008fc565b620000b9565b005b3480156200007857600080fd5b50620000976004803603810190620000919190620009c3565b620000bc565b005b620000b76004803603810190620000b1919062000aa3565b62000319565b005b50565b60008060008060008087806020019051810190620000db919062000c26565b955095509550955095509550600073ffffffffffffffffffffffffffffffffffffffff16600460008773ffffffffffffffffffffffffffffffffffffffff1673ffffffffffffffffffffffffffffffffffffffff16815260200190815260200160002060009054906101000a900473ffffffffffffffffffffffffffffffffffffffff1673ffffffffffffffffffffffffffffffffffffffff160362000236578383866040516200018c9062000778565b6200019a9392919062000d8d565b604051809103906000f080158015620001b7573d6000803e3d6000fd5b50600460008773ffffffffffffffffffffffffffffffffffffffff1673ffffffffffffffffffffffffffffffffffffffff16815260200190815260200160002060006101000a81548173ffffffffffffffffffffffffffffffffffffffff021916908373ffffffffffffffffffffffffffffffffffffffff1602179055505b6000600460008773ffffffffffffffffffffffffffffffffffffffff1673ffffffffffffffffffffffffffffffffffffffff16815260200190815260200160002060009054906101000a900473ffffffffffffffffffffffffffffffffffffffff1690508073ffffffffffffffffffffffffffffffffffffffff1663d3fc98648389866040518463ffffffff1660e01b8152600401620002d99392919062000de9565b600060405180830381600087803b158015620002f457600080fd5b505af115801562000309573d6000803e3d6000fd5b5050505050505050505050505050565b6000600460008473ffffffffffffffffffffffffffffffffffffffff1673ffffffffffffffffffffffffffffffffffffffff16815260200190815260200160002060009054906101000a900473ffffffffffffffffffffffffffffffffffffffff1690506200038762000770565b73ffffffffffffffffffffffffffffffffffffffff168173ffffffffffffffffffffffffffffffffffffffff16636352211e846040518263ffffffff1660e01b8152600401620003d8919062000e2d565b602060405180830381865afa158015620003f6573d6000803e3d6000fd5b505050506040513d601f19601f820116820180604052508101906200041c919062000e61565b73ffffffffffffffffffffffffffffffffffffffff161462000475576040517f08c379a00000000000000000000000000000000000000000000000000000000081526004016200046c9062000ee3565b60405180910390fd5b8073ffffffffffffffffffffffffffffffffffffffff166342966c68836040518263ffffffff1660e01b8152600401620004b0919062000e2d565b600060405180830381600087803b158015620004cb57600080fd5b505af1158015620004e0573d6000803e3d6000fd5b505050506000828273ffffffffffffffffffffffffffffffffffffffff166360f96a8f6040518163ffffffff1660e01b8152600401602060405180830381865afa15801562000533573d6000803e3d6000fd5b505050506040513d601f19601f8201168201806040525081019062000559919062000e61565b6200056362000770565b604051602001620005779392919062000f05565b60405160208183030381529060405290506000600160009054906101000a900473ffffffffffffffffffffffffffffffffffffffff1673ffffffffffffffffffffffffffffffffffffffff166339b37ab06003546040518263ffffffff1660e01b8152600401620005e9919062000e2d565b602060405180830381865afa15801562000607573d6000803e3d6000fd5b505050506040513d601f19601f820116820180604052508101906200062d919062000f42565b905060008054906101000a900473ffffffffffffffffffffffffffffffffffffffff1673ffffffffffffffffffffffffffffffffffffffff1663d0e30db0826040518263ffffffff1660e01b81526004016000604051808303818588803b1580156200069857600080fd5b505af1158015620006ad573d6000803e3d6000fd5b505050505060008054906101000a900473ffffffffffffffffffffffffffffffffffffffff1673ffffffffffffffffffffffffffffffffffffffff16634964e699600260009054906101000a900473ffffffffffffffffffffffffffffffffffffffff16846003546040518463ffffffff1660e01b8152600401620007359392919062000fd8565b600060405180830381600087803b1580156200075057600080fd5b505af115801562000765573d6000803e3d6000fd5b505050505050505050565b600033905090565b6133ce806200102b83390190565b6000604051905090565b600080fd5b600080fd5b600080fd5b600080fd5b6000601f19601f8301169050919050565b7f4e487b7100000000000000000000000000000000000000000000000000000000600052604160045260246000fd5b620007ef82620007a4565b810181811067ffffffffffffffff82111715620008115762000810620007b5565b5b80604052505050565b60006200082662000786565b9050620008348282620007e4565b919050565b600067ffffffffffffffff821115620008575762000856620007b5565b5b6200086282620007a4565b9050602081019050919050565b82818337600083830152505050565b6000620008956200088f8462000839565b6200081a565b905082815260208101848484011115620008b457620008b36200079f565b5b620008c18482856200086f565b509392505050565b600082601f830112620008e157620008e06200079a565b5b8135620008f38482602086016200087e565b91505092915050565b60006020828403121562000915576200091462000790565b5b600082013567ffffffffffffffff81111562000936576200093562000795565b5b6200094484828501620008c9565b91505092915050565b6000819050919050565b62000962816200094d565b81146200096e57600080fd5b50565b600081359050620009828162000957565b92915050565b6000819050919050565b6200099d8162000988565b8114620009a957600080fd5b50565b600081359050620009bd8162000992565b92915050565b600080600060608486031215620009df57620009de62000790565b5b6000620009ef8682870162000971565b935050602084013567ffffffffffffffff81111562000a135762000a1262000795565b5b62000a2186828701620008c9565b925050604062000a3486828701620009ac565b9150509250925092565b600073ffffffffffffffffffffffffffffffffffffffff82169050919050565b600062000a6b8262000a3e565b9050919050565b62000a7d8162000a5e565b811462000a8957600080fd5b50565b60008135905062000a9d8162000a72565b92915050565b6000806040838503121562000abd5762000abc62000790565b5b600062000acd8582860162000a8c565b925050602062000ae08582860162000971565b9150509250929050565b60008151905062000afb8162000957565b92915050565b600062000b0e8262000a3e565b9050919050565b62000b208162000b01565b811462000b2c57600080fd5b50565b60008151905062000b408162000b15565b92915050565b600067ffffffffffffffff82111562000b645762000b63620007b5565b5b62000b6f82620007a4565b9050602081019050919050565b60005b8381101562000b9c57808201518184015260208101905062000b7f565b60008484015250505050565b600062000bbf62000bb98462000b46565b6200081a565b90508281526020810184848401111562000bde5762000bdd6200079f565b5b62000beb84828562000b7c565b509392505050565b600082601f83011262000c0b5762000c0a6200079a565b5b815162000c1d84826020860162000ba8565b91505092915050565b60008060008060008060c0878903121562000c465762000c4562000790565b5b600062000c5689828a0162000aea565b965050602062000c6989828a0162000b2f565b955050604087015167ffffffffffffffff81111562000c8d5762000c8c62000795565b5b62000c9b89828a0162000bf3565b945050606087015167ffffffffffffffff81111562000cbf5762000cbe62000795565b5b62000ccd89828a0162000bf3565b935050608087015167ffffffffffffffff81111562000cf15762000cf062000795565b5b62000cff89828a0162000bf3565b92505060a062000d1289828a0162000b2f565b9150509295509295509295565b600081519050919050565b600082825260208201905092915050565b600062000d488262000d1f565b62000d54818562000d2a565b935062000d6681856020860162000b7c565b62000d7181620007a4565b840191505092915050565b62000d878162000a5e565b82525050565b6000606082019050818103600083015262000da9818662000d3b565b9050818103602083015262000dbf818562000d3b565b905062000dd0604083018462000d7c565b949350505050565b62000de3816200094d565b82525050565b600060608201905062000e00600083018662000d7c565b62000e0f602083018562000dd8565b818103604083015262000e23818462000d3b565b9050949350505050565b600060208201905062000e44600083018462000dd8565b92915050565b60008151905062000e5b8162000a72565b92915050565b60006020828403121562000e7a5762000e7962000790565b5b600062000e8a8482850162000e4a565b91505092915050565b7f4e6f74206f776e65720000000000000000000000000000000000000000000000600082015250565b600062000ecb60098362000d2a565b915062000ed88262000e93565b602082019050919050565b6000602082019050818103600083015262000efe8162000ebc565b9050919050565b600060608201905062000f1c600083018662000dd8565b62000f2b602083018562000d7c565b62000f3a604083018462000d7c565b949350505050565b60006020828403121562000f5b5762000f5a62000790565b5b600062000f6b8482850162000aea565b91505092915050565b600081519050919050565b600082825260208201905092915050565b600062000f9d8262000f74565b62000fa9818562000f7f565b935062000fbb81856020860162000b7c565b62000fc681620007a4565b840191505092915050565b6000815250565b600060808201905062000fef600083018662000d7c565b818103602083015262001003818562000f90565b905062001014604083018462000dd8565b620010226060830162000fd1565b94935050505056fe60806040523480156200001157600080fd5b50604051620033ce380380620033ce8339818101604052810190620000379190620003cd565b828281600090816200004a9190620006b2565b5080600190816200005c9190620006b2565b5050506200007f62000073620000c960201b60201c565b620000d160201b60201c565b80600960006101000a81548173ffffffffffffffffffffffffffffffffffffffff021916908373ffffffffffffffffffffffffffffffffffffffff16021790555050505062000799565b600033905090565b600760006101000a81549073ffffffffffffffffffffffffffffffffffffffff02191690556200010c816200010f60201b62000cd81760201c565b50565b6000600660009054906101000a900473ffffffffffffffffffffffffffffffffffffffff16905081600660006101000a81548173ffffffffffffffffffffffffffffffffffffffff021916908373ffffffffffffffffffffffffffffffffffffffff1602179055508173ffffffffffffffffffffffffffffffffffffffff168173ffffffffffffffffffffffffffffffffffffffff167f8be0079c531659141344cd1fd0a4f28419497f9722a3daafe3b4186f6b6457e060405160405180910390a35050565b6000604051905090565b600080fd5b600080fd5b600080fd5b600080fd5b6000601f19601f8301169050919050565b7f4e487b7100000000000000000000000000000000000000000000000000000000600052604160045260246000fd5b6200023e82620001f3565b810181811067ffffffffffffffff8211171562000260576200025f62000204565b5b80604052505050565b600062000275620001d5565b905062000283828262000233565b919050565b600067ffffffffffffffff821115620002a657620002a562000204565b5b620002b182620001f3565b9050602081019050919050565b60005b83811015620002de578082015181840152602081019050620002c1565b60008484015250505050565b600062000301620002fb8462000288565b62000269565b90508281526020810184848401111562000320576200031f620001ee565b5b6200032d848285620002be565b509392505050565b600082601f8301126200034d576200034c620001e9565b5b81516200035f848260208601620002ea565b91505092915050565b600073ffffffffffffffffffffffffffffffffffffffff82169050919050565b6000620003958262000368565b9050919050565b620003a78162000388565b8114620003b357600080fd5b50565b600081519050620003c7816200039c565b92915050565b600080600060608486031215620003e957620003e8620001df565b5b600084015167ffffffffffffffff8111156200040a5762000409620001e4565b5b620004188682870162000335565b935050602084015167ffffffffffffffff8111156200043c576200043b620001e4565b5b6200044a8682870162000335565b92505060406200045d86828701620003b6565b9150509250925092565b600081519050919050565b7f4e487b7100000000000000000000000000000000000000000000000000000000600052602260045260246000fd5b60006002820490506001821680620004ba57607f821691505b602082108103620004d057620004cf62000472565b5b50919050565b60008190508160005260206000209050919050565b60006020601f8301049050919050565b600082821b905092915050565b6000600883026200053a7fffffffffffffffffffffffffffffffffffffffffffffffffffffffffffffffff82620004fb565b620005468683620004fb565b95508019841693508086168417925050509392505050565b6000819050919050565b6000819050919050565b6000620005936200058d62000587846200055e565b62000568565b6200055e565b9050919050565b6000819050919050565b620005af8362000572565b620005c7620005be826200059a565b84845462000508565b825550505050565b600090565b620005de620005cf565b620005eb818484620005a4565b505050565b5b81811015620006135762000607600082620005d4565b600181019050620005f1565b5050565b601f82111562000662576200062c81620004d6565b6200063784620004eb565b8101602085101562000647578190505b6200065f6200065685620004eb565b830182620005f0565b50505b505050565b600082821c905092915050565b6000620006876000198460080262000667565b1980831691505092915050565b6000620006a2838362000674565b9150826002028217905092915050565b620006bd8262000467565b67ffffffffffffffff811115620006d957620006d862000204565b5b620006e58254620004a1565b620006f282828562000617565b600060209050601f8311600181146200072a576000841562000715578287015190505b62000721858262000694565b86555062000791565b601f1984166200073a86620004d6565b60005b8281101562000764578489015182556001820191506020850194506020810190506200073d565b8683101562000784578489015162000780601f89168262000674565b8355505b6001600288020188555050505b505050505050565b612c2580620007a96000396000f3fe608060405234801561001057600080fd5b50600436106101375760003560e01c8063715018a6116100b8578063b88d4fde1161007c578063b88d4fde14610314578063c87b56dd14610330578063d3fc986414610360578063e30c39781461037c578063e985e9c51461039a578063f2fde38b146103ca57610137565b8063715018a6146102a857806379ba5097146102b25780638da5cb5b146102bc57806395d89b41146102da578063a22cb465146102f857610137565b806342842e0e116100ff57806342842e0e146101f257806342966c681461020e57806360f96a8f1461022a5780636352211e1461024857806370a082311461027857610137565b806301ffc9a71461013c57806306fdde031461016c578063081812fc1461018a578063095ea7b3146101ba57806323b872dd146101d6575b600080fd5b61015660048036038101906101519190611b24565b6103e6565b6040516101639190611b6c565b60405180910390f35b6101746104c8565b6040516101819190611c17565b60405180910390f35b6101a4600480360381019061019f9190611c6f565b61055a565b6040516101b19190611cdd565b60405180910390f35b6101d460048036038101906101cf9190611d24565b6105a0565b005b6101f060048036038101906101eb9190611d64565b6106b7565b005b61020c60048036038101906102079190611d64565b610717565b005b61022860048036038101906102239190611c6f565b610737565b005b61023261074b565b60405161023f9190611cdd565b60405180910390f35b610262600480360381019061025d9190611c6f565b610775565b60405161026f9190611cdd565b60405180910390f35b610292600480360381019061028d9190611db7565b6107fb565b60405161029f9190611df3565b60405180910390f35b6102b06108b2565b005b6102ba6108c6565b005b6102c4610953565b6040516102d19190611cdd565b60405180910390f35b6102e261097d565b6040516102ef9190611c17565b60405180910390f35b610312600480360381019061030d9190611e3a565b610a0f565b005b61032e60048036038101906103299190611faf565b610a25565b005b61034a60048036038101906103459190611c6f565b610a87565b6040516103579190611c17565b60405180910390f35b61037a600480360381019061037591906120d3565b610b35565b005b610384610b6d565b6040516103919190611cdd565b60405180910390f35b6103b460048036038101906103af9190612142565b610b97565b6040516103c19190611b6c565b60405180910390f35b6103e460048036038101906103df9190611db7565b610c2b565b005b60007f80ac58cd000000000000000000000000000000000000000000000000000000007bffffffffffffffffffffffffffffffffffffffffffffffffffffffff1916827bffffffffffffffffffffffffffffffffffffffffffffffffffffffff191614806104b157507f5b5e139f000000000000000000000000000000000000000000000000000000007bffffffffffffffffffffffffffffffffffffffffffffffffffffffff1916827bffffffffffffffffffffffffffffffffffffffffffffffffffffffff1916145b806104c157506104c082610d9e565b5b9050919050565b6060600080546104d7906121b1565b80601f0160208091040260200160405190810160405280929190818152602001828054610503906121b1565b80156105505780601f1061052557610100808354040283529160200191610550565b820191906000526020600020905b81548152906001019060200180831161053357829003601f168201915b5050505050905090565b600061056582610e08565b6004600083815260200190815260200160002060009054906101000a900473ffffffffffffffffffffffffffffffffffffffff169050919050565b60006105ab82610775565b90508073ffffffffffffffffffffffffffffffffffffffff168373ffffffffffffffffffffffffffffffffffffffff160361061b576040517f08c379a000000000000000000000000000000000000000000000000000000000815260040161061290612254565b60405180910390fd5b8073ffffffffffffffffffffffffffffffffffffffff1661063a610e53565b73ffffffffffffffffffffffffffffffffffffffff161480610669575061066881610663610e53565b610b97565b5b6106a8576040517f08c379a000000000000000000000000000000000000000000000000000000000815260040161069f906122e6565b60405180910390fd5b6106b28383610e5b565b505050565b6106c86106c2610e53565b82610f14565b610707576040517f08c379a00000000000000000000000000000000000000000000000000000000081526004016106fe90612378565b60405180910390fd5b610712838383610fa9565b505050565b61073283838360405180602001604052806000815250610a25565b505050565b61073f6112a2565b61074881611320565b50565b6000600960009054906101000a900473ffffffffffffffffffffffffffffffffffffffff16905090565b6000806107818361146e565b9050600073ffffffffffffffffffffffffffffffffffffffff168173ffffffffffffffffffffffffffffffffffffffff16036107f2576040517f08c379a00000000000000000000000000000000000000000000000000000000081526004016107e9906123e4565b60405180910390fd5b80915050919050565b60008073ffffffffffffffffffffffffffffffffffffffff168273ffffffffffffffffffffffffffffffffffffffff160361086b576040517f08c379a000000000000000000000000000000000000000000000000000000000815260040161086290612476565b60405180910390fd5b600360008373ffffffffffffffffffffffffffffffffffffffff1673ffffffffffffffffffffffffffffffffffffffff168152602001908152602001600020549050919050565b6108ba6112a2565b6108c460006114ab565b565b60006108d0610e53565b90508073ffffffffffffffffffffffffffffffffffffffff166108f1610b6d565b73ffffffffffffffffffffffffffffffffffffffff1614610947576040517f08c379a000000000000000000000000000000000000000000000000000000000815260040161093e90612508565b60405180910390fd5b610950816114ab565b50565b6000600660009054906101000a900473ffffffffffffffffffffffffffffffffffffffff16905090565b60606001805461098c906121b1565b80601f01602080910402602001604051908101604052809291908181526020018280546109b8906121b1565b8015610a055780601f106109da57610100808354040283529160200191610a05565b820191906000526020600020905b8154815290600101906020018083116109e857829003601f168201915b5050505050905090565b610a21610a1a610e53565b83836114dc565b5050565b610a36610a30610e53565b83610f14565b610a75576040517f08c379a0000000000000000000000000000000000000000000000000000000008152600401610a6c90612378565b60405180910390fd5b610a8184848484611648565b50505050565b6060610a9282610e08565b600860008381526020019081526020016000208054610ab0906121b1565b80601f0160208091040260200160405190810160405280929190818152602001828054610adc906121b1565b8015610b295780601f10610afe57610100808354040283529160200191610b29565b820191906000526020600020905b815481529060010190602001808311610b0c57829003601f168201915b50505050509050919050565b610b3d6112a2565b610b4783836116a4565b80600860008481526020019081526020016000209081610b6791906126d4565b50505050565b6000600760009054906101000a900473ffffffffffffffffffffffffffffffffffffffff16905090565b6000600560008473ffffffffffffffffffffffffffffffffffffffff1673ffffffffffffffffffffffffffffffffffffffff16815260200190815260200160002060008373ffffffffffffffffffffffffffffffffffffffff1673ffffffffffffffffffffffffffffffffffffffff16815260200190815260200160002060009054906101000a900460ff16905092915050565b610c336112a2565b80600760006101000a81548173ffffffffffffffffffffffffffffffffffffffff021916908373ffffffffffffffffffffffffffffffffffffffff1602179055508073ffffffffffffffffffffffffffffffffffffffff16610c93610953565b73ffffffffffffffffffffffffffffffffffffffff167f38d16b8cac22d99fc7c124b9cd0de2d3fa1faef420bfe791d8c362d765e2270060405160405180910390a350565b6000600660009054906101000a900473ffffffffffffffffffffffffffffffffffffffff16905081600660006101000a81548173ffffffffffffffffffffffffffffffffffffffff021916908373ffffffffffffffffffffffffffffffffffffffff1602179055508173ffffffffffffffffffffffffffffffffffffffff168173ffffffffffffffffffffffffffffffffffffffff167f8be0079c531659141344cd1fd0a4f28419497f9722a3daafe3b4186f6b6457e060405160405180910390a35050565b60007f01ffc9a7000000000000000000000000000000000000000000000000000000007bffffffffffffffffffffffffffffffffffffffffffffffffffffffff1916827bffffffffffffffffffffffffffffffffffffffffffffffffffffffff1916149050919050565b610e11816118c1565b610e50576040517f08c379a0000000000000000000000000000000000000000000000000000000008152600401610e47906123e4565b60405180910390fd5b50565b600033905090565b816004600083815260200190815260200160002060006101000a81548173ffffffffffffffffffffffffffffffffffffffff021916908373ffffffffffffffffffffffffffffffffffffffff160217905550808273ffffffffffffffffffffffffffffffffffffffff16610ece83610775565b73ffffffffffffffffffffffffffffffffffffffff167f8c5be1e5ebec7d5bd14f71427d1e84f3dd0314c0f7b2291e5b200ac8c7c3b92560405160405180910390a45050565b600080610f2083610775565b90508073ffffffffffffffffffffffffffffffffffffffff168473ffffffffffffffffffffffffffffffffffffffff161480610f625750610f618185610b97565b5b80610fa057508373ffffffffffffffffffffffffffffffffffffffff16610f888461055a565b73ffffffffffffffffffffffffffffffffffffffff16145b91505092915050565b8273ffffffffffffffffffffffffffffffffffffffff16610fc982610775565b73ffffffffffffffffffffffffffffffffffffffff161461101f576040517f08c379a000000000000000000000000000000000000000000000000000000000815260040161101690612818565b60405180910390fd5b600073ffffffffffffffffffffffffffffffffffffffff168273ffffffffffffffffffffffffffffffffffffffff160361108e576040517f08c379a0000000000000000000000000000000000000000000000000000000008152600401611085906128aa565b60405180910390fd5b61109b8383836001611902565b8273ffffffffffffffffffffffffffffffffffffffff166110bb82610775565b73ffffffffffffffffffffffffffffffffffffffff1614611111576040517f08c379a000000000000000000000000000000000000000000000000000000000815260040161110890612818565b60405180910390fd5b6004600082815260200190815260200160002060006101000a81549073ffffffffffffffffffffffffffffffffffffffff02191690556001600360008573ffffffffffffffffffffffffffffffffffffffff1673ffffffffffffffffffffffffffffffffffffffff168152602001908152602001600020600082825403925050819055506001600360008473ffffffffffffffffffffffffffffffffffffffff1673ffffffffffffffffffffffffffffffffffffffff16815260200190815260200160002060008282540192505081905550816002600083815260200190815260200160002060006101000a81548173ffffffffffffffffffffffffffffffffffffffff021916908373ffffffffffffffffffffffffffffffffffffffff160217905550808273ffffffffffffffffffffffffffffffffffffffff168473ffffffffffffffffffffffffffffffffffffffff167fddf252ad1be2c89b69c2b068fc378daa952ba7f163c4a11628f55a4df523b3ef60405160405180910390a461129d8383836001611908565b505050565b6112aa610e53565b73ffffffffffffffffffffffffffffffffffffffff166112c8610953565b73ffffffffffffffffffffffffffffffffffffffff161461131e576040517f08c379a000000000000000000000000000000000000000000000000000000000815260040161131590612916565b60405180910390fd5b565b600061132b82610775565b905061133b816000846001611902565b61134482610775565b90506004600083815260200190815260200160002060006101000a81549073ffffffffffffffffffffffffffffffffffffffff02191690556001600360008373ffffffffffffffffffffffffffffffffffffffff1673ffffffffffffffffffffffffffffffffffffffff168152602001908152602001600020600082825403925050819055506002600083815260200190815260200160002060006101000a81549073ffffffffffffffffffffffffffffffffffffffff021916905581600073ffffffffffffffffffffffffffffffffffffffff168273ffffffffffffffffffffffffffffffffffffffff167fddf252ad1be2c89b69c2b068fc378daa952ba7f163c4a11628f55a4df523b3ef60405160405180910390a461146a816000846001611908565b5050565b60006002600083815260200190815260200160002060009054906101000a900473ffffffffffffffffffffffffffffffffffffffff169050919050565b600760006101000a81549073ffffffffffffffffffffffffffffffffffffffff02191690556114d981610cd8565b50565b8173ffffffffffffffffffffffffffffffffffffffff168373ffffffffffffffffffffffffffffffffffffffff160361154a576040517f08c379a000000000000000000000000000000000000000000000000000000000815260040161154190612982565b60405180910390fd5b80600560008573ffffffffffffffffffffffffffffffffffffffff1673ffffffffffffffffffffffffffffffffffffffff16815260200190815260200160002060008473ffffffffffffffffffffffffffffffffffffffff1673ffffffffffffffffffffffffffffffffffffffff16815260200190815260200160002060006101000a81548160ff0219169083151502179055508173ffffffffffffffffffffffffffffffffffffffff168373ffffffffffffffffffffffffffffffffffffffff167f17307eab39ab6107e8899845ad3d59bd9653f200f220920489ca2b5937696c318360405161163b9190611b6c565b60405180910390a3505050565b611653848484610fa9565b61165f8484848461190e565b61169e576040517f08c379a000000000000000000000000000000000000000000000000000000000815260040161169590612a14565b60405180910390fd5b50505050565b600073ffffffffffffffffffffffffffffffffffffffff168273ffffffffffffffffffffffffffffffffffffffff1603611713576040517f08c379a000000000000000000000000000000000000000000000000000000000815260040161170a90612a80565b60405180910390fd5b61171c816118c1565b1561175c576040517f08c379a000000000000000000000000000000000000000000000000000000000815260040161175390612aec565b60405180910390fd5b61176a600083836001611902565b611773816118c1565b156117b3576040517f08c379a00000000000000000000000000000000000000000000000000000000081526004016117aa90612aec565b60405180910390fd5b6001600360008473ffffffffffffffffffffffffffffffffffffffff1673ffffffffffffffffffffffffffffffffffffffff16815260200190815260200160002060008282540192505081905550816002600083815260200190815260200160002060006101000a81548173ffffffffffffffffffffffffffffffffffffffff021916908373ffffffffffffffffffffffffffffffffffffffff160217905550808273ffffffffffffffffffffffffffffffffffffffff16600073ffffffffffffffffffffffffffffffffffffffff167fddf252ad1be2c89b69c2b068fc378daa952ba7f163c4a11628f55a4df523b3ef60405160405180910390a46118bd600083836001611908565b5050565b60008073ffffffffffffffffffffffffffffffffffffffff166118e38361146e565b73ffffffffffffffffffffffffffffffffffffffff1614159050919050565b50505050565b50505050565b600061192f8473ffffffffffffffffffffffffffffffffffffffff16611a95565b15611a88578373ffffffffffffffffffffffffffffffffffffffff1663150b7a02611958610e53565b8786866040518563ffffffff1660e01b815260040161197a9493929190612b61565b6020604051808303816000875af19250505080156119b657506040513d601f19601f820116820180604052508101906119b39190612bc2565b60015b611a38573d80600081146119e6576040519150601f19603f3d011682016040523d82523d6000602084013e6119eb565b606091505b506000815103611a30576040517f08c379a0000000000000000000000000000000000000000000000000000000008152600401611a2790612a14565b60405180910390fd5b805181602001fd5b63150b7a0260e01b7bffffffffffffffffffffffffffffffffffffffffffffffffffffffff1916817bffffffffffffffffffffffffffffffffffffffffffffffffffffffff191614915050611a8d565b600190505b949350505050565b6000808273ffffffffffffffffffffffffffffffffffffffff163b119050919050565b6000604051905090565b600080fd5b600080fd5b60007fffffffff0000000000000000000000000000000000000000000000000000000082169050919050565b611b0181611acc565b8114611b0c57600080fd5b50565b600081359050611b1e81611af8565b92915050565b600060208284031215611b3a57611b39611ac2565b5b6000611b4884828501611b0f565b91505092915050565b60008115159050919050565b611b6681611b51565b82525050565b6000602082019050611b816000830184611b5d565b92915050565b600081519050919050565b600082825260208201905092915050565b60005b83811015611bc1578082015181840152602081019050611ba6565b60008484015250505050565b6000601f19601f8301169050919050565b6000611be982611b87565b611bf38185611b92565b9350611c03818560208601611ba3565b611c0c81611bcd565b840191505092915050565b60006020820190508181036000830152611c318184611bde565b905092915050565b6000819050919050565b611c4c81611c39565b8114611c5757600080fd5b50565b600081359050611c6981611c43565b92915050565b600060208284031215611c8557611c84611ac2565b5b6000611c9384828501611c5a565b91505092915050565b600073ffffffffffffffffffffffffffffffffffffffff82169050919050565b6000611cc782611c9c565b9050919050565b611cd781611cbc565b82525050565b6000602082019050611cf26000830184611cce565b92915050565b611d0181611cbc565b8114611d0c57600080fd5b50565b600081359050611d1e81611cf8565b92915050565b60008060408385031215611d3b57611d3a611ac2565b5b6000611d4985828601611d0f565b9250506020611d5a85828601611c5a565b9150509250929050565b600080600060608486031215611d7d57611d7c611ac2565b5b6000611d8b86828701611d0f565b9350506020611d9c86828701611d0f565b9250506040611dad86828701611c5a565b9150509250925092565b600060208284031215611dcd57611dcc611ac2565b5b6000611ddb84828501611d0f565b91505092915050565b611ded81611c39565b82525050565b6000602082019050611e086000830184611de4565b92915050565b611e1781611b51565b8114611e2257600080fd5b50565b600081359050611e3481611e0e565b92915050565b60008060408385031215611e5157611e50611ac2565b5b6000611e5f85828601611d0f565b9250506020611e7085828601611e25565b9150509250929050565b600080fd5b600080fd5b7f4e487b7100000000000000000000000000000000000000000000000000000000600052604160045260246000fd5b611ebc82611bcd565b810181811067ffffffffffffffff82111715611edb57611eda611e84565b5b80604052505050565b6000611eee611ab8565b9050611efa8282611eb3565b919050565b600067ffffffffffffffff821115611f1a57611f19611e84565b5b611f2382611bcd565b9050602081019050919050565b82818337600083830152505050565b6000611f52611f4d84611eff565b611ee4565b905082815260208101848484011115611f6e57611f6d611e7f565b5b611f79848285611f30565b509392505050565b600082601f830112611f9657611f95611e7a565b5b8135611fa6848260208601611f3f565b91505092915050565b60008060008060808587031215611fc957611fc8611ac2565b5b6000611fd787828801611d0f565b9450506020611fe887828801611d0f565b9350506040611ff987828801611c5a565b925050606085013567ffffffffffffffff81111561201a57612019611ac7565b5b61202687828801611f81565b91505092959194509250565b600067ffffffffffffffff82111561204d5761204c611e84565b5b61205682611bcd565b9050602081019050919050565b600061207661207184612032565b611ee4565b90508281526020810184848401111561209257612091611e7f565b5b61209d848285611f30565b509392505050565b600082601f8301126120ba576120b9611e7a565b5b81356120ca848260208601612063565b91505092915050565b6000806000606084860312156120ec576120eb611ac2565b5b60006120fa86828701611d0f565b935050602061210b86828701611c5a565b925050604084013567ffffffffffffffff81111561212c5761212b611ac7565b5b612138868287016120a5565b9150509250925092565b6000806040838503121561215957612158611ac2565b5b600061216785828601611d0f565b925050602061217885828601611d0f565b9150509250929050565b7f4e487b7100000000000000000000000000000000000000000000000000000000600052602260045260246000fd5b600060028204905060018216806121c957607f821691505b6020821081036121dc576121db612182565b5b50919050565b7f4552433732313a20617070726f76616c20746f2063757272656e74206f776e6560008201527f7200000000000000000000000000000000000000000000000000000000000000602082015250565b600061223e602183611b92565b9150612249826121e2565b604082019050919050565b6000602082019050818103600083015261226d81612231565b9050919050565b7f4552433732313a20617070726f76652063616c6c6572206973206e6f7420746f60008201527f6b656e206f776e6572206f7220617070726f76656420666f7220616c6c000000602082015250565b60006122d0603d83611b92565b91506122db82612274565b604082019050919050565b600060208201905081810360008301526122ff816122c3565b9050919050565b7f4552433732313a2063616c6c6572206973206e6f7420746f6b656e206f776e6560008201527f72206f7220617070726f76656400000000000000000000000000000000000000602082015250565b6000612362602d83611b92565b915061236d82612306565b604082019050919050565b6000602082019050818103600083015261239181612355565b9050919050565b7f4552433732313a20696e76616c696420746f6b656e2049440000000000000000600082015250565b60006123ce601883611b92565b91506123d982612398565b602082019050919050565b600060208201905081810360008301526123fd816123c1565b9050919050565b7f4552433732313a2061646472657373207a65726f206973206e6f74206120766160008201527f6c6964206f776e65720000000000000000000000000000000000000000000000602082015250565b6000612460602983611b92565b915061246b82612404565b604082019050919050565b6000602082019050818103600083015261248f81612453565b9050919050565b7f4f776e61626c6532537465703a2063616c6c6572206973206e6f74207468652060008201527f6e6577206f776e65720000000000000000000000000000000000000000000000602082015250565b60006124f2602983611b92565b91506124fd82612496565b604082019050919050565b60006020820190508181036000830152612521816124e5565b9050919050565b60008190508160005260206000209050919050565b60006020601f8301049050919050565b600082821b905092915050565b60006008830261258a7fffffffffffffffffffffffffffffffffffffffffffffffffffffffffffffffff8261254d565b612594868361254d565b95508019841693508086168417925050509392505050565b6000819050919050565b60006125d16125cc6125c784611c39565b6125ac565b611c39565b9050919050565b6000819050919050565b6125eb836125b6565b6125ff6125f7826125d8565b84845461255a565b825550505050565b600090565b612614612607565b61261f8184846125e2565b505050565b5b818110156126435761263860008261260c565b600181019050612625565b5050565b601f8211156126885761265981612528565b6126628461253d565b81016020851015612671578190505b61268561267d8561253d565b830182612624565b50505b505050565b600082821c905092915050565b60006126ab6000198460080261268d565b1980831691505092915050565b60006126c4838361269a565b9150826002028217905092915050565b6126dd82611b87565b67ffffffffffffffff8111156126f6576126f5611e84565b5b61270082546121b1565b61270b828285612647565b600060209050601f83116001811461273e576000841561272c578287015190505b61273685826126b8565b86555061279e565b601f19841661274c86612528565b60005b828110156127745784890151825560018201915060208501945060208101905061274f565b86831015612791578489015161278d601f89168261269a565b8355505b6001600288020188555050505b505050505050565b7f4552433732313a207472616e736665722066726f6d20696e636f72726563742060008201527f6f776e6572000000000000000000000000000000000000000000000000000000602082015250565b6000612802602583611b92565b915061280d826127a6565b604082019050919050565b60006020820190508181036000830152612831816127f5565b9050919050565b7f4552433732313a207472616e7366657220746f20746865207a65726f2061646460008201527f7265737300000000000000000000000000000000000000000000000000000000602082015250565b6000612894602483611b92565b915061289f82612838565b604082019050919050565b600060208201905081810360008301526128c381612887565b9050919050565b7f4f776e61626c653a2063616c6c6572206973206e6f7420746865206f776e6572600082015250565b6000612900602083611b92565b915061290b826128ca565b602082019050919050565b6000602082019050818103600083015261292f816128f3565b9050919050565b7f4552433732313a20617070726f766520746f2063616c6c657200000000000000600082015250565b600061296c601983611b92565b915061297782612936565b602082019050919050565b6000602082019050818103600083015261299b8161295f565b9050919050565b7f4552433732313a207472616e7366657220746f206e6f6e20455243373231526560008201527f63656976657220696d706c656d656e7465720000000000000000000000000000602082015250565b60006129fe603283611b92565b9150612a09826129a2565b604082019050919050565b60006020820190508181036000830152612a2d816129f1565b9050919050565b7f4552433732313a206d696e7420746f20746865207a65726f2061646472657373600082015250565b6000612a6a602083611b92565b9150612a7582612a34565b602082019050919050565b60006020820190508181036000830152612a9981612a5d565b9050919050565b7f4552433732313a20746f6b656e20616c7265616479206d696e74656400000000600082015250565b6000612ad6601c83611b92565b9150612ae182612aa0565b602082019050919050565b60006020820190508181036000830152612b0581612ac9565b9050919050565b600081519050919050565b600082825260208201905092915050565b6000612b3382612b0c565b612b3d8185612b17565b9350612b4d818560208601611ba3565b612b5681611bcd565b840191505092915050565b6000608082019050612b766000830187611cce565b612b836020830186611cce565b612b906040830185611de4565b8181036060830152612ba28184612b28565b905095945050505050565b600081519050612bbc81611af8565b92915050565b600060208284031215612bd857612bd7611ac2565b5b6000612be684828501612bad565b9150509291505056fea2646970667358221220d8389ba60af14506f3144e57c72b6d949bfa1c22d1047ae0a6a21b59e3ab287f64736f6c63430008110033a264697066735822122009970294b6c261da05480b855463def6e2ecedfa6504752e2c6abd51b88dd6f064736f6c63430008110033",
  "immutableReferences": {},
  "source": "// SPDX-License-Identifier: MIT\r\npragma solidity ^0.8.17;\r\n\r\nimport \"./../interfaces/IW3Link.sol\";\r\nimport \"./../interfaces/IW3LinkApp.sol\";\r\nimport \"./../interfaces/IW3LinkConfig.sol\";\r\n\r\nimport \"@openzeppelin/contracts/token/ERC721/ERC721.sol\";\r\nimport \"@openzeppelin/contracts/access/Ownable2Step.sol\";\r\nimport \"@openzeppelin/contracts/utils/Context.sol\";\r\n\r\ncontract W3NFT is ERC721, Ownable2Step {\r\n    mapping(uint256 => string) private _tokenURIS;\r\n\r\n    address private _parent;\r\n\r\n    constructor(\r\n        string memory name_,\r\n        string memory symbol_,\r\n        address parent_\r\n    ) ERC721(name_, symbol_) Ownable2Step() {\r\n        _parent = parent_;\r\n    }\r\n\r\n    function mint(\r\n        address to,\r\n        uint256 tokenId,\r\n        string memory uri\r\n    ) external onlyOwner {\r\n        _mint(to, tokenId);\r\n        _tokenURIS[tokenId] = uri;\r\n    }\r\n\r\n    function burn(uint256 tokenId) external onlyOwner {\r\n        _burn(tokenId);\r\n    }\r\n\r\n    function tokenURI(\r\n        uint256 tokenId\r\n    ) public view virtual override returns (string memory) {\r\n        _requireMinted(tokenId);\r\n        return _tokenURIS[tokenId];\r\n    }\r\n\r\n    function parent() external view returns (address) {\r\n        return _parent;\r\n    }\r\n}\r\n\r\ncontract TunnelExtension is IW3LinkApp, Context {\r\n    IW3Link private _w3link;\r\n    IW3LinkConfig private _w3linkConfig;\r\n    address private _tnlContractId;\r\n    uint256 private _tnlChainId;\r\n\r\n    mapping(address => address) private _nfts;\r\n\r\n    constructor(address w3link_) {\r\n        _w3link = IW3Link(w3link_);\r\n        _w3linkConfig = IW3LinkConfig(_w3link.config());\r\n    }\r\n\r\n    function revoke(address nftContractId, uint256 tokenId) external payable {\r\n        W3NFT nft = W3NFT(_nfts[nftContractId]);\r\n        require(nft.ownerOf(tokenId) == _msgSender(), \"Not owner\");\r\n        nft.burn(tokenId);\r\n\r\n        bytes memory data = abi.encode(tokenId, nft.parent(), _msgSender());\r\n\r\n        uint256 estFee = _w3linkConfig.fee(_tnlChainId);\r\n        _w3link.deposit{value: estFee}();\r\n\r\n        _w3link.dispatch(_tnlContractId, data, _tnlChainId, \"\" /* no extra */);\r\n    }\r\n\r\n    function execute(\r\n        uint256 /* fromChainId */,\r\n        bytes memory data,\r\n        bytes32 /* extra */\r\n    ) external override {\r\n        (\r\n            uint256 tokenId,\r\n            address fromContractId,\r\n            string memory tokenName,\r\n            string memory tokenSymbol,\r\n            string memory tokenURI,\r\n            address holder\r\n        ) = abi.decode(\r\n                data,\r\n                (uint256, address, string, string, string, address)\r\n            );\r\n\r\n        if (_nfts[fromContractId] == address(0)) {\r\n            _nfts[fromContractId] = address(\r\n                new W3NFT(tokenName, tokenSymbol, fromContractId)\r\n            );\r\n        }\r\n\r\n        W3NFT nft = W3NFT(_nfts[fromContractId]);\r\n        nft.mint(holder, tokenId, tokenURI);\r\n    }\r\n\r\n    function onResult(bytes memory data) external override {}\r\n}\r\n",
  "sourcePath": "C:\\Users\\DELL\\Documents\\w3link\\solidity\\contracts\\tunnel\\TunnelExtension.sol",
  "compiler": {
    "name": "solc",
    "version": "0.8.17+commit.8df45f5f.Emscripten.clang"
  },
  "schemaVersion": "3.4.11",
  "updatedAt": "2023-08-27T09:14:53.662Z",
  "devdoc": {
    "kind": "dev",
    "methods": {},
    "version": 1
  },
  "userdoc": {
    "kind": "user",
    "methods": {},
    "version": 1
  }
}