{
  "contractName": "Tunnel",
  "abi": [
    {
      "inputs": [
        {
          "internalType": "address",
          "name": "w3link_",
          "type": "address"
        }
      ],
      "stateMutability": "nonpayable",
      "type": "constructor"
    },
    {
      "inputs": [
        {
          "internalType": "uint256",
          "name": "tokenId",
          "type": "uint256"
        },
        {
          "internalType": "address",
          "name": "nftContractId",
          "type": "address"
        }
      ],
      "name": "bridge",
      "outputs": [],
      "stateMutability": "nonpayable",
      "type": "function"
    },
    {
      "inputs": [
        {
          "internalType": "uint256",
          "name": "",
          "type": "uint256"
        },
        {
          "internalType": "bytes",
          "name": "data",
          "type": "bytes"
        },
        {
          "internalType": "bytes32",
          "name": "",
          "type": "bytes32"
        }
      ],
      "name": "execute",
      "outputs": [],
      "stateMutability": "nonpayable",
      "type": "function"
    },
    {
      "inputs": [
        {
          "internalType": "bytes",
          "name": "data",
          "type": "bytes"
        }
      ],
      "name": "onResult",
      "outputs": [],
      "stateMutability": "nonpayable",
      "type": "function"
    }
  ],
  "bytecode": "0x608080604052346100df576108fb803803809161001c82856100e4565b8339600160a060020a039182916100369190810190610135565b169060046020600160a060020a03199380856000541617600055604051928380927f79502c550000000000000000000000000000000000000000000000000000000082525afa9081156100d3576000916100a5575b50169060015416176001556040516107a690816101558239f35b6100c6915060203d81116100cc575b6100be81836100e4565b810190610135565b3861008b565b503d6100b4565b6040513d6000823e3d90fd5b600080fd5b90601f8019910116810190811067ffffffffffffffff82111761010657604052565b7f4e487b7100000000000000000000000000000000000000000000000000000000600052604160045260246000fd5b908160209103126100df5751600160a060020a03811681036100df579056fe6040608081526004908136101561001557600080fd5b6000917c0100000000000000000000000000000000000000000000000000000000833504806382408bb81461059b57838163913bebdc146104365750639394d2e81461006057600080fd5b82913461043257806003193601126104325781359160243573ffffffffffffffffffffffffffffffffffffffff9384821680920361038f57813b1561038f5783517f23b872dd0000000000000000000000000000000000000000000000000000000081523384820190815230602082015260408101839052879082908190606001038183875af180156104145790879161041e575b50508351907f06fdde0300000000000000000000000000000000000000000000000000000000825286828581865afa9182156104145787926103f8575b508451917f95d89b4100000000000000000000000000000000000000000000000000000000835287838681875afa9283156103ee5788936103d2575b508551907fc87b56dd00000000000000000000000000000000000000000000000000000000825282868301528882602481885afa9182156103c85791610205916102179594938b9261039b575b506101e26101f5918a5198899660208801528b87015260c0606087015260e086019061072a565b601f19958686830301608087015261072a565b90848483030160a085015261072a565b3360c08301520390810183528261061b565b8360015416602060035460248651809481937f39b37ab0000000000000000000000000000000000000000000000000000000008352888301525afa90811561035c578691610366575b5084865416803b15610340578690848651809481937fd0e30db00000000000000000000000000000000000000000000000000000000083525af1801561035c57908691610344575b5054600254600354959182169116813b1561034057868094610304978751988996879586947f4964e69900000000000000000000000000000000000000000000000000000000865285015260806024850152608484019061072a565b9060448301526000606483015203925af190811561033757506103245750f35b61032d906105d8565b6103345780f35b80fd5b513d84823e3d90fd5b8680fd5b61034d906105d8565b6103585784386102a8565b8480fd5b84513d88823e3d90fd5b90506020813d8211610393575b816103806020938361061b565b8101031261038f575138610260565b8580fd5b3d9150610373565b6101f59192506103c06101e2918d3d8091833e6103b8818361061b565b8101906106c8565b9291506101bb565b87513d8b823e3d90fd5b6103e79193503d808a833e6103b8818361061b565b913861016e565b86513d8a823e3d90fd5b61040d9192503d8089833e6103b8818361061b565b9038610132565b85513d89823e3d90fd5b610427906105d8565b61038f5785386100f5565b5050fd5b929050346104325760603660031901126104325760243567ffffffffffffffff8111610596576104699036908401610659565b9173ffffffffffffffffffffffffffffffffffffffff908160015416803b1561038f578590828551809981937fb11d16fb0000000000000000000000000000000000000000000000000000000083525af1801561058c57610578575b849550606084805181010312610358576104e16020850161074f565b918060606104f086880161074f565b960151951690813b15610340578680946105658751988996879586947f23b872dd00000000000000000000000000000000000000000000000000000000865216903090850160409194939294606082019573ffffffffffffffffffffffffffffffffffffffff80921683521660208201520152565b03925af190811561033757506103245750f35b939094610584906105d8565b9284906104c5565b83513d87823e3d90fd5b505050fd5b8382346105d45760203660031901126105d45780359067ffffffffffffffff82116105d0576105cc91369101610659565b5080f35b8280fd5b5080fd5b67ffffffffffffffff81116105ec57604052565b7f4e487b7100000000000000000000000000000000000000000000000000000000600052604160045260246000fd5b90601f8019910116810190811067ffffffffffffffff8211176105ec57604052565b67ffffffffffffffff81116105ec57601f01601f191660200190565b81601f820112156106a0578035906106708261063d565b9261067e604051948561061b565b828452602083830101116106a057816000926020809301838601378301015290565b600080fd5b60005b8381106106b85750506000910152565b81810151838201526020016106a8565b6020818303126106a05780519067ffffffffffffffff82116106a0570181601f820112156106a05780516106fb8161063d565b92610709604051948561061b565b818452602082840101116106a05761072791602080850191016106a5565b90565b90602091610743815180928185528580860191016106a5565b601f01601f1916010190565b519073ffffffffffffffffffffffffffffffffffffffff821682036106a05756fea26469706673582212200c49376d42434224e4aca1f17c18b07b288786331722b31eff6383bf806fb23764736f6c63430008110033",
  "immutableReferences": {},
  "source": "// SPDX-License-Identifier: MIT\r\npragma solidity ^0.8.17;\r\n\r\nimport \"./../interfaces/IW3Link.sol\";\r\nimport \"./../interfaces/IW3LinkApp.sol\";\r\nimport \"./../interfaces/IW3LinkConfig.sol\";\r\n\r\nimport \"@openzeppelin/contracts/token/ERC721/IERC721.sol\";\r\nimport \"@openzeppelin/contracts/token/ERC721/extensions/IERC721Metadata.sol\";\r\n\r\nimport \"@openzeppelin/contracts/utils/Context.sol\";\r\n\r\ncontract Tunnel is IW3LinkApp, Context {\r\n    IW3Link private _w3link;\r\n    IW3LinkConfig private _w3linkConfig;\r\n    address private _extContractId;\r\n    uint256 private _extChainId;\r\n\r\n    constructor(address w3link_) {\r\n        _w3link = IW3Link(w3link_);\r\n        _w3linkConfig = IW3LinkConfig(_w3link.config());\r\n    }\r\n\r\n    function bridge(uint256 tokenId, address nftContractId) external {\r\n        IERC721 nft = IERC721(nftContractId);\r\n        IERC721Metadata metadata = IERC721Metadata(nftContractId);\r\n\r\n        nft.transferFrom(_msgSender(), address(this), tokenId);\r\n\r\n        bytes memory data = abi.encode(\r\n            tokenId,\r\n            nftContractId,\r\n            metadata.name(),\r\n            metadata.symbol(),\r\n            metadata.tokenURI(tokenId),\r\n            _msgSender()\r\n        );\r\n\r\n        uint256 estFee = _w3linkConfig.fee(_extChainId);\r\n        _w3link.deposit{value: estFee}();\r\n\r\n        _w3link.dispatch(_extContractId, data, _extChainId, \"\" /* no extra */);\r\n    }\r\n\r\n    function execute(\r\n        uint256 /* fromChainId */,\r\n        bytes memory data,\r\n        bytes32 /* extra */\r\n    ) external override {\r\n        _w3linkConfig.onlyHandler();\r\n\r\n        (address holder, address nftContractId, uint256 tokenId) = abi.decode(\r\n            data,\r\n            (address, address, uint256)\r\n        );\r\n\r\n        IERC721 nft = IERC721(nftContractId);\r\n        nft.transferFrom(address(this), holder, tokenId);\r\n    }\r\n\r\n    function onResult(bytes memory data) external override {}\r\n}\r\n",
  "sourcePath": "C:\\Users\\DELL\\Documents\\w3link\\solidity\\contracts\\tunnel\\Tunnel.sol",
  "compiler": {
    "name": "solc",
    "version": "0.8.17+commit.8df45f5f.Emscripten.clang"
  },
  "schemaVersion": "3.4.11",
  "updatedAt": "2023-08-31T13:17:18.289Z",
  "devdoc": {
    "kind": "dev",
    "methods": {},
    "version": 1
  },
  "userdoc": {
    "kind": "user",
    "methods": {},
    "version": 1
  }
}