{
  "contractName": "Tunnel",
  "abi": [
    {
      "inputs": [
        {
          "internalType": "address",
          "name": "w3link_",
          "type": "address"
        }
      ],
      "stateMutability": "nonpayable",
      "type": "constructor"
    },
    {
      "inputs": [
        {
          "internalType": "uint256",
          "name": "tokenId",
          "type": "uint256"
        },
        {
          "internalType": "address",
          "name": "nftContractId",
          "type": "address"
        }
      ],
      "name": "bridge",
      "outputs": [],
      "stateMutability": "nonpayable",
      "type": "function"
    },
    {
      "inputs": [
        {
          "internalType": "uint256",
          "name": "",
          "type": "uint256"
        },
        {
          "internalType": "bytes",
          "name": "data",
          "type": "bytes"
        },
        {
          "internalType": "bytes32",
          "name": "",
          "type": "bytes32"
        }
      ],
      "name": "execute",
      "outputs": [],
      "stateMutability": "nonpayable",
      "type": "function"
    },
    {
      "inputs": [
        {
          "internalType": "bytes",
          "name": "data",
          "type": "bytes"
        }
      ],
      "name": "onResult",
      "outputs": [],
      "stateMutability": "nonpayable",
      "type": "function"
    }
  ],
  "bytecode": "0x608060405234801561001057600080fd5b50604051610e38380380610e38833981810160405281019061003291906101aa565b806000806101000a81548173ffffffffffffffffffffffffffffffffffffffff021916908373ffffffffffffffffffffffffffffffffffffffff16021790555060008054906101000a900473ffffffffffffffffffffffffffffffffffffffff1673ffffffffffffffffffffffffffffffffffffffff166379502c556040518163ffffffff1660e01b8152600401602060405180830381865afa1580156100dd573d6000803e3d6000fd5b505050506040513d601f19601f8201168201806040525081019061010191906101aa565b600160006101000a81548173ffffffffffffffffffffffffffffffffffffffff021916908373ffffffffffffffffffffffffffffffffffffffff160217905550506101d7565b600080fd5b600073ffffffffffffffffffffffffffffffffffffffff82169050919050565b60006101778261014c565b9050919050565b6101878161016c565b811461019257600080fd5b50565b6000815190506101a48161017e565b92915050565b6000602082840312156101c0576101bf610147565b5b60006101ce84828501610195565b91505092915050565b610c52806101e66000396000f3fe608060405234801561001057600080fd5b50600436106100415760003560e01c806382408bb814610046578063913bebdc146100625780639394d2e81461007e575b600080fd5b610060600480360381019061005b9190610692565b61009a565b005b61007c60048036038101906100779190610747565b61009d565b005b61009860048036038101906100939190610814565b610139565b005b50565b6000806000848060200190518101906100b691906108a7565b92509250925060008290508073ffffffffffffffffffffffffffffffffffffffff166323b872dd3086856040518463ffffffff1660e01b81526004016100fe93929190610918565b600060405180830381600087803b15801561011857600080fd5b505af115801561012c573d6000803e3d6000fd5b5050505050505050505050565b600081905060008290508173ffffffffffffffffffffffffffffffffffffffff166323b872dd610167610530565b30876040518463ffffffff1660e01b815260040161018793929190610918565b600060405180830381600087803b1580156101a157600080fd5b505af11580156101b5573d6000803e3d6000fd5b50505050600084848373ffffffffffffffffffffffffffffffffffffffff166306fdde036040518163ffffffff1660e01b8152600401600060405180830381865afa158015610208573d6000803e3d6000fd5b505050506040513d6000823e3d601f19601f820116820180604052508101906102319190610a1a565b8473ffffffffffffffffffffffffffffffffffffffff166395d89b416040518163ffffffff1660e01b8152600401600060405180830381865afa15801561027c573d6000803e3d6000fd5b505050506040513d6000823e3d601f19601f820116820180604052508101906102a59190610a1a565b8573ffffffffffffffffffffffffffffffffffffffff1663c87b56dd8a6040518263ffffffff1660e01b81526004016102de9190610a63565b600060405180830381865afa1580156102fb573d6000803e3d6000fd5b505050506040513d6000823e3d601f19601f820116820180604052508101906103249190610a1a565b61032c610530565b60405160200161034196959493929190610ad3565b60405160208183030381529060405290506000600160009054906101000a900473ffffffffffffffffffffffffffffffffffffffff1673ffffffffffffffffffffffffffffffffffffffff166339b37ab06003546040518263ffffffff1660e01b81526004016103b19190610a63565b602060405180830381865afa1580156103ce573d6000803e3d6000fd5b505050506040513d601f19601f820116820180604052508101906103f29190610b49565b905060008054906101000a900473ffffffffffffffffffffffffffffffffffffffff1673ffffffffffffffffffffffffffffffffffffffff1663d0e30db0826040518263ffffffff1660e01b81526004016000604051808303818588803b15801561045c57600080fd5b505af1158015610470573d6000803e3d6000fd5b505050505060008054906101000a900473ffffffffffffffffffffffffffffffffffffffff1673ffffffffffffffffffffffffffffffffffffffff16634964e699600260009054906101000a900473ffffffffffffffffffffffffffffffffffffffff16846003546040518463ffffffff1660e01b81526004016104f693929190610bd2565b600060405180830381600087803b15801561051057600080fd5b505af1158015610524573d6000803e3d6000fd5b50505050505050505050565b600033905090565b6000604051905090565b600080fd5b600080fd5b600080fd5b600080fd5b6000601f19601f8301169050919050565b7f4e487b7100000000000000000000000000000000000000000000000000000000600052604160045260246000fd5b61059f82610556565b810181811067ffffffffffffffff821117156105be576105bd610567565b5b80604052505050565b60006105d1610538565b90506105dd8282610596565b919050565b600067ffffffffffffffff8211156105fd576105fc610567565b5b61060682610556565b9050602081019050919050565b82818337600083830152505050565b6000610635610630846105e2565b6105c7565b90508281526020810184848401111561065157610650610551565b5b61065c848285610613565b509392505050565b600082601f8301126106795761067861054c565b5b8135610689848260208601610622565b91505092915050565b6000602082840312156106a8576106a7610542565b5b600082013567ffffffffffffffff8111156106c6576106c5610547565b5b6106d284828501610664565b91505092915050565b6000819050919050565b6106ee816106db565b81146106f957600080fd5b50565b60008135905061070b816106e5565b92915050565b6000819050919050565b61072481610711565b811461072f57600080fd5b50565b6000813590506107418161071b565b92915050565b6000806000606084860312156107605761075f610542565b5b600061076e868287016106fc565b935050602084013567ffffffffffffffff81111561078f5761078e610547565b5b61079b86828701610664565b92505060406107ac86828701610732565b9150509250925092565b600073ffffffffffffffffffffffffffffffffffffffff82169050919050565b60006107e1826107b6565b9050919050565b6107f1816107d6565b81146107fc57600080fd5b50565b60008135905061080e816107e8565b92915050565b6000806040838503121561082b5761082a610542565b5b6000610839858286016106fc565b925050602061084a858286016107ff565b9150509250929050565b600061085f826107b6565b9050919050565b61086f81610854565b811461087a57600080fd5b50565b60008151905061088c81610866565b92915050565b6000815190506108a1816106e5565b92915050565b6000806000606084860312156108c0576108bf610542565b5b60006108ce8682870161087d565b93505060206108df8682870161087d565b92505060406108f086828701610892565b9150509250925092565b610903816107d6565b82525050565b610912816106db565b82525050565b600060608201905061092d60008301866108fa565b61093a60208301856108fa565b6109476040830184610909565b949350505050565b600067ffffffffffffffff82111561096a57610969610567565b5b61097382610556565b9050602081019050919050565b60005b8381101561099e578082015181840152602081019050610983565b60008484015250505050565b60006109bd6109b88461094f565b6105c7565b9050828152602081018484840111156109d9576109d8610551565b5b6109e4848285610980565b509392505050565b600082601f830112610a0157610a0061054c565b5b8151610a118482602086016109aa565b91505092915050565b600060208284031215610a3057610a2f610542565b5b600082015167ffffffffffffffff811115610a4e57610a4d610547565b5b610a5a848285016109ec565b91505092915050565b6000602082019050610a786000830184610909565b92915050565b600081519050919050565b600082825260208201905092915050565b6000610aa582610a7e565b610aaf8185610a89565b9350610abf818560208601610980565b610ac881610556565b840191505092915050565b600060c082019050610ae86000830189610909565b610af560208301886108fa565b8181036040830152610b078187610a9a565b90508181036060830152610b1b8186610a9a565b90508181036080830152610b2f8185610a9a565b9050610b3e60a08301846108fa565b979650505050505050565b600060208284031215610b5f57610b5e610542565b5b6000610b6d84828501610892565b91505092915050565b600081519050919050565b600082825260208201905092915050565b6000610b9d82610b76565b610ba78185610b81565b9350610bb7818560208601610980565b610bc081610556565b840191505092915050565b6000815250565b6000608082019050610be760008301866108fa565b8181036020830152610bf98185610b92565b9050610c086040830184610909565b610c1460608301610bcb565b94935050505056fea2646970667358221220a8a68f0aec0a7c2d2bb6eebd81d7d4f33c6c30ae1f8ca69cfbe39781b9f41db764736f6c63430008110033",
  "immutableReferences": {},
  "source": "// SPDX-License-Identifier: MIT\r\npragma solidity ^0.8.17;\r\n\r\nimport \"./../interfaces/IW3Link.sol\";\r\nimport \"./../interfaces/IW3LinkApp.sol\";\r\nimport \"./../interfaces/IW3LinkConfig.sol\";\r\n\r\nimport \"@openzeppelin/contracts/token/ERC721/IERC721.sol\";\r\nimport \"@openzeppelin/contracts/token/ERC721/extensions/IERC721Metadata.sol\";\r\n\r\nimport \"@openzeppelin/contracts/utils/Context.sol\";\r\n\r\ncontract Tunnel is IW3LinkApp, Context {\r\n    IW3Link private _w3link;\r\n    IW3LinkConfig private _w3linkConfig;\r\n    address private _extContractId;\r\n    uint256 private _extChainId;\r\n\r\n    constructor(address w3link_) {\r\n        _w3link = IW3Link(w3link_);\r\n        _w3linkConfig = IW3LinkConfig(_w3link.config());\r\n    }\r\n\r\n    function bridge(uint256 tokenId, address nftContractId) external {\r\n        IERC721 nft = IERC721(nftContractId);\r\n        IERC721Metadata metadata = IERC721Metadata(nftContractId);\r\n\r\n        nft.transferFrom(_msgSender(), address(this), tokenId);\r\n\r\n        bytes memory data = abi.encode(\r\n            tokenId,\r\n            nftContractId,\r\n            metadata.name(),\r\n            metadata.symbol(),\r\n            metadata.tokenURI(tokenId),\r\n            _msgSender()\r\n        );\r\n\r\n        uint256 estFee = _w3linkConfig.fee(_extChainId);\r\n        _w3link.deposit{value: estFee}();\r\n\r\n        _w3link.dispatch(_extContractId, data, _extChainId, \"\" /* no extra */);\r\n    }\r\n\r\n    function execute(\r\n        uint256 /* fromChainId */,\r\n        bytes memory data,\r\n        bytes32 /* extra */\r\n    ) external override {\r\n        (address holder, address nftContractId, uint256 tokenId) = abi.decode(\r\n            data,\r\n            (address, address, uint256)\r\n        );\r\n\r\n        IERC721 nft = IERC721(nftContractId);\r\n        nft.transferFrom(address(this), holder, tokenId);\r\n    }\r\n\r\n    function onResult(bytes memory data) external override {}\r\n}\r\n",
  "sourcePath": "C:\\Users\\DELL\\Documents\\w3link\\solidity\\contracts\\tunnel\\Tunnel.sol",
  "compiler": {
    "name": "solc",
    "version": "0.8.17+commit.8df45f5f.Emscripten.clang"
  },
  "schemaVersion": "3.4.11",
  "updatedAt": "2023-08-27T09:14:53.655Z",
  "devdoc": {
    "kind": "dev",
    "methods": {},
    "version": 1
  },
  "userdoc": {
    "kind": "user",
    "methods": {},
    "version": 1
  }
}