{
  "contractName": "Twirl",
  "abi": [
    {
      "inputs": [
        {
          "internalType": "address",
          "name": "w3link_",
          "type": "address"
        }
      ],
      "stateMutability": "nonpayable",
      "type": "constructor"
    },
    {
      "inputs": [
        {
          "internalType": "uint256",
          "name": "destChainId",
          "type": "uint256"
        }
      ],
      "name": "estimateFee",
      "outputs": [
        {
          "internalType": "uint256",
          "name": "",
          "type": "uint256"
        }
      ],
      "stateMutability": "view",
      "type": "function"
    },
    {
      "inputs": [
        {
          "internalType": "uint256",
          "name": "destChainId",
          "type": "uint256"
        },
        {
          "internalType": "uint256",
          "name": "tokenId",
          "type": "uint256"
        },
        {
          "internalType": "address",
          "name": "nftContractId",
          "type": "address"
        }
      ],
      "name": "bridge",
      "outputs": [],
      "stateMutability": "nonpayable",
      "type": "function"
    },
    {
      "inputs": [
        {
          "internalType": "uint256",
          "name": "",
          "type": "uint256"
        },
        {
          "internalType": "bytes",
          "name": "data",
          "type": "bytes"
        },
        {
          "internalType": "bytes32",
          "name": "",
          "type": "bytes32"
        }
      ],
      "name": "execute",
      "outputs": [],
      "stateMutability": "nonpayable",
      "type": "function"
    },
    {
      "inputs": [
        {
          "internalType": "bytes",
          "name": "data",
          "type": "bytes"
        }
      ],
      "name": "onResult",
      "outputs": [],
      "stateMutability": "nonpayable",
      "type": "function"
    }
  ],
  "bytecode": "0x608080604052346100df576109c0803803809161001c82856100e4565b8339600160a060020a039182916100369190810190610135565b169060046020600160a060020a03199380856000541617600055604051928380927f79502c550000000000000000000000000000000000000000000000000000000082525afa9081156100d3576000916100a5575b501690600154161760015560405161086b90816101558239f35b6100c6915060203d81116100cc575b6100be81836100e4565b810190610135565b3861008b565b503d6100b4565b6040513d6000823e3d90fd5b600080fd5b90601f8019910116810190811067ffffffffffffffff82111761010657604052565b7f4e487b7100000000000000000000000000000000000000000000000000000000600052604160045260246000fd5b908160209103126100df5751600160a060020a03811681036100df579056fe6080604081815260048036101561001557600080fd5b6000927c0100000000000000000000000000000000000000000000000000000000843504908163127e8e4d146105e9575080631cf1b97c1461023b57806382408bb8146101fe5763913bebdc1461006b57600080fd5b8291346101fa5760603660031901126101fa5760243567ffffffffffffffff81116101f55761009d9036908401610723565b9173ffffffffffffffffffffffffffffffffffffffff908160015416803b156101f157858091838651809481937fb11d16fb0000000000000000000000000000000000000000000000000000000083525af180156101e7579086916101d3575b50506060848051810103126101cf5761011860208501610814565b91806060610127868801610814565b960151951690813b156101cb5786809461019c8751988996879586947f23b872dd00000000000000000000000000000000000000000000000000000000865216903090850160409194939294606082019573ffffffffffffffffffffffffffffffffffffffff80921683521660208201520152565b03925af19081156101c257506101af5750f35b6101b8906106a2565b6101bf5780f35b80fd5b513d84823e3d90fd5b8680fd5b8480fd5b6101dc906106a2565b6101cf5784386100fd565b84513d88823e3d90fd5b8580fd5b505050fd5b5050fd5b8382346102375760203660031901126102375780359067ffffffffffffffff82116102335761022f91369101610723565b5080f35b8280fd5b5080fd5b50919034610237576060366003190112610237578235906024359360443573ffffffffffffffffffffffffffffffffffffffff958682168092036101f157813b156101f15783517f23b872dd0000000000000000000000000000000000000000000000000000000081523384820190815230602082015260408101839052909790879089908190606001038183875af180156105df576105cb575b8697508451927f06fdde0300000000000000000000000000000000000000000000000000000000845287848681845afa9384156105195788946105af575b508551907f95d89b4100000000000000000000000000000000000000000000000000000000825288828781845afa9182156105a5578992610589575b5086517fc87b56dd00000000000000000000000000000000000000000000000000000000815284878201528981602481855afa90811561057f576103f89392916103e6918c9161055d575b506103d66103c38b51998a9560209a8b8801528d87015260c0606087015260e08601906107ef565b601f1995868683030160808701526107ef565b90848483030160a08501526107ef565b3360c0830152039081018552846106e5565b60248282600154168751928380927f39b37ab00000000000000000000000000000000000000000000000000000000082528b8a8301525afa908115610519578891610527575b5081885416803b15610523578890868851809481937fd0e30db00000000000000000000000000000000000000000000000000000000083525af1801561051957908891610505575b5081600291541692878952528487205416813b156101cb578680946104e5978751988996879586947f4964e6990000000000000000000000000000000000000000000000000000000086528501526080602485015260848401906107ef565b9060448301526000606483015203925af19081156101c257506101af5750f35b61050e906106a2565b6101cb578638610486565b86513d8a823e3d90fd5b8880fd5b809850838092503d8311610556575b61054081836106e5565b81010312610551578796513861043e565b600080fd5b503d610536565b61057991503d808e833e61057181836106e5565b81019061078d565b3861039b565b88513d8c823e3d90fd5b61059e9192503d808b833e61057181836106e5565b9038610350565b87513d8b823e3d90fd5b6105c49194503d808a833e61057181836106e5565b9238610314565b9590966105d7906106a2565b9486906102d6565b85513d89823e3d90fd5b8484849234610233576020938460031936011261069e5781602481879373ffffffffffffffffffffffffffffffffffffffff60015416907f39b37ab00000000000000000000000000000000000000000000000000000000083528035908301525afa928315610693578093610661575b505051908152f35b909192508382813d831161068c575b61067a81836106e5565b810103126101bf575051908380610659565b503d610670565b8251903d90823e3d90fd5b8380fd5b67ffffffffffffffff81116106b657604052565b7f4e487b7100000000000000000000000000000000000000000000000000000000600052604160045260246000fd5b90601f8019910116810190811067ffffffffffffffff8211176106b657604052565b67ffffffffffffffff81116106b657601f01601f191660200190565b81601f820112156105515780359061073a82610707565b9261074860405194856106e5565b8284526020838301011161055157816000926020809301838601378301015290565b60005b83811061077d5750506000910152565b818101518382015260200161076d565b6020818303126105515780519067ffffffffffffffff8211610551570181601f820112156105515780516107c081610707565b926107ce60405194856106e5565b81845260208284010111610551576107ec916020808501910161076a565b90565b906020916108088151809281855285808601910161076a565b601f01601f1916010190565b519073ffffffffffffffffffffffffffffffffffffffff821682036105515756fea26469706673582212209569815eba58b9634c6adeaf5ec7ef61c610f9ce596dc3979dedb9d1d6587cf064736f6c63430008110033",
  "immutableReferences": {},
  "source": "// SPDX-License-Identifier: MIT\r\npragma solidity ^0.8.17;\r\n\r\nimport \"./../interfaces/IW3Link.sol\";\r\nimport \"./../interfaces/IW3LinkApp.sol\";\r\nimport \"./../interfaces/IW3LinkConfig.sol\";\r\n\r\nimport \"@openzeppelin/contracts/token/ERC721/IERC721.sol\";\r\nimport \"@openzeppelin/contracts/token/ERC721/extensions/IERC721Metadata.sol\";\r\n\r\nimport \"@openzeppelin/contracts/utils/Context.sol\";\r\n\r\ncontract Twirl is IW3LinkApp, Context {\r\n    IW3Link private _w3link;\r\n    IW3LinkConfig private _w3linkConfig;\r\n    mapping(uint256 => address) private _extContractIds;\r\n\r\n    constructor(address w3link_) {\r\n        _w3link = IW3Link(w3link_);\r\n        _w3linkConfig = IW3LinkConfig(_w3link.config());\r\n    }\r\n\r\n    function estimateFee(uint256 destChainId) external view returns (uint256) {\r\n        return _w3linkConfig.fee(destChainId);\r\n    }\r\n\r\n    function bridge(\r\n        uint256 destChainId,\r\n        uint256 tokenId,\r\n        address nftContractId\r\n    ) external {\r\n        IERC721 nft = IERC721(nftContractId);\r\n        IERC721Metadata metadata = IERC721Metadata(nftContractId);\r\n\r\n        nft.transferFrom(_msgSender(), address(this), tokenId);\r\n\r\n        bytes memory data = abi.encode(\r\n            tokenId,\r\n            nftContractId,\r\n            metadata.name(),\r\n            metadata.symbol(),\r\n            metadata.tokenURI(tokenId),\r\n            _msgSender()\r\n        );\r\n\r\n        uint256 estFee = _w3linkConfig.fee(destChainId);\r\n        _w3link.deposit{value: estFee}();\r\n\r\n        _w3link.dispatch(\r\n            _extContractIds[destChainId],\r\n            data,\r\n            destChainId,\r\n            \"\" /* no extra */\r\n        );\r\n    }\r\n\r\n    function execute(\r\n        uint256 /* fromChainId */,\r\n        bytes memory data,\r\n        bytes32 /* extra */\r\n    ) external override {\r\n        _w3linkConfig.onlyHandler();\r\n\r\n        (address holder, address nftContractId, uint256 tokenId) = abi.decode(\r\n            data,\r\n            (address, address, uint256)\r\n        );\r\n\r\n        IERC721 nft = IERC721(nftContractId);\r\n        nft.transferFrom(address(this), holder, tokenId);\r\n    }\r\n\r\n    function onResult(bytes memory data) external override {}\r\n}\r\n",
  "sourcePath": "C:\\Users\\DELL\\Documents\\w3link\\solidity\\contracts\\twirl\\Twirl.sol",
  "compiler": {
    "name": "solc",
    "version": "0.8.17+commit.8df45f5f.Emscripten.clang"
  },
  "schemaVersion": "3.4.11",
  "updatedAt": "2023-09-10T21:42:32.883Z",
  "devdoc": {
    "kind": "dev",
    "methods": {},
    "version": 1
  },
  "userdoc": {
    "kind": "user",
    "methods": {},
    "version": 1
  }
}