{
  "contractName": "VerifySignature",
  "abi": [
    {
      "inputs": [
        {
          "internalType": "uint256",
          "name": "_seed",
          "type": "uint256"
        }
      ],
      "name": "getHash",
      "outputs": [
        {
          "internalType": "bytes32",
          "name": "",
          "type": "bytes32"
        }
      ],
      "stateMutability": "pure",
      "type": "function"
    },
    {
      "inputs": [
        {
          "internalType": "address",
          "name": "_to",
          "type": "address"
        },
        {
          "internalType": "uint256",
          "name": "_amount",
          "type": "uint256"
        },
        {
          "internalType": "string",
          "name": "_message",
          "type": "string"
        },
        {
          "internalType": "uint256",
          "name": "_nonce",
          "type": "uint256"
        }
      ],
      "name": "getMessageHash",
      "outputs": [
        {
          "internalType": "bytes32",
          "name": "",
          "type": "bytes32"
        }
      ],
      "stateMutability": "pure",
      "type": "function"
    },
    {
      "inputs": [
        {
          "internalType": "bytes32",
          "name": "_messageHash",
          "type": "bytes32"
        }
      ],
      "name": "getEthSignedMessageHash",
      "outputs": [
        {
          "internalType": "bytes32",
          "name": "",
          "type": "bytes32"
        }
      ],
      "stateMutability": "pure",
      "type": "function"
    },
    {
      "inputs": [
        {
          "internalType": "address",
          "name": "_signer",
          "type": "address"
        },
        {
          "internalType": "address",
          "name": "_to",
          "type": "address"
        },
        {
          "internalType": "uint256",
          "name": "_amount",
          "type": "uint256"
        },
        {
          "internalType": "string",
          "name": "_message",
          "type": "string"
        },
        {
          "internalType": "uint256",
          "name": "_nonce",
          "type": "uint256"
        },
        {
          "internalType": "bytes",
          "name": "signature",
          "type": "bytes"
        }
      ],
      "name": "verify",
      "outputs": [
        {
          "internalType": "bool",
          "name": "",
          "type": "bool"
        }
      ],
      "stateMutability": "pure",
      "type": "function"
    },
    {
      "inputs": [
        {
          "internalType": "bytes32",
          "name": "_ethSignedMessageHash",
          "type": "bytes32"
        },
        {
          "internalType": "bytes",
          "name": "_signature",
          "type": "bytes"
        }
      ],
      "name": "recoverSigner",
      "outputs": [
        {
          "internalType": "address",
          "name": "",
          "type": "address"
        }
      ],
      "stateMutability": "pure",
      "type": "function"
    },
    {
      "inputs": [
        {
          "internalType": "bytes",
          "name": "sig",
          "type": "bytes"
        }
      ],
      "name": "splitSignature",
      "outputs": [
        {
          "internalType": "bytes32",
          "name": "r",
          "type": "bytes32"
        },
        {
          "internalType": "bytes32",
          "name": "s",
          "type": "bytes32"
        },
        {
          "internalType": "uint8",
          "name": "v",
          "type": "uint8"
        }
      ],
      "stateMutability": "pure",
      "type": "function"
    }
  ],
  "bytecode": "0x608080604052346100165761058b908161001c8239f35b600080fdfe60806040526004361015610013575b600080fd5b60007c01000000000000000000000000000000000000000000000000000000008135049081636b2fafa91461010057816397aba7f9146100a157508063a35f8a4014610098578063a7bb58031461008f578063abe5026a146100865763fa5408011461007e57600080fd5b61000e61034f565b5061000e6102ae565b5061000e610259565b5061000e610204565b346100fd5760403660031901126100fd576024359067ffffffffffffffff82116100fd5760206100df6100d7366004860161017c565b600435610492565b73ffffffffffffffffffffffffffffffffffffffff60405191168152f35b80fd5b346100fd5760203660031901126100fd5760043560805260206080f35b507f4e487b7100000000000000000000000000000000000000000000000000000000600052604160045260246000fd5b90601f8019910116810190811067ffffffffffffffff82111761016f57604052565b61017761011d565b604052565b81601f8201121561000e5780359067ffffffffffffffff82116101d4575b604051926101b2601f8401601f19166020018561014d565b8284526020838301011161000e57816000926020809301838601378301015290565b6101dc61011d565b61019a565b6004359073ffffffffffffffffffffffffffffffffffffffff8216820361000e57565b503461000e57608036600319011261000e5761021e6101e1565b60443567ffffffffffffffff811161000e5760209161024461025192369060040161017c565b606435916024359061036e565b604051908152f35b503461000e57602036600319011261000e5760043567ffffffffffffffff811161000e5760ff610297610292606093369060040161017c565b6104d8565b906040939293519384526020840152166040820152f35b503461000e5760c036600319011261000e576102c86101e1565b6024359073ffffffffffffffffffffffffffffffffffffffff8216820361000e5767ffffffffffffffff9060643582811161000e5761030b90369060040161017c565b9260a43592831161000e5761034b9361032b61033994369060040161017c565b926084359260443591610456565b60405190151581529081906020820190565b0390f35b503461000e57602036600319011261000e5760206102516004356103f4565b92906040519283916020906c0100000000000000000000000073ffffffffffffffffffffffffffffffffffffffff8386019816028752603484015281519160005b8381106103dd57505050906103d792607492820190605482015203605481018452018261014d565b51902090565b8181018301518782016054015286945082016103af565b60405160208101917f19457468657265756d205369676e6564204d6573736167653a0a3332000000008352603c820152603c81526060810181811067ffffffffffffffff821117610449575b60405251902090565b61045161011d565b610440565b9492936104749461046f9361046a9361036e565b6103f4565b610492565b73ffffffffffffffffffffffffffffffffffffffff90811691161490565b608060009160ff6104a46020956104d8565b6040805195865293168785015291830152606082015282805260015afa156104cc5760005190565b6040513d6000823e3d90fd5b60418151036104f7576020810151916060604083015192015160001a90565b60646040517f08c379a000000000000000000000000000000000000000000000000000000000815260206004820152601860248201527f696e76616c6964207369676e6174757265206c656e67746800000000000000006044820152fdfea264697066735822122095bfc46c8d9e5967f812228b9dcaaadf1d4d4278d23573909cc4d06cd4a6cc8364736f6c63430008110033",
  "immutableReferences": {},
  "source": "// SPDX-License-Identifier: MIT\r\npragma solidity ^0.8.17;\r\n\r\n/// @title A title that should describe the contract/interface\r\n/// @author The name of the author\r\n/// @notice Explain to an end user what this does\r\n/// @dev Explain to a developer any extra details\r\ncontract VerifySignature {\r\n    function getHash(uint256 _seed) public pure returns (bytes32) {\r\n        return bytes32(_seed);\r\n    }\r\n\r\n    function getMessageHash(\r\n        address _to,\r\n        uint _amount,\r\n        string memory _message,\r\n        uint _nonce\r\n    ) public pure returns (bytes32) {\r\n        return keccak256(abi.encodePacked(_to, _amount, _message, _nonce));\r\n    }\r\n\r\n    function getEthSignedMessageHash(\r\n        bytes32 _messageHash\r\n    ) public pure returns (bytes32) {\r\n        /*\r\n        Signature is produced by signing a keccak256 hash with the following format:\r\n        \"\\x19Ethereum Signed Message\\n\" + len(msg) + msg\r\n        */\r\n        return\r\n            keccak256(\r\n                abi.encodePacked(\r\n                    \"\\x19Ethereum Signed Message:\\n32\",\r\n                    _messageHash\r\n                )\r\n            );\r\n    }\r\n\r\n    function verify(\r\n        address _signer,\r\n        address _to,\r\n        uint _amount,\r\n        string memory _message,\r\n        uint _nonce,\r\n        bytes memory signature\r\n    ) public pure returns (bool) {\r\n        bytes32 messageHash = getMessageHash(_to, _amount, _message, _nonce);\r\n        bytes32 ethSignedMessageHash = getEthSignedMessageHash(messageHash);\r\n\r\n        return recoverSigner(ethSignedMessageHash, signature) == _signer;\r\n    }\r\n\r\n    function recoverSigner(\r\n        bytes32 _ethSignedMessageHash,\r\n        bytes memory _signature\r\n    ) public pure returns (address) {\r\n        (bytes32 r, bytes32 s, uint8 v) = splitSignature(_signature);\r\n\r\n        return ecrecover(_ethSignedMessageHash, v, r, s);\r\n    }\r\n\r\n    function splitSignature(\r\n        bytes memory sig\r\n    ) public pure returns (bytes32 r, bytes32 s, uint8 v) {\r\n        require(sig.length == 65, \"invalid signature length\");\r\n\r\n        assembly {\r\n            /*\r\n            First 32 bytes stores the length of the signature\r\n\r\n            add(sig, 32) = pointer of sig + 32\r\n            effectively, skips first 32 bytes of signature\r\n\r\n            mload(p) loads next 32 bytes starting at the memory address p into memory\r\n            */\r\n\r\n            // first 32 bytes, after the length prefix\r\n            r := mload(add(sig, 32))\r\n            // second 32 bytes\r\n            s := mload(add(sig, 64))\r\n            // final byte (first byte of the next 32 bytes)\r\n            v := byte(0, mload(add(sig, 96)))\r\n        }\r\n\r\n        // implicitly return (r, s, v)\r\n    }\r\n}\r\n",
  "sourcePath": "C:\\Users\\DELL\\Documents\\w3link\\solidity\\contracts\\signature\\VerifySignature.sol",
  "compiler": {
    "name": "solc",
    "version": "0.8.17+commit.8df45f5f.Emscripten.clang"
  },
  "schemaVersion": "3.4.11",
  "updatedAt": "2023-08-31T13:17:18.287Z",
  "devdoc": {
    "author": "The name of the author",
    "details": "Explain to a developer any extra details",
    "kind": "dev",
    "methods": {},
    "title": "A title that should describe the contract/interface",
    "version": 1
  },
  "userdoc": {
    "kind": "user",
    "methods": {},
    "notice": "Explain to an end user what this does",
    "version": 1
  }
}