{
  "contractName": "VRF",
  "abi": [
    {
      "inputs": [
        {
          "internalType": "address",
          "name": "w3link_",
          "type": "address"
        },
        {
          "internalType": "address",
          "name": "vrf_",
          "type": "address"
        }
      ],
      "stateMutability": "nonpayable",
      "type": "constructor"
    },
    {
      "inputs": [
        {
          "internalType": "address",
          "name": "have",
          "type": "address"
        },
        {
          "internalType": "address",
          "name": "want",
          "type": "address"
        }
      ],
      "name": "OnlyCoordinatorCanFulfill",
      "type": "error"
    },
    {
      "anonymous": false,
      "inputs": [
        {
          "indexed": false,
          "internalType": "uint256",
          "name": "requestId",
          "type": "uint256"
        },
        {
          "indexed": false,
          "internalType": "uint256[]",
          "name": "randomWords",
          "type": "uint256[]"
        }
      ],
      "name": "RequestFulfilled",
      "type": "event"
    },
    {
      "anonymous": false,
      "inputs": [
        {
          "indexed": false,
          "internalType": "uint256",
          "name": "requestId",
          "type": "uint256"
        },
        {
          "indexed": false,
          "internalType": "uint32",
          "name": "_numWords",
          "type": "uint32"
        }
      ],
      "name": "RequestSent",
      "type": "event"
    },
    {
      "inputs": [
        {
          "internalType": "uint256",
          "name": "",
          "type": "uint256"
        }
      ],
      "name": "_requests",
      "outputs": [
        {
          "internalType": "bool",
          "name": "fulfilled",
          "type": "bool"
        },
        {
          "internalType": "bool",
          "name": "exists",
          "type": "bool"
        },
        {
          "internalType": "uint256",
          "name": "fromChainId",
          "type": "uint256"
        },
        {
          "internalType": "address",
          "name": "fromContractId",
          "type": "address"
        }
      ],
      "stateMutability": "view",
      "type": "function"
    },
    {
      "inputs": [
        {
          "internalType": "uint256",
          "name": "requestId",
          "type": "uint256"
        },
        {
          "internalType": "uint256[]",
          "name": "randomWords",
          "type": "uint256[]"
        }
      ],
      "name": "rawFulfillRandomWords",
      "outputs": [],
      "stateMutability": "nonpayable",
      "type": "function"
    },
    {
      "stateMutability": "payable",
      "type": "receive"
    },
    {
      "inputs": [
        {
          "internalType": "uint256",
          "name": "fromChainId",
          "type": "uint256"
        },
        {
          "internalType": "bytes",
          "name": "data",
          "type": "bytes"
        },
        {
          "internalType": "bytes32",
          "name": "extra",
          "type": "bytes32"
        }
      ],
      "name": "execute",
      "outputs": [],
      "stateMutability": "nonpayable",
      "type": "function"
    },
    {
      "inputs": [
        {
          "internalType": "uint256",
          "name": "_requestId",
          "type": "uint256"
        }
      ],
      "name": "getRequestStatus",
      "outputs": [
        {
          "internalType": "bool",
          "name": "fulfilled",
          "type": "bool"
        },
        {
          "internalType": "uint256[]",
          "name": "randomWords",
          "type": "uint256[]"
        }
      ],
      "stateMutability": "view",
      "type": "function"
    },
    {
      "inputs": [
        {
          "internalType": "bytes",
          "name": "data",
          "type": "bytes"
        }
      ],
      "name": "onResult",
      "outputs": [],
      "stateMutability": "nonpayable",
      "type": "function"
    }
  ],
  "bytecode": "0x60a0604052620249f0600360146101000a81548163ffffffff021916908363ffffffff1602179055506001600360186101000a81548163ffffffff021916908363ffffffff1602179055503480156200005757600080fd5b50604051620016a2380380620016a283398181016040528101906200007d919062000278565b808073ffffffffffffffffffffffffffffffffffffffff1660808173ffffffffffffffffffffffffffffffffffffffff168152505050816000806101000a81548173ffffffffffffffffffffffffffffffffffffffff021916908373ffffffffffffffffffffffffffffffffffffffff16021790555060008054906101000a900473ffffffffffffffffffffffffffffffffffffffff1673ffffffffffffffffffffffffffffffffffffffff166379502c556040518163ffffffff1660e01b8152600401602060405180830381865afa1580156200015f573d6000803e3d6000fd5b505050506040513d601f19601f82011682018060405250810190620001859190620002bf565b600160006101000a81548173ffffffffffffffffffffffffffffffffffffffff021916908373ffffffffffffffffffffffffffffffffffffffff16021790555080600360006101000a81548173ffffffffffffffffffffffffffffffffffffffff021916908373ffffffffffffffffffffffffffffffffffffffff1602179055505050620002f1565b600080fd5b600073ffffffffffffffffffffffffffffffffffffffff82169050919050565b6000620002408262000213565b9050919050565b620002528162000233565b81146200025e57600080fd5b50565b600081519050620002728162000247565b92915050565b600080604083850312156200029257620002916200020e565b5b6000620002a28582860162000261565b9250506020620002b58582860162000261565b9150509250929050565b600060208284031215620002d857620002d76200020e565b5b6000620002e88482850162000261565b91505092915050565b60805161138e620003146000396000818161015501526101a9015261138e6000f3fe60806040526004361061004e5760003560e01c80631fe543e31461005a57806382408bb814610083578063913bebdc146100ac578063bff60c0f146100d5578063d8a4676f1461011557610055565b3661005557005b600080fd5b34801561006657600080fd5b50610081600480360381019061007c9190610b7c565b610153565b005b34801561008f57600080fd5b506100aa60048036038101906100a59190610c8d565b610213565b005b3480156100b857600080fd5b506100d360048036038101906100ce9190610d0c565b610216565b005b3480156100e157600080fd5b506100fc60048036038101906100f79190610d7b565b6104bb565b60405161010c9493929190610e13565b60405180910390f35b34801561012157600080fd5b5061013c60048036038101906101379190610d7b565b610525565b60405161014a929190610f16565b60405180910390f35b7f000000000000000000000000000000000000000000000000000000000000000073ffffffffffffffffffffffffffffffffffffffff163373ffffffffffffffffffffffffffffffffffffffff161461020557337f00000000000000000000000000000000000000000000000000000000000000006040517f1cf993f40000000000000000000000000000000000000000000000000000000081526004016101fc929190610f46565b60405180910390fd5b61020f82826106b0565b5050565b50565b60008280602001905181019061022c9190610fad565b9050600080848060200190518101906102459190611054565b915091506000600360009054906101000a900473ffffffffffffffffffffffffffffffffffffffff1673ffffffffffffffffffffffffffffffffffffffff16635d3b1d30868585600360149054906101000a900463ffffffff16600360189054906101000a900463ffffffff166040518663ffffffff1660e01b81526004016102d29594939291906110e0565b6020604051808303816000875af11580156102f1573d6000803e3d6000fd5b505050506040513d601f19601f820116820180604052508101906103159190611148565b90506040518060a00160405280600015158152602001600115158152602001600067ffffffffffffffff81111561034f5761034e610a39565b5b60405190808252806020026020018201604052801561037d5781602001602082028036833780820191505090505b5081526020018881526020018573ffffffffffffffffffffffffffffffffffffffff168152506002600083815260200190815260200160002060008201518160000160006101000a81548160ff02191690831515021790555060208201518160000160016101000a81548160ff021916908315150217905550604082015181600101908051906020019061041292919061096f565b506060820151816002015560808201518160030160006101000a81548173ffffffffffffffffffffffffffffffffffffffff021916908373ffffffffffffffffffffffffffffffffffffffff1602179055509050507fcc58b13ad3eab50626c6a6300b1d139cd6ebb1688a7cced9461c2f7e762665ee81600360189054906101000a900463ffffffff166040516104aa929190611175565b60405180910390a150505050505050565b60026020528060005260406000206000915090508060000160009054906101000a900460ff16908060000160019054906101000a900460ff16908060020154908060030160009054906101000a900473ffffffffffffffffffffffffffffffffffffffff16905084565b600060606002600084815260200190815260200160002060000160019054906101000a900460ff1661058c576040517f08c379a0000000000000000000000000000000000000000000000000000000008152600401610583906111fb565b60405180910390fd5b6000600260008581526020019081526020016000206040518060a00160405290816000820160009054906101000a900460ff161515151581526020016000820160019054906101000a900460ff161515151581526020016001820180548060200260200160405190810160405280929190818152602001828054801561063157602002820191906000526020600020905b81548152602001906001019080831161061d575b50505050508152602001600282015481526020016003820160009054906101000a900473ffffffffffffffffffffffffffffffffffffffff1673ffffffffffffffffffffffffffffffffffffffff1673ffffffffffffffffffffffffffffffffffffffff16815250509050806000015181604001519250925050915091565b60006002600084815260200190815260200160002090508060000160019054906101000a900460ff16610718576040517f08c379a000000000000000000000000000000000000000000000000000000000815260040161070f906111fb565b60405180910390fd5b60018160000160006101000a81548160ff0219169083151502179055506000600160009054906101000a900473ffffffffffffffffffffffffffffffffffffffff1673ffffffffffffffffffffffffffffffffffffffff166339b37ab083600201546040518263ffffffff1660e01b8152600401610796919061121b565b602060405180830381865afa1580156107b3573d6000803e3d6000fd5b505050506040513d601f19601f820116820180604052508101906107d79190611148565b905060008054906101000a900473ffffffffffffffffffffffffffffffffffffffff1673ffffffffffffffffffffffffffffffffffffffff1663d0e30db0826040518263ffffffff1660e01b81526004016000604051808303818588803b15801561084157600080fd5b505af1158015610855573d6000803e3d6000fd5b505050505060008054906101000a900473ffffffffffffffffffffffffffffffffffffffff1673ffffffffffffffffffffffffffffffffffffffff16634964e6998360030160009054906101000a900473ffffffffffffffffffffffffffffffffffffffff16856040516020016108cc9190611236565b60405160208183030381529060405285600201546040518463ffffffff1660e01b81526004016108fe939291906112de565b600060405180830381600087803b15801561091857600080fd5b505af115801561092c573d6000803e3d6000fd5b505050507ffe2e2d779dba245964d4e3ef9b994be63856fd568bf7d3ca9e224755cb1bd54d8484604051610961929190611328565b60405180910390a150505050565b8280548282559060005260206000209081019282156109ab579160200282015b828111156109aa57825182559160200191906001019061098f565b5b5090506109b891906109bc565b5090565b5b808211156109d55760008160009055506001016109bd565b5090565b6000604051905090565b600080fd5b600080fd5b6000819050919050565b610a00816109ed565b8114610a0b57600080fd5b50565b600081359050610a1d816109f7565b92915050565b600080fd5b6000601f19601f8301169050919050565b7f4e487b7100000000000000000000000000000000000000000000000000000000600052604160045260246000fd5b610a7182610a28565b810181811067ffffffffffffffff82111715610a9057610a8f610a39565b5b80604052505050565b6000610aa36109d9565b9050610aaf8282610a68565b919050565b600067ffffffffffffffff821115610acf57610ace610a39565b5b602082029050602081019050919050565b600080fd5b6000610af8610af384610ab4565b610a99565b90508083825260208201905060208402830185811115610b1b57610b1a610ae0565b5b835b81811015610b445780610b308882610a0e565b845260208401935050602081019050610b1d565b5050509392505050565b600082601f830112610b6357610b62610a23565b5b8135610b73848260208601610ae5565b91505092915050565b60008060408385031215610b9357610b926109e3565b5b6000610ba185828601610a0e565b925050602083013567ffffffffffffffff811115610bc257610bc16109e8565b5b610bce85828601610b4e565b9150509250929050565b600080fd5b600067ffffffffffffffff821115610bf857610bf7610a39565b5b610c0182610a28565b9050602081019050919050565b82818337600083830152505050565b6000610c30610c2b84610bdd565b610a99565b905082815260208101848484011115610c4c57610c4b610bd8565b5b610c57848285610c0e565b509392505050565b600082601f830112610c7457610c73610a23565b5b8135610c84848260208601610c1d565b91505092915050565b600060208284031215610ca357610ca26109e3565b5b600082013567ffffffffffffffff811115610cc157610cc06109e8565b5b610ccd84828501610c5f565b91505092915050565b6000819050919050565b610ce981610cd6565b8114610cf457600080fd5b50565b600081359050610d0681610ce0565b92915050565b600080600060608486031215610d2557610d246109e3565b5b6000610d3386828701610a0e565b935050602084013567ffffffffffffffff811115610d5457610d536109e8565b5b610d6086828701610c5f565b9250506040610d7186828701610cf7565b9150509250925092565b600060208284031215610d9157610d906109e3565b5b6000610d9f84828501610a0e565b91505092915050565b60008115159050919050565b610dbd81610da8565b82525050565b610dcc816109ed565b82525050565b600073ffffffffffffffffffffffffffffffffffffffff82169050919050565b6000610dfd82610dd2565b9050919050565b610e0d81610df2565b82525050565b6000608082019050610e286000830187610db4565b610e356020830186610db4565b610e426040830185610dc3565b610e4f6060830184610e04565b95945050505050565b600081519050919050565b600082825260208201905092915050565b6000819050602082019050919050565b610e8d816109ed565b82525050565b6000610e9f8383610e84565b60208301905092915050565b6000602082019050919050565b6000610ec382610e58565b610ecd8185610e63565b9350610ed883610e74565b8060005b83811015610f09578151610ef08882610e93565b9750610efb83610eab565b925050600181019050610edc565b5085935050505092915050565b6000604082019050610f2b6000830185610db4565b8181036020830152610f3d8184610eb8565b90509392505050565b6000604082019050610f5b6000830185610e04565b610f686020830184610e04565b9392505050565b6000610f7a82610dd2565b9050919050565b610f8a81610f6f565b8114610f9557600080fd5b50565b600081519050610fa781610f81565b92915050565b600060208284031215610fc357610fc26109e3565b5b6000610fd184828501610f98565b91505092915050565b600067ffffffffffffffff82169050919050565b610ff781610fda565b811461100257600080fd5b50565b60008151905061101481610fee565b92915050565b600061ffff82169050919050565b6110318161101a565b811461103c57600080fd5b50565b60008151905061104e81611028565b92915050565b6000806040838503121561106b5761106a6109e3565b5b600061107985828601611005565b925050602061108a8582860161103f565b9150509250929050565b61109d81610cd6565b82525050565b6110ac81610fda565b82525050565b6110bb8161101a565b82525050565b600063ffffffff82169050919050565b6110da816110c1565b82525050565b600060a0820190506110f56000830188611094565b61110260208301876110a3565b61110f60408301866110b2565b61111c60608301856110d1565b61112960808301846110d1565b9695505050505050565b600081519050611142816109f7565b92915050565b60006020828403121561115e5761115d6109e3565b5b600061116c84828501611133565b91505092915050565b600060408201905061118a6000830185610dc3565b61119760208301846110d1565b9392505050565b600082825260208201905092915050565b7f72657175657374206e6f7420666f756e64000000000000000000000000000000600082015250565b60006111e560118361119e565b91506111f0826111af565b602082019050919050565b60006020820190508181036000830152611214816111d8565b9050919050565b60006020820190506112306000830184610dc3565b92915050565b600060208201905081810360008301526112508184610eb8565b905092915050565b600081519050919050565b600082825260208201905092915050565b60005b83811015611292578082015181840152602081019050611277565b60008484015250505050565b60006112a982611258565b6112b38185611263565b93506112c3818560208601611274565b6112cc81610a28565b840191505092915050565b6000815250565b60006080820190506112f36000830186610e04565b8181036020830152611305818561129e565b90506113146040830184610dc3565b611320606083016112d7565b949350505050565b600060408201905061133d6000830185610dc3565b818103602083015261134f8184610eb8565b9050939250505056fea2646970667358221220e19828dabd23f66f3c30cf5544dd9117677d0c53b051797a47d909a6ff57e6f064736f6c63430008110033",
  "immutableReferences": {
    "872": [
      {
        "length": 32,
        "start": 341
      },
      {
        "length": 32,
        "start": 425
      }
    ]
  },
  "source": "// SPDX-License-Identifier: MIT\r\npragma solidity ^0.8.17;\r\n\r\nimport \"@chainlink/contracts/src/v0.8/interfaces/VRFCoordinatorV2Interface.sol\";\r\nimport \"@chainlink/contracts/src/v0.8/VRFConsumerBaseV2.sol\";\r\n\r\nimport \"./../interfaces/IW3Link.sol\";\r\nimport \"./../interfaces/IW3LinkApp.sol\";\r\nimport \"./../interfaces/IW3LinkConfig.sol\";\r\n\r\n/// @title A title that should describe the contract/interface\r\n/// @author The name of the author\r\n/// @notice Explain to an end user what this does\r\n/// @dev Explain to a developer any extra details\r\ncontract VRF is VRFConsumerBaseV2, IW3LinkApp {\r\n    IW3Link private _w3link;\r\n    IW3LinkConfig private _w3linkConfig;\r\n\r\n    // whether the request has been successfully fulfilled\r\n    // whether a requestId exists\r\n    struct RequestStatus {\r\n        bool fulfilled;\r\n        bool exists;\r\n        uint256[] randomWords;\r\n        uint256 fromChainId;\r\n        address fromContractId;\r\n    }\r\n\r\n    /* requestId --> requestStatus */\r\n    mapping(uint256 => RequestStatus) public _requests;\r\n\r\n    VRFCoordinatorV2Interface _cordinator;\r\n\r\n    uint32 private _gasLimit = 150000;\r\n    uint32 private _numWords = 1;\r\n\r\n    event RequestSent(uint256 requestId, uint32 _numWords);\r\n    event RequestFulfilled(uint256 requestId, uint256[] randomWords);\r\n\r\n    constructor(address w3link_, address vrf_) VRFConsumerBaseV2(vrf_) {\r\n        _w3link = IW3Link(w3link_);\r\n        _w3linkConfig = IW3LinkConfig(_w3link.config());\r\n\r\n        _cordinator = VRFCoordinatorV2Interface(vrf_);\r\n    }\r\n\r\n    receive() external payable {}\r\n\r\n    function execute(\r\n        uint256 fromChainId,\r\n        bytes memory data,\r\n        bytes32 extra\r\n    ) external override {\r\n        address fromContractId = abi.decode(data, (address));\r\n\r\n        (uint64 subcriptionId, uint16 confirmations) = abi.decode(\r\n            data,\r\n            (uint64, uint16)\r\n        );\r\n\r\n        uint256 requestId = _cordinator.requestRandomWords(\r\n            extra /* keyHash */,\r\n            subcriptionId,\r\n            confirmations,\r\n            _gasLimit,\r\n            _numWords\r\n        );\r\n\r\n        _requests[requestId] = RequestStatus({\r\n            randomWords: new uint256[](0),\r\n            exists: true,\r\n            fulfilled: false,\r\n            fromChainId: fromChainId,\r\n            fromContractId: fromContractId\r\n        });\r\n\r\n        emit RequestSent(requestId, _numWords);\r\n    }\r\n\r\n    function fulfillRandomWords(\r\n        uint256 _requestId,\r\n        uint256[] memory _randomWords\r\n    ) internal override {\r\n        RequestStatus storage request = _requests[_requestId];\r\n\r\n        require(request.exists, \"request not found\");\r\n        request.fulfilled = true;\r\n\r\n        uint256 estFee = _w3linkConfig.fee(request.fromChainId);\r\n        _w3link.deposit{value: estFee}();\r\n\r\n        _w3link.dispatch(\r\n            request.fromContractId,\r\n            abi.encode(_randomWords),\r\n            request.fromChainId,\r\n            \"\" /* extra */\r\n        );\r\n\r\n        emit RequestFulfilled(_requestId, _randomWords);\r\n    }\r\n\r\n    // to check the request status of random number call.\r\n    function getRequestStatus(\r\n        uint256 _requestId\r\n    ) external view returns (bool fulfilled, uint256[] memory randomWords) {\r\n        require(_requests[_requestId].exists, \"request not found\");\r\n        RequestStatus memory request = _requests[_requestId];\r\n        return (request.fulfilled, request.randomWords);\r\n    }\r\n\r\n    function onResult(bytes memory data) external override {}\r\n}\r\n",
  "sourcePath": "C:\\Users\\DELL\\Documents\\w3link\\solidity\\contracts\\services\\VRF.sol",
  "compiler": {
    "name": "solc",
    "version": "0.8.17+commit.8df45f5f.Emscripten.clang"
  },
  "schemaVersion": "3.4.11",
  "updatedAt": "2023-08-27T09:14:53.634Z",
  "devdoc": {
    "author": "The name of the author",
    "details": "Explain to a developer any extra details",
    "kind": "dev",
    "methods": {},
    "title": "A title that should describe the contract/interface",
    "version": 1
  },
  "userdoc": {
    "kind": "user",
    "methods": {},
    "notice": "Explain to an end user what this does",
    "version": 1
  }
}