{
  "contractName": "VRF",
  "abi": [
    {
      "inputs": [
        {
          "internalType": "address",
          "name": "w3link_",
          "type": "address"
        },
        {
          "internalType": "address",
          "name": "vrf_",
          "type": "address"
        }
      ],
      "stateMutability": "nonpayable",
      "type": "constructor"
    },
    {
      "inputs": [
        {
          "internalType": "address",
          "name": "have",
          "type": "address"
        },
        {
          "internalType": "address",
          "name": "want",
          "type": "address"
        }
      ],
      "name": "OnlyCoordinatorCanFulfill",
      "type": "error"
    },
    {
      "anonymous": false,
      "inputs": [
        {
          "indexed": false,
          "internalType": "uint256",
          "name": "requestId",
          "type": "uint256"
        },
        {
          "indexed": false,
          "internalType": "uint256[]",
          "name": "randomWords",
          "type": "uint256[]"
        }
      ],
      "name": "RequestFulfilled",
      "type": "event"
    },
    {
      "anonymous": false,
      "inputs": [
        {
          "indexed": false,
          "internalType": "uint256",
          "name": "requestId",
          "type": "uint256"
        },
        {
          "indexed": false,
          "internalType": "uint32",
          "name": "_numWords",
          "type": "uint32"
        }
      ],
      "name": "RequestSent",
      "type": "event"
    },
    {
      "inputs": [
        {
          "internalType": "uint256",
          "name": "",
          "type": "uint256"
        }
      ],
      "name": "_requests",
      "outputs": [
        {
          "internalType": "bool",
          "name": "fulfilled",
          "type": "bool"
        },
        {
          "internalType": "bool",
          "name": "exists",
          "type": "bool"
        },
        {
          "internalType": "uint256",
          "name": "fromChainId",
          "type": "uint256"
        },
        {
          "internalType": "address",
          "name": "fromContractId",
          "type": "address"
        }
      ],
      "stateMutability": "view",
      "type": "function"
    },
    {
      "inputs": [
        {
          "internalType": "uint256",
          "name": "requestId",
          "type": "uint256"
        },
        {
          "internalType": "uint256[]",
          "name": "randomWords",
          "type": "uint256[]"
        }
      ],
      "name": "rawFulfillRandomWords",
      "outputs": [],
      "stateMutability": "nonpayable",
      "type": "function"
    },
    {
      "stateMutability": "payable",
      "type": "receive"
    },
    {
      "inputs": [
        {
          "internalType": "uint256",
          "name": "fromChainId",
          "type": "uint256"
        },
        {
          "internalType": "bytes",
          "name": "data",
          "type": "bytes"
        },
        {
          "internalType": "bytes32",
          "name": "extra",
          "type": "bytes32"
        }
      ],
      "name": "execute",
      "outputs": [],
      "stateMutability": "nonpayable",
      "type": "function"
    },
    {
      "inputs": [
        {
          "internalType": "uint256",
          "name": "_requestId",
          "type": "uint256"
        }
      ],
      "name": "getRequestStatus",
      "outputs": [
        {
          "internalType": "bool",
          "name": "fulfilled",
          "type": "bool"
        },
        {
          "internalType": "uint256[]",
          "name": "randomWords",
          "type": "uint256[]"
        }
      ],
      "stateMutability": "view",
      "type": "function"
    },
    {
      "inputs": [
        {
          "internalType": "bytes",
          "name": "data",
          "type": "bytes"
        }
      ],
      "name": "onResult",
      "outputs": [],
      "stateMutability": "nonpayable",
      "type": "function"
    }
  ],
  "bytecode": "0x60a080604052346101a557604081610cb2803803809161001f82856101aa565b8339810103126101a55761003e6020610037836101fb565b92016101fb565b90816080526003547801000249f0000000000000000000000000000000000000000091827bffffffffffffffff000000000000000000000000000000000000000019831617600355600160a060020a0380911693600160a060020a03196004602060009780848a5416178955604051928380927f79502c550000000000000000000000000000000000000000000000000000000082525afa968715610199578097610135575b5050827fffffffff00000000000000000000000000000000000000000000000000000000949596169060015416176001551691161717600355604051610aa290816102108239608051816106530152f35b9096506020873d8211610191575b81610150602093836101aa565b8101031261018e5750826101867fffffffff000000000000000000000000000000000000000000000000000000009596976101fb565b9695946100e4565b80fd5b3d9150610143565b604051903d90823e3d90fd5b600080fd5b90601f8019910116810190811067ffffffffffffffff8211176101cc57604052565b7f4e487b7100000000000000000000000000000000000000000000000000000000600052604160045260246000fd5b5190600160a060020a03821682036101a55756fe608080604052600436101561001d575b50361561001b57600080fd5b005b6000907c01000000000000000000000000000000000000000000000000000000008235049081631fe543e3146105d15750806382408bb81461059b578063913bebdc146101c5578063bff60c0f146101675763d8a4676f0361000f573461016457602090816003193601126101645760043580825260028352610100906100ac60ff8360408620540416610a07565b8252600283526040822060ff604051926100c58461093e565b825482811615158552041615158483015260019283820160405191829586938884549182815201938352888320925b8982821061014e578661014a8a600160a060020a0360038c610118868d038761095a565b8560408501526002810154606085015201541660808201525115159160408051948594855284015260408301906109d3565b0390f35b84548652899650909401939282019282016100f4565b80fd5b50346101645760203660031901126101645760406080916004358152600260205220805490600160a060020a0360036002830154920154169060ff610100604051948281161515865204161515602084015260408301526060820152f35b50346101645760603660031901126101645760243567ffffffffffffffff811161058c576101f790369060040161097c565b81600160a060020a0360015416803b1561058c578180916004604051809481937fb11d16fb0000000000000000000000000000000000000000000000000000000083525af1801561059057610578575b50508080518101036020811261057457602082015190600160a060020a0382168203610570576040136105745767ffffffffffffffff811691828203610570576040015161ffff81168091036105705760209060a46003549486600160a060020a0360405197889586947f5d3b1d3000000000000000000000000000000000000000000000000000000000865260443560048701526024860152604485015263ffffffff74010000000000000000000000000000000000000000820416606485015263ffffffff78010000000000000000000000000000000000000000000000008204166084850152165af191821561056557839261052c575b5060405190602082019082821067ffffffffffffffff8311176104fd57600160a060020a03916040528483526040519261037a8461093e565b858452600160208501526040840152600435606084015216608082015281835260026020526040832081511515815460ff61ff0061010060208701511515021692169061ffff1916171781556001810160408301519081519167ffffffffffffffff83116104d0576801000000000000000083116104d05781548383558084106104aa575b5060200190865260208620865b83811061049657877fcc58b13ad3eab50626c6a6300b1d139cd6ebb1688a7cced9461c2f7e762665ee60408989600160a060020a03608060038c606085015160028201550192015116600160a060020a031982541617905563ffffffff7801000000000000000000000000000000000000000000000000600354041682519182526020820152a180f35b60019060208451940193818401550161040c565b828852836020892091820191015b8181106104c557506103ff565b8881556001016104b8565b6024877f4e487b710000000000000000000000000000000000000000000000000000000081526041600452fd5b7f4e487b7100000000000000000000000000000000000000000000000000000000600052604160045260246000fd5b9091506020813d60201161055d575b816105486020938361095a565b8101031261055857519038610341565b600080fd5b3d915061053b565b6040513d85823e3d90fd5b8380fd5b8280fd5b6105819061092a565b61058c578138610247565b5080fd5b6040513d84823e3d90fd5b50346101645760203660031901126101645760043567ffffffffffffffff811161058c576105cd90369060040161097c565b5080f35b82346101645760403660031901126101645760249167ffffffffffffffff600435843582811161092657366023820112156109265780600401359283116108fa57602092838102906106258583018761095a565b85528684860191830101913683116108f65787859101915b8383106108e65750505050600160a060020a03807f0000000000000000000000000000000000000000000000000000000000000000168033036108b0575081855260028352604085206001815461069a60ff610100830416610a07565b60ff191617815581600154169160028201928584548a604051809481937f39b37ab000000000000000000000000000000000000000000000000000000000835260048301525afa90811561087457889161087f575b5081885416803b1561085d5788906004604051809481937fd0e30db00000000000000000000000000000000000000000000000000000000083525af1801561087457610861575b5060038188541692015416916040519785808a01528861075960408201896109d3565b039161076d601f19938481018c528b61095a565b5490833b1561085d57608090604051957f4964e6990000000000000000000000000000000000000000000000000000000087526004870152850152885190816084860152885b828110610849575092848960a48282989796601f8785998686869b87010152604485015260006064850152011681010301925af1801561059057610835575b505061082f7ffe2e2d779dba245964d4e3ef9b994be63856fd568bf7d3ca9e224755cb1bd54d9360408051948594855284015260408301906109d3565b0390a180f35b61083e9061092a565b6105705783856107f2565b8a810188015186820160a4015287016107b3565b8880fd5b61086d9097919761092a565b9588610736565b6040513d8a823e3d90fd5b90508581813d83116108a9575b610896818361095a565b810103126108a55751896106ef565b8780fd5b503d61088c565b86604491604051917f1cf993f4000000000000000000000000000000000000000000000000000000008352336004840152820152fd5b823581529181019185910161063d565b8680fd5b85857f4e487b710000000000000000000000000000000000000000000000000000000081526041600452fd5b8480fd5b67ffffffffffffffff81116104fd57604052565b60a0810190811067ffffffffffffffff8211176104fd57604052565b90601f8019910116810190811067ffffffffffffffff8211176104fd57604052565b81601f820112156105585780359067ffffffffffffffff82116104fd57604051926109b1601f8401601f19166020018561095a565b8284526020838301011161055857816000926020809301838601378301015290565b90815180825260208080930193019160005b8281106109f3575050505090565b8351855293810193928101926001016109e5565b15610a0e57565b60646040517f08c379a000000000000000000000000000000000000000000000000000000000815260206004820152601160248201527f72657175657374206e6f7420666f756e640000000000000000000000000000006044820152fdfea26469706673582212209344e110bf5cde827e82308b2dd697a912130b030d03f0e3d27b140d2d99a66e64736f6c63430008110033",
  "immutableReferences": {
    "872": [
      {
        "length": 32,
        "start": 1619
      }
    ]
  },
  "source": "// SPDX-License-Identifier: MIT\r\npragma solidity ^0.8.17;\r\n\r\nimport \"@chainlink/contracts/src/v0.8/interfaces/VRFCoordinatorV2Interface.sol\";\r\nimport \"@chainlink/contracts/src/v0.8/VRFConsumerBaseV2.sol\";\r\n\r\nimport \"./../interfaces/IW3Link.sol\";\r\nimport \"./../interfaces/IW3LinkApp.sol\";\r\nimport \"./../interfaces/IW3LinkConfig.sol\";\r\n\r\n/// @title A title that should describe the contract/interface\r\n/// @author The name of the author\r\n/// @notice Explain to an end user what this does\r\n/// @dev Explain to a developer any extra details\r\ncontract VRF is VRFConsumerBaseV2, IW3LinkApp {\r\n    IW3Link private _w3link;\r\n    IW3LinkConfig private _w3linkConfig;\r\n\r\n    // whether the request has been successfully fulfilled\r\n    // whether a requestId exists\r\n    struct RequestStatus {\r\n        bool fulfilled;\r\n        bool exists;\r\n        uint256[] randomWords;\r\n        uint256 fromChainId;\r\n        address fromContractId;\r\n    }\r\n\r\n    /* requestId --> requestStatus */\r\n    mapping(uint256 => RequestStatus) public _requests;\r\n\r\n    VRFCoordinatorV2Interface _cordinator;\r\n\r\n    uint32 private _gasLimit = 150000;\r\n    uint32 private _numWords = 1;\r\n\r\n    event RequestSent(uint256 requestId, uint32 _numWords);\r\n    event RequestFulfilled(uint256 requestId, uint256[] randomWords);\r\n\r\n    constructor(address w3link_, address vrf_) VRFConsumerBaseV2(vrf_) {\r\n        _w3link = IW3Link(w3link_);\r\n        _w3linkConfig = IW3LinkConfig(_w3link.config());\r\n\r\n        _cordinator = VRFCoordinatorV2Interface(vrf_);\r\n    }\r\n\r\n    receive() external payable {}\r\n\r\n    function execute(\r\n        uint256 fromChainId,\r\n        bytes memory data,\r\n        bytes32 extra\r\n    ) external override {\r\n        _w3linkConfig.onlyHandler();\r\n        \r\n        address fromContractId = abi.decode(data, (address));\r\n\r\n        (uint64 subcriptionId, uint16 confirmations) = abi.decode(\r\n            data,\r\n            (uint64, uint16)\r\n        );\r\n\r\n        uint256 requestId = _cordinator.requestRandomWords(\r\n            extra /* keyHash */,\r\n            subcriptionId,\r\n            confirmations,\r\n            _gasLimit,\r\n            _numWords\r\n        );\r\n\r\n        _requests[requestId] = RequestStatus({\r\n            randomWords: new uint256[](0),\r\n            exists: true,\r\n            fulfilled: false,\r\n            fromChainId: fromChainId,\r\n            fromContractId: fromContractId\r\n        });\r\n\r\n        emit RequestSent(requestId, _numWords);\r\n    }\r\n\r\n    function fulfillRandomWords(\r\n        uint256 _requestId,\r\n        uint256[] memory _randomWords\r\n    ) internal override {\r\n        RequestStatus storage request = _requests[_requestId];\r\n\r\n        require(request.exists, \"request not found\");\r\n        request.fulfilled = true;\r\n\r\n        uint256 estFee = _w3linkConfig.fee(request.fromChainId);\r\n        _w3link.deposit{value: estFee}();\r\n\r\n        _w3link.dispatch(\r\n            request.fromContractId,\r\n            abi.encode(_randomWords),\r\n            request.fromChainId,\r\n            \"\" /* extra */\r\n        );\r\n\r\n        emit RequestFulfilled(_requestId, _randomWords);\r\n    }\r\n\r\n    // to check the request status of random number call.\r\n    function getRequestStatus(\r\n        uint256 _requestId\r\n    ) external view returns (bool fulfilled, uint256[] memory randomWords) {\r\n        require(_requests[_requestId].exists, \"request not found\");\r\n        RequestStatus memory request = _requests[_requestId];\r\n        return (request.fulfilled, request.randomWords);\r\n    }\r\n\r\n    function onResult(bytes memory data) external override {}\r\n}\r\n",
  "sourcePath": "C:\\Users\\DELL\\Documents\\w3link\\solidity\\contracts\\services\\VRF.sol",
  "compiler": {
    "name": "solc",
    "version": "0.8.17+commit.8df45f5f.Emscripten.clang"
  },
  "schemaVersion": "3.4.11",
  "updatedAt": "2023-09-11T07:10:03.003Z",
  "devdoc": {
    "author": "The name of the author",
    "details": "Explain to a developer any extra details",
    "kind": "dev",
    "methods": {},
    "title": "A title that should describe the contract/interface",
    "version": 1
  },
  "userdoc": {
    "kind": "user",
    "methods": {},
    "notice": "Explain to an end user what this does",
    "version": 1
  }
}