{
  "contractName": "W3LinkVRF",
  "abi": [
    {
      "inputs": [],
      "stateMutability": "nonpayable",
      "type": "constructor"
    },
    {
      "anonymous": false,
      "inputs": [],
      "name": "Generate",
      "type": "event"
    },
    {
      "anonymous": false,
      "inputs": [
        {
          "indexed": false,
          "internalType": "uint256",
          "name": "newFee",
          "type": "uint256"
        }
      ],
      "name": "SetFee",
      "type": "event"
    },
    {
      "inputs": [
        {
          "internalType": "uint256",
          "name": "",
          "type": "uint256"
        },
        {
          "internalType": "bytes",
          "name": "data",
          "type": "bytes"
        },
        {
          "internalType": "bytes32",
          "name": "",
          "type": "bytes32"
        }
      ],
      "name": "execute",
      "outputs": [],
      "stateMutability": "nonpayable",
      "type": "function"
    },
    {
      "inputs": [],
      "name": "generate",
      "outputs": [],
      "stateMutability": "payable",
      "type": "function"
    },
    {
      "inputs": [
        {
          "internalType": "bytes",
          "name": "data",
          "type": "bytes"
        }
      ],
      "name": "onResult",
      "outputs": [],
      "stateMutability": "nonpayable",
      "type": "function"
    },
    {
      "inputs": [
        {
          "internalType": "uint256",
          "name": "newFee",
          "type": "uint256"
        }
      ],
      "name": "setFee",
      "outputs": [],
      "stateMutability": "nonpayable",
      "type": "function"
    },
    {
      "inputs": [],
      "name": "totalFee",
      "outputs": [
        {
          "internalType": "uint256",
          "name": "",
          "type": "uint256"
        }
      ],
      "stateMutability": "view",
      "type": "function"
    }
  ],
  "bytecode": "0x60a060405266038d7ea4c6800060055534801561001b57600080fd5b507f79d3d8832d904592c0bf9818b621522c988bb8b0c05cdc3b15aea1b6e8db0c1560001b6001600373c8709a2ab8cfdb387b8ac71c6083141c16d805c86000806101000a81548173ffffffffffffffffffffffffffffffffffffffff021916908373ffffffffffffffffffffffffffffffffffffffff16021790555060008054906101000a900473ffffffffffffffffffffffffffffffffffffffff1673ffffffffffffffffffffffffffffffffffffffff166379502c556040518163ffffffff1660e01b8152600401602060405180830381865afa158015610103573d6000803e3d6000fd5b505050506040513d601f19601f82011682018060405250810190610127919061027e565b600160006101000a81548173ffffffffffffffffffffffffffffffffffffffff021916908373ffffffffffffffffffffffffffffffffffffffff16021790555073c8709a2ab8cfdb387b8ac71c6083141c16d805c8600260006101000a81548173ffffffffffffffffffffffffffffffffffffffff021916908373ffffffffffffffffffffffffffffffffffffffff160217905550610fa2600381905550826080818152505081600460006101000a81548167ffffffffffffffff021916908367ffffffffffffffff16021790555080600460086101000a81548161ffff021916908361ffff1602179055505050506102ab565b600080fd5b600073ffffffffffffffffffffffffffffffffffffffff82169050919050565b600061024b82610220565b9050919050565b61025b81610240565b811461026657600080fd5b50565b60008151905061027881610252565b92915050565b6000602082840312156102945761029361021b565b5b60006102a284828501610269565b91505092915050565b608051610ba36102c660003960006103da0152610ba36000f3fe60806040526004361061004a5760003560e01c80631df4ccfc1461004f5780632a1bbc341461007a57806369fe0e2d1461008457806382408bb8146100ad578063913bebdc146100d6575b600080fd5b34801561005b57600080fd5b506100646100ff565b60405161007191906104fa565b60405180910390f35b6100826101b6565b005b34801561009057600080fd5b506100ab60048036038101906100a69190610555565b61047a565b005b3480156100b957600080fd5b506100d460048036038101906100cf91906106c8565b6104ba565b005b3480156100e257600080fd5b506100fd60048036038101906100f89190610747565b6104bd565b005b600080600160009054906101000a900473ffffffffffffffffffffffffffffffffffffffff1673ffffffffffffffffffffffffffffffffffffffff166339b37ab06003546040518263ffffffff1660e01b815260040161015f91906104fa565b602060405180830381865afa15801561017c573d6000803e3d6000fd5b505050506040513d601f19601f820116820180604052508101906101a091906107cb565b9050600554816101b09190610827565b91505090565b6000600160009054906101000a900473ffffffffffffffffffffffffffffffffffffffff1673ffffffffffffffffffffffffffffffffffffffff166339b37ab06003546040518263ffffffff1660e01b815260040161021591906104fa565b602060405180830381865afa158015610232573d6000803e3d6000fd5b505050506040513d601f19601f8201168201806040525081019061025691906107cb565b9050600554816102669190610827565b3410156102a8576040517f08c379a000000000000000000000000000000000000000000000000000000000815260040161029f906108b8565b60405180910390fd5b6000600460009054906101000a900467ffffffffffffffff16600460089054906101000a900461ffff166040516020016102e3929190610918565b604051602081830303815290604052905060008054906101000a900473ffffffffffffffffffffffffffffffffffffffff1673ffffffffffffffffffffffffffffffffffffffff1663d0e30db0836040518263ffffffff1660e01b81526004016000604051808303818588803b15801561035c57600080fd5b505af1158015610370573d6000803e3d6000fd5b505050505060008054906101000a900473ffffffffffffffffffffffffffffffffffffffff1673ffffffffffffffffffffffffffffffffffffffff16634964e699600260009054906101000a900473ffffffffffffffffffffffffffffffffffffffff16836003547f00000000000000000000000000000000000000000000000000000000000000006040518563ffffffff1660e01b81526004016104189493929190610a10565b600060405180830381600087803b15801561043257600080fd5b505af1158015610446573d6000803e3d6000fd5b505050507fd805b6505f3febb06284f19b75535ba6d28960f7e026ea07bcc05051f237cf6760405160405180910390a15050565b806005819055507e172ddfc5ae88d08b3de01a5a187667c37a5a53989e8c175055cb6c993792a7816040516104af91906104fa565b60405180910390a150565b50565b6104d9828060200190518101906104d49190610b24565b6104de565b505050565b50565b6000819050919050565b6104f4816104e1565b82525050565b600060208201905061050f60008301846104eb565b92915050565b6000604051905090565b600080fd5b600080fd5b610532816104e1565b811461053d57600080fd5b50565b60008135905061054f81610529565b92915050565b60006020828403121561056b5761056a61051f565b5b600061057984828501610540565b91505092915050565b600080fd5b600080fd5b6000601f19601f8301169050919050565b7f4e487b7100000000000000000000000000000000000000000000000000000000600052604160045260246000fd5b6105d58261058c565b810181811067ffffffffffffffff821117156105f4576105f361059d565b5b80604052505050565b6000610607610515565b905061061382826105cc565b919050565b600067ffffffffffffffff8211156106335761063261059d565b5b61063c8261058c565b9050602081019050919050565b82818337600083830152505050565b600061066b61066684610618565b6105fd565b90508281526020810184848401111561068757610686610587565b5b610692848285610649565b509392505050565b600082601f8301126106af576106ae610582565b5b81356106bf848260208601610658565b91505092915050565b6000602082840312156106de576106dd61051f565b5b600082013567ffffffffffffffff8111156106fc576106fb610524565b5b6107088482850161069a565b91505092915050565b6000819050919050565b61072481610711565b811461072f57600080fd5b50565b6000813590506107418161071b565b92915050565b6000806000606084860312156107605761075f61051f565b5b600061076e86828701610540565b935050602084013567ffffffffffffffff81111561078f5761078e610524565b5b61079b8682870161069a565b92505060406107ac86828701610732565b9150509250925092565b6000815190506107c581610529565b92915050565b6000602082840312156107e1576107e061051f565b5b60006107ef848285016107b6565b91505092915050565b7f4e487b7100000000000000000000000000000000000000000000000000000000600052601160045260246000fd5b6000610832826104e1565b915061083d836104e1565b9250828201905080821115610855576108546107f8565b5b92915050565b600082825260208201905092915050565b7f55736520746f74616c466565282920746f206573742e20666565000000000000600082015250565b60006108a2601a8361085b565b91506108ad8261086c565b602082019050919050565b600060208201905081810360008301526108d181610895565b9050919050565b600067ffffffffffffffff82169050919050565b6108f5816108d8565b82525050565b600061ffff82169050919050565b610912816108fb565b82525050565b600060408201905061092d60008301856108ec565b61093a6020830184610909565b9392505050565b600073ffffffffffffffffffffffffffffffffffffffff82169050919050565b600061096c82610941565b9050919050565b61097c81610961565b82525050565b600081519050919050565b600082825260208201905092915050565b60005b838110156109bc5780820151818401526020810190506109a1565b60008484015250505050565b60006109d382610982565b6109dd818561098d565b93506109ed81856020860161099e565b6109f68161058c565b840191505092915050565b610a0a81610711565b82525050565b6000608082019050610a256000830187610973565b8181036020830152610a3781866109c8565b9050610a4660408301856104eb565b610a536060830184610a01565b95945050505050565b600067ffffffffffffffff821115610a7757610a7661059d565b5b602082029050602081019050919050565b600080fd5b6000610aa0610a9b84610a5c565b6105fd565b90508083825260208201905060208402830185811115610ac357610ac2610a88565b5b835b81811015610aec5780610ad888826107b6565b845260208401935050602081019050610ac5565b5050509392505050565b600082601f830112610b0b57610b0a610582565b5b8151610b1b848260208601610a8d565b91505092915050565b600060208284031215610b3a57610b3961051f565b5b600082015167ffffffffffffffff811115610b5857610b57610524565b5b610b6484828501610af6565b9150509291505056fea2646970667358221220b9a17d9de64cac8fbe45cfe1cca796d25db68bc723fbb9f3a5c5913ef63a5d4164736f6c63430008110033",
  "immutableReferences": {
    "6285": [
      {
        "length": 32,
        "start": 986
      }
    ]
  },
  "source": "// SPDX-License-Identifier: MIT\r\npragma solidity ^0.8.17;\r\n\r\nimport \"./../services/VRFExtension.sol\";\r\n\r\n/// @title A title that should describe the contract/interface\r\n/// @author The name of the author\r\n/// @notice Explain to an end user what this does\r\n/// @dev Explain to a developer any extra details\r\ncontract W3LinkVRF is VRFExtension {\r\n    constructor()\r\n        VRFExtension(\r\n            0x79d3d8832d904592c0bf9818b621522c988bb8b0c05cdc3b15aea1b6e8db0c15 /* keyHash */,\r\n            1 /* subcriptionId */,\r\n            3 /* confirmations */\r\n        )\r\n    {}\r\n\r\n    function onRandomWords(\r\n        uint256[] memory randomWords\r\n    ) internal virtual override {\r\n        /* Put your code here */\r\n    }\r\n}\r\n",
  "sourcePath": "C:\\Users\\DELL\\Documents\\w3link\\solidity\\contracts\\mocks\\W3LinkVRF.sol",
  "compiler": {
    "name": "solc",
    "version": "0.8.17+commit.8df45f5f.Emscripten.clang"
  },
  "schemaVersion": "3.4.11",
  "updatedAt": "2023-08-28T10:30:35.431Z",
  "devdoc": {
    "author": "The name of the author",
    "details": "Explain to a developer any extra details",
    "kind": "dev",
    "methods": {},
    "title": "A title that should describe the contract/interface",
    "version": 1
  },
  "userdoc": {
    "kind": "user",
    "methods": {},
    "notice": "Explain to an end user what this does",
    "version": 1
  }
}