{
  "contractName": "W3LinkUintApi",
  "abi": [
    {
      "anonymous": false,
      "inputs": [],
      "name": "Fetch",
      "type": "event"
    },
    {
      "anonymous": false,
      "inputs": [
        {
          "indexed": false,
          "internalType": "uint256",
          "name": "newFee",
          "type": "uint256"
        }
      ],
      "name": "SetFee",
      "type": "event"
    },
    {
      "inputs": [
        {
          "internalType": "uint256",
          "name": "",
          "type": "uint256"
        },
        {
          "internalType": "bytes",
          "name": "data",
          "type": "bytes"
        },
        {
          "internalType": "bytes32",
          "name": "",
          "type": "bytes32"
        }
      ],
      "name": "execute",
      "outputs": [],
      "stateMutability": "nonpayable",
      "type": "function"
    },
    {
      "inputs": [
        {
          "internalType": "string",
          "name": "url",
          "type": "string"
        },
        {
          "internalType": "string",
          "name": "path",
          "type": "string"
        },
        {
          "internalType": "int256",
          "name": "times",
          "type": "int256"
        }
      ],
      "name": "fetch",
      "outputs": [],
      "stateMutability": "payable",
      "type": "function"
    },
    {
      "inputs": [
        {
          "internalType": "bytes",
          "name": "data",
          "type": "bytes"
        }
      ],
      "name": "onResult",
      "outputs": [],
      "stateMutability": "nonpayable",
      "type": "function"
    },
    {
      "inputs": [
        {
          "internalType": "uint256",
          "name": "newFee",
          "type": "uint256"
        }
      ],
      "name": "setFee",
      "outputs": [],
      "stateMutability": "nonpayable",
      "type": "function"
    },
    {
      "inputs": [],
      "name": "totalFee",
      "outputs": [
        {
          "internalType": "uint256",
          "name": "",
          "type": "uint256"
        }
      ],
      "stateMutability": "view",
      "type": "function"
    }
  ],
  "bytecode": "0x608060405266071afd498d000060045534801561001b57600080fd5b50610bf88061002b6000396000f3fe60806040526004361061004a5760003560e01c80631df4ccfc1461004f57806369fe0e2d1461007a578063716ea9a7146100a357806382408bb8146100bf578063913bebdc146100e8575b600080fd5b34801561005b57600080fd5b50610064610111565b60405161007191906104cb565b60405180910390f35b34801561008657600080fd5b506100a1600480360381019061009c9190610526565b6101c8565b005b6100bd60048036038101906100b891906106cf565b610208565b005b3480156100cb57600080fd5b506100e660048036038101906100e191906107fb565b61048b565b005b3480156100f457600080fd5b5061010f600480360381019061010a919061087a565b61048e565b005b600080600160009054906101000a900473ffffffffffffffffffffffffffffffffffffffff1673ffffffffffffffffffffffffffffffffffffffff166339b37ab06003546040518263ffffffff1660e01b815260040161017191906104cb565b602060405180830381865afa15801561018e573d6000803e3d6000fd5b505050506040513d601f19601f820116820180604052508101906101b291906108fe565b9050600454816101c2919061095a565b91505090565b806004819055507e172ddfc5ae88d08b3de01a5a187667c37a5a53989e8c175055cb6c993792a7816040516101fd91906104cb565b60405180910390a150565b6000600160009054906101000a900473ffffffffffffffffffffffffffffffffffffffff1673ffffffffffffffffffffffffffffffffffffffff166339b37ab06003546040518263ffffffff1660e01b815260040161026791906104cb565b602060405180830381865afa158015610284573d6000803e3d6000fd5b505050506040513d601f19601f820116820180604052508101906102a891906108fe565b9050600454816102b8919061095a565b3410156102fa576040517f08c379a00000000000000000000000000000000000000000000000000000000081526004016102f1906109eb565b60405180910390fd5b6000848430856040516020016103139493929190610ac9565b604051602081830303815290604052905060008054906101000a900473ffffffffffffffffffffffffffffffffffffffff1673ffffffffffffffffffffffffffffffffffffffff1663d0e30db0836040518263ffffffff1660e01b81526004016000604051808303818588803b15801561038c57600080fd5b505af11580156103a0573d6000803e3d6000fd5b505050505060008054906101000a900473ffffffffffffffffffffffffffffffffffffffff1673ffffffffffffffffffffffffffffffffffffffff16634964e699600260009054906101000a900473ffffffffffffffffffffffffffffffffffffffff16836003546040518463ffffffff1660e01b815260040161042693929190610b78565b600060405180830381600087803b15801561044057600080fd5b505af1158015610454573d6000803e3d6000fd5b505050507f65870cd23ceedf78a65a5191a0db21d432184dfc71eabb213085fd6ac7d2d86d60405160405180910390a15050505050565b50565b6104aa828060200190518101906104a591906108fe565b6104af565b505050565b50565b6000819050919050565b6104c5816104b2565b82525050565b60006020820190506104e060008301846104bc565b92915050565b6000604051905090565b600080fd5b600080fd5b610503816104b2565b811461050e57600080fd5b50565b600081359050610520816104fa565b92915050565b60006020828403121561053c5761053b6104f0565b5b600061054a84828501610511565b91505092915050565b600080fd5b600080fd5b6000601f19601f8301169050919050565b7f4e487b7100000000000000000000000000000000000000000000000000000000600052604160045260246000fd5b6105a68261055d565b810181811067ffffffffffffffff821117156105c5576105c461056e565b5b80604052505050565b60006105d86104e6565b90506105e4828261059d565b919050565b600067ffffffffffffffff8211156106045761060361056e565b5b61060d8261055d565b9050602081019050919050565b82818337600083830152505050565b600061063c610637846105e9565b6105ce565b90508281526020810184848401111561065857610657610558565b5b61066384828561061a565b509392505050565b600082601f8301126106805761067f610553565b5b8135610690848260208601610629565b91505092915050565b6000819050919050565b6106ac81610699565b81146106b757600080fd5b50565b6000813590506106c9816106a3565b92915050565b6000806000606084860312156106e8576106e76104f0565b5b600084013567ffffffffffffffff811115610706576107056104f5565b5b6107128682870161066b565b935050602084013567ffffffffffffffff811115610733576107326104f5565b5b61073f8682870161066b565b9250506040610750868287016106ba565b9150509250925092565b600067ffffffffffffffff8211156107755761077461056e565b5b61077e8261055d565b9050602081019050919050565b600061079e6107998461075a565b6105ce565b9050828152602081018484840111156107ba576107b9610558565b5b6107c584828561061a565b509392505050565b600082601f8301126107e2576107e1610553565b5b81356107f284826020860161078b565b91505092915050565b600060208284031215610811576108106104f0565b5b600082013567ffffffffffffffff81111561082f5761082e6104f5565b5b61083b848285016107cd565b91505092915050565b6000819050919050565b61085781610844565b811461086257600080fd5b50565b6000813590506108748161084e565b92915050565b600080600060608486031215610893576108926104f0565b5b60006108a186828701610511565b935050602084013567ffffffffffffffff8111156108c2576108c16104f5565b5b6108ce868287016107cd565b92505060406108df86828701610865565b9150509250925092565b6000815190506108f8816104fa565b92915050565b600060208284031215610914576109136104f0565b5b6000610922848285016108e9565b91505092915050565b7f4e487b7100000000000000000000000000000000000000000000000000000000600052601160045260246000fd5b6000610965826104b2565b9150610970836104b2565b92508282019050808211156109885761098761092b565b5b92915050565b600082825260208201905092915050565b7f55736520746f74616c466565282920746f206573742e20666565000000000000600082015250565b60006109d5601a8361098e565b91506109e08261099f565b602082019050919050565b60006020820190508181036000830152610a04816109c8565b9050919050565b600081519050919050565b60005b83811015610a34578082015181840152602081019050610a19565b60008484015250505050565b6000610a4b82610a0b565b610a55818561098e565b9350610a65818560208601610a16565b610a6e8161055d565b840191505092915050565b600073ffffffffffffffffffffffffffffffffffffffff82169050919050565b6000610aa482610a79565b9050919050565b610ab481610a99565b82525050565b610ac381610699565b82525050565b60006080820190508181036000830152610ae38187610a40565b90508181036020830152610af78186610a40565b9050610b066040830185610aab565b610b136060830184610aba565b95945050505050565b600081519050919050565b600082825260208201905092915050565b6000610b4382610b1c565b610b4d8185610b27565b9350610b5d818560208601610a16565b610b668161055d565b840191505092915050565b6000815250565b6000608082019050610b8d6000830186610aab565b8181036020830152610b9f8185610b38565b9050610bae60408301846104bc565b610bba60608301610b71565b94935050505056fea26469706673582212209c2526734985ceba07c8ef80a230f11d0308741157f73374b665a4e02f1014b764736f6c63430008110033",
  "immutableReferences": {},
  "source": "// SPDX-License-Identifier: MIT\r\npragma solidity ^0.8.17;\r\n\r\nimport \"./../services/AnyApiUintExtension.sol\";\r\n\r\n/// @title A title that should describe the contract/interface\r\n/// @author The name of the author\r\n/// @notice Explain to an end user what this does\r\n/// @dev Explain to a developer any extra details\r\ncontract W3LinkUintApi is AnyApiUintExtension {\r\n    function onResponse(uint256 data) internal virtual override {\r\n        /* Put your code here */\r\n    }\r\n}\r\n",
  "sourcePath": "C:\\Users\\DELL\\Documents\\w3link\\solidity\\contracts\\mocks\\W3LinkUintApi.sol",
  "compiler": {
    "name": "solc",
    "version": "0.8.17+commit.8df45f5f.Emscripten.clang"
  },
  "schemaVersion": "3.4.11",
  "updatedAt": "2023-08-28T10:30:35.417Z",
  "devdoc": {
    "author": "The name of the author",
    "details": "Explain to a developer any extra details",
    "kind": "dev",
    "methods": {},
    "title": "A title that should describe the contract/interface",
    "version": 1
  },
  "userdoc": {
    "kind": "user",
    "methods": {},
    "notice": "Explain to an end user what this does",
    "version": 1
  }
}