{
  "contractName": "W3Link",
  "abi": [
    {
      "inputs": [
        {
          "internalType": "uint256",
          "name": "chainId_",
          "type": "uint256"
        },
        {
          "internalType": "address",
          "name": "config_",
          "type": "address"
        }
      ],
      "stateMutability": "nonpayable",
      "type": "constructor"
    },
    {
      "anonymous": false,
      "inputs": [
        {
          "indexed": false,
          "internalType": "address",
          "name": "contractId",
          "type": "address"
        },
        {
          "indexed": false,
          "internalType": "uint256",
          "name": "value",
          "type": "uint256"
        }
      ],
      "name": "Deposit",
      "type": "event"
    },
    {
      "anonymous": false,
      "inputs": [
        {
          "indexed": false,
          "internalType": "bytes32",
          "name": "hash",
          "type": "bytes32"
        },
        {
          "indexed": false,
          "internalType": "address",
          "name": "destContractId",
          "type": "address"
        },
        {
          "indexed": false,
          "internalType": "address",
          "name": "fromContractId",
          "type": "address"
        },
        {
          "indexed": false,
          "internalType": "uint256",
          "name": "destChainId",
          "type": "uint256"
        },
        {
          "indexed": false,
          "internalType": "uint256",
          "name": "fee",
          "type": "uint256"
        },
        {
          "indexed": false,
          "internalType": "bytes",
          "name": "data",
          "type": "bytes"
        },
        {
          "indexed": false,
          "internalType": "bytes32",
          "name": "extra",
          "type": "bytes32"
        }
      ],
      "name": "Dispatch",
      "type": "event"
    },
    {
      "anonymous": false,
      "inputs": [
        {
          "indexed": false,
          "internalType": "bytes32",
          "name": "hash",
          "type": "bytes32"
        }
      ],
      "name": "Executed",
      "type": "event"
    },
    {
      "anonymous": false,
      "inputs": [
        {
          "indexed": true,
          "internalType": "address",
          "name": "previousOwner",
          "type": "address"
        },
        {
          "indexed": true,
          "internalType": "address",
          "name": "newOwner",
          "type": "address"
        }
      ],
      "name": "OwnershipTransferStarted",
      "type": "event"
    },
    {
      "anonymous": false,
      "inputs": [
        {
          "indexed": true,
          "internalType": "address",
          "name": "previousOwner",
          "type": "address"
        },
        {
          "indexed": true,
          "internalType": "address",
          "name": "newOwner",
          "type": "address"
        }
      ],
      "name": "OwnershipTransferred",
      "type": "event"
    },
    {
      "anonymous": false,
      "inputs": [
        {
          "indexed": false,
          "internalType": "address",
          "name": "newConfig",
          "type": "address"
        }
      ],
      "name": "SetConfig",
      "type": "event"
    },
    {
      "anonymous": false,
      "inputs": [
        {
          "indexed": false,
          "internalType": "address",
          "name": "contractId",
          "type": "address"
        },
        {
          "indexed": false,
          "internalType": "uint256",
          "name": "value",
          "type": "uint256"
        }
      ],
      "name": "Withdraw",
      "type": "event"
    },
    {
      "inputs": [],
      "name": "_chainId",
      "outputs": [
        {
          "internalType": "uint256",
          "name": "",
          "type": "uint256"
        }
      ],
      "stateMutability": "view",
      "type": "function"
    },
    {
      "inputs": [],
      "name": "acceptOwnership",
      "outputs": [],
      "stateMutability": "nonpayable",
      "type": "function"
    },
    {
      "inputs": [],
      "name": "owner",
      "outputs": [
        {
          "internalType": "address",
          "name": "",
          "type": "address"
        }
      ],
      "stateMutability": "view",
      "type": "function"
    },
    {
      "inputs": [],
      "name": "pendingOwner",
      "outputs": [
        {
          "internalType": "address",
          "name": "",
          "type": "address"
        }
      ],
      "stateMutability": "view",
      "type": "function"
    },
    {
      "inputs": [],
      "name": "renounceOwnership",
      "outputs": [],
      "stateMutability": "nonpayable",
      "type": "function"
    },
    {
      "inputs": [
        {
          "internalType": "address",
          "name": "newOwner",
          "type": "address"
        }
      ],
      "name": "transferOwnership",
      "outputs": [],
      "stateMutability": "nonpayable",
      "type": "function"
    },
    {
      "inputs": [
        {
          "internalType": "address",
          "name": "destContractId",
          "type": "address"
        },
        {
          "internalType": "bytes",
          "name": "data",
          "type": "bytes"
        },
        {
          "internalType": "uint256",
          "name": "destChainId",
          "type": "uint256"
        },
        {
          "internalType": "bytes32",
          "name": "extra",
          "type": "bytes32"
        }
      ],
      "name": "dispatch",
      "outputs": [],
      "stateMutability": "nonpayable",
      "type": "function"
    },
    {
      "inputs": [
        {
          "internalType": "bytes32",
          "name": "hash",
          "type": "bytes32"
        },
        {
          "internalType": "address",
          "name": "destContractId",
          "type": "address"
        },
        {
          "internalType": "address",
          "name": "fromContractId",
          "type": "address"
        },
        {
          "internalType": "bytes",
          "name": "data",
          "type": "bytes"
        },
        {
          "internalType": "uint256",
          "name": "destChainId",
          "type": "uint256"
        },
        {
          "internalType": "bytes32",
          "name": "extra",
          "type": "bytes32"
        }
      ],
      "name": "execute",
      "outputs": [],
      "stateMutability": "nonpayable",
      "type": "function"
    },
    {
      "inputs": [],
      "name": "deposit",
      "outputs": [],
      "stateMutability": "payable",
      "type": "function"
    },
    {
      "inputs": [
        {
          "internalType": "uint256",
          "name": "amount",
          "type": "uint256"
        }
      ],
      "name": "withdraw",
      "outputs": [],
      "stateMutability": "nonpayable",
      "type": "function"
    },
    {
      "inputs": [
        {
          "internalType": "address",
          "name": "newConfig",
          "type": "address"
        }
      ],
      "name": "setConfig",
      "outputs": [],
      "stateMutability": "nonpayable",
      "type": "function"
    },
    {
      "inputs": [],
      "name": "config",
      "outputs": [
        {
          "internalType": "address",
          "name": "",
          "type": "address"
        }
      ],
      "stateMutability": "view",
      "type": "function"
    }
  ],
  "bytecode": "0x60a0346100c957610c7480380390601f19601f83011683019183831067ffffffffffffffff8411176100ce5780849260409485528339810103126100c9578051602090910151600160a060020a0391828216918290036100c957600160a060020a03199081600154166001556000543383821617600055604051943391167f8be0079c531659141344cd1fd0a4f28419497f9722a3daafe3b4186f6b6457e0600080a36080526002541617600255610b7690816100fe823960805181818161031101526105f40152f35b600080fd5b7f4e487b7100000000000000000000000000000000000000000000000000000000600052604160045260246000fdfe60406080815260048036101561001457600080fd5b6000917c010000000000000000000000000000000000000000000000000000000083350491826320e3dbd4146108a15782632e1a7d4d146108025782634964e69914610672578263715018a61461061757826374773412146105dc57826379502c55146105b457826379ba5097146104d05782638da5cb5b146104aa578263990b988114610209578263d0e30db01461015b57508163e30c39781461012f575063f2fde38b146100c357600080fd5b3461012c57602036600319011261012c576100dc61090c565b6100e4610955565b600160a060020a038091169081600160a060020a031960015416176001558254167f38d16b8cac22d99fc7c124b9cd0de2d3fa1faef420bfe791d8c362d765e227008380a380f35b80fd5b905034610157578160031936011261015757602090600160a060020a03600154169051908152f35b5080fd5b909150826003193601126102055733835260056020528183208054913483018093116101ef57505581808080600160a060020a03815416819034156101e5575b3491f1156101db57513381523460208201527fe1fffcc4923d04b559f4d29a8bfc6cda04eb5b0d3c460751c2402c5c5cc9109c9080604081015b0390a180f35b51903d90823e3d90fd5b6108fc915061019b565b84601160249260e060020a634e487b7102835252fd5b8280fd5b8390346101575760c0366003190112610157578035602493843592600160a060020a038085168095036104a657604435908116036104a25767ffffffffffffffff60643581811161049e576102619036908401610927565b85889392935260209684885260ff868a20541661045a5785517fef020f4a000000000000000000000000000000000000000000000000000000008152878682015288818c8173__Signature_____________________________5af4908115610450578a91610416575b50156103d257803b156103ce579088916060838c6103418a51988996879586947f913bebdc0000000000000000000000000000000000000000000000000000000086528d7f00000000000000000000000000000000000000000000000000000000000000009087015285015260648401916109eb565b60a435604483015203925af180156103c457610399575b5050849550827fa74c8847d513feba22a0f0cb38d53081abf97562cdb293926ba243689e7c41ca95528352808520600160ff1982541617905551908152a180f35b81969296116103af578252939450848680610358565b868260418860e060020a634e487b7102835252fd5b84513d89823e3d90fd5b8880fd5b60648560118c8b8a519360e560020a62461bcd0285528401528201527f76616c69646174696f6e204661696c65640000000000000000000000000000006044820152fd5b90508881813d8311610449575b61042d81836109b0565b8101031261044557518015158103610445578b6102cb565b8980fd5b503d610423565b87513d8c823e3d90fd5b60648560118c8b8a519360e560020a62461bcd0285528401528201527f4578656375746520436f6d706c657465640000000000000000000000000000006044820152fd5b8680fd5b8480fd5b8580fd5b838234610157578160031936011261015757600160a060020a0360209254169051908152f35b91503461020557826003193601126102055760015491600160a060020a0391338385160361054857505073ffffffffffffffffffffffffffffffffffffffff1991821660015582543392811683178455167f8be0079c531659141344cd1fd0a4f28419497f9722a3daafe3b4186f6b6457e08380a380f35b906020608492519160e560020a62461bcd028352820152602960248201527f4f776e61626c6532537465703a2063616c6c6572206973206e6f74207468652060448201527f6e6577206f776e657200000000000000000000000000000000000000000000006064820152fd5b838234610157578160031936011261015757602090600160a060020a03600254169051908152f35b838234610157578160031936011261015757602090517f00000000000000000000000000000000000000000000000000000000000000008152f35b833461012c578060031936011261012c57610630610955565b80600160a060020a038019806001541660015582549081168355167f8be0079c531659141344cd1fd0a4f28419497f9722a3daafe3b4186f6b6457e08280a380f35b909150346102055760803660031901126102055761068e61090c565b9060243567ffffffffffffffff81116104a2576106ae9036908301610927565b60443592600354938651947f6b2fafa900000000000000000000000000000000000000000000000000000000865282860152602091828660248173__Signature_____________________________5af49586156107f857899661079d575b508589528252868820805460ff191690557fa397d9d0a8c51ee700787e0a880c99fad0e469c56474a1c50ab88c0e3e4c28c696610786949392919061075182610a80565b92600160a060020a038251998a998a52169088015233908701526060860152608085015260e060a085015260e08401916109eb565b60643560c08301520390a160016003540160035580f35b949392809291965085813d83116107f1575b6107b981836109b0565b810103126103ce57935194929391929091907fa397d9d0a8c51ee700787e0a880c99fad0e469c56474a1c50ab88c0e3e4c28c661070d565b503d6107af565b88513d8b823e3d90fd5b909150346102055760203660031901126102055735338352600560205281832061083982825461083482821015610a0c565b610a5a565b90558280828015610897575b8280929181923390f11561088c57905133815260208101919091527f884edad9ce6fa2440d8a54cc123490eb96d2768479d49ff9c7366125a94243649080604081016101d5565b5051903d90823e3d90fd5b6108fc9150610845565b8382346101575760203660031901126101575760207fc5618716db99966ac0bedb011a55472827d54343d73b50c3118c0b03cdf1c75f91600160a060020a036108e861090c565b6108f0610955565b169081600160a060020a0319600254161760025551908152a180f35b60043590600160a060020a038216820361092257565b600080fd5b9181601f840112156109225782359167ffffffffffffffff8311610922576020838186019501011161092257565b600160a060020a0360005416330361096957565b606460405160e560020a62461bcd02815260206004820152602060248201527f4f776e61626c653a2063616c6c6572206973206e6f7420746865206f776e65726044820152fd5b90601f8019910116810190811067ffffffffffffffff8211176109d257604052565b60e060020a634e487b7102600052604160045260246000fd5b908060209392818452848401376000828201840152601f01601f1916010190565b15610a1357565b606460405160e560020a62461bcd02815260206004820152601260248201527f496e73756666696369656e742076616c756500000000000000000000000000006044820152fd5b91908203918211610a6757565b60e060020a634e487b7102600052601160045260246000fd5b6020600160a060020a0360025416916024604051809481937f39b37ab000000000000000000000000000000000000000000000000000000000835260048301525afa908115610b3457600091610b03575b508015610afd573360005260056020526040600020610af882825461083482821015610a0c565b905590565b50600090565b906020823d8211610b2c575b81610b1c602093836109b0565b8101031261012c57505138610ad1565b3d9150610b0f565b6040513d6000823e3d90fdfea264697066735822122008bcf1c46de344f904416b85eeefd3c654a19a50779dfa03565975f3e568a76b64736f6c63430008110033",
  "immutableReferences": {
    "5295": [
      {
        "length": 32,
        "start": 785
      },
      {
        "length": 32,
        "start": 1524
      }
    ]
  },
  "source": "// SPDX-License-Identifier: MIT\r\npragma solidity ^0.8.17;\r\n\r\nimport \"./interfaces/IW3Link.sol\";\r\nimport \"./interfaces/IW3LinkApp.sol\";\r\nimport \"./interfaces/IW3LinkConfig.sol\";\r\nimport \"./signature/Signature.sol\";\r\n\r\nimport \"@openzeppelin/contracts/access/Ownable2Step.sol\";\r\nimport \"@openzeppelin/contracts/utils/Counters.sol\";\r\n\r\ncontract W3Link is IW3Link, Ownable2Step {    \r\n    using Counters for Counters.Counter;\r\n    \r\n    address private _config;\r\n    uint256 public immutable _chainId;\r\n\r\n    Counters.Counter private _dispatchId;\r\n\r\n    mapping(bytes32 => bool) private _executed;\r\n\r\n    struct Gas {\r\n        uint256 value;\r\n    }\r\n\r\n    mapping(address => Gas) private _gasContents;\r\n\r\n    event SetConfig(address newConfig);\r\n    event Dispatch(\r\n        bytes32 hash,\r\n        address destContractId,\r\n        address fromContractId,\r\n        uint256 destChainId,\r\n        uint256 fee,\r\n        bytes data,\r\n        bytes32 extra\r\n    );\r\n    event Executed(bytes32 hash);\r\n    event Deposit(address contractId, uint256 value);\r\n    event Withdraw(address contractId, uint256 value);\r\n\r\n    constructor(uint256 chainId_, address config_) Ownable2Step() {\r\n        _chainId = chainId_;\r\n        _config = config_;\r\n        \r\n    }\r\n\r\n    function dispatch(\r\n        address destContractId,\r\n        bytes calldata data,\r\n        uint256 destChainId,\r\n        bytes32 extra\r\n    ) external override {\r\n        bytes32 hash = Signature.getHash(_dispatchId.current());\r\n\r\n        _executed[hash] = false;\r\n\r\n        uint256 fee = _payGas(destChainId);\r\n\r\n        emit Dispatch(\r\n            hash,\r\n            destContractId,\r\n            _msgSender(),\r\n            destChainId,\r\n            fee,\r\n            data,\r\n            extra\r\n        );\r\n\r\n        _dispatchId.increment();\r\n    }\r\n\r\n    function execute(\r\n        bytes32 hash,\r\n        address destContractId,\r\n        address fromContractId,\r\n        bytes calldata data,\r\n        uint256 destChainId,\r\n        bytes32 extra\r\n    ) external {      \r\n        require(!_executed[hash], \"Execute Completed\");\r\n        require(Signature.verifyHash(hash), \"validation Failed\");\r\n\r\n        IW3LinkApp(destContractId).execute(_chainId, data, extra);\r\n\r\n        _executed[hash] = true;\r\n\r\n        emit Executed(hash);\r\n    }\r\n\r\n    function _payGas(uint256 destChainId) internal returns (uint256) {\r\n        IW3LinkConfig w3linkConfig = IW3LinkConfig(_config);\r\n\r\n        uint256 fee = w3linkConfig.fee(destChainId);\r\n        if (fee == 0) return 0;\r\n\r\n        Gas storage gas = _gasContents[_msgSender()];\r\n        require(gas.value >= fee, \"Insufficient value\");\r\n        gas.value -= fee;\r\n\r\n        return fee;\r\n    }\r\n\r\n    function deposit() external payable override {\r\n        uint256 amount = msg.value;\r\n\r\n        _gasContents[_msgSender()].value += amount;\r\n        payable(owner()).transfer(amount);\r\n        emit Deposit(_msgSender(), amount);\r\n    }\r\n\r\n    function withdraw(uint256 amount) external override {\r\n        Gas storage gas = _gasContents[_msgSender()];\r\n        require(gas.value >= amount, \"Insufficient value\");\r\n        gas.value -= amount;\r\n\r\n        payable(_msgSender()).transfer(amount);\r\n        emit Withdraw(_msgSender(), amount);\r\n    }\r\n\r\n    function setConfig(address newConfig) external onlyOwner {\r\n        _config = newConfig;\r\n        emit SetConfig(newConfig);\r\n    }\r\n\r\n    function config() external view override returns (address) {\r\n        return _config;\r\n    }\r\n}\r\n",
  "sourcePath": "C:\\Users\\DELL\\Documents\\w3link\\solidity\\contracts\\W3Link.sol",
  "compiler": {
    "name": "solc",
    "version": "0.8.17+commit.8df45f5f.Emscripten.clang"
  },
  "schemaVersion": "3.4.11",
  "updatedAt": "2023-08-31T14:19:38.783Z",
  "devdoc": {
    "kind": "dev",
    "methods": {
      "acceptOwnership()": {
        "details": "The new owner accepts the ownership transfer."
      },
      "owner()": {
        "details": "Returns the address of the current owner."
      },
      "pendingOwner()": {
        "details": "Returns the address of the pending owner."
      },
      "renounceOwnership()": {
        "details": "Leaves the contract without owner. It will not be possible to call `onlyOwner` functions. Can only be called by the current owner. NOTE: Renouncing ownership will leave the contract without an owner, thereby disabling any functionality that is only available to the owner."
      },
      "transferOwnership(address)": {
        "details": "Starts the ownership transfer of the contract to a new account. Replaces the pending transfer if there is one. Can only be called by the current owner."
      }
    },
    "version": 1
  },
  "userdoc": {
    "kind": "user",
    "methods": {},
    "version": 1
  }
}