{
  "contractName": "W3Link",
  "abi": [
    {
      "inputs": [
        {
          "internalType": "uint256",
          "name": "chainId_",
          "type": "uint256"
        }
      ],
      "stateMutability": "nonpayable",
      "type": "constructor"
    },
    {
      "anonymous": false,
      "inputs": [
        {
          "indexed": false,
          "internalType": "address",
          "name": "contractId",
          "type": "address"
        },
        {
          "indexed": false,
          "internalType": "uint256",
          "name": "value",
          "type": "uint256"
        }
      ],
      "name": "Deposit",
      "type": "event"
    },
    {
      "anonymous": false,
      "inputs": [
        {
          "indexed": false,
          "internalType": "bytes32",
          "name": "hash",
          "type": "bytes32"
        },
        {
          "indexed": false,
          "internalType": "address",
          "name": "destContractId",
          "type": "address"
        },
        {
          "indexed": false,
          "internalType": "address",
          "name": "fromContractId",
          "type": "address"
        },
        {
          "indexed": false,
          "internalType": "bytes",
          "name": "data",
          "type": "bytes"
        },
        {
          "indexed": false,
          "internalType": "uint256",
          "name": "destChainId",
          "type": "uint256"
        }
      ],
      "name": "Dispatch",
      "type": "event"
    },
    {
      "anonymous": false,
      "inputs": [
        {
          "indexed": false,
          "internalType": "bytes32",
          "name": "hash",
          "type": "bytes32"
        }
      ],
      "name": "Executed",
      "type": "event"
    },
    {
      "anonymous": false,
      "inputs": [
        {
          "indexed": true,
          "internalType": "address",
          "name": "previousOwner",
          "type": "address"
        },
        {
          "indexed": true,
          "internalType": "address",
          "name": "newOwner",
          "type": "address"
        }
      ],
      "name": "OwnershipTransferStarted",
      "type": "event"
    },
    {
      "anonymous": false,
      "inputs": [
        {
          "indexed": true,
          "internalType": "address",
          "name": "previousOwner",
          "type": "address"
        },
        {
          "indexed": true,
          "internalType": "address",
          "name": "newOwner",
          "type": "address"
        }
      ],
      "name": "OwnershipTransferred",
      "type": "event"
    },
    {
      "anonymous": false,
      "inputs": [
        {
          "indexed": false,
          "internalType": "address",
          "name": "newConfig",
          "type": "address"
        }
      ],
      "name": "SetConfig",
      "type": "event"
    },
    {
      "anonymous": false,
      "inputs": [
        {
          "indexed": false,
          "internalType": "address",
          "name": "contractId",
          "type": "address"
        },
        {
          "indexed": false,
          "internalType": "uint256",
          "name": "value",
          "type": "uint256"
        }
      ],
      "name": "Withdraw",
      "type": "event"
    },
    {
      "inputs": [],
      "name": "_chainId",
      "outputs": [
        {
          "internalType": "uint256",
          "name": "",
          "type": "uint256"
        }
      ],
      "stateMutability": "view",
      "type": "function"
    },
    {
      "inputs": [],
      "name": "acceptOwnership",
      "outputs": [],
      "stateMutability": "nonpayable",
      "type": "function"
    },
    {
      "inputs": [],
      "name": "owner",
      "outputs": [
        {
          "internalType": "address",
          "name": "",
          "type": "address"
        }
      ],
      "stateMutability": "view",
      "type": "function"
    },
    {
      "inputs": [],
      "name": "pendingOwner",
      "outputs": [
        {
          "internalType": "address",
          "name": "",
          "type": "address"
        }
      ],
      "stateMutability": "view",
      "type": "function"
    },
    {
      "inputs": [],
      "name": "renounceOwnership",
      "outputs": [],
      "stateMutability": "nonpayable",
      "type": "function"
    },
    {
      "inputs": [
        {
          "internalType": "address",
          "name": "newOwner",
          "type": "address"
        }
      ],
      "name": "transferOwnership",
      "outputs": [],
      "stateMutability": "nonpayable",
      "type": "function"
    },
    {
      "inputs": [
        {
          "internalType": "address",
          "name": "destContractId",
          "type": "address"
        },
        {
          "internalType": "bytes",
          "name": "data",
          "type": "bytes"
        },
        {
          "internalType": "uint256",
          "name": "destChainId",
          "type": "uint256"
        },
        {
          "internalType": "bytes32",
          "name": "",
          "type": "bytes32"
        }
      ],
      "name": "dispatch",
      "outputs": [],
      "stateMutability": "nonpayable",
      "type": "function"
    },
    {
      "inputs": [
        {
          "internalType": "bytes32",
          "name": "hash",
          "type": "bytes32"
        },
        {
          "internalType": "address",
          "name": "destContractId",
          "type": "address"
        },
        {
          "internalType": "address",
          "name": "fromContractId",
          "type": "address"
        },
        {
          "internalType": "bytes",
          "name": "data",
          "type": "bytes"
        },
        {
          "internalType": "uint256",
          "name": "destChainId",
          "type": "uint256"
        },
        {
          "internalType": "bytes32",
          "name": "extra",
          "type": "bytes32"
        }
      ],
      "name": "execute",
      "outputs": [],
      "stateMutability": "nonpayable",
      "type": "function"
    },
    {
      "inputs": [],
      "name": "deposit",
      "outputs": [],
      "stateMutability": "payable",
      "type": "function"
    },
    {
      "inputs": [
        {
          "internalType": "uint256",
          "name": "amount",
          "type": "uint256"
        }
      ],
      "name": "withdraw",
      "outputs": [],
      "stateMutability": "nonpayable",
      "type": "function"
    },
    {
      "inputs": [
        {
          "internalType": "address",
          "name": "newConfig",
          "type": "address"
        }
      ],
      "name": "setConfig",
      "outputs": [],
      "stateMutability": "nonpayable",
      "type": "function"
    },
    {
      "inputs": [],
      "name": "config",
      "outputs": [
        {
          "internalType": "address",
          "name": "",
          "type": "address"
        }
      ],
      "stateMutability": "view",
      "type": "function"
    }
  ],
  "bytecode": "0x60a06040523480156200001157600080fd5b506040516200153a3803806200153a8339818101604052810190620000379190620001b0565b620000576200004b6200006660201b60201c565b6200006e60201b60201c565b806080818152505050620001e2565b600033905090565b600160006101000a81549073ffffffffffffffffffffffffffffffffffffffff0219169055620000a981620000ac60201b620008e81760201c565b50565b60008060009054906101000a900473ffffffffffffffffffffffffffffffffffffffff169050816000806101000a81548173ffffffffffffffffffffffffffffffffffffffff021916908373ffffffffffffffffffffffffffffffffffffffff1602179055508173ffffffffffffffffffffffffffffffffffffffff168173ffffffffffffffffffffffffffffffffffffffff167f8be0079c531659141344cd1fd0a4f28419497f9722a3daafe3b4186f6b6457e060405160405180910390a35050565b600080fd5b6000819050919050565b6200018a8162000175565b81146200019657600080fd5b50565b600081519050620001aa816200017f565b92915050565b600060208284031215620001c957620001c862000170565b5b6000620001d98482850162000199565b91505092915050565b60805161133562000205600039600081816104bb015261063c01526113356000f3fe6080604052600436106100a75760003560e01c806379ba50971161006457806379ba5097146101945780638da5cb5b146101ab578063990b9881146101d6578063d0e30db0146101ff578063e30c397814610209578063f2fde38b14610234576100a7565b806320e3dbd4146100ac5780632e1a7d4d146100d55780634964e699146100fe578063715018a614610127578063747734121461013e57806379502c5514610169575b600080fd5b3480156100b857600080fd5b506100d360048036038101906100ce9190610c3c565b61025d565b005b3480156100e157600080fd5b506100fc60048036038101906100f79190610c9f565b6102e0565b005b34801561010a57600080fd5b5061012560048036038101906101209190610d67565b61041e565b005b34801561013357600080fd5b5061013c6104a5565b005b34801561014a57600080fd5b506101536104b9565b6040516101609190610dfe565b60405180910390f35b34801561017557600080fd5b5061017e6104dd565b60405161018b9190610e28565b60405180910390f35b3480156101a057600080fd5b506101a9610507565b005b3480156101b757600080fd5b506101c0610594565b6040516101cd9190610e28565b60405180910390f35b3480156101e257600080fd5b506101fd60048036038101906101f89190610e43565b6105bd565b005b61020761071b565b005b34801561021557600080fd5b5061021e610811565b60405161022b9190610e28565b60405180910390f35b34801561024057600080fd5b5061025b60048036038101906102569190610c3c565b61083b565b005b6102656109ac565b80600260006101000a81548173ffffffffffffffffffffffffffffffffffffffff021916908373ffffffffffffffffffffffffffffffffffffffff1602179055507fc5618716db99966ac0bedb011a55472827d54343d73b50c3118c0b03cdf1c75f816040516102d59190610e28565b60405180910390a150565b6000600460006102ee610a2a565b73ffffffffffffffffffffffffffffffffffffffff1673ffffffffffffffffffffffffffffffffffffffff16815260200190815260200160002090508181600001541015610371576040517f08c379a000000000000000000000000000000000000000000000000000000000815260040161036890610f4f565b60405180910390fd5b818160000160008282546103859190610f9e565b92505081905550610394610a2a565b73ffffffffffffffffffffffffffffffffffffffff166108fc839081150290604051600060405180830381858888f193505050501580156103d9573d6000803e3d6000fd5b507f884edad9ce6fa2440d8a54cc123490eb96d2768479d49ff9c7366125a9424364610403610a2a565b83604051610412929190610fd2565b60405180910390a15050565b6000806003600083815260200190815260200160002060006101000a81548160ff02191690831515021790555061045483610a32565b507f2bd1c77fc0ff80081fcbf4027de08160a6beef805c3c028dd9d108da7f9a19d08187610480610a2a565b88888860405161049596959493929190611068565b60405180910390a1505050505050565b6104ad6109ac565b6104b76000610ba3565b565b7f000000000000000000000000000000000000000000000000000000000000000081565b6000600260009054906101000a900473ffffffffffffffffffffffffffffffffffffffff16905090565b6000610511610a2a565b90508073ffffffffffffffffffffffffffffffffffffffff16610532610811565b73ffffffffffffffffffffffffffffffffffffffff1614610588576040517f08c379a000000000000000000000000000000000000000000000000000000000815260040161057f90611136565b60405180910390fd5b61059181610ba3565b50565b60008060009054906101000a900473ffffffffffffffffffffffffffffffffffffffff16905090565b6003600088815260200190815260200160002060009054906101000a900460ff161561061e576040517f08c379a0000000000000000000000000000000000000000000000000000000008152600401610615906111a2565b60405180910390fd5b8573ffffffffffffffffffffffffffffffffffffffff1663913bebdc7f00000000000000000000000000000000000000000000000000000000000000008686856040518563ffffffff1660e01b815260040161067d94939291906111c2565b600060405180830381600087803b15801561069757600080fd5b505af11580156106ab573d6000803e3d6000fd5b5050505060016003600089815260200190815260200160002060006101000a81548160ff0219169083151502179055507fa74c8847d513feba22a0f0cb38d53081abf97562cdb293926ba243689e7c41ca8760405161070a9190611202565b60405180910390a150505050505050565b6000349050806004600061072d610a2a565b73ffffffffffffffffffffffffffffffffffffffff1673ffffffffffffffffffffffffffffffffffffffff1681526020019081526020016000206000016000828254610779919061121d565b92505081905550610788610594565b73ffffffffffffffffffffffffffffffffffffffff166108fc829081150290604051600060405180830381858888f193505050501580156107cd573d6000803e3d6000fd5b507fe1fffcc4923d04b559f4d29a8bfc6cda04eb5b0d3c460751c2402c5c5cc9109c6107f7610a2a565b82604051610806929190610fd2565b60405180910390a150565b6000600160009054906101000a900473ffffffffffffffffffffffffffffffffffffffff16905090565b6108436109ac565b80600160006101000a81548173ffffffffffffffffffffffffffffffffffffffff021916908373ffffffffffffffffffffffffffffffffffffffff1602179055508073ffffffffffffffffffffffffffffffffffffffff166108a3610594565b73ffffffffffffffffffffffffffffffffffffffff167f38d16b8cac22d99fc7c124b9cd0de2d3fa1faef420bfe791d8c362d765e2270060405160405180910390a350565b60008060009054906101000a900473ffffffffffffffffffffffffffffffffffffffff169050816000806101000a81548173ffffffffffffffffffffffffffffffffffffffff021916908373ffffffffffffffffffffffffffffffffffffffff1602179055508173ffffffffffffffffffffffffffffffffffffffff168173ffffffffffffffffffffffffffffffffffffffff167f8be0079c531659141344cd1fd0a4f28419497f9722a3daafe3b4186f6b6457e060405160405180910390a35050565b6109b4610a2a565b73ffffffffffffffffffffffffffffffffffffffff166109d2610594565b73ffffffffffffffffffffffffffffffffffffffff1614610a28576040517f08c379a0000000000000000000000000000000000000000000000000000000008152600401610a1f9061129d565b60405180910390fd5b565b600033905090565b600080600260009054906101000a900473ffffffffffffffffffffffffffffffffffffffff16905060008173ffffffffffffffffffffffffffffffffffffffff166339b37ab0856040518263ffffffff1660e01b8152600401610a959190610dfe565b602060405180830381865afa158015610ab2573d6000803e3d6000fd5b505050506040513d601f19601f82011682018060405250810190610ad691906112d2565b905060008103610aeb57600092505050610b9e565b600060046000610af9610a2a565b73ffffffffffffffffffffffffffffffffffffffff1673ffffffffffffffffffffffffffffffffffffffff16815260200190815260200160002090508181600001541015610b7c576040517f08c379a0000000000000000000000000000000000000000000000000000000008152600401610b7390610f4f565b60405180910390fd5b81816000016000828254610b909190610f9e565b925050819055508193505050505b919050565b600160006101000a81549073ffffffffffffffffffffffffffffffffffffffff0219169055610bd1816108e8565b50565b600080fd5b600080fd5b600073ffffffffffffffffffffffffffffffffffffffff82169050919050565b6000610c0982610bde565b9050919050565b610c1981610bfe565b8114610c2457600080fd5b50565b600081359050610c3681610c10565b92915050565b600060208284031215610c5257610c51610bd4565b5b6000610c6084828501610c27565b91505092915050565b6000819050919050565b610c7c81610c69565b8114610c8757600080fd5b50565b600081359050610c9981610c73565b92915050565b600060208284031215610cb557610cb4610bd4565b5b6000610cc384828501610c8a565b91505092915050565b600080fd5b600080fd5b600080fd5b60008083601f840112610cf157610cf0610ccc565b5b8235905067ffffffffffffffff811115610d0e57610d0d610cd1565b5b602083019150836001820283011115610d2a57610d29610cd6565b5b9250929050565b6000819050919050565b610d4481610d31565b8114610d4f57600080fd5b50565b600081359050610d6181610d3b565b92915050565b600080600080600060808688031215610d8357610d82610bd4565b5b6000610d9188828901610c27565b955050602086013567ffffffffffffffff811115610db257610db1610bd9565b5b610dbe88828901610cdb565b94509450506040610dd188828901610c8a565b9250506060610de288828901610d52565b9150509295509295909350565b610df881610c69565b82525050565b6000602082019050610e136000830184610def565b92915050565b610e2281610bfe565b82525050565b6000602082019050610e3d6000830184610e19565b92915050565b600080600080600080600060c0888a031215610e6257610e61610bd4565b5b6000610e708a828b01610d52565b9750506020610e818a828b01610c27565b9650506040610e928a828b01610c27565b955050606088013567ffffffffffffffff811115610eb357610eb2610bd9565b5b610ebf8a828b01610cdb565b94509450506080610ed28a828b01610c8a565b92505060a0610ee38a828b01610d52565b91505092959891949750929550565b600082825260208201905092915050565b7f496e73756666696369656e742076616c75650000000000000000000000000000600082015250565b6000610f39601283610ef2565b9150610f4482610f03565b602082019050919050565b60006020820190508181036000830152610f6881610f2c565b9050919050565b7f4e487b7100000000000000000000000000000000000000000000000000000000600052601160045260246000fd5b6000610fa982610c69565b9150610fb483610c69565b9250828203905081811115610fcc57610fcb610f6f565b5b92915050565b6000604082019050610fe76000830185610e19565b610ff46020830184610def565b9392505050565b61100481610d31565b82525050565b600082825260208201905092915050565b82818337600083830152505050565b6000601f19601f8301169050919050565b6000611047838561100a565b935061105483858461101b565b61105d8361102a565b840190509392505050565b600060a08201905061107d6000830189610ffb565b61108a6020830188610e19565b6110976040830187610e19565b81810360608301526110aa81858761103b565b90506110b96080830184610def565b979650505050505050565b7f4f776e61626c6532537465703a2063616c6c6572206973206e6f74207468652060008201527f6e6577206f776e65720000000000000000000000000000000000000000000000602082015250565b6000611120602983610ef2565b915061112b826110c4565b604082019050919050565b6000602082019050818103600083015261114f81611113565b9050919050565b7f4578656375746520436f6d706c65746564000000000000000000000000000000600082015250565b600061118c601183610ef2565b915061119782611156565b602082019050919050565b600060208201905081810360008301526111bb8161117f565b9050919050565b60006060820190506111d76000830187610def565b81810360208301526111ea81858761103b565b90506111f96040830184610ffb565b95945050505050565b60006020820190506112176000830184610ffb565b92915050565b600061122882610c69565b915061123383610c69565b925082820190508082111561124b5761124a610f6f565b5b92915050565b7f4f776e61626c653a2063616c6c6572206973206e6f7420746865206f776e6572600082015250565b6000611287602083610ef2565b915061129282611251565b602082019050919050565b600060208201905081810360008301526112b68161127a565b9050919050565b6000815190506112cc81610c73565b92915050565b6000602082840312156112e8576112e7610bd4565b5b60006112f6848285016112bd565b9150509291505056fea26469706673582212204083f1564a01dac77c8a1037d0e0c5cd07cf55dcc96cfd14a0c2b9d33beffefb64736f6c63430008110033",
  "immutableReferences": {
    "5216": [
      {
        "length": 32,
        "start": 1211
      },
      {
        "length": 32,
        "start": 1596
      }
    ]
  },
  "source": "// SPDX-License-Identifier: MIT\r\npragma solidity ^0.8.17;\r\n\r\nimport \"./interfaces/IW3Link.sol\";\r\nimport \"./interfaces/IW3LinkApp.sol\";\r\nimport \"./interfaces/IW3LinkConfig.sol\";\r\nimport \"./signature/VerifySignature.sol\";\r\n\r\nimport \"@openzeppelin/contracts/access/Ownable2Step.sol\";\r\n\r\ncontract W3Link is IW3Link, Ownable2Step {\r\n    address private _config;\r\n    uint256 public immutable _chainId;\r\n\r\n    mapping(bytes32 => bool) private _executed;\r\n\r\n    struct Gas {\r\n        uint256 value;\r\n    }\r\n\r\n    mapping(address => Gas) private _gasContents;\r\n\r\n    event SetConfig(address newConfig);\r\n    event Dispatch(\r\n        bytes32 hash,\r\n        address destContractId,\r\n        address fromContractId,\r\n        bytes data,\r\n        uint256 destChainId\r\n    );\r\n    event Executed(bytes32 hash);\r\n    event Deposit(address contractId, uint256 value);\r\n    event Withdraw(address contractId, uint256 value);\r\n\r\n    constructor(uint256 chainId_) Ownable2Step() {\r\n        _chainId = chainId_;\r\n    }\r\n\r\n    function dispatch(\r\n        address destContractId,\r\n        bytes calldata data,\r\n        uint256 destChainId,\r\n        bytes32 /* extra */\r\n    ) external override {\r\n        bytes32 hash = \"\";\r\n\r\n        _executed[hash] = false;\r\n\r\n        _payGas(destChainId);\r\n\r\n        emit Dispatch(hash, destContractId, _msgSender(), data, destChainId);\r\n    }\r\n\r\n    function execute(\r\n        bytes32 hash,\r\n        address destContractId,\r\n        address fromContractId,\r\n        bytes calldata data,\r\n        uint256 destChainId,\r\n        bytes32 extra\r\n    ) external {\r\n        require(!_executed[hash], \"Execute Completed\");\r\n\r\n        // bool validation = VerifySignature.verify(_signer, _to, _amount, _message, _nonce, signature);\r\n        // require(validation, \"validation Failed\");\r\n\r\n        IW3LinkApp(destContractId).execute(_chainId, data, extra);\r\n\r\n        _executed[hash] = true;\r\n\r\n        emit Executed(hash);\r\n    }\r\n\r\n    function _payGas(uint256 destChainId) internal returns (uint256) {\r\n        IW3LinkConfig w3linkConfig = IW3LinkConfig(_config);\r\n\r\n        uint256 fee = w3linkConfig.fee(destChainId);\r\n        if (fee == 0) return 0;\r\n\r\n        Gas storage gas = _gasContents[_msgSender()];\r\n        require(gas.value >= fee, \"Insufficient value\");\r\n        gas.value -= fee;\r\n\r\n        return fee;\r\n    }\r\n\r\n    function deposit() external payable override {\r\n        uint256 amount = msg.value;\r\n\r\n        _gasContents[_msgSender()].value += amount;\r\n        payable(owner()).transfer(amount);\r\n        emit Deposit(_msgSender(), amount);\r\n    }\r\n\r\n    function withdraw(uint256 amount) external override {\r\n        Gas storage gas = _gasContents[_msgSender()];\r\n        require(gas.value >= amount, \"Insufficient value\");\r\n        gas.value -= amount;\r\n\r\n        payable(_msgSender()).transfer(amount);\r\n        emit Withdraw(_msgSender(), amount);\r\n    }\r\n\r\n    function setConfig(address newConfig) external onlyOwner {\r\n        _config = newConfig;\r\n        emit SetConfig(newConfig);\r\n    }\r\n\r\n    function config() external view override returns (address) {\r\n        return _config;\r\n    }\r\n}\r\n",
  "sourcePath": "C:\\Users\\DELL\\Documents\\w3link\\solidity\\contracts\\W3Link.sol",
  "compiler": {
    "name": "solc",
    "version": "0.8.17+commit.8df45f5f.Emscripten.clang"
  },
  "schemaVersion": "3.4.11",
  "updatedAt": "2023-08-27T09:14:53.600Z",
  "devdoc": {
    "kind": "dev",
    "methods": {
      "acceptOwnership()": {
        "details": "The new owner accepts the ownership transfer."
      },
      "owner()": {
        "details": "Returns the address of the current owner."
      },
      "pendingOwner()": {
        "details": "Returns the address of the pending owner."
      },
      "renounceOwnership()": {
        "details": "Leaves the contract without owner. It will not be possible to call `onlyOwner` functions. Can only be called by the current owner. NOTE: Renouncing ownership will leave the contract without an owner, thereby disabling any functionality that is only available to the owner."
      },
      "transferOwnership(address)": {
        "details": "Starts the ownership transfer of the contract to a new account. Replaces the pending transfer if there is one. Can only be called by the current owner."
      }
    },
    "version": 1
  },
  "userdoc": {
    "kind": "user",
    "methods": {},
    "version": 1
  }
}