{
  "contractName": "W3Link",
  "abi": [
    {
      "inputs": [
        {
          "internalType": "uint256",
          "name": "chainId_",
          "type": "uint256"
        },
        {
          "internalType": "address",
          "name": "config_",
          "type": "address"
        }
      ],
      "stateMutability": "nonpayable",
      "type": "constructor"
    },
    {
      "anonymous": false,
      "inputs": [
        {
          "indexed": false,
          "internalType": "address",
          "name": "contractId",
          "type": "address"
        },
        {
          "indexed": false,
          "internalType": "uint256",
          "name": "value",
          "type": "uint256"
        }
      ],
      "name": "Deposit",
      "type": "event"
    },
    {
      "anonymous": false,
      "inputs": [
        {
          "indexed": false,
          "internalType": "bytes32",
          "name": "hash",
          "type": "bytes32"
        },
        {
          "indexed": false,
          "internalType": "address",
          "name": "destContractId",
          "type": "address"
        },
        {
          "indexed": false,
          "internalType": "address",
          "name": "fromContractId",
          "type": "address"
        },
        {
          "indexed": false,
          "internalType": "uint256",
          "name": "destChainId",
          "type": "uint256"
        },
        {
          "indexed": false,
          "internalType": "uint256",
          "name": "fee",
          "type": "uint256"
        },
        {
          "indexed": false,
          "internalType": "bytes",
          "name": "data",
          "type": "bytes"
        },
        {
          "indexed": false,
          "internalType": "bytes32",
          "name": "extra",
          "type": "bytes32"
        }
      ],
      "name": "Dispatch",
      "type": "event"
    },
    {
      "anonymous": false,
      "inputs": [
        {
          "indexed": false,
          "internalType": "bytes32",
          "name": "hash",
          "type": "bytes32"
        }
      ],
      "name": "Executed",
      "type": "event"
    },
    {
      "anonymous": false,
      "inputs": [
        {
          "indexed": true,
          "internalType": "address",
          "name": "previousOwner",
          "type": "address"
        },
        {
          "indexed": true,
          "internalType": "address",
          "name": "newOwner",
          "type": "address"
        }
      ],
      "name": "OwnershipTransferStarted",
      "type": "event"
    },
    {
      "anonymous": false,
      "inputs": [
        {
          "indexed": true,
          "internalType": "address",
          "name": "previousOwner",
          "type": "address"
        },
        {
          "indexed": true,
          "internalType": "address",
          "name": "newOwner",
          "type": "address"
        }
      ],
      "name": "OwnershipTransferred",
      "type": "event"
    },
    {
      "anonymous": false,
      "inputs": [
        {
          "indexed": false,
          "internalType": "address",
          "name": "newConfig",
          "type": "address"
        }
      ],
      "name": "SetConfig",
      "type": "event"
    },
    {
      "anonymous": false,
      "inputs": [
        {
          "indexed": false,
          "internalType": "address",
          "name": "contractId",
          "type": "address"
        },
        {
          "indexed": false,
          "internalType": "uint256",
          "name": "value",
          "type": "uint256"
        }
      ],
      "name": "Withdraw",
      "type": "event"
    },
    {
      "inputs": [],
      "name": "_chainId",
      "outputs": [
        {
          "internalType": "uint256",
          "name": "",
          "type": "uint256"
        }
      ],
      "stateMutability": "view",
      "type": "function"
    },
    {
      "inputs": [],
      "name": "acceptOwnership",
      "outputs": [],
      "stateMutability": "nonpayable",
      "type": "function"
    },
    {
      "inputs": [
        {
          "internalType": "uint256",
          "name": "dispatchId",
          "type": "uint256"
        }
      ],
      "name": "getHash",
      "outputs": [
        {
          "internalType": "bytes32",
          "name": "",
          "type": "bytes32"
        }
      ],
      "stateMutability": "pure",
      "type": "function"
    },
    {
      "inputs": [],
      "name": "owner",
      "outputs": [
        {
          "internalType": "address",
          "name": "",
          "type": "address"
        }
      ],
      "stateMutability": "view",
      "type": "function"
    },
    {
      "inputs": [],
      "name": "pendingOwner",
      "outputs": [
        {
          "internalType": "address",
          "name": "",
          "type": "address"
        }
      ],
      "stateMutability": "view",
      "type": "function"
    },
    {
      "inputs": [],
      "name": "renounceOwnership",
      "outputs": [],
      "stateMutability": "nonpayable",
      "type": "function"
    },
    {
      "inputs": [
        {
          "internalType": "address",
          "name": "newOwner",
          "type": "address"
        }
      ],
      "name": "transferOwnership",
      "outputs": [],
      "stateMutability": "nonpayable",
      "type": "function"
    },
    {
      "inputs": [
        {
          "internalType": "bytes32",
          "name": "",
          "type": "bytes32"
        }
      ],
      "name": "verifyHash",
      "outputs": [
        {
          "internalType": "bool",
          "name": "",
          "type": "bool"
        }
      ],
      "stateMutability": "pure",
      "type": "function"
    },
    {
      "inputs": [
        {
          "internalType": "address",
          "name": "destContractId",
          "type": "address"
        },
        {
          "internalType": "bytes",
          "name": "data",
          "type": "bytes"
        },
        {
          "internalType": "uint256",
          "name": "destChainId",
          "type": "uint256"
        },
        {
          "internalType": "bytes32",
          "name": "extra",
          "type": "bytes32"
        }
      ],
      "name": "dispatch",
      "outputs": [],
      "stateMutability": "nonpayable",
      "type": "function"
    },
    {
      "inputs": [
        {
          "internalType": "bytes32",
          "name": "hash",
          "type": "bytes32"
        },
        {
          "internalType": "address",
          "name": "destContractId",
          "type": "address"
        },
        {
          "internalType": "bytes",
          "name": "data",
          "type": "bytes"
        },
        {
          "internalType": "uint256",
          "name": "fromChainId",
          "type": "uint256"
        },
        {
          "internalType": "bytes32",
          "name": "extra",
          "type": "bytes32"
        }
      ],
      "name": "execute",
      "outputs": [],
      "stateMutability": "nonpayable",
      "type": "function"
    },
    {
      "inputs": [],
      "name": "deposit",
      "outputs": [],
      "stateMutability": "payable",
      "type": "function"
    },
    {
      "inputs": [
        {
          "internalType": "uint256",
          "name": "amount",
          "type": "uint256"
        }
      ],
      "name": "withdraw",
      "outputs": [],
      "stateMutability": "nonpayable",
      "type": "function"
    },
    {
      "inputs": [
        {
          "internalType": "address",
          "name": "contractId",
          "type": "address"
        }
      ],
      "name": "balance",
      "outputs": [
        {
          "internalType": "uint256",
          "name": "",
          "type": "uint256"
        }
      ],
      "stateMutability": "view",
      "type": "function"
    },
    {
      "inputs": [
        {
          "internalType": "address",
          "name": "newConfig",
          "type": "address"
        }
      ],
      "name": "setConfig",
      "outputs": [],
      "stateMutability": "nonpayable",
      "type": "function"
    },
    {
      "inputs": [],
      "name": "config",
      "outputs": [
        {
          "internalType": "address",
          "name": "",
          "type": "address"
        }
      ],
      "stateMutability": "view",
      "type": "function"
    }
  ],
  "bytecode": "0x60a0346100c257610b3b80380390601f19601f83011683019183831067ffffffffffffffff8411176100c75780849260409485528339810103126100c2578051602090910151600160a060020a0391828216918290036100c257600160a060020a03199081600154166001556000543383821617600055604051943391167f8be0079c531659141344cd1fd0a4f28419497f9722a3daafe3b4186f6b6457e0600080a36080526002541617600255610a4490816100f78239608051816105710152f35b600080fd5b7f4e487b7100000000000000000000000000000000000000000000000000000000600052604160045260246000fdfe60406080815260048036101561001457600080fd5b6000917c010000000000000000000000000000000000000000000000000000000083350491826320e3dbd41461077d5782632e1a7d4d146106de5782634964e6991461060d5782636b2fafa9146105ef578263715018a614610594578263747734121461055957826379502c551461053157826379ba50971461044d5782638da5cb5b14610427578263ccf1d3071461027e578263d0e30db0146101d057508163e30c3978146101a8578163e3d670d714610171578163ef020f4a14610150575063f2fde38b146100e457600080fd5b3461014d57602036600319011261014d576100fd6107e8565b610105610831565b600160a060020a038091169081600160a060020a031960015416176001558254167f38d16b8cac22d99fc7c124b9cd0de2d3fa1faef420bfe791d8c362d765e227008380a380f35b80fd5b90503461016d57602036600319011261016d576020905160018152f35b5080fd5b90503461016d57602036600319011261016d5780602092600160a060020a036101986107e8565b1681526005845220549051908152f35b90503461016d578160031936011261016d57602090600160a060020a03600154169051908152f35b9091508260031936011261027a57338352600560205281832080549134830180931161026457505581808080600160a060020a038154168190341561025a575b3491f11561025057513381523460208201527fe1fffcc4923d04b559f4d29a8bfc6cda04eb5b0d3c460751c2402c5c5cc9109c9080604081015b0390a180f35b51903d90823e3d90fd5b6108fc9150610210565b84601160249260e060020a634e487b7102835252fd5b8280fd5b91503461027a5760a036600319011261027a57813591602435600160a060020a0381168091036104235767ffffffffffffffff60443581811161041f576102c89036908501610803565b928688528460205260ff86892054166103d957908188923b1561027a5761032d948388518097819582947f913bebdc0000000000000000000000000000000000000000000000000000000084526064358c85015260606024850152606484019161088c565b608435604483015203925af180156103cf57610386575b857fa74c8847d513feba22a0f0cb38d53081abf97562cdb293926ba243689e7c41ca60208787878286528352808520600160ff1982541617905551908152a180f35b81959295116103b957825292817fa74c8847d513feba22a0f0cb38d53081abf97562cdb293926ba243689e7c41ca610344565b60248260418760e060020a634e487b7102835252fd5b84513d88823e3d90fd5b606485602088519160e560020a62461bcd028352820152601160248201527f4578656375746520436f6d706c657465640000000000000000000000000000006044820152fd5b8680fd5b8480fd5b83823461016d578160031936011261016d57600160a060020a0360209254169051908152f35b91503461027a578260031936011261027a5760015491600160a060020a039133838516036104c557505073ffffffffffffffffffffffffffffffffffffffff1991821660015582543392811683178455167f8be0079c531659141344cd1fd0a4f28419497f9722a3daafe3b4186f6b6457e08380a380f35b906020608492519160e560020a62461bcd028352820152602960248201527f4f776e61626c6532537465703a2063616c6c6572206973206e6f74207468652060448201527f6e6577206f776e657200000000000000000000000000000000000000000000006064820152fd5b83823461016d578160031936011261016d57602090600160a060020a03600254169051908152f35b83823461016d578160031936011261016d57602090517f00000000000000000000000000000000000000000000000000000000000000008152f35b833461014d578060031936011261014d576105ad610831565b80600160a060020a038019806001541660015582549081168355167f8be0079c531659141344cd1fd0a4f28419497f9722a3daafe3b4186f6b6457e08280a380f35b91503461027a57602036600319011261027a57602092505190358152f35b9091503461027a57608036600319011261027a576106296107e8565b9060243567ffffffffffffffff8111610423577fa397d9d0a8c51ee700787e0a880c99fad0e469c56474a1c50ab88c0e3e4c28c69361066e6106c79236908501610803565b909160443560035495868a5260205281892060ff19815416905561069181610921565b91600160a060020a038151988998895216602088015233908701526060860152608085015260e060a085015260e084019161088c565b60643560c08301520390a160016003540160035580f35b9091503461027a57602036600319011261027a57353383526005602052818320610715828254610710828210156108ad565b6108fb565b90558280828015610773575b8280929181923390f11561076857905133815260208101919091527f884edad9ce6fa2440d8a54cc123490eb96d2768479d49ff9c7366125a942436490806040810161024a565b5051903d90823e3d90fd5b6108fc9150610721565b83823461016d57602036600319011261016d5760207fc5618716db99966ac0bedb011a55472827d54343d73b50c3118c0b03cdf1c75f91600160a060020a036107c46107e8565b6107cc610831565b169081600160a060020a0319600254161760025551908152a180f35b60043590600160a060020a03821682036107fe57565b600080fd5b9181601f840112156107fe5782359167ffffffffffffffff83116107fe57602083818601950101116107fe57565b600160a060020a0360005416330361084557565b606460405160e560020a62461bcd02815260206004820152602060248201527f4f776e61626c653a2063616c6c6572206973206e6f7420746865206f776e65726044820152fd5b908060209392818452848401376000828201840152601f01601f1916010190565b156108b457565b606460405160e560020a62461bcd02815260206004820152601260248201527f496e73756666696369656e742076616c756500000000000000000000000000006044820152fd5b9190820391821161090857565b60e060020a634e487b7102600052601160045260246000fd5b6020600160a060020a0360025416916024604051809481937f39b37ab000000000000000000000000000000000000000000000000000000000835260048301525afa908115610a02576000916109a4575b50801561099e573360005260056020526040600020610999828254610710828210156108ad565b905590565b50600090565b9060203d81116109fb575b601f8101601f1916830167ffffffffffffffff8111848210176109e45760209184916040528101031261014d57505138610972565b60248360e060020a634e487b710281526041600452fd5b503d6109af565b6040513d6000823e3d90fdfea2646970667358221220d1a16834b2b5b05402795fb97c193dc57fb758470d770785414c0b2a5c8165e464736f6c63430008110033",
  "immutableReferences": {
    "5297": [
      {
        "length": 32,
        "start": 1393
      }
    ]
  },
  "source": "// SPDX-License-Identifier: MIT\r\npragma solidity ^0.8.17;\r\n\r\nimport \"./interfaces/IW3Link.sol\";\r\nimport \"./interfaces/IW3LinkApp.sol\";\r\nimport \"./interfaces/IW3LinkConfig.sol\";\r\nimport \"./signature/Signature.sol\";\r\n\r\nimport \"@openzeppelin/contracts/access/Ownable2Step.sol\";\r\nimport \"@openzeppelin/contracts/utils/Counters.sol\";\r\n\r\ncontract W3Link is IW3Link, Ownable2Step, Signature {\r\n    using Counters for Counters.Counter;\r\n\r\n    address private _config;\r\n    uint256 public immutable _chainId;\r\n\r\n    Counters.Counter private _dispatchId;\r\n\r\n    mapping(bytes32 => bool) private _executed;\r\n\r\n    struct Gas {\r\n        uint256 value;\r\n    }\r\n\r\n    mapping(address => Gas) private _gasContents;\r\n\r\n    event SetConfig(address newConfig);\r\n    event Dispatch(\r\n        bytes32 hash,\r\n        address destContractId,\r\n        address fromContractId,\r\n        uint256 destChainId,\r\n        uint256 fee,\r\n        bytes data,\r\n        bytes32 extra\r\n    );\r\n    event Executed(bytes32 hash);\r\n    event Deposit(address contractId, uint256 value);\r\n    event Withdraw(address contractId, uint256 value);\r\n\r\n    constructor(uint256 chainId_, address config_) Ownable2Step() {\r\n        _chainId = chainId_;\r\n        _config = config_;\r\n    }\r\n\r\n    function dispatch(\r\n        address destContractId,\r\n        bytes calldata data,\r\n        uint256 destChainId,\r\n        bytes32 extra\r\n    ) external override {\r\n        bytes32 hash = getHash(_dispatchId.current());\r\n\r\n        _executed[hash] = false;\r\n\r\n        uint256 fee = _payGas(destChainId);\r\n\r\n        emit Dispatch(\r\n            hash,\r\n            destContractId,\r\n            _msgSender(),\r\n            destChainId,\r\n            fee,\r\n            data,\r\n            extra\r\n        );\r\n\r\n        _dispatchId.increment();\r\n    }\r\n\r\n    function execute(\r\n        bytes32 hash,\r\n        address destContractId,\r\n        bytes calldata data,\r\n        uint256 fromChainId,\r\n        bytes32 extra\r\n    ) external {\r\n        require(!_executed[hash], \"Execute Completed\");\r\n        require(verifyHash(hash), \"Validation Failed\");\r\n\r\n        IW3LinkApp(destContractId).execute(fromChainId, data, extra);\r\n\r\n        _executed[hash] = true;\r\n\r\n        emit Executed(hash);\r\n    }\r\n\r\n    function _payGas(uint256 destChainId) internal returns (uint256) {\r\n        IW3LinkConfig w3linkConfig = IW3LinkConfig(_config);\r\n\r\n        uint256 fee = w3linkConfig.fee(destChainId);\r\n        if (fee == 0) return 0;\r\n\r\n        Gas storage gas = _gasContents[_msgSender()];\r\n        require(gas.value >= fee, \"Insufficient value\");\r\n        gas.value -= fee;\r\n\r\n        return fee;\r\n    }\r\n\r\n    function deposit() external payable override {\r\n        uint256 amount = msg.value;\r\n        _gasContents[_msgSender()].value += amount;\r\n\r\n        payable(owner()).transfer(amount);\r\n        emit Deposit(_msgSender(), amount);\r\n    }\r\n\r\n    function withdraw(uint256 amount) external override {\r\n        Gas storage gas = _gasContents[_msgSender()];\r\n        require(gas.value >= amount, \"Insufficient value\");\r\n        gas.value -= amount;\r\n\r\n        payable(_msgSender()).transfer(amount);\r\n        emit Withdraw(_msgSender(), amount);\r\n    }\r\n\r\n    function balance(\r\n        address contractId\r\n    ) external view override returns (uint256) {\r\n        return _gasContents[contractId].value;\r\n    }\r\n\r\n    function setConfig(address newConfig) external onlyOwner {\r\n        _config = newConfig;\r\n        emit SetConfig(newConfig);\r\n    }\r\n\r\n    function config() external view override returns (address) {\r\n        return _config;\r\n    }\r\n}\r\n",
  "sourcePath": "C:\\Users\\DELL\\Documents\\w3link\\solidity\\contracts\\W3Link.sol",
  "compiler": {
    "name": "solc",
    "version": "0.8.17+commit.8df45f5f.Emscripten.clang"
  },
  "schemaVersion": "3.4.11",
  "updatedAt": "2023-09-23T16:10:06.709Z",
  "networkType": "ethereum",
  "devdoc": {
    "kind": "dev",
    "methods": {
      "acceptOwnership()": {
        "details": "The new owner accepts the ownership transfer."
      },
      "owner()": {
        "details": "Returns the address of the current owner."
      },
      "pendingOwner()": {
        "details": "Returns the address of the pending owner."
      },
      "renounceOwnership()": {
        "details": "Leaves the contract without owner. It will not be possible to call `onlyOwner` functions. Can only be called by the current owner. NOTE: Renouncing ownership will leave the contract without an owner, thereby disabling any functionality that is only available to the owner."
      },
      "transferOwnership(address)": {
        "details": "Starts the ownership transfer of the contract to a new account. Replaces the pending transfer if there is one. Can only be called by the current owner."
      }
    },
    "version": 1
  },
  "userdoc": {
    "kind": "user",
    "methods": {},
    "version": 1
  }
}