{
  "contractName": "W3Link",
  "abi": [
    {
      "inputs": [
        {
          "internalType": "uint256",
          "name": "chainId_",
          "type": "uint256"
        },
        {
          "internalType": "address",
          "name": "config_",
          "type": "address"
        }
      ],
      "stateMutability": "nonpayable",
      "type": "constructor"
    },
    {
      "anonymous": false,
      "inputs": [
        {
          "indexed": false,
          "internalType": "address",
          "name": "contractId",
          "type": "address"
        },
        {
          "indexed": false,
          "internalType": "uint256",
          "name": "value",
          "type": "uint256"
        }
      ],
      "name": "Deposit",
      "type": "event"
    },
    {
      "anonymous": false,
      "inputs": [
        {
          "indexed": false,
          "internalType": "bytes32",
          "name": "hash",
          "type": "bytes32"
        },
        {
          "indexed": false,
          "internalType": "address",
          "name": "destContractId",
          "type": "address"
        },
        {
          "indexed": false,
          "internalType": "address",
          "name": "fromContractId",
          "type": "address"
        },
        {
          "indexed": false,
          "internalType": "uint256",
          "name": "destChainId",
          "type": "uint256"
        },
        {
          "indexed": false,
          "internalType": "uint256",
          "name": "fee",
          "type": "uint256"
        },
        {
          "indexed": false,
          "internalType": "bytes",
          "name": "data",
          "type": "bytes"
        },
        {
          "indexed": false,
          "internalType": "bytes32",
          "name": "extra",
          "type": "bytes32"
        }
      ],
      "name": "Dispatch",
      "type": "event"
    },
    {
      "anonymous": false,
      "inputs": [
        {
          "indexed": false,
          "internalType": "bytes32",
          "name": "hash",
          "type": "bytes32"
        }
      ],
      "name": "Executed",
      "type": "event"
    },
    {
      "anonymous": false,
      "inputs": [
        {
          "indexed": true,
          "internalType": "address",
          "name": "previousOwner",
          "type": "address"
        },
        {
          "indexed": true,
          "internalType": "address",
          "name": "newOwner",
          "type": "address"
        }
      ],
      "name": "OwnershipTransferStarted",
      "type": "event"
    },
    {
      "anonymous": false,
      "inputs": [
        {
          "indexed": true,
          "internalType": "address",
          "name": "previousOwner",
          "type": "address"
        },
        {
          "indexed": true,
          "internalType": "address",
          "name": "newOwner",
          "type": "address"
        }
      ],
      "name": "OwnershipTransferred",
      "type": "event"
    },
    {
      "anonymous": false,
      "inputs": [
        {
          "indexed": false,
          "internalType": "address",
          "name": "newConfig",
          "type": "address"
        }
      ],
      "name": "SetConfig",
      "type": "event"
    },
    {
      "anonymous": false,
      "inputs": [
        {
          "indexed": false,
          "internalType": "address",
          "name": "contractId",
          "type": "address"
        },
        {
          "indexed": false,
          "internalType": "uint256",
          "name": "value",
          "type": "uint256"
        }
      ],
      "name": "Withdraw",
      "type": "event"
    },
    {
      "inputs": [],
      "name": "_chainId",
      "outputs": [
        {
          "internalType": "uint256",
          "name": "",
          "type": "uint256"
        }
      ],
      "stateMutability": "view",
      "type": "function"
    },
    {
      "inputs": [],
      "name": "acceptOwnership",
      "outputs": [],
      "stateMutability": "nonpayable",
      "type": "function"
    },
    {
      "inputs": [
        {
          "internalType": "uint256",
          "name": "dispatchId",
          "type": "uint256"
        }
      ],
      "name": "getHash",
      "outputs": [
        {
          "internalType": "bytes32",
          "name": "",
          "type": "bytes32"
        }
      ],
      "stateMutability": "pure",
      "type": "function"
    },
    {
      "inputs": [],
      "name": "owner",
      "outputs": [
        {
          "internalType": "address",
          "name": "",
          "type": "address"
        }
      ],
      "stateMutability": "view",
      "type": "function"
    },
    {
      "inputs": [],
      "name": "pendingOwner",
      "outputs": [
        {
          "internalType": "address",
          "name": "",
          "type": "address"
        }
      ],
      "stateMutability": "view",
      "type": "function"
    },
    {
      "inputs": [],
      "name": "renounceOwnership",
      "outputs": [],
      "stateMutability": "nonpayable",
      "type": "function"
    },
    {
      "inputs": [
        {
          "internalType": "address",
          "name": "newOwner",
          "type": "address"
        }
      ],
      "name": "transferOwnership",
      "outputs": [],
      "stateMutability": "nonpayable",
      "type": "function"
    },
    {
      "inputs": [
        {
          "internalType": "bytes32",
          "name": "",
          "type": "bytes32"
        }
      ],
      "name": "verifyHash",
      "outputs": [
        {
          "internalType": "bool",
          "name": "",
          "type": "bool"
        }
      ],
      "stateMutability": "pure",
      "type": "function"
    },
    {
      "inputs": [
        {
          "internalType": "address",
          "name": "destContractId",
          "type": "address"
        },
        {
          "internalType": "bytes",
          "name": "data",
          "type": "bytes"
        },
        {
          "internalType": "uint256",
          "name": "destChainId",
          "type": "uint256"
        },
        {
          "internalType": "bytes32",
          "name": "extra",
          "type": "bytes32"
        }
      ],
      "name": "dispatch",
      "outputs": [],
      "stateMutability": "nonpayable",
      "type": "function"
    },
    {
      "inputs": [
        {
          "internalType": "bytes32",
          "name": "hash",
          "type": "bytes32"
        },
        {
          "internalType": "address",
          "name": "destContractId",
          "type": "address"
        },
        {
          "internalType": "bytes",
          "name": "data",
          "type": "bytes"
        },
        {
          "internalType": "uint256",
          "name": "fromChainId",
          "type": "uint256"
        },
        {
          "internalType": "bytes32",
          "name": "extra",
          "type": "bytes32"
        }
      ],
      "name": "execute",
      "outputs": [],
      "stateMutability": "nonpayable",
      "type": "function"
    },
    {
      "inputs": [],
      "name": "deposit",
      "outputs": [],
      "stateMutability": "payable",
      "type": "function"
    },
    {
      "inputs": [
        {
          "internalType": "uint256",
          "name": "amount",
          "type": "uint256"
        }
      ],
      "name": "withdraw",
      "outputs": [],
      "stateMutability": "nonpayable",
      "type": "function"
    },
    {
      "inputs": [
        {
          "internalType": "address",
          "name": "contractId",
          "type": "address"
        }
      ],
      "name": "balance",
      "outputs": [
        {
          "internalType": "uint256",
          "name": "",
          "type": "uint256"
        }
      ],
      "stateMutability": "view",
      "type": "function"
    },
    {
      "inputs": [
        {
          "internalType": "address",
          "name": "newConfig",
          "type": "address"
        }
      ],
      "name": "setConfig",
      "outputs": [],
      "stateMutability": "nonpayable",
      "type": "function"
    },
    {
      "inputs": [],
      "name": "config",
      "outputs": [
        {
          "internalType": "address",
          "name": "",
          "type": "address"
        }
      ],
      "stateMutability": "view",
      "type": "function"
    }
  ],
  "bytecode": "0x60a0346100c257610b8b80380390601f19601f83011683019183831067ffffffffffffffff8411176100c75780849260409485528339810103126100c2578051602090910151600160a060020a0391828216918290036100c257600160a060020a03199081600154166001556000543383821617600055604051943391167f8be0079c531659141344cd1fd0a4f28419497f9722a3daafe3b4186f6b6457e0600080a36080526002541617600255610a9490816100f78239608051816105760152f35b600080fd5b7f4e487b7100000000000000000000000000000000000000000000000000000000600052604160045260246000fdfe60406080815260048036101561001457600080fd5b6000917c010000000000000000000000000000000000000000000000000000000083350491826320e3dbd4146107cd5782632e1a7d4d1461072e5782634964e699146106125782636b2fafa9146105f4578263715018a614610599578263747734121461055e57826379502c551461053657826379ba5097146104525782638da5cb5b1461042c578263ccf1d3071461027d578263d0e30db0146101d4578263e30c3978146101ac578263e3d670d71461017157508163ef020f4a14610150575063f2fde38b146100e457600080fd5b3461014d57602036600319011261014d576100fd610838565b610105610881565b600160a060020a038091169081600160a060020a031960015416176001558254167f38d16b8cac22d99fc7c124b9cd0de2d3fa1faef420bfe791d8c362d765e227008380a380f35b80fd5b90503461016d57602036600319011261016d576020905160018152f35b5080fd5b909150346101a85760203660031901126101a8576020928291600160a060020a0361019a610838565b168252845220549051908152f35b8280fd5b83823461016d578160031936011261016d57602090600160a060020a03600154169051908152f35b909150826003193601126101a8573383528060205281832080549134830180931161026757505581808080600160a060020a038154168190341561025d575b3491f11561025357513381523460208201527fe1fffcc4923d04b559f4d29a8bfc6cda04eb5b0d3c460751c2402c5c5cc9109c9080604081015b0390a180f35b51903d90823e3d90fd5b6108fc9150610213565b84601160249260e060020a634e487b7102835252fd5b9150346101a85760a03660031901126101a85781359160243590600160a060020a0382168092036104285767ffffffffffffffff604435818111610424576102c89036908401610853565b93868852600360205260ff86892054166103de57908188923b156101a85761032e958388518098819582947f913bebdc0000000000000000000000000000000000000000000000000000000084526064358b8501526060602485015260648401916108dc565b608435604483015203925af180156103d457610388575b857fa74c8847d513feba22a0f0cb38d53081abf97562cdb293926ba243689e7c41ca6020878781855260038352808520600160ff1982541617905551908152a180f35b82959395116103be57508352918160207fa74c8847d513feba22a0f0cb38d53081abf97562cdb293926ba243689e7c41ca610345565b82604160249260e060020a634e487b7102835252fd5b84513d88823e3d90fd5b606484602088519160e560020a62461bcd028352820152601160248201527f4578656375746520436f6d706c657465640000000000000000000000000000006044820152fd5b8680fd5b8480fd5b83823461016d578160031936011261016d57600160a060020a0360209254169051908152f35b9150346101a857826003193601126101a85760015491600160a060020a039133838516036104ca57505073ffffffffffffffffffffffffffffffffffffffff1991821660015582543392811683178455167f8be0079c531659141344cd1fd0a4f28419497f9722a3daafe3b4186f6b6457e08380a380f35b906020608492519160e560020a62461bcd028352820152602960248201527f4f776e61626c6532537465703a2063616c6c6572206973206e6f74207468652060448201527f6e6577206f776e657200000000000000000000000000000000000000000000006064820152fd5b83823461016d578160031936011261016d57602090600160a060020a03600254169051908152f35b83823461016d578160031936011261016d57602090517f00000000000000000000000000000000000000000000000000000000000000008152f35b833461014d578060031936011261014d576105b2610881565b80600160a060020a038019806001541660015582549081168355167f8be0079c531659141344cd1fd0a4f28419497f9722a3daafe3b4186f6b6457e08280a380f35b9150346101a85760203660031901126101a857602092505190358152f35b83823461016d57608036600319011261016d5761062d610838565b9260243567ffffffffffffffff811161072a5761064d9036908301610853565b9094600160a060020a0360443591169283156106e45750946106d6917fa397d9d0a8c51ee700787e0a880c99fad0e469c56474a1c50ab88c0e3e4c28c69596428852600360205285882060ff1981541690556106a881610971565b908651968796428852602088015233908701526060860152608085015260e060a085015260e08401916108dc565b60643560c08301520390a180f35b606490602086519160e560020a62461bcd028352820152601560248201527f496e76616c6964206465737420636f6e747261637400000000000000000000006044820152fd5b8380fd5b909150346101a85760203660031901126101a857803590338452602052818320610765828254610760828210156108fd565b61094b565b905582808280156107c3575b8280929181923390f1156107b857905133815260208101919091527f884edad9ce6fa2440d8a54cc123490eb96d2768479d49ff9c7366125a942436490806040810161024d565b5051903d90823e3d90fd5b6108fc9150610771565b83823461016d57602036600319011261016d5760207fc5618716db99966ac0bedb011a55472827d54343d73b50c3118c0b03cdf1c75f91600160a060020a03610814610838565b61081c610881565b169081600160a060020a0319600254161760025551908152a180f35b60043590600160a060020a038216820361084e57565b600080fd5b9181601f8401121561084e5782359167ffffffffffffffff831161084e576020838186019501011161084e57565b600160a060020a0360005416330361089557565b606460405160e560020a62461bcd02815260206004820152602060248201527f4f776e61626c653a2063616c6c6572206973206e6f7420746865206f776e65726044820152fd5b908060209392818452848401376000828201840152601f01601f1916010190565b1561090457565b606460405160e560020a62461bcd02815260206004820152601260248201527f496e73756666696369656e742076616c756500000000000000000000000000006044820152fd5b9190820391821161095857565b60e060020a634e487b7102600052601160045260246000fd5b6020600160a060020a0360025416916024604051809481937f39b37ab000000000000000000000000000000000000000000000000000000000835260048301525afa908115610a52576000916109f4575b5080156109ee5733600052600460205260406000206109e9828254610760828210156108fd565b905590565b50600090565b9060203d8111610a4b575b601f8101601f1916830167ffffffffffffffff811184821017610a345760209184916040528101031261014d575051386109c2565b60248360e060020a634e487b710281526041600452fd5b503d6109ff565b6040513d6000823e3d90fdfea2646970667358221220a52e9d8a455fd3475fd4d880a60b0641c33b8fca0fd1aa8367800249e68197fd64736f6c63430008110033",
  "immutableReferences": {
    "5292": [
      {
        "length": 32,
        "start": 1398
      }
    ]
  },
  "source": "// SPDX-License-Identifier: MIT\r\npragma solidity ^0.8.17;\r\n\r\nimport \"./interfaces/IW3Link.sol\";\r\nimport \"./interfaces/IW3LinkApp.sol\";\r\nimport \"./interfaces/IW3LinkConfig.sol\";\r\nimport \"./signature/Signature.sol\";\r\n\r\nimport \"@openzeppelin/contracts/access/Ownable2Step.sol\";\r\n\r\ncontract W3Link is IW3Link, Ownable2Step, Signature {\r\n    address private _config;\r\n    uint256 public immutable _chainId;\r\n\r\n    mapping(bytes32 => bool) private _executed;\r\n\r\n    struct Gas {\r\n        uint256 value;\r\n    }\r\n\r\n    mapping(address => Gas) private _gasContents;\r\n\r\n    event SetConfig(address newConfig);\r\n    event Dispatch(\r\n        bytes32 hash,\r\n        address destContractId,\r\n        address fromContractId,\r\n        uint256 destChainId,\r\n        uint256 fee,\r\n        bytes data,\r\n        bytes32 extra\r\n    );\r\n    event Executed(bytes32 hash);\r\n    event Deposit(address contractId, uint256 value);\r\n    event Withdraw(address contractId, uint256 value);\r\n\r\n    constructor(uint256 chainId_, address config_) Ownable2Step() {\r\n        _chainId = chainId_;\r\n        _config = config_;\r\n    }\r\n\r\n    function dispatch(\r\n        address destContractId,\r\n        bytes calldata data,\r\n        uint256 destChainId,\r\n        bytes32 extra\r\n    ) external override {\r\n        require(destContractId != address(0), \"Invalid dest contract\");\r\n\r\n        bytes32 hash = getHash(block.timestamp);\r\n\r\n        _executed[hash] = false;\r\n\r\n        uint256 fee = _payGas(destChainId);\r\n\r\n        emit Dispatch(\r\n            hash,\r\n            destContractId,\r\n            _msgSender(),\r\n            destChainId,\r\n            fee,\r\n            data,\r\n            extra\r\n        );\r\n    }\r\n\r\n    function execute(\r\n        bytes32 hash,\r\n        address destContractId,\r\n        bytes calldata data,\r\n        uint256 fromChainId,\r\n        bytes32 extra\r\n    ) external {\r\n        require(!_executed[hash], \"Execute Completed\");\r\n        require(verifyHash(hash), \"Validation Failed\");\r\n\r\n        IW3LinkApp(destContractId).execute(fromChainId, data, extra);\r\n\r\n        _executed[hash] = true;\r\n\r\n        emit Executed(hash);\r\n    }\r\n\r\n    function _payGas(uint256 destChainId) internal returns (uint256) {\r\n        IW3LinkConfig w3linkConfig = IW3LinkConfig(_config);\r\n\r\n        uint256 fee = w3linkConfig.fee(destChainId);\r\n        if (fee == 0) return 0;\r\n\r\n        Gas storage gas = _gasContents[_msgSender()];\r\n        require(gas.value >= fee, \"Insufficient value\");\r\n        gas.value -= fee;\r\n\r\n        return fee;\r\n    }\r\n\r\n    function deposit() external payable override {\r\n        uint256 amount = msg.value;\r\n        _gasContents[_msgSender()].value += amount;\r\n\r\n        payable(owner()).transfer(amount);\r\n        emit Deposit(_msgSender(), amount);\r\n    }\r\n\r\n    function withdraw(uint256 amount) external override {\r\n        Gas storage gas = _gasContents[_msgSender()];\r\n        require(gas.value >= amount, \"Insufficient value\");\r\n        gas.value -= amount;\r\n\r\n        payable(_msgSender()).transfer(amount);\r\n        emit Withdraw(_msgSender(), amount);\r\n    }\r\n\r\n    function balance(\r\n        address contractId\r\n    ) external view override returns (uint256) {\r\n        return _gasContents[contractId].value;\r\n    }\r\n\r\n    function setConfig(address newConfig) external onlyOwner {\r\n        _config = newConfig;\r\n        emit SetConfig(newConfig);\r\n    }\r\n\r\n    function config() external view override returns (address) {\r\n        return _config;\r\n    }\r\n}\r\n",
  "sourcePath": "C:\\Users\\DELL\\Documents\\w3link\\solidity\\contracts\\W3Link.sol",
  "compiler": {
    "name": "solc",
    "version": "0.8.17+commit.8df45f5f.Emscripten.clang"
  },
  "schemaVersion": "3.4.11",
  "updatedAt": "2023-09-27T20:59:04.177Z",
  "networkType": "ethereum",
  "devdoc": {
    "kind": "dev",
    "methods": {
      "acceptOwnership()": {
        "details": "The new owner accepts the ownership transfer."
      },
      "owner()": {
        "details": "Returns the address of the current owner."
      },
      "pendingOwner()": {
        "details": "Returns the address of the pending owner."
      },
      "renounceOwnership()": {
        "details": "Leaves the contract without owner. It will not be possible to call `onlyOwner` functions. Can only be called by the current owner. NOTE: Renouncing ownership will leave the contract without an owner, thereby disabling any functionality that is only available to the owner."
      },
      "transferOwnership(address)": {
        "details": "Starts the ownership transfer of the contract to a new account. Replaces the pending transfer if there is one. Can only be called by the current owner."
      }
    },
    "version": 1
  },
  "userdoc": {
    "kind": "user",
    "methods": {},
    "version": 1
  }
}