{
  "contractName": "W3Link",
  "abi": [
    {
      "inputs": [
        {
          "internalType": "uint256",
          "name": "chainId_",
          "type": "uint256"
        },
        {
          "internalType": "address",
          "name": "config_",
          "type": "address"
        }
      ],
      "stateMutability": "nonpayable",
      "type": "constructor"
    },
    {
      "anonymous": false,
      "inputs": [
        {
          "indexed": false,
          "internalType": "address",
          "name": "contractId",
          "type": "address"
        },
        {
          "indexed": false,
          "internalType": "uint256",
          "name": "value",
          "type": "uint256"
        }
      ],
      "name": "Deposit",
      "type": "event"
    },
    {
      "anonymous": false,
      "inputs": [
        {
          "indexed": false,
          "internalType": "bytes32",
          "name": "hash",
          "type": "bytes32"
        },
        {
          "indexed": false,
          "internalType": "address",
          "name": "destContractId",
          "type": "address"
        },
        {
          "indexed": false,
          "internalType": "address",
          "name": "fromContractId",
          "type": "address"
        },
        {
          "indexed": false,
          "internalType": "uint256",
          "name": "destChainId",
          "type": "uint256"
        },
        {
          "indexed": false,
          "internalType": "uint256",
          "name": "fee",
          "type": "uint256"
        },
        {
          "indexed": false,
          "internalType": "bytes",
          "name": "data",
          "type": "bytes"
        },
        {
          "indexed": false,
          "internalType": "bytes32",
          "name": "extra",
          "type": "bytes32"
        }
      ],
      "name": "Dispatch",
      "type": "event"
    },
    {
      "anonymous": false,
      "inputs": [
        {
          "indexed": false,
          "internalType": "bytes32",
          "name": "hash",
          "type": "bytes32"
        }
      ],
      "name": "Executed",
      "type": "event"
    },
    {
      "anonymous": false,
      "inputs": [
        {
          "indexed": true,
          "internalType": "address",
          "name": "previousOwner",
          "type": "address"
        },
        {
          "indexed": true,
          "internalType": "address",
          "name": "newOwner",
          "type": "address"
        }
      ],
      "name": "OwnershipTransferStarted",
      "type": "event"
    },
    {
      "anonymous": false,
      "inputs": [
        {
          "indexed": true,
          "internalType": "address",
          "name": "previousOwner",
          "type": "address"
        },
        {
          "indexed": true,
          "internalType": "address",
          "name": "newOwner",
          "type": "address"
        }
      ],
      "name": "OwnershipTransferred",
      "type": "event"
    },
    {
      "anonymous": false,
      "inputs": [
        {
          "indexed": false,
          "internalType": "address",
          "name": "newConfig",
          "type": "address"
        }
      ],
      "name": "SetConfig",
      "type": "event"
    },
    {
      "anonymous": false,
      "inputs": [
        {
          "indexed": false,
          "internalType": "address",
          "name": "contractId",
          "type": "address"
        },
        {
          "indexed": false,
          "internalType": "uint256",
          "name": "value",
          "type": "uint256"
        }
      ],
      "name": "Withdraw",
      "type": "event"
    },
    {
      "inputs": [],
      "name": "_chainId",
      "outputs": [
        {
          "internalType": "uint256",
          "name": "",
          "type": "uint256"
        }
      ],
      "stateMutability": "view",
      "type": "function"
    },
    {
      "inputs": [],
      "name": "acceptOwnership",
      "outputs": [],
      "stateMutability": "nonpayable",
      "type": "function"
    },
    {
      "inputs": [],
      "name": "owner",
      "outputs": [
        {
          "internalType": "address",
          "name": "",
          "type": "address"
        }
      ],
      "stateMutability": "view",
      "type": "function"
    },
    {
      "inputs": [],
      "name": "pendingOwner",
      "outputs": [
        {
          "internalType": "address",
          "name": "",
          "type": "address"
        }
      ],
      "stateMutability": "view",
      "type": "function"
    },
    {
      "inputs": [],
      "name": "renounceOwnership",
      "outputs": [],
      "stateMutability": "nonpayable",
      "type": "function"
    },
    {
      "inputs": [
        {
          "internalType": "address",
          "name": "newOwner",
          "type": "address"
        }
      ],
      "name": "transferOwnership",
      "outputs": [],
      "stateMutability": "nonpayable",
      "type": "function"
    },
    {
      "inputs": [
        {
          "internalType": "address",
          "name": "destContractId",
          "type": "address"
        },
        {
          "internalType": "bytes",
          "name": "data",
          "type": "bytes"
        },
        {
          "internalType": "uint256",
          "name": "destChainId",
          "type": "uint256"
        },
        {
          "internalType": "bytes32",
          "name": "extra",
          "type": "bytes32"
        }
      ],
      "name": "dispatch",
      "outputs": [],
      "stateMutability": "nonpayable",
      "type": "function"
    },
    {
      "inputs": [
        {
          "internalType": "bytes32",
          "name": "hash",
          "type": "bytes32"
        },
        {
          "internalType": "address",
          "name": "destContractId",
          "type": "address"
        },
        {
          "internalType": "bytes",
          "name": "data",
          "type": "bytes"
        },
        {
          "internalType": "uint256",
          "name": "fromChainId",
          "type": "uint256"
        },
        {
          "internalType": "bytes32",
          "name": "extra",
          "type": "bytes32"
        }
      ],
      "name": "execute",
      "outputs": [],
      "stateMutability": "nonpayable",
      "type": "function"
    },
    {
      "inputs": [],
      "name": "deposit",
      "outputs": [],
      "stateMutability": "payable",
      "type": "function"
    },
    {
      "inputs": [
        {
          "internalType": "uint256",
          "name": "amount",
          "type": "uint256"
        }
      ],
      "name": "withdraw",
      "outputs": [],
      "stateMutability": "nonpayable",
      "type": "function"
    },
    {
      "inputs": [
        {
          "internalType": "address",
          "name": "newConfig",
          "type": "address"
        }
      ],
      "name": "setConfig",
      "outputs": [],
      "stateMutability": "nonpayable",
      "type": "function"
    },
    {
      "inputs": [],
      "name": "config",
      "outputs": [
        {
          "internalType": "address",
          "name": "",
          "type": "address"
        }
      ],
      "stateMutability": "view",
      "type": "function"
    }
  ],
  "bytecode": "0x60a0346100c257610c3f80380390601f19601f83011683019183831067ffffffffffffffff8411176100c75780849260409485528339810103126100c2578051602090910151600160a060020a0391828216918290036100c257600160a060020a03199081600154166001556000543383821617600055604051943391167f8be0079c531659141344cd1fd0a4f28419497f9722a3daafe3b4186f6b6457e0600080a36080526002541617600255610b4890816100f78239608051816105c60152f35b600080fd5b7f4e487b7100000000000000000000000000000000000000000000000000000000600052604160045260246000fdfe60406080815260048036101561001457600080fd5b6000917c010000000000000000000000000000000000000000000000000000000083350491826320e3dbd4146108735782632e1a7d4d146107d45782634964e69914610644578263715018a6146105e957826374773412146105ae57826379502c551461058657826379ba5097146104a25782638da5cb5b1461047c578263ccf1d30714610209578263d0e30db01461015b57508163e30c39781461012f575063f2fde38b146100c357600080fd5b3461012c57602036600319011261012c576100dc6108de565b6100e4610927565b600160a060020a038091169081600160a060020a031960015416176001558254167f38d16b8cac22d99fc7c124b9cd0de2d3fa1faef420bfe791d8c362d765e227008380a380f35b80fd5b905034610157578160031936011261015757602090600160a060020a03600154169051908152f35b5080fd5b909150826003193601126102055733835260056020528183208054913483018093116101ef57505581808080600160a060020a03815416819034156101e5575b3491f1156101db57513381523460208201527fe1fffcc4923d04b559f4d29a8bfc6cda04eb5b0d3c460751c2402c5c5cc9109c9080604081015b0390a180f35b51903d90823e3d90fd5b6108fc915061019b565b84601160249260e060020a634e487b7102835252fd5b8280fd5b8390346101575760a0366003190112610157578035602493843592600160a060020a0384168094036104785767ffffffffffffffff6044358181116104745761025590369084016108f9565b85889392935260209684885260ff868a2054166104305785517fef020f4a000000000000000000000000000000000000000000000000000000008152878682015288818c8173__Signature_____________________________5af4908115610426578a916103ec575b50156103a857803b156103a4579088916060838c6103178a51988996879586947f913bebdc0000000000000000000000000000000000000000000000000000000086528d6064359087015285015260648401916109bd565b608435604483015203925af1801561039a5761036f575b5050849550827fa74c8847d513feba22a0f0cb38d53081abf97562cdb293926ba243689e7c41ca95528352808520600160ff1982541617905551908152a180f35b819692961161038557825293945084868061032e565b868260418860e060020a634e487b7102835252fd5b84513d89823e3d90fd5b8880fd5b60648560118c8b8a519360e560020a62461bcd0285528401528201527f76616c69646174696f6e204661696c65640000000000000000000000000000006044820152fd5b90508881813d831161041f575b6104038183610982565b8101031261041b5751801515810361041b578b6102bf565b8980fd5b503d6103f9565b87513d8c823e3d90fd5b60648560118c8b8a519360e560020a62461bcd0285528401528201527f4578656375746520436f6d706c657465640000000000000000000000000000006044820152fd5b8680fd5b8480fd5b838234610157578160031936011261015757600160a060020a0360209254169051908152f35b91503461020557826003193601126102055760015491600160a060020a0391338385160361051a57505073ffffffffffffffffffffffffffffffffffffffff1991821660015582543392811683178455167f8be0079c531659141344cd1fd0a4f28419497f9722a3daafe3b4186f6b6457e08380a380f35b906020608492519160e560020a62461bcd028352820152602960248201527f4f776e61626c6532537465703a2063616c6c6572206973206e6f74207468652060448201527f6e6577206f776e657200000000000000000000000000000000000000000000006064820152fd5b838234610157578160031936011261015757602090600160a060020a03600254169051908152f35b838234610157578160031936011261015757602090517f00000000000000000000000000000000000000000000000000000000000000008152f35b833461012c578060031936011261012c57610602610927565b80600160a060020a038019806001541660015582549081168355167f8be0079c531659141344cd1fd0a4f28419497f9722a3daafe3b4186f6b6457e08280a380f35b90915034610205576080366003190112610205576106606108de565b9060243567ffffffffffffffff81116104785761068090369083016108f9565b60443592600354938651947f6b2fafa900000000000000000000000000000000000000000000000000000000865282860152602091828660248173__Signature_____________________________5af49586156107ca57899661076f575b508589528252868820805460ff191690557fa397d9d0a8c51ee700787e0a880c99fad0e469c56474a1c50ab88c0e3e4c28c696610758949392919061072382610a52565b92600160a060020a038251998a998a52169088015233908701526060860152608085015260e060a085015260e08401916109bd565b60643560c08301520390a160016003540160035580f35b949392809291965085813d83116107c3575b61078b8183610982565b810103126103a457935194929391929091907fa397d9d0a8c51ee700787e0a880c99fad0e469c56474a1c50ab88c0e3e4c28c66106df565b503d610781565b88513d8b823e3d90fd5b909150346102055760203660031901126102055735338352600560205281832061080b828254610806828210156109de565b610a2c565b90558280828015610869575b8280929181923390f11561085e57905133815260208101919091527f884edad9ce6fa2440d8a54cc123490eb96d2768479d49ff9c7366125a94243649080604081016101d5565b5051903d90823e3d90fd5b6108fc9150610817565b8382346101575760203660031901126101575760207fc5618716db99966ac0bedb011a55472827d54343d73b50c3118c0b03cdf1c75f91600160a060020a036108ba6108de565b6108c2610927565b169081600160a060020a0319600254161760025551908152a180f35b60043590600160a060020a03821682036108f457565b600080fd5b9181601f840112156108f45782359167ffffffffffffffff83116108f457602083818601950101116108f457565b600160a060020a0360005416330361093b57565b606460405160e560020a62461bcd02815260206004820152602060248201527f4f776e61626c653a2063616c6c6572206973206e6f7420746865206f776e65726044820152fd5b90601f8019910116810190811067ffffffffffffffff8211176109a457604052565b60e060020a634e487b7102600052604160045260246000fd5b908060209392818452848401376000828201840152601f01601f1916010190565b156109e557565b606460405160e560020a62461bcd02815260206004820152601260248201527f496e73756666696369656e742076616c756500000000000000000000000000006044820152fd5b91908203918211610a3957565b60e060020a634e487b7102600052601160045260246000fd5b6020600160a060020a0360025416916024604051809481937f39b37ab000000000000000000000000000000000000000000000000000000000835260048301525afa908115610b0657600091610ad5575b508015610acf573360005260056020526040600020610aca828254610806828210156109de565b905590565b50600090565b906020823d8211610afe575b81610aee60209383610982565b8101031261012c57505138610aa3565b3d9150610ae1565b6040513d6000823e3d90fdfea2646970667358221220fe22b119533f0b017ebb3abfe5d2f7a4f855ca0acde06f94e633248c7aef187364736f6c63430008110033",
  "immutableReferences": {
    "5295": [
      {
        "length": 32,
        "start": 1478
      }
    ]
  },
  "source": "// SPDX-License-Identifier: MIT\r\npragma solidity ^0.8.17;\r\n\r\nimport \"./interfaces/IW3Link.sol\";\r\nimport \"./interfaces/IW3LinkApp.sol\";\r\nimport \"./interfaces/IW3LinkConfig.sol\";\r\nimport \"./signature/Signature.sol\";\r\n\r\nimport \"@openzeppelin/contracts/access/Ownable2Step.sol\";\r\nimport \"@openzeppelin/contracts/utils/Counters.sol\";\r\n\r\ncontract W3Link is IW3Link, Ownable2Step {    \r\n    using Counters for Counters.Counter;\r\n    \r\n    address private _config;\r\n    uint256 public immutable _chainId;\r\n\r\n    Counters.Counter private _dispatchId;\r\n\r\n    mapping(bytes32 => bool) private _executed;\r\n\r\n    struct Gas {\r\n        uint256 value;\r\n    }\r\n\r\n    mapping(address => Gas) private _gasContents;\r\n\r\n    event SetConfig(address newConfig);\r\n    event Dispatch(\r\n        bytes32 hash,\r\n        address destContractId,\r\n        address fromContractId,\r\n        uint256 destChainId,\r\n        uint256 fee,\r\n        bytes data,\r\n        bytes32 extra\r\n    );\r\n    event Executed(bytes32 hash);\r\n    event Deposit(address contractId, uint256 value);\r\n    event Withdraw(address contractId, uint256 value);\r\n\r\n    constructor(uint256 chainId_, address config_) Ownable2Step() {\r\n        _chainId = chainId_;\r\n        _config = config_;\r\n        \r\n    }\r\n\r\n    function dispatch(\r\n        address destContractId,\r\n        bytes calldata data,\r\n        uint256 destChainId,\r\n        bytes32 extra\r\n    ) external override {\r\n        bytes32 hash = Signature.getHash(_dispatchId.current());\r\n\r\n        _executed[hash] = false;\r\n\r\n        uint256 fee = _payGas(destChainId);\r\n\r\n        emit Dispatch(\r\n            hash,\r\n            destContractId,\r\n            _msgSender(),\r\n            destChainId,\r\n            fee,\r\n            data,\r\n            extra\r\n        );\r\n\r\n        _dispatchId.increment();\r\n    }\r\n\r\n    function execute(\r\n        bytes32 hash,\r\n        address destContractId,\r\n        bytes calldata data,\r\n        uint256 fromChainId,\r\n        bytes32 extra\r\n    ) external {      \r\n        require(!_executed[hash], \"Execute Completed\");\r\n        require(Signature.verifyHash(hash), \"validation Failed\");\r\n\r\n        IW3LinkApp(destContractId).execute(fromChainId, data, extra);\r\n\r\n        _executed[hash] = true;\r\n\r\n        emit Executed(hash);\r\n    }\r\n\r\n    function _payGas(uint256 destChainId) internal returns (uint256) {\r\n        IW3LinkConfig w3linkConfig = IW3LinkConfig(_config);\r\n\r\n        uint256 fee = w3linkConfig.fee(destChainId);\r\n        if (fee == 0) return 0;\r\n\r\n        Gas storage gas = _gasContents[_msgSender()];\r\n        require(gas.value >= fee, \"Insufficient value\");\r\n        gas.value -= fee;\r\n\r\n        return fee;\r\n    }\r\n\r\n    function deposit() external payable override {\r\n        uint256 amount = msg.value;\r\n\r\n        _gasContents[_msgSender()].value += amount;\r\n        payable(owner()).transfer(amount);\r\n        emit Deposit(_msgSender(), amount);\r\n    }\r\n\r\n    function withdraw(uint256 amount) external override {\r\n        Gas storage gas = _gasContents[_msgSender()];\r\n        require(gas.value >= amount, \"Insufficient value\");\r\n        gas.value -= amount;\r\n\r\n        payable(_msgSender()).transfer(amount);\r\n        emit Withdraw(_msgSender(), amount);\r\n    }\r\n\r\n    function setConfig(address newConfig) external onlyOwner {\r\n        _config = newConfig;\r\n        emit SetConfig(newConfig);\r\n    }\r\n\r\n    function config() external view override returns (address) {\r\n        return _config;\r\n    }\r\n}\r\n",
  "sourcePath": "C:\\Users\\DELL\\Documents\\w3link\\solidity\\contracts\\W3Link.sol",
  "compiler": {
    "name": "solc",
    "version": "0.8.17+commit.8df45f5f.Emscripten.clang"
  },
  "schemaVersion": "3.4.11",
  "updatedAt": "2023-09-11T07:39:53.625Z",
  "devdoc": {
    "kind": "dev",
    "methods": {
      "acceptOwnership()": {
        "details": "The new owner accepts the ownership transfer."
      },
      "owner()": {
        "details": "Returns the address of the current owner."
      },
      "pendingOwner()": {
        "details": "Returns the address of the pending owner."
      },
      "renounceOwnership()": {
        "details": "Leaves the contract without owner. It will not be possible to call `onlyOwner` functions. Can only be called by the current owner. NOTE: Renouncing ownership will leave the contract without an owner, thereby disabling any functionality that is only available to the owner."
      },
      "transferOwnership(address)": {
        "details": "Starts the ownership transfer of the contract to a new account. Replaces the pending transfer if there is one. Can only be called by the current owner."
      }
    },
    "version": 1
  },
  "userdoc": {
    "kind": "user",
    "methods": {},
    "version": 1
  }
}