{
  "contractName": "W3LinkConfig",
  "abi": [
    {
      "inputs": [
        {
          "internalType": "address",
          "name": "handler_",
          "type": "address"
        }
      ],
      "stateMutability": "nonpayable",
      "type": "constructor"
    },
    {
      "anonymous": false,
      "inputs": [
        {
          "indexed": true,
          "internalType": "address",
          "name": "previousOwner",
          "type": "address"
        },
        {
          "indexed": true,
          "internalType": "address",
          "name": "newOwner",
          "type": "address"
        }
      ],
      "name": "OwnershipTransferStarted",
      "type": "event"
    },
    {
      "anonymous": false,
      "inputs": [
        {
          "indexed": true,
          "internalType": "address",
          "name": "previousOwner",
          "type": "address"
        },
        {
          "indexed": true,
          "internalType": "address",
          "name": "newOwner",
          "type": "address"
        }
      ],
      "name": "OwnershipTransferred",
      "type": "event"
    },
    {
      "anonymous": false,
      "inputs": [
        {
          "indexed": false,
          "internalType": "uint256",
          "name": "destChainId",
          "type": "uint256"
        },
        {
          "indexed": false,
          "internalType": "uint256",
          "name": "newFee",
          "type": "uint256"
        }
      ],
      "name": "SetFee",
      "type": "event"
    },
    {
      "inputs": [],
      "name": "acceptOwnership",
      "outputs": [],
      "stateMutability": "nonpayable",
      "type": "function"
    },
    {
      "inputs": [],
      "name": "owner",
      "outputs": [
        {
          "internalType": "address",
          "name": "",
          "type": "address"
        }
      ],
      "stateMutability": "view",
      "type": "function",
      "constant": true
    },
    {
      "inputs": [],
      "name": "pendingOwner",
      "outputs": [
        {
          "internalType": "address",
          "name": "",
          "type": "address"
        }
      ],
      "stateMutability": "view",
      "type": "function",
      "constant": true
    },
    {
      "inputs": [],
      "name": "renounceOwnership",
      "outputs": [],
      "stateMutability": "nonpayable",
      "type": "function"
    },
    {
      "inputs": [
        {
          "internalType": "address",
          "name": "newOwner",
          "type": "address"
        }
      ],
      "name": "transferOwnership",
      "outputs": [],
      "stateMutability": "nonpayable",
      "type": "function"
    },
    {
      "inputs": [
        {
          "internalType": "uint256",
          "name": "destChainId",
          "type": "uint256"
        }
      ],
      "name": "fee",
      "outputs": [
        {
          "internalType": "uint256",
          "name": "",
          "type": "uint256"
        }
      ],
      "stateMutability": "view",
      "type": "function",
      "constant": true
    },
    {
      "inputs": [],
      "name": "handler",
      "outputs": [
        {
          "internalType": "address",
          "name": "",
          "type": "address"
        }
      ],
      "stateMutability": "view",
      "type": "function",
      "constant": true
    },
    {
      "inputs": [
        {
          "internalType": "uint256",
          "name": "destChainId",
          "type": "uint256"
        },
        {
          "internalType": "uint256",
          "name": "newFee",
          "type": "uint256"
        }
      ],
      "name": "setFee",
      "outputs": [],
      "stateMutability": "nonpayable",
      "type": "function"
    },
    {
      "inputs": [
        {
          "internalType": "address",
          "name": "newHandler",
          "type": "address"
        }
      ],
      "name": "setHandler",
      "outputs": [],
      "stateMutability": "nonpayable",
      "type": "function"
    },
    {
      "inputs": [],
      "name": "onlyHandler",
      "outputs": [],
      "stateMutability": "view",
      "type": "function",
      "constant": true
    },
    {
      "inputs": [
        {
          "internalType": "string",
          "name": "source",
          "type": "string"
        }
      ],
      "name": "stringToBytes32",
      "outputs": [
        {
          "internalType": "bytes32",
          "name": "result",
          "type": "bytes32"
        }
      ],
      "stateMutability": "pure",
      "type": "function",
      "constant": true
    }
  ],
  "bytecode": "0x6080346100af5761072f80380390601f19601f83011683019183831067ffffffffffffffff8411176100b4578084926020946040528339810103126100af5751600160a060020a0390818116908190036100af57600160a060020a031980600154166001556000543382821617600055604051933391167f8be0079c531659141344cd1fd0a4f28419497f9722a3daafe3b4186f6b6457e0600080a3600254161760025561064b90816100e48239f35b600080fd5b7f4e487b7100000000000000000000000000000000000000000000000000000000600052604160045260246000fdfe60806040526004361015610013575b600080fd5b7c010000000000000000000000000000000000000000000000000000000060003504806339b37ab01461010b57806352f7c98814610102578063715018a6146100f957806379ba5097146100f05780638da5cb5b146100e7578063b11d16fb146100de578063bac426d0146100d5578063c80916d4146100cc578063cfb51928146100c3578063e30c3978146100ba5763f2fde38b146100b257600080fd5b61000e61052f565b5061000e610507565b5061000e61044c565b5061000e6103f4565b5061000e6103be565b5061000e610318565b5061000e6102f0565b5061000e6101f7565b5061000e610197565b5061000e610138565b503461000e57602036600319011261000e5760043560005260036020526020604060002054604051908152f35b503461000e57604036600319011261000e577f032dc6a2d839eb179729a55633fdf1c41a1fc4739394154117005db2b354b9b5604060043560243561017b61058f565b81600052600360205280836000205582519182526020820152a1005b503461000e576000806003193601126101f4576101b261058f565b80600160a060020a038019806001541660015582549081168355167f8be0079c531659141344cd1fd0a4f28419497f9722a3daafe3b4186f6b6457e08280a380f35b80fd5b503461000e576000806003193601126101f457600154600160a060020a03338183160361026c5773ffffffffffffffffffffffffffffffffffffffff1991821660015582543392811683178455167f8be0079c531659141344cd1fd0a4f28419497f9722a3daafe3b4186f6b6457e08380a380f35b60846040517f08c379a000000000000000000000000000000000000000000000000000000000815260206004820152602960248201527f4f776e61626c6532537465703a2063616c6c6572206973206e6f74207468652060448201527f6e6577206f776e657200000000000000000000000000000000000000000000006064820152fd5b503461000e57600036600319011261000e576020600160a060020a0360005416604051908152f35b503461000e57600036600319011261000e57600160a060020a0360025416320361033e57005b60646040517f08c379a000000000000000000000000000000000000000000000000000000000815260206004820152601460248201527f556e617574686f72697a65642048616e646c65720000000000000000000000006044820152fd5b602090600319011261000e57600435600160a060020a038116810361000e5790565b503461000e57600160a060020a036103d53661039c565b6103dd61058f565b16600160a060020a03196002541617600255600080f35b503461000e57600036600319011261000e576020600160a060020a0360025416604051908152f35b507f4e487b7100000000000000000000000000000000000000000000000000000000600052604160045260246000fd5b503461000e57602036600319011261000e5767ffffffffffffffff60043581811161000e573660238201121561000e578060040135918083116104fa575b60405190601f8401601f19908116603f01168201908111828210176104ed575b604052828152366024848401011161000e5760006020846104e99560246104d996018386013783010152610601565b6040519081529081906020820190565b0390f35b6104f561041c565b6104aa565b61050261041c565b61048a565b503461000e57600036600319011261000e576020600160a060020a0360015416604051908152f35b503461000e5761053e3661039c565b61054661058f565b600160a060020a038091169081600160a060020a03196001541617600155600054167f38d16b8cac22d99fc7c124b9cd0de2d3fa1faef420bfe791d8c362d765e22700600080a3005b600160a060020a036000541633036105a357565b60646040517f08c379a000000000000000000000000000000000000000000000000000000000815260206004820152602060248201527f4f776e61626c653a2063616c6c6572206973206e6f7420746865206f776e65726044820152fd5b80511561060f576020015190565b5060009056fea2646970667358221220a0b2748c4143759a7b267a531843e1c2b4f48f0819a2cb437547991708f1566a64736f6c63430008110033",
  "immutableReferences": {},
  "source": "// SPDX-License-Identifier: MIT\r\npragma solidity ^0.8.17;\r\n\r\nimport \"./interfaces/IW3LinkConfig.sol\";\r\n\r\nimport \"@openzeppelin/contracts/access/Ownable2Step.sol\";\r\n\r\ncontract W3LinkConfig is IW3LinkConfig, Ownable2Step {\r\n    address private _handler;\r\n    mapping(uint256 => uint256) private _fees;\r\n\r\n    constructor(address handler_) Ownable2Step() {\r\n        _handler = handler_;\r\n    }\r\n\r\n    event SetFee(uint256 destChainId, uint256 newFee);\r\n\r\n    function fee(uint256 destChainId) external view override returns (uint256) {\r\n        return _fees[destChainId];\r\n    }\r\n\r\n    function handler() external view override returns (address) {\r\n        return _handler;\r\n    }\r\n\r\n    function setFee(uint256 destChainId, uint256 newFee) external onlyOwner {\r\n        _fees[destChainId] = newFee;\r\n        emit SetFee(destChainId, newFee);\r\n    }\r\n\r\n    function setHandler(address newHandler) external onlyOwner {\r\n        _handler = newHandler;\r\n    }\r\n\r\n    function onlyHandler() external view override {\r\n        require(tx.origin == _handler, \"Unauthorized Handler\");\r\n    }\r\n\r\n    function stringToBytes32(\r\n        string memory source\r\n    ) external override pure returns (bytes32 result) {\r\n        bytes memory tempEmptyStringTest = bytes(source);\r\n        if (tempEmptyStringTest.length == 0) {\r\n            return 0x0;\r\n        }\r\n\r\n        assembly {\r\n            result := mload(add(source, 32))\r\n        }\r\n    }\r\n}\r\n",
  "sourcePath": "C:\\Users\\DELL\\Documents\\w3link\\solidity\\contracts\\W3LinkConfig.sol",
  "compiler": {
    "name": "solc",
    "version": "0.8.17+commit.8df45f5f.Emscripten.clang"
  },
  "schemaVersion": "3.4.11",
  "updatedAt": "2023-09-24T05:59:53.916Z",
  "networkType": "ethereum",
  "devdoc": {
    "kind": "dev",
    "methods": {
      "acceptOwnership()": {
        "details": "The new owner accepts the ownership transfer."
      },
      "owner()": {
        "details": "Returns the address of the current owner."
      },
      "pendingOwner()": {
        "details": "Returns the address of the pending owner."
      },
      "renounceOwnership()": {
        "details": "Leaves the contract without owner. It will not be possible to call `onlyOwner` functions. Can only be called by the current owner. NOTE: Renouncing ownership will leave the contract without an owner, thereby disabling any functionality that is only available to the owner."
      },
      "transferOwnership(address)": {
        "details": "Starts the ownership transfer of the contract to a new account. Replaces the pending transfer if there is one. Can only be called by the current owner."
      }
    },
    "version": 1
  },
  "userdoc": {
    "kind": "user",
    "methods": {},
    "version": 1
  }
}