{
  "contractName": "W3LinkUintApi",
  "abi": [
    {
      "anonymous": false,
      "inputs": [],
      "name": "Fetch",
      "type": "event"
    },
    {
      "anonymous": false,
      "inputs": [
        {
          "indexed": false,
          "internalType": "uint256",
          "name": "newFee",
          "type": "uint256"
        }
      ],
      "name": "SetFee",
      "type": "event"
    },
    {
      "inputs": [
        {
          "internalType": "uint256",
          "name": "",
          "type": "uint256"
        },
        {
          "internalType": "bytes",
          "name": "data",
          "type": "bytes"
        },
        {
          "internalType": "bytes32",
          "name": "",
          "type": "bytes32"
        }
      ],
      "name": "execute",
      "outputs": [],
      "stateMutability": "nonpayable",
      "type": "function"
    },
    {
      "inputs": [
        {
          "internalType": "string",
          "name": "url",
          "type": "string"
        },
        {
          "internalType": "string",
          "name": "path",
          "type": "string"
        },
        {
          "internalType": "int256",
          "name": "times",
          "type": "int256"
        }
      ],
      "name": "fetch",
      "outputs": [],
      "stateMutability": "payable",
      "type": "function"
    },
    {
      "inputs": [
        {
          "internalType": "bytes",
          "name": "data",
          "type": "bytes"
        }
      ],
      "name": "onResult",
      "outputs": [],
      "stateMutability": "nonpayable",
      "type": "function"
    },
    {
      "inputs": [
        {
          "internalType": "uint256",
          "name": "newFee",
          "type": "uint256"
        }
      ],
      "name": "setFee",
      "outputs": [],
      "stateMutability": "nonpayable",
      "type": "function"
    },
    {
      "inputs": [],
      "name": "totalFee",
      "outputs": [
        {
          "internalType": "uint256",
          "name": "",
          "type": "uint256"
        }
      ],
      "stateMutability": "view",
      "type": "function"
    }
  ],
  "bytecode": "0x608080604052346100215766071afd498d00006004556106b690816100278239f35b600080fdfe6080604081815260048036101561001557600080fd5b6000927c01000000000000000000000000000000000000000000000000000000008435049081631df4ccfc146104845750806369fe0e2d14610440578063716ea9a71461017b57806382408bb8146101465763913bebdc1461007657600080fd5b8290346101315760603660031901126101315760243567ffffffffffffffff8111610142576100a890369083016105ad565b9273ffffffffffffffffffffffffffffffffffffffff6001541691823b1561013e57839283918351809581937fb11d16fb0000000000000000000000000000000000000000000000000000000083525af1908115610135575061011d575b50508060209151810103126101185780f35b600080fd5b61012690610548565b610131578138610106565b5080fd5b513d84823e3d90fd5b8380fd5b8280fd5b8382346101315760203660031901126101315780359067ffffffffffffffff821161014257610177913691016105ad565b5080f35b50829060603660031901126101315767ffffffffffffffff92813584811161013e576101aa90369084016105ad565b9360243590811161013e576101c290369084016105ad565b9173ffffffffffffffffffffffffffffffffffffffff928360015416956003549084519788927f39b37ab00000000000000000000000000000000000000000000000000000000084528584015282602460209485935afa978815610436578798610407575b50610233845489610604565b34106103ab57916102859161026b610259608095885196879485015260a0840190610640565b601f1993848483030189850152610640565b30606083015260443560808301520390810183528261058b565b83855416803b156103a7578590838551809981937fd0e30db00000000000000000000000000000000000000000000000000000000083525af1801561039d57610389575b8495508385541693600254169360035494813b1561038557868094610328978751988996879586947f4964e699000000000000000000000000000000000000000000000000000000008652850152608060248501526084840190610640565b9060448301526000606483015203925af1908115610135575061036e575b50807f65870cd23ceedf78a65a5191a0db21d432184dfc71eabb213085fd6ac7d2d86d91a180f35b61037790610548565b610382578082610346565b80fd5b8680fd5b93909461039590610548565b9284906102c9565b83513d87823e3d90fd5b8580fd5b606484838751917f08c379a0000000000000000000000000000000000000000000000000000000008352820152601a60248201527f55736520746f74616c466565282920746f206573742e206665650000000000006044820152fd5b9097508181813d831161042f575b61041f818361058b565b8101031261038557519688610227565b503d610415565b85513d89823e3d90fd5b50903461014257602036600319011261014257816020917e172ddfc5ae88d08b3de01a5a187667c37a5a53989e8c175055cb6c993792a7933580925551908152a180f35b838584923461013157816003193601126101315760208160248173ffffffffffffffffffffffffffffffffffffffff600154166003547f39b37ab0000000000000000000000000000000000000000000000000000000008352898301525afa91821561053d578092610507575b60208461050085885490610604565b9051908152f35b9091506020823d8211610535575b816105226020938361058b565b81010312610382575051826105006104f1565b3d9150610515565b8351903d90823e3d90fd5b67ffffffffffffffff811161055c57604052565b7f4e487b7100000000000000000000000000000000000000000000000000000000600052604160045260246000fd5b90601f8019910116810190811067ffffffffffffffff82111761055c57604052565b81601f820112156101185780359067ffffffffffffffff821161055c57604051926105e2601f8401601f19166020018561058b565b8284526020838301011161011857816000926020809301838601378301015290565b9190820180921161061157565b7f4e487b7100000000000000000000000000000000000000000000000000000000600052601160045260246000fd5b919082519283825260005b84811061066c575050826000602080949584010152601f8019910116010190565b60208183018101518483018201520161064b56fea26469706673582212202dcf1e7d479925d5de03b9f63002ee067e7b9973bee212dca4612426062156d064736f6c63430008110033",
  "immutableReferences": {},
  "source": "// SPDX-License-Identifier: MIT\r\npragma solidity ^0.8.17;\r\n\r\nimport \"./../services/AnyApiUintExtension.sol\";\r\n\r\n/// @title A title that should describe the contract/interface\r\n/// @author The name of the author\r\n/// @notice Explain to an end user what this does\r\n/// @dev Explain to a developer any extra details\r\ncontract W3LinkUintApi is AnyApiUintExtension {\r\n    function onResponse(uint256 data) internal virtual override {\r\n        /* Put your code here */\r\n    }\r\n}\r\n",
  "sourcePath": "C:\\Users\\DELL\\Documents\\w3link\\solidity\\contracts\\mocks\\W3LinkUintApi.sol",
  "compiler": {
    "name": "solc",
    "version": "0.8.17+commit.8df45f5f.Emscripten.clang"
  },
  "schemaVersion": "3.4.11",
  "updatedAt": "2023-09-23T18:56:41.276Z",
  "devdoc": {
    "author": "The name of the author",
    "details": "Explain to a developer any extra details",
    "kind": "dev",
    "methods": {},
    "title": "A title that should describe the contract/interface",
    "version": 1
  },
  "userdoc": {
    "kind": "user",
    "methods": {},
    "notice": "Explain to an end user what this does",
    "version": 1
  }
}