{
  "contractName": "W3LinkVRF",
  "abi": [
    {
      "inputs": [],
      "stateMutability": "nonpayable",
      "type": "constructor"
    },
    {
      "anonymous": false,
      "inputs": [],
      "name": "Generate",
      "type": "event"
    },
    {
      "anonymous": false,
      "inputs": [
        {
          "indexed": false,
          "internalType": "uint256",
          "name": "newFee",
          "type": "uint256"
        }
      ],
      "name": "SetFee",
      "type": "event"
    },
    {
      "inputs": [
        {
          "internalType": "uint256",
          "name": "",
          "type": "uint256"
        },
        {
          "internalType": "bytes",
          "name": "data",
          "type": "bytes"
        },
        {
          "internalType": "bytes32",
          "name": "",
          "type": "bytes32"
        }
      ],
      "name": "execute",
      "outputs": [],
      "stateMutability": "nonpayable",
      "type": "function"
    },
    {
      "inputs": [],
      "name": "generate",
      "outputs": [],
      "stateMutability": "payable",
      "type": "function"
    },
    {
      "inputs": [
        {
          "internalType": "bytes",
          "name": "data",
          "type": "bytes"
        }
      ],
      "name": "onResult",
      "outputs": [],
      "stateMutability": "nonpayable",
      "type": "function"
    },
    {
      "inputs": [
        {
          "internalType": "uint256",
          "name": "newFee",
          "type": "uint256"
        }
      ],
      "name": "setFee",
      "outputs": [],
      "stateMutability": "nonpayable",
      "type": "function"
    },
    {
      "inputs": [],
      "name": "totalFee",
      "outputs": [
        {
          "internalType": "uint256",
          "name": "",
          "type": "uint256"
        }
      ],
      "stateMutability": "view",
      "type": "function"
    }
  ],
  "bytecode": "0x60a080604052346101905766038d7ea4c680006005556000805473c8709a2ab8cfdb387b8ac71c6083141c16d805c8600160a060020a0319918216811783557f79502c55000000000000000000000000000000000000000000000000000000008452929091602082600481875afa9182156101835781926100f4575b5050600160a060020a03168160015416176001556002541617600255610fa26003557f79d3d8832d904592c0bf9818b621522c988bb8b0c05cdc3b15aea1b6e8db0c15608052680300000000000000016001605060020a031960045416176004556040516106f490816101968239608051816103bc0152f35b90915060203d811161017c575b601f8101601f1916820167ffffffffffffffff81118382101761014f5760209183916040528101031261014b575190600160a060020a03821682036101485750388061007b565b80fd5b5080fd5b6024847f4e487b710000000000000000000000000000000000000000000000000000000081526041600452fd5b503d610101565b50604051903d90823e3d90fd5b600080fdfe608060409080825260048036101561001657600080fd5b6000917c01000000000000000000000000000000000000000000000000000000008335049081631df4ccfc14610523575080632a1bbc341461024757806369fe0e2d1461020157806382408bb8146101c95763913bebdc1461007757600080fd5b346101c55760603660031901126101c55767ffffffffffffffff6024358181116101b7576100a8903690840161063c565b9373ffffffffffffffffffffffffffffffffffffffff60015416803b1561018157848091858451809481937fb11d16fb0000000000000000000000000000000000000000000000000000000083525af180156101bb579085916101a3575b50508451850192602095868181870196031261019b57868101519084821161019f57019084603f8301121561019b578682015193841161018557508186808502948251906101568388018361061a565b815201938201019384116101815701905b828210610172578380f35b81518152908401908401610167565b8480fd5b85604160249260e060020a634e487b7102835252fd5b8580fd5b8680fd5b6101ac906105ed565b6101b7578338610106565b8380fd5b82513d87823e3d90fd5b5080fd5b50346101c55760203660031901126101c55780359067ffffffffffffffff82116101fd576101f99136910161063c565b5080f35b8280fd5b508290346101fd5760203660031901126101fd577e172ddfc5ae88d08b3de01a5a187667c37a5a53989e8c175055cb6c993792a79160209135908160055551908152a180f35b50816003193601126101c55773ffffffffffffffffffffffffffffffffffffffff92836001541660035482519182917f39b37ab00000000000000000000000000000000000000000000000000000000083528583015281602460209384935afa9182156105195785926104ea575b506102c260055483610698565b341061048e57835483519261ffff6801000000000000000067ffffffffffffffff93848116868801520416858501528484526060840191848310908311176104785781855287875416803b15610474578683899381937fd0e30db00000000000000000000000000000000000000000000000000000000083525af1801561046a57610457575b508585541695600254169060035491873b1561019f578451957f4964e69900000000000000000000000000000000000000000000000000000000875286015260806024860152825192836084870152865b848110610443575050508495848660a4828681968484819a8501015260448301527f00000000000000000000000000000000000000000000000000000000000000006064830152601f801991011681010301925af190811561043a5750610423575b50807fd805b6505f3febb06284f19b75535ba6d28960f7e026ea07bcc05051f237cf6791a180f35b61042c906105ed565b6104375780386103fb565b80fd5b513d84823e3d90fd5b81810183015187820160a401528201610399565b610463909591956105ed565b9338610348565b84513d88823e3d90fd5b8780fd5b60248760418860e060020a634e487b7102835252fd5b836064918451917f08c379a0000000000000000000000000000000000000000000000000000000008352820152601a60248201527f55736520746f74616c466565282920746f206573742e206665650000000000006044820152fd5b9080925081813d8311610512575b610502818361061a565b81010312610181575190386102b5565b503d6104f8565b83513d87823e3d90fd5b90508391346101b757836003193601126101b7578160248160209373ffffffffffffffffffffffffffffffffffffffff6001541690600354907f39b37ab00000000000000000000000000000000000000000000000000000000084528301525afa9283156105e25780936105a9575b6020836105a28660055490610698565b9051908152f35b9092506020833d82116105da575b816105c46020938361061a565b8101031261043757506105a26020925192610592565b3d91506105b7565b8251903d90823e3d90fd5b67ffffffffffffffff811161060157604052565b60e060020a634e487b7102600052604160045260246000fd5b90601f8019910116810190811067ffffffffffffffff82111761060157604052565b81601f820112156106935780359067ffffffffffffffff82116106015760405192610671601f8401601f19166020018561061a565b8284526020838301011161069357816000926020809301838601378301015290565b600080fd5b919082018092116106a557565b60e060020a634e487b7102600052601160045260246000fdfea26469706673582212206dd16e929a462e7339fb05cb912125307e6bbd30236691a32a50ff78a2b9acd964736f6c63430008110033",
  "immutableReferences": {
    "6550": [
      {
        "length": 32,
        "start": 956
      }
    ]
  },
  "source": "// SPDX-License-Identifier: MIT\r\npragma solidity ^0.8.17;\r\n\r\nimport \"./../services/VRFExtension.sol\";\r\n\r\n/// @title A title that should describe the contract/interface\r\n/// @author The name of the author\r\n/// @notice Explain to an end user what this does\r\n/// @dev Explain to a developer any extra details\r\ncontract W3LinkVRF is VRFExtension {\r\n    constructor()\r\n        VRFExtension(\r\n            0x79d3d8832d904592c0bf9818b621522c988bb8b0c05cdc3b15aea1b6e8db0c15 /* keyHash */,\r\n            1 /* subcriptionId */,\r\n            3 /* confirmations */\r\n        )\r\n    {}\r\n\r\n    function onRandomWords(\r\n        uint256[] memory randomWords\r\n    ) internal virtual override {\r\n        /* Put your code here */\r\n    }\r\n}\r\n",
  "sourcePath": "C:\\Users\\DELL\\Documents\\w3link\\solidity\\contracts\\mocks\\W3LinkVRF.sol",
  "compiler": {
    "name": "solc",
    "version": "0.8.17+commit.8df45f5f.Emscripten.clang"
  },
  "schemaVersion": "3.4.11",
  "updatedAt": "2023-09-25T08:38:40.262Z",
  "devdoc": {
    "author": "The name of the author",
    "details": "Explain to a developer any extra details",
    "kind": "dev",
    "methods": {},
    "title": "A title that should describe the contract/interface",
    "version": 1
  },
  "userdoc": {
    "kind": "user",
    "methods": {},
    "notice": "Explain to an end user what this does",
    "version": 1
  }
}