{
  "contractName": "W3LinkConfig",
  "abi": [
    {
      "inputs": [
        {
          "internalType": "address",
          "name": "handler_",
          "type": "address"
        }
      ],
      "stateMutability": "nonpayable",
      "type": "constructor"
    },
    {
      "anonymous": false,
      "inputs": [
        {
          "indexed": true,
          "internalType": "address",
          "name": "previousOwner",
          "type": "address"
        },
        {
          "indexed": true,
          "internalType": "address",
          "name": "newOwner",
          "type": "address"
        }
      ],
      "name": "OwnershipTransferStarted",
      "type": "event"
    },
    {
      "anonymous": false,
      "inputs": [
        {
          "indexed": true,
          "internalType": "address",
          "name": "previousOwner",
          "type": "address"
        },
        {
          "indexed": true,
          "internalType": "address",
          "name": "newOwner",
          "type": "address"
        }
      ],
      "name": "OwnershipTransferred",
      "type": "event"
    },
    {
      "anonymous": false,
      "inputs": [
        {
          "indexed": false,
          "internalType": "uint256",
          "name": "destChainId",
          "type": "uint256"
        },
        {
          "indexed": false,
          "internalType": "uint256",
          "name": "newFee",
          "type": "uint256"
        }
      ],
      "name": "SetFee",
      "type": "event"
    },
    {
      "inputs": [],
      "name": "acceptOwnership",
      "outputs": [],
      "stateMutability": "nonpayable",
      "type": "function"
    },
    {
      "inputs": [],
      "name": "owner",
      "outputs": [
        {
          "internalType": "address",
          "name": "",
          "type": "address"
        }
      ],
      "stateMutability": "view",
      "type": "function"
    },
    {
      "inputs": [],
      "name": "pendingOwner",
      "outputs": [
        {
          "internalType": "address",
          "name": "",
          "type": "address"
        }
      ],
      "stateMutability": "view",
      "type": "function"
    },
    {
      "inputs": [],
      "name": "renounceOwnership",
      "outputs": [],
      "stateMutability": "nonpayable",
      "type": "function"
    },
    {
      "inputs": [
        {
          "internalType": "address",
          "name": "newOwner",
          "type": "address"
        }
      ],
      "name": "transferOwnership",
      "outputs": [],
      "stateMutability": "nonpayable",
      "type": "function"
    },
    {
      "inputs": [
        {
          "internalType": "uint256",
          "name": "destChainId",
          "type": "uint256"
        }
      ],
      "name": "fee",
      "outputs": [
        {
          "internalType": "uint256",
          "name": "",
          "type": "uint256"
        }
      ],
      "stateMutability": "view",
      "type": "function"
    },
    {
      "inputs": [],
      "name": "handler",
      "outputs": [
        {
          "internalType": "address",
          "name": "",
          "type": "address"
        }
      ],
      "stateMutability": "view",
      "type": "function"
    },
    {
      "inputs": [
        {
          "internalType": "bytes32",
          "name": "hash",
          "type": "bytes32"
        }
      ],
      "name": "verify",
      "outputs": [
        {
          "internalType": "bool",
          "name": "",
          "type": "bool"
        }
      ],
      "stateMutability": "view",
      "type": "function"
    },
    {
      "inputs": [
        {
          "internalType": "uint256",
          "name": "destChainId",
          "type": "uint256"
        },
        {
          "internalType": "uint256",
          "name": "newFee",
          "type": "uint256"
        }
      ],
      "name": "setFee",
      "outputs": [],
      "stateMutability": "nonpayable",
      "type": "function"
    },
    {
      "inputs": [
        {
          "internalType": "address",
          "name": "newHandler",
          "type": "address"
        }
      ],
      "name": "setHandler",
      "outputs": [],
      "stateMutability": "nonpayable",
      "type": "function"
    },
    {
      "inputs": [],
      "name": "onlyHandler",
      "outputs": [],
      "stateMutability": "nonpayable",
      "type": "function"
    }
  ],
  "bytecode": "0x6080346100af576105ed80380390601f19601f83011683019183831067ffffffffffffffff8411176100b4578084926020946040528339810103126100af5751600160a060020a0390818116908190036100af57600160a060020a031980600154166001556000543382821617600055604051933391167f8be0079c531659141344cd1fd0a4f28419497f9722a3daafe3b4186f6b6457e0600080a3600254161760025561050990816100e48239f35b600080fd5b7f4e487b7100000000000000000000000000000000000000000000000000000000600052604160045260246000fdfe60806040908082526004908136101561001757600080fd5b6000927c010000000000000000000000000000000000000000000000000000000084350491826339b37ab0146104385750816352f7c988146103dd578163715018a61461037f57816375e366161461036257816379ba5097146102675781638da5cb5b14610241578163b11d16fb146101bc578163bac426d01461017b578163c80916d414610153578163e30c39781461012b575063f2fde38b146100bb57600080fd5b346101275760203660031901126101275735600160a060020a03808216809203610123576100e7610461565b81600160a060020a031960015416176001558254167f38d16b8cac22d99fc7c124b9cd0de2d3fa1faef420bfe791d8c362d765e227008380a380f35b8280fd5b5080fd5b839034610127578160031936011261012757602090600160a060020a03600154169051908152f35b839034610127578160031936011261012757602090600160a060020a03600254169051908152f35b5050346101275760203660031901126101275735600160a060020a038116809103610127576101a8610461565b600160a060020a0319600254161760025580f35b905034610123578260031936011261012357600160a060020a036002541633036101e4578280f35b90602060649251917f08c379a0000000000000000000000000000000000000000000000000000000008352820152601460248201527f556e617574686f72697a65642048616e646c65720000000000000000000000006044820152fd5b839034610127578160031936011261012757600160a060020a0360209254169051908152f35b90503461012357826003193601126101235760015491600160a060020a039133838516036102df57505073ffffffffffffffffffffffffffffffffffffffff1991821660015582543392811683178455167f8be0079c531659141344cd1fd0a4f28419497f9722a3daafe3b4186f6b6457e08380a380f35b90602060849251917f08c379a0000000000000000000000000000000000000000000000000000000008352820152602960248201527f4f776e61626c6532537465703a2063616c6c6572206973206e6f74207468652060448201527f6e6577206f776e657200000000000000000000000000000000000000000000006064820152fd5b839034610127576020366003190112610127576020905160018152f35b83346103da57806003193601126103da57610398610461565b80600160a060020a038019806001541660015582549081168355167f8be0079c531659141344cd1fd0a4f28419497f9722a3daafe3b4186f6b6457e08280a380f35b80fd5b9050346101235780600319360112610123577f032dc6a2d839eb179729a55633fdf1c41a1fc4739394154117005db2b354b9b5913560243561041d610461565b8185526003602052808386205582519182526020820152a180f35b8491843461045d57602036600319011261045d57926020933581526003845220548152f35b8380fd5b600160a060020a0360005416330361047557565b60646040517f08c379a000000000000000000000000000000000000000000000000000000000815260206004820152602060248201527f4f776e61626c653a2063616c6c6572206973206e6f7420746865206f776e65726044820152fdfea264697066735822122035d76b8412c56652e605f63973cdff6d2f55f5e0412eabe14ee5a2db1bcd6b5164736f6c63430008110033",
  "immutableReferences": {},
  "source": "// SPDX-License-Identifier: MIT\r\npragma solidity ^0.8.17;\r\n\r\nimport \"./interfaces/IW3LinkConfig.sol\";\r\n\r\nimport \"@openzeppelin/contracts/access/Ownable2Step.sol\";\r\n\r\ncontract W3LinkConfig is IW3LinkConfig, Ownable2Step {\r\n    address private _handler;\r\n    mapping(uint256 => uint256) private _fees;\r\n\r\n    constructor(address handler_) Ownable2Step() {\r\n        _handler = handler_;\r\n    }\r\n\r\n    event SetFee(uint256 destChainId, uint256 newFee);\r\n\r\n    function fee(uint256 destChainId) external view override returns (uint256) {\r\n        return _fees[destChainId];\r\n    }\r\n\r\n    function handler() external view override returns (address) {\r\n        return _handler;\r\n    }\r\n\r\n    function verify(bytes32 hash) external view override returns (bool) {\r\n        return true;\r\n    }\r\n\r\n    function setFee(uint256 destChainId, uint256 newFee) external onlyOwner {\r\n        _fees[destChainId] = newFee;\r\n        emit SetFee(destChainId, newFee);\r\n    }\r\n\r\n    function setHandler(address newHandler) external onlyOwner {\r\n        _handler = newHandler;\r\n    }\r\n\r\n    function onlyHandler() external override {\r\n        require(_msgSender() == _handler, \"Unauthorized Handler\");\r\n    }\r\n}\r\n",
  "sourcePath": "C:\\Users\\DELL\\Documents\\w3link\\solidity\\contracts\\W3LinkConfig.sol",
  "compiler": {
    "name": "solc",
    "version": "0.8.17+commit.8df45f5f.Emscripten.clang"
  },
  "schemaVersion": "3.4.11",
  "updatedAt": "2023-08-31T13:17:18.263Z",
  "devdoc": {
    "kind": "dev",
    "methods": {
      "acceptOwnership()": {
        "details": "The new owner accepts the ownership transfer."
      },
      "owner()": {
        "details": "Returns the address of the current owner."
      },
      "pendingOwner()": {
        "details": "Returns the address of the pending owner."
      },
      "renounceOwnership()": {
        "details": "Leaves the contract without owner. It will not be possible to call `onlyOwner` functions. Can only be called by the current owner. NOTE: Renouncing ownership will leave the contract without an owner, thereby disabling any functionality that is only available to the owner."
      },
      "transferOwnership(address)": {
        "details": "Starts the ownership transfer of the contract to a new account. Replaces the pending transfer if there is one. Can only be called by the current owner."
      }
    },
    "version": 1
  },
  "userdoc": {
    "kind": "user",
    "methods": {},
    "version": 1
  }
}