{
  "contractName": "W3NFT",
  "abi": [
    {
      "inputs": [
        {
          "internalType": "string",
          "name": "name_",
          "type": "string"
        },
        {
          "internalType": "string",
          "name": "symbol_",
          "type": "string"
        },
        {
          "internalType": "address",
          "name": "parent_",
          "type": "address"
        },
        {
          "internalType": "uint256",
          "name": "parentId_",
          "type": "uint256"
        }
      ],
      "stateMutability": "nonpayable",
      "type": "constructor"
    },
    {
      "anonymous": false,
      "inputs": [
        {
          "indexed": true,
          "internalType": "address",
          "name": "owner",
          "type": "address"
        },
        {
          "indexed": true,
          "internalType": "address",
          "name": "approved",
          "type": "address"
        },
        {
          "indexed": true,
          "internalType": "uint256",
          "name": "tokenId",
          "type": "uint256"
        }
      ],
      "name": "Approval",
      "type": "event"
    },
    {
      "anonymous": false,
      "inputs": [
        {
          "indexed": true,
          "internalType": "address",
          "name": "owner",
          "type": "address"
        },
        {
          "indexed": true,
          "internalType": "address",
          "name": "operator",
          "type": "address"
        },
        {
          "indexed": false,
          "internalType": "bool",
          "name": "approved",
          "type": "bool"
        }
      ],
      "name": "ApprovalForAll",
      "type": "event"
    },
    {
      "anonymous": false,
      "inputs": [
        {
          "indexed": true,
          "internalType": "address",
          "name": "previousOwner",
          "type": "address"
        },
        {
          "indexed": true,
          "internalType": "address",
          "name": "newOwner",
          "type": "address"
        }
      ],
      "name": "OwnershipTransferStarted",
      "type": "event"
    },
    {
      "anonymous": false,
      "inputs": [
        {
          "indexed": true,
          "internalType": "address",
          "name": "previousOwner",
          "type": "address"
        },
        {
          "indexed": true,
          "internalType": "address",
          "name": "newOwner",
          "type": "address"
        }
      ],
      "name": "OwnershipTransferred",
      "type": "event"
    },
    {
      "anonymous": false,
      "inputs": [
        {
          "indexed": true,
          "internalType": "address",
          "name": "from",
          "type": "address"
        },
        {
          "indexed": true,
          "internalType": "address",
          "name": "to",
          "type": "address"
        },
        {
          "indexed": true,
          "internalType": "uint256",
          "name": "tokenId",
          "type": "uint256"
        }
      ],
      "name": "Transfer",
      "type": "event"
    },
    {
      "inputs": [
        {
          "internalType": "uint256",
          "name": "",
          "type": "uint256"
        }
      ],
      "name": "_tokenURIS",
      "outputs": [
        {
          "internalType": "string",
          "name": "",
          "type": "string"
        }
      ],
      "stateMutability": "view",
      "type": "function"
    },
    {
      "inputs": [],
      "name": "acceptOwnership",
      "outputs": [],
      "stateMutability": "nonpayable",
      "type": "function"
    },
    {
      "inputs": [
        {
          "internalType": "address",
          "name": "to",
          "type": "address"
        },
        {
          "internalType": "uint256",
          "name": "tokenId",
          "type": "uint256"
        }
      ],
      "name": "approve",
      "outputs": [],
      "stateMutability": "nonpayable",
      "type": "function"
    },
    {
      "inputs": [
        {
          "internalType": "address",
          "name": "owner",
          "type": "address"
        }
      ],
      "name": "balanceOf",
      "outputs": [
        {
          "internalType": "uint256",
          "name": "",
          "type": "uint256"
        }
      ],
      "stateMutability": "view",
      "type": "function"
    },
    {
      "inputs": [
        {
          "internalType": "uint256",
          "name": "tokenId",
          "type": "uint256"
        }
      ],
      "name": "getApproved",
      "outputs": [
        {
          "internalType": "address",
          "name": "",
          "type": "address"
        }
      ],
      "stateMutability": "view",
      "type": "function"
    },
    {
      "inputs": [
        {
          "internalType": "address",
          "name": "owner",
          "type": "address"
        },
        {
          "internalType": "address",
          "name": "operator",
          "type": "address"
        }
      ],
      "name": "isApprovedForAll",
      "outputs": [
        {
          "internalType": "bool",
          "name": "",
          "type": "bool"
        }
      ],
      "stateMutability": "view",
      "type": "function"
    },
    {
      "inputs": [],
      "name": "name",
      "outputs": [
        {
          "internalType": "string",
          "name": "",
          "type": "string"
        }
      ],
      "stateMutability": "view",
      "type": "function"
    },
    {
      "inputs": [],
      "name": "owner",
      "outputs": [
        {
          "internalType": "address",
          "name": "",
          "type": "address"
        }
      ],
      "stateMutability": "view",
      "type": "function"
    },
    {
      "inputs": [
        {
          "internalType": "uint256",
          "name": "tokenId",
          "type": "uint256"
        }
      ],
      "name": "ownerOf",
      "outputs": [
        {
          "internalType": "address",
          "name": "",
          "type": "address"
        }
      ],
      "stateMutability": "view",
      "type": "function"
    },
    {
      "inputs": [],
      "name": "pendingOwner",
      "outputs": [
        {
          "internalType": "address",
          "name": "",
          "type": "address"
        }
      ],
      "stateMutability": "view",
      "type": "function"
    },
    {
      "inputs": [],
      "name": "renounceOwnership",
      "outputs": [],
      "stateMutability": "nonpayable",
      "type": "function"
    },
    {
      "inputs": [
        {
          "internalType": "address",
          "name": "from",
          "type": "address"
        },
        {
          "internalType": "address",
          "name": "to",
          "type": "address"
        },
        {
          "internalType": "uint256",
          "name": "tokenId",
          "type": "uint256"
        }
      ],
      "name": "safeTransferFrom",
      "outputs": [],
      "stateMutability": "nonpayable",
      "type": "function"
    },
    {
      "inputs": [
        {
          "internalType": "address",
          "name": "from",
          "type": "address"
        },
        {
          "internalType": "address",
          "name": "to",
          "type": "address"
        },
        {
          "internalType": "uint256",
          "name": "tokenId",
          "type": "uint256"
        },
        {
          "internalType": "bytes",
          "name": "data",
          "type": "bytes"
        }
      ],
      "name": "safeTransferFrom",
      "outputs": [],
      "stateMutability": "nonpayable",
      "type": "function"
    },
    {
      "inputs": [
        {
          "internalType": "address",
          "name": "operator",
          "type": "address"
        },
        {
          "internalType": "bool",
          "name": "approved",
          "type": "bool"
        }
      ],
      "name": "setApprovalForAll",
      "outputs": [],
      "stateMutability": "nonpayable",
      "type": "function"
    },
    {
      "inputs": [
        {
          "internalType": "bytes4",
          "name": "interfaceId",
          "type": "bytes4"
        }
      ],
      "name": "supportsInterface",
      "outputs": [
        {
          "internalType": "bool",
          "name": "",
          "type": "bool"
        }
      ],
      "stateMutability": "view",
      "type": "function"
    },
    {
      "inputs": [],
      "name": "symbol",
      "outputs": [
        {
          "internalType": "string",
          "name": "",
          "type": "string"
        }
      ],
      "stateMutability": "view",
      "type": "function"
    },
    {
      "inputs": [
        {
          "internalType": "address",
          "name": "from",
          "type": "address"
        },
        {
          "internalType": "address",
          "name": "to",
          "type": "address"
        },
        {
          "internalType": "uint256",
          "name": "tokenId",
          "type": "uint256"
        }
      ],
      "name": "transferFrom",
      "outputs": [],
      "stateMutability": "nonpayable",
      "type": "function"
    },
    {
      "inputs": [
        {
          "internalType": "address",
          "name": "newOwner",
          "type": "address"
        }
      ],
      "name": "transferOwnership",
      "outputs": [],
      "stateMutability": "nonpayable",
      "type": "function"
    },
    {
      "inputs": [
        {
          "internalType": "address",
          "name": "to",
          "type": "address"
        },
        {
          "internalType": "uint256",
          "name": "tokenId",
          "type": "uint256"
        },
        {
          "internalType": "string",
          "name": "uri",
          "type": "string"
        }
      ],
      "name": "mint",
      "outputs": [],
      "stateMutability": "nonpayable",
      "type": "function"
    },
    {
      "inputs": [
        {
          "internalType": "uint256",
          "name": "tokenId",
          "type": "uint256"
        }
      ],
      "name": "burn",
      "outputs": [],
      "stateMutability": "nonpayable",
      "type": "function"
    },
    {
      "inputs": [
        {
          "internalType": "uint256",
          "name": "tokenId",
          "type": "uint256"
        }
      ],
      "name": "tokenURI",
      "outputs": [
        {
          "internalType": "string",
          "name": "",
          "type": "string"
        }
      ],
      "stateMutability": "view",
      "type": "function"
    },
    {
      "inputs": [],
      "name": "parent",
      "outputs": [
        {
          "internalType": "address",
          "name": "",
          "type": "address"
        }
      ],
      "stateMutability": "view",
      "type": "function"
    },
    {
      "inputs": [],
      "name": "parentId",
      "outputs": [
        {
          "internalType": "uint256",
          "name": "",
          "type": "uint256"
        }
      ],
      "stateMutability": "view",
      "type": "function"
    }
  ],
  "bytecode": "0x6080604052346200040c5762001b02803803806200001d8162000411565b9283398101906080818303126200040c5780516001604060020a03908181116200040c57836200004f91840162000437565b9260209081840151908382116200040c576200006d91850162000437565b60408401519094600160a060020a03948583169391928490036200040c5760600151938251818111620003dd576000938454936002928386049260018097168015620003d2575b83851014620003a5578190601f9485811162000353575b508390858311600114620002e9578992620002dd575b505060088202850a6000190419169084021786555b8951938411620002b05784548584820491168015620002a5575b82821014620002785782811162000232575b508091808511600114620001c3575050849596979883949593620001b7575b505082810292600802900a6000190419161790555b600160a060020a03199081600754166007556006549033838316176006557f8be0079c531659141344cd1fd0a4f28419497f9722a3daafe3b4186f6b6457e0604051963393169180a36009541617600955600a556116589081620004aa8239f35b01519150388062000141565b9091601f9493941984169a8688528388209388905b8d82106200021a575050848798999a9b9c10620001fe575b505050500201905562000156565b0151908316600802840a600019041916905538808080620001f0565b808985978294968601518155019601930190620001d8565b858752818720828481818901048301938289106200026e575b0104019086905b8281106200026257505062000122565b88815501869062000252565b935082936200024b565b6024877f4e487b710000000000000000000000000000000000000000000000000000000081526022600452fd5b90607f169062000110565b6024867f4e487b710000000000000000000000000000000000000000000000000000000081526041600452fd5b015190503880620000e1565b898052848a208994508793929091601f1984168c5b888282106200033957505084116200031e575b50505002018655620000f6565b0151600883881602840a600019041916905538808062000311565b8484015186558d988c9850909501949384019301620002fe565b909150888052838920848681818701048301938287106200039b575b9186959493918c93010401915b8281106200038c575050620000cb565b8b81558594508a91016200037c565b935082936200036f565b6024887f4e487b710000000000000000000000000000000000000000000000000000000081526022600452fd5b93607f1693620000b4565b7f4e487b7100000000000000000000000000000000000000000000000000000000600052604160045260246000fd5b600080fd5b6040519190601f01601f191682016001604060020a03811183821017620003dd57604052565b919080601f840112156200040c5782516001604060020a038111620003dd576020906200046d601f8201601f1916830162000411565b928184528282870101116200040c5760005b8181106200049557508260009394955001015290565b85810183015184820184015282016200047f56fe60806040908082526004918236101561001757600080fd5b6000927c010000000000000000000000000000000000000000000000000000000084350492836301ffc9a714610d5557508263054bf3b114610d2a57826306fdde0314610c82578263081812fc14610c5a578263095ea7b314610abe578263186e811b14610a9f57826323b872dd14610a7557826342842e0e14610a245783836342966c681461098b5750826360f96a8f146109635782636352211e1461093357826370a0823114610887578263715018a61461082a57826379ba50971461074f5782638da5cb5b1461072757826395d89b4114610645578263a22cb46514610577578263b88d4fde1461050f578263c87b56dd146104a1578263d3fc98641461022957508163e30c397814610201578163e985e9c5146101af575063f2fde38b1461014257600080fd5b346101ac5760203660031901126101ac5761015b610f7f565b610163611038565b600160a060020a038091169081600160a060020a03196007541617600755600654167f38d16b8cac22d99fc7c124b9cd0de2d3fa1faef420bfe791d8c362d765e227008380a380f35b80fd5b9050346101fd57806003193601126101fd5760ff816020936101cf610f7f565b6101d7610f9a565b600160a060020a0391821683526005875283832091168252855220549151911615158152f35b5080fd5b9050346101fd57816003193601126101fd57602090600160a060020a03600754169051908152f35b8390346101fd5760603660031901126101fd57610244610f7f565b926024356044359167ffffffffffffffff9283811161049d573660238201121561049d57610283600160a060020a039136906024818901359101611001565b9661028c611038565b16908115610457576102bd6102b7846000526002602052600160a060020a0360406000205416151590565b156115d4565b6102e06102b7846000526002602052600160a060020a0360406000205416151590565b81865260209260038452818720926001938481540190558188526002855282882081600160a060020a0319825416179055877fddf252ad1be2c89b69c2b068fc378daa952ba7f163c4a11628f55a4df523b3ef8180a460088352852093865193841161044157506103518454610e21565b601f81116103fd575b5081601f841160011461039857505083948293949261038d575b5050816002029160080260020a60001904191617905580f35b015190508480610374565b909291601f198316968587528287209287905b8982106103e657505083600295969798106103cb575b5050500201905580f35b01516008601f841602840a60001904191690558580806103c1565b8087859682949686015181550195019301906103ab565b8486528286208380601f870104820192818710610437575b601f0104019082905b82811061042c57505061035a565b87815501829061041e565b9192508291610415565b85604160249260e060020a634e487b7102835252fd5b846020606492519160e560020a62461bcd028352820152602060248201527f4552433732313a206d696e7420746f20746865207a65726f20616464726573736044820152fd5b8580fd5b9091503461050b57602036600319011261050b5781610507936104f492356104e76104e2826000526002602052600160a060020a0360406000205416151590565b611093565b8152600860205220610e9a565b9051918291602083526020830190610f3f565b0390f35b8280fd5b8390346101fd5760803660031901126101fd5761052a610f7f565b610532610f9a565b9060643567ffffffffffffffff81116105735736602382011215610573576105709381602461056693369301359101611001565b91604435916111b7565b80f35b8480fd5b91503461050b578060031936011261050b57610591610f7f565b906024359182151580930361057357600160a060020a0316928333146106005750338452600560205280842083855260205280842060ff1981541660ff8416179055519081527f17307eab39ab6107e8899845ad3d59bd9653f200f220920489ca2b5937696c3160203392a380f35b6020606492519160e560020a62461bcd028352820152601960248201527f4552433732313a20617070726f766520746f2063616c6c6572000000000000006044820152fd5b8382346101fd57816003193601126101fd5780519082600180549161066983610e21565b8086529282811690811561070057506001146106a4575b50505061069282610507940383610e5f565b51918291602083526020830190610f3f565b94508085527fb10e2d527612073b26eecdfd717e6a320cf44b4afac2b0732d9fcbe2b7fa0cf65b8286106106e8575050506106928260206105079582010194610680565b805460208787018101919091529095019481016106cb565b61050797508693506020925061069294915060ff1916828401521515810282010194610680565b8382346101fd57816003193601126101fd57602090600160a060020a03600654169051908152f35b91503461050b578260031936011261050b5760075491600160a060020a039133838516036107be575050600160a060020a03198092166007556006549133908316176006553391167f8be0079c531659141344cd1fd0a4f28419497f9722a3daafe3b4186f6b6457e08380a380f35b906020608492519160e560020a62461bcd028352820152602960248201527f4f776e61626c6532537465703a2063616c6c6572206973206e6f74207468652060448201527f6e6577206f776e657200000000000000000000000000000000000000000000006064820152fd5b83346101ac57806003193601126101ac57610843611038565b80600160a060020a0380198060075416600755600654908116600655167f8be0079c531659141344cd1fd0a4f28419497f9722a3daafe3b4186f6b6457e08280a380f35b8390346101fd5760203660031901126101fd57600160a060020a036108aa610f7f565b169081156108c75760208480858581526003845220549051908152f35b608490602085519160e560020a62461bcd028352820152602960248201527f4552433732313a2061646472657373207a65726f206973206e6f74206120766160448201527f6c6964206f776e657200000000000000000000000000000000000000000000006064820152fd5b9083346101ac5760203660031901126101ac5750600160a060020a0361095b602093356110e1565b915191168152f35b8382346101fd57816003193601126101fd57602090600160a060020a03600954169051908152f35b8092346101fd5760203660031901126101fd578235926109a9611038565b6109b2846110e1565b506109bc846110e1565b90848452602052600160a060020a0382842091811992838154169055169182845260036020528084206000198154019055848452600260205283209081541690557fddf252ad1be2c89b69c2b068fc378daa952ba7f163c4a11628f55a4df523b3ef8280a480f35b8382346101fd57610a3436610fb0565b91835193602085019085821067ffffffffffffffff831117610a5f57610570969750528584526111b7565b60248760418a60e060020a634e487b7102835252fd5b83346101ac57610570610a8736610fb0565b91610a9a610a958433611260565b611143565b611342565b8382346101fd57816003193601126101fd57602090600a549051908152f35b9091503461050b578160031936011261050b57610ad9610f7f565b9060243592600160a060020a03918280610af2876110e1565b16941693808514610bee57803314908115610bcf575b5015610b64578486526020528420805473ffffffffffffffffffffffffffffffffffffffff191683179055610b3c836110e1565b167f8c5be1e5ebec7d5bd14f71427d1e84f3dd0314c0f7b2291e5b200ac8c7c3b9258480a480f35b6020608492519160e560020a62461bcd028352820152603d60248201527f4552433732313a20617070726f76652063616c6c6572206973206e6f7420746f60448201527f6b656e206f776e6572206f7220617070726f76656420666f7220616c6c0000006064820152fd5b90508652600560205281862033875260205260ff828720541638610b08565b506020608492519160e560020a62461bcd028352820152602160248201527f4552433732313a20617070726f76616c20746f2063757272656e74206f776e6560448201527f72000000000000000000000000000000000000000000000000000000000000006064820152fd5b9083346101ac5760203660031901126101ac5750600160a060020a0361095b60209335611106565b8382346101fd57816003193601126101fd57805190828054610ca381610e21565b808552916001918083169081156107005750600114610cce5750505061069282610507940383610e5f565b80809650527f290decd9548b62a8d60345a988386fc84ba6bc95484008f6362f93160ef3e5635b828610610d12575050506106928260206105079582010194610680565b80546020878701810191909152909501948101610cf5565b9091503461050b57602036600319011261050b5781610507936104f492358152600860205220610e9a565b84913461050b57602036600319011261050b57357bffffffffffffffffffffffffffffffffffffffffffffffffffffffff19811680910361050b57602092507f80ac58cd000000000000000000000000000000000000000000000000000000008114908115610df7575b8115610dcd575b5015158152f35b7f01ffc9a70000000000000000000000000000000000000000000000000000000091501483610dc6565b7f5b5e139f0000000000000000000000000000000000000000000000000000000081149150610dbf565b9060016002830492168015610e55575b6020831014610e3c57565b60e060020a634e487b7102600052602260045260246000fd5b91607f1691610e31565b90601f8019910116810190811067ffffffffffffffff821117610e8157604052565b60e060020a634e487b7102600052604160045260246000fd5b9060405191826000825492610eae84610e21565b908184526001948581169081600014610f1d5750600114610eda575b5050610ed892500383610e5f565b565b9093915060005260209081600020936000915b818310610f05575050610ed893508201013880610eca565b85548884018501529485019487945091830191610eed565b915050610ed894506020925060ff191682840152151581028201013880610eca565b919082519283825260005b848110610f6b575050826000602080949584010152601f8019910116010190565b602081830181015184830182015201610f4a565b60043590600160a060020a0382168203610f9557565b600080fd5b60243590600160a060020a0382168203610f9557565b6060906003190112610f9557600160a060020a03906004358281168103610f9557916024359081168103610f95579060443590565b67ffffffffffffffff8111610e8157601f01601f191660200190565b92919261100d82610fe5565b9161101b6040519384610e5f565b829481845281830111610f95578281602093846000960137010152565b600160a060020a0360065416330361104c57565b606460405160e560020a62461bcd02815260206004820152602060248201527f4f776e61626c653a2063616c6c6572206973206e6f7420746865206f776e65726044820152fd5b1561109a57565b606460405160e560020a62461bcd02815260206004820152601860248201527f4552433732313a20696e76616c696420746f6b656e20494400000000000000006044820152fd5b6000526002602052600160a060020a0360406000205416611103811515611093565b90565b6111296104e2826000526002602052600160a060020a0360406000205416151590565b6000526004602052600160a060020a036040600020541690565b1561114a57565b608460405160e560020a62461bcd02815260206004820152602d60248201527f4552433732313a2063616c6c6572206973206e6f7420746f6b656e206f776e6560448201527f72206f7220617070726f766564000000000000000000000000000000000000006064820152fd5b906111db9392916111cb610a958433611260565b6111d6838383611342565b61146c565b156111e257565b60405160e560020a62461bcd028152806111fe60048201611202565b0390fd5b60809060208152603260208201527f4552433732313a207472616e7366657220746f206e6f6e20455243373231526560408201527f63656976657220696d706c656d656e746572000000000000000000000000000060608201520190565b90600160a060020a038080611274846110e1565b169316918383149384156112a7575b508315611291575b50505090565b61129d91929350611106565b161438808061128b565b909350600052600560205260406000208260005260205260ff604060002054169238611283565b156112d557565b608460405160e560020a62461bcd02815260206004820152602560248201527f4552433732313a207472616e736665722066726f6d20696e636f72726563742060448201527f6f776e65720000000000000000000000000000000000000000000000000000006064820152fd5b9061136a91611350846110e1565b91600160a060020a039384938480941694859116146112ce565b16918215611400578161138791611380866110e1565b16146112ce565b7fddf252ad1be2c89b69c2b068fc378daa952ba7f163c4a11628f55a4df523b3ef6000848152600460205260408120600160a060020a03199081815416905583825260036020526040822060001981540190558482526040822060018154019055858252600260205284604083209182541617905580a4565b608460405160e560020a62461bcd028152602060048201526024808201527f4552433732313a207472616e7366657220746f20746865207a65726f2061646460448201527f72657373000000000000000000000000000000000000000000000000000000006064820152fd5b9293600093909291803b156115c9579484916114e096604051809481937f150b7a020000000000000000000000000000000000000000000000000000000097888452336004850152600160a060020a0380921660248501526044840152608060648401528260209b8c976084830190610f3f565b0393165af1849181611574575b5061154e575050503d600014611546573d61150781610fe5565b906115156040519283610e5f565b81528091833d92013e5b805191826115435760405160e560020a62461bcd028152806111fe60048201611202565b01fd5b50606061151f565b7bffffffffffffffffffffffffffffffffffffffffffffffffffffffff19161492509050565b9091508581813d83116115c2575b61158c8183610e5f565b8101031261057357517bffffffffffffffffffffffffffffffffffffffffffffffffffffffff19811681036105735790386114ed565b503d611582565b505050915050600190565b156115db57565b606460405160e560020a62461bcd02815260206004820152601c60248201527f4552433732313a20746f6b656e20616c7265616479206d696e746564000000006044820152fdfea2646970667358221220087cbbd895cc19b1b1796f00176912a000e26eeefd5e079c54f89fc4853fd7f064736f6c63430008110033",
  "immutableReferences": {},
  "source": "// SPDX-License-Identifier: MIT\r\npragma solidity ^0.8.17;\r\n\r\nimport \"@openzeppelin/contracts/access/Ownable2Step.sol\";\r\nimport \"@openzeppelin/contracts/token/ERC721/ERC721.sol\";\r\n\r\ncontract W3NFT is ERC721, Ownable2Step {\r\n    mapping(uint256 => string) public _tokenURIS;\r\n\r\n    address private _parent;\r\n    uint256 private _parentId;\r\n\r\n    constructor(\r\n        string memory name_,\r\n        string memory symbol_,\r\n        address parent_,\r\n        uint256 parentId_\r\n    ) ERC721(name_, symbol_) Ownable2Step() {\r\n        _parent = parent_;\r\n        _parentId = parentId_;\r\n    }\r\n\r\n    function mint(\r\n        address to,\r\n        uint256 tokenId,\r\n        string memory uri\r\n    ) external onlyOwner {\r\n        _mint(to, tokenId);\r\n        _tokenURIS[tokenId] = uri;\r\n    }\r\n\r\n    function burn(uint256 tokenId) external onlyOwner {\r\n        _burn(tokenId);\r\n    }\r\n\r\n    function tokenURI(\r\n        uint256 tokenId\r\n    ) public view virtual override returns (string memory) {\r\n        _requireMinted(tokenId);\r\n        return _tokenURIS[tokenId];\r\n    }\r\n\r\n    function parent() external view returns (address) {\r\n        return _parent;\r\n    }\r\n\r\n    function parentId() external view returns (uint256) {\r\n        return _parentId;\r\n    }\r\n}\r\n",
  "sourcePath": "C:\\Users\\DELL\\Documents\\w3link\\solidity\\contracts\\whirl\\W3NFT.sol",
  "compiler": {
    "name": "solc",
    "version": "0.8.17+commit.8df45f5f.Emscripten.clang"
  },
  "schemaVersion": "3.4.11",
  "updatedAt": "2023-09-23T15:37:51.426Z",
  "devdoc": {
    "kind": "dev",
    "methods": {
      "acceptOwnership()": {
        "details": "The new owner accepts the ownership transfer."
      },
      "approve(address,uint256)": {
        "details": "See {IERC721-approve}."
      },
      "balanceOf(address)": {
        "details": "See {IERC721-balanceOf}."
      },
      "getApproved(uint256)": {
        "details": "See {IERC721-getApproved}."
      },
      "isApprovedForAll(address,address)": {
        "details": "See {IERC721-isApprovedForAll}."
      },
      "name()": {
        "details": "See {IERC721Metadata-name}."
      },
      "owner()": {
        "details": "Returns the address of the current owner."
      },
      "ownerOf(uint256)": {
        "details": "See {IERC721-ownerOf}."
      },
      "pendingOwner()": {
        "details": "Returns the address of the pending owner."
      },
      "renounceOwnership()": {
        "details": "Leaves the contract without owner. It will not be possible to call `onlyOwner` functions. Can only be called by the current owner. NOTE: Renouncing ownership will leave the contract without an owner, thereby disabling any functionality that is only available to the owner."
      },
      "safeTransferFrom(address,address,uint256)": {
        "details": "See {IERC721-safeTransferFrom}."
      },
      "safeTransferFrom(address,address,uint256,bytes)": {
        "details": "See {IERC721-safeTransferFrom}."
      },
      "setApprovalForAll(address,bool)": {
        "details": "See {IERC721-setApprovalForAll}."
      },
      "supportsInterface(bytes4)": {
        "details": "See {IERC165-supportsInterface}."
      },
      "symbol()": {
        "details": "See {IERC721Metadata-symbol}."
      },
      "tokenURI(uint256)": {
        "details": "See {IERC721Metadata-tokenURI}."
      },
      "transferFrom(address,address,uint256)": {
        "details": "See {IERC721-transferFrom}."
      },
      "transferOwnership(address)": {
        "details": "Starts the ownership transfer of the contract to a new account. Replaces the pending transfer if there is one. Can only be called by the current owner."
      }
    },
    "version": 1
  },
  "userdoc": {
    "kind": "user",
    "methods": {},
    "version": 1
  }
}