{
  "contractName": "W3NFT",
  "abi": [
    {
      "inputs": [
        {
          "internalType": "string",
          "name": "name_",
          "type": "string"
        },
        {
          "internalType": "string",
          "name": "symbol_",
          "type": "string"
        },
        {
          "internalType": "address",
          "name": "parent_",
          "type": "address"
        }
      ],
      "stateMutability": "nonpayable",
      "type": "constructor"
    },
    {
      "anonymous": false,
      "inputs": [
        {
          "indexed": true,
          "internalType": "address",
          "name": "owner",
          "type": "address"
        },
        {
          "indexed": true,
          "internalType": "address",
          "name": "approved",
          "type": "address"
        },
        {
          "indexed": true,
          "internalType": "uint256",
          "name": "tokenId",
          "type": "uint256"
        }
      ],
      "name": "Approval",
      "type": "event"
    },
    {
      "anonymous": false,
      "inputs": [
        {
          "indexed": true,
          "internalType": "address",
          "name": "owner",
          "type": "address"
        },
        {
          "indexed": true,
          "internalType": "address",
          "name": "operator",
          "type": "address"
        },
        {
          "indexed": false,
          "internalType": "bool",
          "name": "approved",
          "type": "bool"
        }
      ],
      "name": "ApprovalForAll",
      "type": "event"
    },
    {
      "anonymous": false,
      "inputs": [
        {
          "indexed": true,
          "internalType": "address",
          "name": "previousOwner",
          "type": "address"
        },
        {
          "indexed": true,
          "internalType": "address",
          "name": "newOwner",
          "type": "address"
        }
      ],
      "name": "OwnershipTransferStarted",
      "type": "event"
    },
    {
      "anonymous": false,
      "inputs": [
        {
          "indexed": true,
          "internalType": "address",
          "name": "previousOwner",
          "type": "address"
        },
        {
          "indexed": true,
          "internalType": "address",
          "name": "newOwner",
          "type": "address"
        }
      ],
      "name": "OwnershipTransferred",
      "type": "event"
    },
    {
      "anonymous": false,
      "inputs": [
        {
          "indexed": true,
          "internalType": "address",
          "name": "from",
          "type": "address"
        },
        {
          "indexed": true,
          "internalType": "address",
          "name": "to",
          "type": "address"
        },
        {
          "indexed": true,
          "internalType": "uint256",
          "name": "tokenId",
          "type": "uint256"
        }
      ],
      "name": "Transfer",
      "type": "event"
    },
    {
      "inputs": [],
      "name": "acceptOwnership",
      "outputs": [],
      "stateMutability": "nonpayable",
      "type": "function"
    },
    {
      "inputs": [
        {
          "internalType": "address",
          "name": "to",
          "type": "address"
        },
        {
          "internalType": "uint256",
          "name": "tokenId",
          "type": "uint256"
        }
      ],
      "name": "approve",
      "outputs": [],
      "stateMutability": "nonpayable",
      "type": "function"
    },
    {
      "inputs": [
        {
          "internalType": "address",
          "name": "owner",
          "type": "address"
        }
      ],
      "name": "balanceOf",
      "outputs": [
        {
          "internalType": "uint256",
          "name": "",
          "type": "uint256"
        }
      ],
      "stateMutability": "view",
      "type": "function"
    },
    {
      "inputs": [
        {
          "internalType": "uint256",
          "name": "tokenId",
          "type": "uint256"
        }
      ],
      "name": "getApproved",
      "outputs": [
        {
          "internalType": "address",
          "name": "",
          "type": "address"
        }
      ],
      "stateMutability": "view",
      "type": "function"
    },
    {
      "inputs": [
        {
          "internalType": "address",
          "name": "owner",
          "type": "address"
        },
        {
          "internalType": "address",
          "name": "operator",
          "type": "address"
        }
      ],
      "name": "isApprovedForAll",
      "outputs": [
        {
          "internalType": "bool",
          "name": "",
          "type": "bool"
        }
      ],
      "stateMutability": "view",
      "type": "function"
    },
    {
      "inputs": [],
      "name": "name",
      "outputs": [
        {
          "internalType": "string",
          "name": "",
          "type": "string"
        }
      ],
      "stateMutability": "view",
      "type": "function"
    },
    {
      "inputs": [],
      "name": "owner",
      "outputs": [
        {
          "internalType": "address",
          "name": "",
          "type": "address"
        }
      ],
      "stateMutability": "view",
      "type": "function"
    },
    {
      "inputs": [
        {
          "internalType": "uint256",
          "name": "tokenId",
          "type": "uint256"
        }
      ],
      "name": "ownerOf",
      "outputs": [
        {
          "internalType": "address",
          "name": "",
          "type": "address"
        }
      ],
      "stateMutability": "view",
      "type": "function"
    },
    {
      "inputs": [],
      "name": "pendingOwner",
      "outputs": [
        {
          "internalType": "address",
          "name": "",
          "type": "address"
        }
      ],
      "stateMutability": "view",
      "type": "function"
    },
    {
      "inputs": [],
      "name": "renounceOwnership",
      "outputs": [],
      "stateMutability": "nonpayable",
      "type": "function"
    },
    {
      "inputs": [
        {
          "internalType": "address",
          "name": "from",
          "type": "address"
        },
        {
          "internalType": "address",
          "name": "to",
          "type": "address"
        },
        {
          "internalType": "uint256",
          "name": "tokenId",
          "type": "uint256"
        }
      ],
      "name": "safeTransferFrom",
      "outputs": [],
      "stateMutability": "nonpayable",
      "type": "function"
    },
    {
      "inputs": [
        {
          "internalType": "address",
          "name": "from",
          "type": "address"
        },
        {
          "internalType": "address",
          "name": "to",
          "type": "address"
        },
        {
          "internalType": "uint256",
          "name": "tokenId",
          "type": "uint256"
        },
        {
          "internalType": "bytes",
          "name": "data",
          "type": "bytes"
        }
      ],
      "name": "safeTransferFrom",
      "outputs": [],
      "stateMutability": "nonpayable",
      "type": "function"
    },
    {
      "inputs": [
        {
          "internalType": "address",
          "name": "operator",
          "type": "address"
        },
        {
          "internalType": "bool",
          "name": "approved",
          "type": "bool"
        }
      ],
      "name": "setApprovalForAll",
      "outputs": [],
      "stateMutability": "nonpayable",
      "type": "function"
    },
    {
      "inputs": [
        {
          "internalType": "bytes4",
          "name": "interfaceId",
          "type": "bytes4"
        }
      ],
      "name": "supportsInterface",
      "outputs": [
        {
          "internalType": "bool",
          "name": "",
          "type": "bool"
        }
      ],
      "stateMutability": "view",
      "type": "function"
    },
    {
      "inputs": [],
      "name": "symbol",
      "outputs": [
        {
          "internalType": "string",
          "name": "",
          "type": "string"
        }
      ],
      "stateMutability": "view",
      "type": "function"
    },
    {
      "inputs": [
        {
          "internalType": "address",
          "name": "from",
          "type": "address"
        },
        {
          "internalType": "address",
          "name": "to",
          "type": "address"
        },
        {
          "internalType": "uint256",
          "name": "tokenId",
          "type": "uint256"
        }
      ],
      "name": "transferFrom",
      "outputs": [],
      "stateMutability": "nonpayable",
      "type": "function"
    },
    {
      "inputs": [
        {
          "internalType": "address",
          "name": "newOwner",
          "type": "address"
        }
      ],
      "name": "transferOwnership",
      "outputs": [],
      "stateMutability": "nonpayable",
      "type": "function"
    },
    {
      "inputs": [
        {
          "internalType": "address",
          "name": "to",
          "type": "address"
        },
        {
          "internalType": "uint256",
          "name": "tokenId",
          "type": "uint256"
        },
        {
          "internalType": "string",
          "name": "uri",
          "type": "string"
        }
      ],
      "name": "mint",
      "outputs": [],
      "stateMutability": "nonpayable",
      "type": "function"
    },
    {
      "inputs": [
        {
          "internalType": "uint256",
          "name": "tokenId",
          "type": "uint256"
        }
      ],
      "name": "burn",
      "outputs": [],
      "stateMutability": "nonpayable",
      "type": "function"
    },
    {
      "inputs": [
        {
          "internalType": "uint256",
          "name": "tokenId",
          "type": "uint256"
        }
      ],
      "name": "tokenURI",
      "outputs": [
        {
          "internalType": "string",
          "name": "",
          "type": "string"
        }
      ],
      "stateMutability": "view",
      "type": "function"
    },
    {
      "inputs": [],
      "name": "parent",
      "outputs": [
        {
          "internalType": "address",
          "name": "",
          "type": "address"
        }
      ],
      "stateMutability": "view",
      "type": "function"
    }
  ],
  "bytecode": "0x608060405234620003fe5762001a8c803803806200001d8162000403565b9283398101606082820312620003fe578151906001604060020a0391828111620003fe57816200004f91850162000429565b60209182850151848111620003fe576040916200006e91870162000429565b940151600160a060020a03938482169391849003620003fe578251818111620003cf576000938454936002928386049260018097168015620003c4575b8385101462000397578190601f9485811162000345575b508390858311600114620002db578992620002cf575b505060088202850a6000190419169084021786555b8851938411620002a2578454858482049116801562000297575b828210146200026a5782811162000224575b508091808511600114620001b65750508495969783949593620001aa575b505082810292600802900a6000190419161790555b600160a060020a03199081600754166007556006549033838316176006557f8be0079c531659141344cd1fd0a4f28419497f9722a3daafe3b4186f6b6457e0604051953393169180a360095416176009556115f090816200049c8239f35b01519150388062000137565b9091601f949394198416998688528388209388905b8c82106200020c575050848798999a9b10620001f0575b50505050020190556200014c565b0151908316600802840a600019041916905538808080620001e2565b808985978294968601518155019601930190620001cb565b8587528187208284818189010483019382891062000260575b0104019086905b8281106200025457505062000119565b88815501869062000244565b935082936200023d565b6024877f4e487b710000000000000000000000000000000000000000000000000000000081526022600452fd5b90607f169062000107565b6024867f4e487b710000000000000000000000000000000000000000000000000000000081526041600452fd5b015190503880620000d8565b898052848a208994508793929091601f1984168c5b888282106200032b575050841162000310575b50505002018655620000ed565b0151600883881602840a600019041916905538808062000303565b8484015186558d988c9850909501949384019301620002f0565b909150888052838920848681818701048301938287106200038d575b9186959493918c93010401915b8281106200037e575050620000c2565b8b81558594508a91016200036e565b9350829362000361565b6024887f4e487b710000000000000000000000000000000000000000000000000000000081526022600452fd5b93607f1693620000ab565b7f4e487b7100000000000000000000000000000000000000000000000000000000600052604160045260246000fd5b600080fd5b6040519190601f01601f191682016001604060020a03811183821017620003cf57604052565b919080601f84011215620003fe5782516001604060020a038111620003cf576020906200045f601f8201601f1916830162000403565b92818452828287010111620003fe5760005b8181106200048757508260009394955001015290565b85810183015184820184015282016200047156fe60806040908082526004918236101561001757600080fd5b6000927c010000000000000000000000000000000000000000000000000000000084350492836301ffc9a714610d925750826306fdde0314610cea578263081812fc14610cc2578263095ea7b314610b2657826323b872dd14610afc57826342842e0e14610aab5783836342966c6814610a125750826360f96a8f146109ea5782636352211e146109ba57826370a082311461090e578263715018a6146108b157826379ba5097146107d65782638da5cb5b146107ae57826395d89b41146106cc578263a22cb465146105fe578263b88d4fde14610596578263c87b56dd1461048b578263d3fc98641461021357508163e30c3978146101eb578163e985e9c514610199575063f2fde38b1461012c57600080fd5b3461019657602036600319011261019657610145610e9e565b61014d610f92565b600160a060020a038091169081600160a060020a03196007541617600755600654167f38d16b8cac22d99fc7c124b9cd0de2d3fa1faef420bfe791d8c362d765e227008380a380f35b80fd5b9050346101e757806003193601126101e75760ff816020936101b9610e9e565b6101c1610eb9565b600160a060020a0391821683526005875283832091168252855220549151911615158152f35b5080fd5b9050346101e757816003193601126101e757602090600160a060020a03600754169051908152f35b8390346101e75760603660031901126101e75761022e610e9e565b926024356044359167ffffffffffffffff9283811161048757366023820112156104875761026d600160a060020a039136906024818901359101610f5b565b96610276610f92565b16908115610441576102a76102a1846000526002602052600160a060020a0360406000205416151590565b1561156c565b6102ca6102a1846000526002602052600160a060020a0360406000205416151590565b81865260209260038452818720926001938481540190558188526002855282882081600160a060020a0319825416179055877fddf252ad1be2c89b69c2b068fc378daa952ba7f163c4a11628f55a4df523b3ef8180a460088352852093865193841161042b575061033b8454611060565b601f81116103e7575b5081601f8411600114610382575050839482939492610377575b5050816002029160080260020a60001904191617905580f35b01519050848061035e565b909291601f198316968587528287209287905b8982106103d057505083600295969798106103b5575b5050500201905580f35b01516008601f841602840a60001904191690558580806103ab565b808785968294968601518155019501930190610395565b8486528286208380601f870104820192818710610421575b601f0104019082905b828110610416575050610344565b878155018290610408565b91925082916103ff565b85604160249260e060020a634e487b7102835252fd5b846020606492519160e560020a62461bcd028352820152602060248201527f4552433732313a206d696e7420746f20746865207a65726f20616464726573736044820152fd5b8580fd5b915034610592576020918260031936011261058e57356104c96104c4826000526002602052600160a060020a0360406000205416151590565b610fed565b8352600882528083208151938491818154906104e482611060565b92838652600192888482169182600014610565575050600114610527575b858861052389610514848a0385610f04565b51928284938452830190610e5e565b0390f35b87945081939291528383205b82841061054d575050508201018161051461052338610502565b8054848a018601528895508794909301928101610533565b60ff19168882015294151585028701909401945085935061051492506105239150389050610502565b8380fd5b8280fd5b8390346101e75760803660031901126101e7576105b1610e9e565b6105b9610eb9565b9060643567ffffffffffffffff81116105fa57366023820112156105fa576105f7938160246105ed93369301359101610f5b565b916044359161114f565b80f35b8480fd5b915034610592578060031936011261059257610618610e9e565b90602435918215158093036105fa57600160a060020a0316928333146106875750338452600560205280842083855260205280842060ff1981541660ff8416179055519081527f17307eab39ab6107e8899845ad3d59bd9653f200f220920489ca2b5937696c3160203392a380f35b6020606492519160e560020a62461bcd028352820152601960248201527f4552433732313a20617070726f766520746f2063616c6c6572000000000000006044820152fd5b8382346101e757816003193601126101e7578051908260018054916106f083611060565b80865292828116908115610787575060011461072b575b50505061071982610523940383610f04565b51918291602083526020830190610e5e565b94508085527fb10e2d527612073b26eecdfd717e6a320cf44b4afac2b0732d9fcbe2b7fa0cf65b82861061076f575050506107198260206105239582010194610707565b80546020878701810191909152909501948101610752565b61052397508693506020925061071994915060ff1916828401521515810282010194610707565b8382346101e757816003193601126101e757602090600160a060020a03600654169051908152f35b91503461059257826003193601126105925760075491600160a060020a03913383851603610845575050600160a060020a03198092166007556006549133908316176006553391167f8be0079c531659141344cd1fd0a4f28419497f9722a3daafe3b4186f6b6457e08380a380f35b906020608492519160e560020a62461bcd028352820152602960248201527f4f776e61626c6532537465703a2063616c6c6572206973206e6f74207468652060448201527f6e6577206f776e657200000000000000000000000000000000000000000000006064820152fd5b83346101965780600319360112610196576108ca610f92565b80600160a060020a0380198060075416600755600654908116600655167f8be0079c531659141344cd1fd0a4f28419497f9722a3daafe3b4186f6b6457e08280a380f35b8390346101e75760203660031901126101e757600160a060020a03610931610e9e565b1690811561094e5760208480858581526003845220549051908152f35b608490602085519160e560020a62461bcd028352820152602960248201527f4552433732313a2061646472657373207a65726f206973206e6f74206120766160448201527f6c6964206f776e657200000000000000000000000000000000000000000000006064820152fd5b9083346101965760203660031901126101965750600160a060020a036109e26020933561103b565b915191168152f35b8382346101e757816003193601126101e757602090600160a060020a03600954169051908152f35b8092346101e75760203660031901126101e757823592610a30610f92565b610a398461103b565b50610a438461103b565b90848452602052600160a060020a0382842091811992838154169055169182845260036020528084206000198154019055848452600260205283209081541690557fddf252ad1be2c89b69c2b068fc378daa952ba7f163c4a11628f55a4df523b3ef8280a480f35b8382346101e757610abb36610ecf565b91835193602085019085821067ffffffffffffffff831117610ae6576105f79697505285845261114f565b60248760418a60e060020a634e487b7102835252fd5b8334610196576105f7610b0e36610ecf565b91610b21610b1c84336111f8565b6110db565b6112da565b90915034610592578160031936011261059257610b41610e9e565b9060243592600160a060020a03918280610b5a8761103b565b16941693808514610c5657803314908115610c37575b5015610bcc578486526020528420805473ffffffffffffffffffffffffffffffffffffffff191683179055610ba48361103b565b167f8c5be1e5ebec7d5bd14f71427d1e84f3dd0314c0f7b2291e5b200ac8c7c3b9258480a480f35b6020608492519160e560020a62461bcd028352820152603d60248201527f4552433732313a20617070726f76652063616c6c6572206973206e6f7420746f60448201527f6b656e206f776e6572206f7220617070726f76656420666f7220616c6c0000006064820152fd5b90508652600560205281862033875260205260ff828720541638610b70565b506020608492519160e560020a62461bcd028352820152602160248201527f4552433732313a20617070726f76616c20746f2063757272656e74206f776e6560448201527f72000000000000000000000000000000000000000000000000000000000000006064820152fd5b9083346101965760203660031901126101965750600160a060020a036109e26020933561109e565b8382346101e757816003193601126101e757805190828054610d0b81611060565b808552916001918083169081156107875750600114610d365750505061071982610523940383610f04565b80809650527f290decd9548b62a8d60345a988386fc84ba6bc95484008f6362f93160ef3e5635b828610610d7a575050506107198260206105239582010194610707565b80546020878701810191909152909501948101610d5d565b84913461059257602036600319011261059257357bffffffffffffffffffffffffffffffffffffffffffffffffffffffff19811680910361059257602092507f80ac58cd000000000000000000000000000000000000000000000000000000008114908115610e34575b8115610e0a575b5015158152f35b7f01ffc9a70000000000000000000000000000000000000000000000000000000091501483610e03565b7f5b5e139f0000000000000000000000000000000000000000000000000000000081149150610dfc565b919082519283825260005b848110610e8a575050826000602080949584010152601f8019910116010190565b602081830181015184830182015201610e69565b60043590600160a060020a0382168203610eb457565b600080fd5b60243590600160a060020a0382168203610eb457565b6060906003190112610eb457600160a060020a03906004358281168103610eb457916024359081168103610eb4579060443590565b90601f8019910116810190811067ffffffffffffffff821117610f2657604052565b60e060020a634e487b7102600052604160045260246000fd5b67ffffffffffffffff8111610f2657601f01601f191660200190565b929192610f6782610f3f565b91610f756040519384610f04565b829481845281830111610eb4578281602093846000960137010152565b600160a060020a03600654163303610fa657565b606460405160e560020a62461bcd02815260206004820152602060248201527f4f776e61626c653a2063616c6c6572206973206e6f7420746865206f776e65726044820152fd5b15610ff457565b606460405160e560020a62461bcd02815260206004820152601860248201527f4552433732313a20696e76616c696420746f6b656e20494400000000000000006044820152fd5b6000526002602052600160a060020a036040600020541661105d811515610fed565b90565b9060016002830492168015611094575b602083101461107b57565b60e060020a634e487b7102600052602260045260246000fd5b91607f1691611070565b6110c16104c4826000526002602052600160a060020a0360406000205416151590565b6000526004602052600160a060020a036040600020541690565b156110e257565b608460405160e560020a62461bcd02815260206004820152602d60248201527f4552433732313a2063616c6c6572206973206e6f7420746f6b656e206f776e6560448201527f72206f7220617070726f766564000000000000000000000000000000000000006064820152fd5b90611173939291611163610b1c84336111f8565b61116e8383836112da565b611404565b1561117a57565b60405160e560020a62461bcd028152806111966004820161119a565b0390fd5b60809060208152603260208201527f4552433732313a207472616e7366657220746f206e6f6e20455243373231526560408201527f63656976657220696d706c656d656e746572000000000000000000000000000060608201520190565b90600160a060020a03808061120c8461103b565b1693169183831493841561123f575b508315611229575b50505090565b6112359192935061109e565b1614388080611223565b909350600052600560205260406000208260005260205260ff60406000205416923861121b565b1561126d57565b608460405160e560020a62461bcd02815260206004820152602560248201527f4552433732313a207472616e736665722066726f6d20696e636f72726563742060448201527f6f776e65720000000000000000000000000000000000000000000000000000006064820152fd5b90611302916112e88461103b565b91600160a060020a03938493848094169485911614611266565b16918215611398578161131f916113188661103b565b1614611266565b7fddf252ad1be2c89b69c2b068fc378daa952ba7f163c4a11628f55a4df523b3ef6000848152600460205260408120600160a060020a03199081815416905583825260036020526040822060001981540190558482526040822060018154019055858252600260205284604083209182541617905580a4565b608460405160e560020a62461bcd028152602060048201526024808201527f4552433732313a207472616e7366657220746f20746865207a65726f2061646460448201527f72657373000000000000000000000000000000000000000000000000000000006064820152fd5b9293600093909291803b156115615794849161147896604051809481937f150b7a020000000000000000000000000000000000000000000000000000000097888452336004850152600160a060020a0380921660248501526044840152608060648401528260209b8c976084830190610e5e565b0393165af184918161150c575b506114e6575050503d6000146114de573d61149f81610f3f565b906114ad6040519283610f04565b81528091833d92013e5b805191826114db5760405160e560020a62461bcd028152806111966004820161119a565b01fd5b5060606114b7565b7bffffffffffffffffffffffffffffffffffffffffffffffffffffffff19161492509050565b9091508581813d831161155a575b6115248183610f04565b810103126105fa57517bffffffffffffffffffffffffffffffffffffffffffffffffffffffff19811681036105fa579038611485565b503d61151a565b505050915050600190565b1561157357565b606460405160e560020a62461bcd02815260206004820152601c60248201527f4552433732313a20746f6b656e20616c7265616479206d696e746564000000006044820152fdfea2646970667358221220c7c5e1f9e3894699d0086422ca251f75955fdeb9a9a3401534723147b2e6d5d064736f6c63430008110033",
  "immutableReferences": {},
  "source": "// SPDX-License-Identifier: MIT\r\npragma solidity ^0.8.17;\r\n\r\nimport \"@openzeppelin/contracts/access/Ownable2Step.sol\";\r\nimport \"@openzeppelin/contracts/token/ERC721/ERC721.sol\";\r\n\r\ncontract W3NFT is ERC721, Ownable2Step {\r\n    mapping(uint256 => string) private _tokenURIS;\r\n\r\n    address private _parent;\r\n\r\n    constructor(\r\n        string memory name_,\r\n        string memory symbol_,\r\n        address parent_\r\n    ) ERC721(name_, symbol_) Ownable2Step() {\r\n        _parent = parent_;\r\n    }\r\n\r\n    function mint(\r\n        address to,\r\n        uint256 tokenId,\r\n        string memory uri\r\n    ) external onlyOwner {\r\n        _mint(to, tokenId);\r\n        _tokenURIS[tokenId] = uri;\r\n    }\r\n\r\n    function burn(uint256 tokenId) external onlyOwner {\r\n        _burn(tokenId);\r\n    }\r\n\r\n    function tokenURI(\r\n        uint256 tokenId\r\n    ) public view virtual override returns (string memory) {\r\n        _requireMinted(tokenId);\r\n        return _tokenURIS[tokenId];\r\n    }\r\n\r\n    function parent() external view returns (address) {\r\n        return _parent;\r\n    }\r\n}",
  "sourcePath": "C:\\Users\\DELL\\Documents\\w3link\\solidity\\contracts\\twirl\\W3NFT.sol",
  "compiler": {
    "name": "solc",
    "version": "0.8.17+commit.8df45f5f.Emscripten.clang"
  },
  "schemaVersion": "3.4.11",
  "updatedAt": "2023-09-11T09:03:06.534Z",
  "devdoc": {
    "kind": "dev",
    "methods": {
      "acceptOwnership()": {
        "details": "The new owner accepts the ownership transfer."
      },
      "approve(address,uint256)": {
        "details": "See {IERC721-approve}."
      },
      "balanceOf(address)": {
        "details": "See {IERC721-balanceOf}."
      },
      "getApproved(uint256)": {
        "details": "See {IERC721-getApproved}."
      },
      "isApprovedForAll(address,address)": {
        "details": "See {IERC721-isApprovedForAll}."
      },
      "name()": {
        "details": "See {IERC721Metadata-name}."
      },
      "owner()": {
        "details": "Returns the address of the current owner."
      },
      "ownerOf(uint256)": {
        "details": "See {IERC721-ownerOf}."
      },
      "pendingOwner()": {
        "details": "Returns the address of the pending owner."
      },
      "renounceOwnership()": {
        "details": "Leaves the contract without owner. It will not be possible to call `onlyOwner` functions. Can only be called by the current owner. NOTE: Renouncing ownership will leave the contract without an owner, thereby disabling any functionality that is only available to the owner."
      },
      "safeTransferFrom(address,address,uint256)": {
        "details": "See {IERC721-safeTransferFrom}."
      },
      "safeTransferFrom(address,address,uint256,bytes)": {
        "details": "See {IERC721-safeTransferFrom}."
      },
      "setApprovalForAll(address,bool)": {
        "details": "See {IERC721-setApprovalForAll}."
      },
      "supportsInterface(bytes4)": {
        "details": "See {IERC165-supportsInterface}."
      },
      "symbol()": {
        "details": "See {IERC721Metadata-symbol}."
      },
      "tokenURI(uint256)": {
        "details": "See {IERC721Metadata-tokenURI}."
      },
      "transferFrom(address,address,uint256)": {
        "details": "See {IERC721-transferFrom}."
      },
      "transferOwnership(address)": {
        "details": "Starts the ownership transfer of the contract to a new account. Replaces the pending transfer if there is one. Can only be called by the current owner."
      }
    },
    "version": 1
  },
  "userdoc": {
    "kind": "user",
    "methods": {},
    "version": 1
  }
}