{
  "contractName": "WhirlExtension",
  "abi": [
    {
      "inputs": [
        {
          "internalType": "address",
          "name": "w3link_",
          "type": "address"
        }
      ],
      "stateMutability": "nonpayable",
      "type": "constructor"
    },
    {
      "anonymous": false,
      "inputs": [
        {
          "indexed": false,
          "internalType": "address",
          "name": "tokenAddress",
          "type": "address"
        },
        {
          "indexed": false,
          "internalType": "uint256",
          "name": "tokenId",
          "type": "uint256"
        }
      ],
      "name": "NFTBurnt",
      "type": "event"
    },
    {
      "anonymous": false,
      "inputs": [
        {
          "indexed": true,
          "internalType": "address",
          "name": "owner",
          "type": "address"
        },
        {
          "indexed": false,
          "internalType": "address",
          "name": "tokenAddress",
          "type": "address"
        },
        {
          "indexed": false,
          "internalType": "string",
          "name": "tokenUri",
          "type": "string"
        },
        {
          "indexed": false,
          "internalType": "uint256",
          "name": "tokenId",
          "type": "uint256"
        }
      ],
      "name": "NFTMinted",
      "type": "event"
    },
    {
      "inputs": [
        {
          "internalType": "uint256",
          "name": "destChainId",
          "type": "uint256"
        },
        {
          "internalType": "address",
          "name": "contractId",
          "type": "address"
        }
      ],
      "name": "setWhlContract",
      "outputs": [],
      "stateMutability": "nonpayable",
      "type": "function"
    },
    {
      "inputs": [
        {
          "internalType": "address",
          "name": "nftContractId",
          "type": "address"
        },
        {
          "internalType": "uint256",
          "name": "tokenId",
          "type": "uint256"
        }
      ],
      "name": "revoke",
      "outputs": [],
      "stateMutability": "payable",
      "type": "function",
      "payable": true
    },
    {
      "inputs": [
        {
          "internalType": "uint256",
          "name": "fromChainId",
          "type": "uint256"
        },
        {
          "internalType": "bytes",
          "name": "data",
          "type": "bytes"
        },
        {
          "internalType": "bytes32",
          "name": "",
          "type": "bytes32"
        }
      ],
      "name": "execute",
      "outputs": [],
      "stateMutability": "nonpayable",
      "type": "function"
    },
    {
      "inputs": [
        {
          "internalType": "bytes",
          "name": "data",
          "type": "bytes"
        }
      ],
      "name": "onResult",
      "outputs": [],
      "stateMutability": "nonpayable",
      "type": "function"
    }
  ],
  "bytecode": "0x608080604052346100e15762002872803803809161001d82856100e6565b8339600160a060020a039182916100379190810190610137565b169060046020600160a060020a03199380856000541617600055604051928380927f79502c550000000000000000000000000000000000000000000000000000000082525afa9081156100d5576000916100a7575b501690600154161760015560405161271b9081620001578239f35b6100c8915060203d81116100ce575b6100c081836100e6565b810190610137565b3861008c565b503d6100b6565b6040513d6000823e3d90fd5b600080fd5b90601f8019910116810190811067ffffffffffffffff82111761010857604052565b7f4e487b7100000000000000000000000000000000000000000000000000000000600052604160045260246000fd5b908160209103126100e15751600160a060020a03811681036100e1579056fe6040608081526004803610156200001557600080fd5b6000917c0100000000000000000000000000000000000000000000000000000000833504806316ce92931462000a1e57806382408bb814620009e4578063913bebdc14620006df5763eac449d9146200006d57600080fd5b8060031936011262000468578135600160a060020a0392838216809203620004d8576024908135918451957f6352211e000000000000000000000000000000000000000000000000000000008752838388015260209687818481895afa908115620006d5578991620006b3575b508133911603620006585785517f60f96a8f00000000000000000000000000000000000000000000000000000000815288939291888285818a5afa9182156200064e57859262000618575b5087517fc87b56dd0000000000000000000000000000000000000000000000000000000081528685820152858185818b5afa9081156200060e578a908792620005b9575b506200019a620001a992848c519687943390860152168c84015289606084015260808084015260a083019062000be5565b03601f19810184528362000ac5565b8060015416908851917f186e811b00000000000000000000000000000000000000000000000000000000928381528b8188818d5afa9081156200052657908c91899162000583575b50868c51809481937f39b37ab00000000000000000000000000000000000000000000000000000000083528b8301525afa908115620004e55787916200054c575b5081875416803b156200048e578790878c51809481937fd0e30db00000000000000000000000000000000000000000000000000000000083525af18015620004e55790879162000530575b50819054169089518381528b8188818d5afa90811562000526578891620004ef575b50875260028b5289872054169089519283528a8387818c5afa928315620004e5578793620004a8575b5089518b81017f776869726c000000000000000000000000000000000000000000000000000000815260058252620003008262000aa8565b600160a060020a03199151902016938a518c8101956bffffffffffffffffffffffff196c01000000000000000000000000330216875260348201528c8152620003498162000aa8565b519451948c811062000492575b50813b156200048e5787620003a89381958d51978896879586947f4964e6990000000000000000000000000000000000000000000000000000000086528d86015260808c860152608485019062000be5565b916044840152606483015203925af1801562000484579084916200046c575b5050843b1562000468578391839187519384927f42966c680000000000000000000000000000000000000000000000000000000084528301528183885af180156200045e5762000442575b50507f5d82cb7f72555b56c2ff444a5a501672a14d036b42a59f78fcc6225988cfe113938351928352820152a180f35b6200044d9062000a64565b6200045a57843862000412565b8480fd5b85513d84823e3d90fd5b8280fd5b620004779062000a64565b62000468578238620003c7565b87513d86823e3d90fd5b8780fd5b8c9591950360080260020a880316933862000356565b965091508986813d8111620004dd575b620004c4818362000ac5565b81010312620004d8578a95519138620002c8565b600080fd5b503d620004b8565b8a513d89823e3d90fd5b8098508c8092503d83116200051e575b6200050b818362000ac5565b81010312620004d8578b9651386200029f565b503d620004ff565b8b513d8a823e3d90fd5b6200053b9062000a64565b620005485785386200027d565b8580fd5b8097508b8092503d83116200057b575b62000568818362000ac5565b81010312620004d8578a95513862000232565b503d6200055c565b98505087813d8311620005b1575b6200059d818362000ac5565b81010312620004d8578a8c975138620001f1565b503d62000591565b9150503d8087833e620005cd818362000ac5565b81018a828203126200060a57815167ffffffffffffffff81116200048e57620006028c926200019a92620001a9950162000b98565b925062000169565b8680fd5b89513d88823e3d90fd5b6200063e919250893d8b1162000646575b62000635818362000ac5565b81019062000b52565b903862000125565b503d62000629565b88513d87823e3d90fd5b6064836009848a8a51937f08c379a00000000000000000000000000000000000000000000000000000000085528401528201527f4e6f74206f776e657200000000000000000000000000000000000000000000006044820152fd5b620006ce9150883d8a11620006465762000635818362000ac5565b38620000da565b87513d8b823e3d90fd5b5090346200046857606080600319360112620009bc5767ffffffffffffffff90602435828111620005485762000719903690850162000b05565b93600160a060020a0393868560015416803b15620009e0578190838551809481937fb11d16fb0000000000000000000000000000000000000000000000000000000083525af18015620009d657620009c0575b50855186019560209460c082878a01990312620008f8578886830151936200079686850162000c0c565b9287850151818111620009bc578b8a620007b39288010162000b98565b9060808601518181116200045a578c8b620007d19289010162000b98565b9b60a08701519082821162000548576200080160c0620007f98f94938f86958d010162000b98565b990162000c0c565b961695169b85855260038b528b89862054161562000906575b505050888683205416803b1562000468578a91839188519384927fd3fc986400000000000000000000000000000000000000000000000000000000845283015287602483015289604483015281838162000878606482018b62000be5565b03925af18015620008fc57620008dc575b5096620008d292917fc838a7fd61cef6ed117ca9829550cd25002c8912a0846c98e8b6ea66a79a80d8985260038752848a20541694808551978897885287015285019062000be5565b918301520390a280f35b620008ea9093929362000a64565b620008f85790883862000889565b8880fd5b86513d84823e3d90fd5b8851939450611ac48085019391928411858510176200099057849391928f9695936200094690620009549362000c22873960808552608085019062000be5565b838103848f01529062000be5565b90868a8201528a8535910152039083f08015620008fc5783835260038952898784209116600160a060020a03198254161790553880806200081a565b60248f6041887f4e487b7100000000000000000000000000000000000000000000000000000000835252fd5b8380fd5b620009ce9097919762000a64565b95386200076c565b83513d8a823e3d90fd5b5080fd5b505034620009e0576020366003190112620009e05780359067ffffffffffffffff8211620004685762000a1a9136910162000b05565b5080f35b5034620004685780600319360112620004685760243591600160a060020a038316809303620009bc573583526002602052822090600160a060020a031982541617905580f35b67ffffffffffffffff811162000a7957604052565b7f4e487b7100000000000000000000000000000000000000000000000000000000600052604160045260246000fd5b6040810190811067ffffffffffffffff82111762000a7957604052565b90601f8019910116810190811067ffffffffffffffff82111762000a7957604052565b67ffffffffffffffff811162000a7957601f01601f191660200190565b81601f82011215620004d85780359062000b1f8262000ae8565b9262000b2f604051948562000ac5565b82845260208383010111620004d857816000926020809301838601378301015290565b90816020910312620004d85751600160a060020a0381168103620004d85790565b60005b83811062000b875750506000910152565b818101518382015260200162000b76565b81601f82011215620004d857805162000bb18162000ae8565b9262000bc1604051948562000ac5565b81845260208284010111620004d85762000be2916020808501910162000b73565b90565b9060209162000c008151809281855285808601910162000b73565b601f01601f1916010190565b5190600160a060020a0382168203620004d85756fe6080604052346200040c5762001ac4803803806200001d8162000411565b9283398101906080818303126200040c5780516001604060020a03908181116200040c57836200004f91840162000437565b9260209081840151908382116200040c576200006d91850162000437565b60408401519094600160a060020a03948583169391928490036200040c5760600151938251818111620003dd576000938454936002928386049260018097168015620003d2575b83851014620003a5578190601f9485811162000353575b508390858311600114620002e9578992620002dd575b505060088202850a6000190419169084021786555b8951938411620002b05784548584820491168015620002a5575b82821014620002785782811162000232575b508091808511600114620001c3575050849596979883949593620001b7575b505082810292600802900a6000190419161790555b600160a060020a03199081600754166007556006549033838316176006557f8be0079c531659141344cd1fd0a4f28419497f9722a3daafe3b4186f6b6457e0604051963393169180a36009541617600955600a5561161a9081620004aa8239f35b01519150388062000141565b9091601f9493941984169a8688528388209388905b8d82106200021a575050848798999a9b9c10620001fe575b505050500201905562000156565b0151908316600802840a600019041916905538808080620001f0565b808985978294968601518155019601930190620001d8565b858752818720828481818901048301938289106200026e575b0104019086905b8281106200026257505062000122565b88815501869062000252565b935082936200024b565b6024877f4e487b710000000000000000000000000000000000000000000000000000000081526022600452fd5b90607f169062000110565b6024867f4e487b710000000000000000000000000000000000000000000000000000000081526041600452fd5b015190503880620000e1565b898052848a208994508793929091601f1984168c5b888282106200033957505084116200031e575b50505002018655620000f6565b0151600883881602840a600019041916905538808062000311565b8484015186558d988c9850909501949384019301620002fe565b909150888052838920848681818701048301938287106200039b575b9186959493918c93010401915b8281106200038c575050620000cb565b8b81558594508a91016200037c565b935082936200036f565b6024887f4e487b710000000000000000000000000000000000000000000000000000000081526022600452fd5b93607f1693620000b4565b7f4e487b7100000000000000000000000000000000000000000000000000000000600052604160045260246000fd5b600080fd5b6040519190601f01601f191682016001604060020a03811183821017620003dd57604052565b919080601f840112156200040c5782516001604060020a038111620003dd576020906200046d601f8201601f1916830162000411565b928184528282870101116200040c5760005b8181106200049557508260009394955001015290565b85810183015184820184015282016200047f56fe60806040908082526004918236101561001757600080fd5b6000927c010000000000000000000000000000000000000000000000000000000084350492836301ffc9a714610dbc5750826306fdde0314610d14578263081812fc14610cec578263095ea7b314610b50578263186e811b14610b3157826323b872dd14610b0757826342842e0e14610ab65783836342966c6814610a1d5750826360f96a8f146109f55782636352211e146109c557826370a0823114610919578263715018a6146108bc57826379ba5097146107e15782638da5cb5b146107b957826395d89b41146106d7578263a22cb46514610609578263b88d4fde146105a1578263c87b56dd14610496578263d3fc98641461021e57508163e30c3978146101f6578163e985e9c5146101a4575063f2fde38b1461013757600080fd5b346101a15760203660031901126101a157610150610ec8565b610158610fbc565b600160a060020a038091169081600160a060020a03196007541617600755600654167f38d16b8cac22d99fc7c124b9cd0de2d3fa1faef420bfe791d8c362d765e227008380a380f35b80fd5b9050346101f257806003193601126101f25760ff816020936101c4610ec8565b6101cc610ee3565b600160a060020a0391821683526005875283832091168252855220549151911615158152f35b5080fd5b9050346101f257816003193601126101f257602090600160a060020a03600754169051908152f35b8390346101f25760603660031901126101f257610239610ec8565b926024356044359167ffffffffffffffff92838111610492573660238201121561049257610278600160a060020a039136906024818901359101610f85565b96610281610fbc565b1690811561044c576102b26102ac846000526002602052600160a060020a0360406000205416151590565b15611596565b6102d56102ac846000526002602052600160a060020a0360406000205416151590565b81865260209260038452818720926001938481540190558188526002855282882081600160a060020a0319825416179055877fddf252ad1be2c89b69c2b068fc378daa952ba7f163c4a11628f55a4df523b3ef8180a46008835285209386519384116104365750610346845461108a565b601f81116103f2575b5081601f841160011461038d575050839482939492610382575b5050816002029160080260020a60001904191617905580f35b015190508480610369565b909291601f198316968587528287209287905b8982106103db57505083600295969798106103c0575b5050500201905580f35b01516008601f841602840a60001904191690558580806103b6565b8087859682949686015181550195019301906103a0565b8486528286208380601f87010482019281871061042c575b601f0104019082905b82811061042157505061034f565b878155018290610413565b919250829161040a565b85604160249260e060020a634e487b7102835252fd5b846020606492519160e560020a62461bcd028352820152602060248201527f4552433732313a206d696e7420746f20746865207a65726f20616464726573736044820152fd5b8580fd5b91503461059d576020918260031936011261059957356104d46104cf826000526002602052600160a060020a0360406000205416151590565b611017565b8352600882528083208151938491818154906104ef8261108a565b92838652600192888482169182600014610570575050600114610532575b858861052e8961051f848a0385610f2e565b51928284938452830190610e88565b0390f35b87945081939291528383205b828410610558575050508201018161051f61052e3861050d565b8054848a01860152889550879490930192810161053e565b60ff19168882015294151585028701909401945085935061051f925061052e915038905061050d565b8380fd5b8280fd5b8390346101f25760803660031901126101f2576105bc610ec8565b6105c4610ee3565b9060643567ffffffffffffffff8111610605573660238201121561060557610602938160246105f893369301359101610f85565b9160443591611179565b80f35b8480fd5b91503461059d578060031936011261059d57610623610ec8565b906024359182151580930361060557600160a060020a0316928333146106925750338452600560205280842083855260205280842060ff1981541660ff8416179055519081527f17307eab39ab6107e8899845ad3d59bd9653f200f220920489ca2b5937696c3160203392a380f35b6020606492519160e560020a62461bcd028352820152601960248201527f4552433732313a20617070726f766520746f2063616c6c6572000000000000006044820152fd5b8382346101f257816003193601126101f2578051908260018054916106fb8361108a565b808652928281169081156107925750600114610736575b5050506107248261052e940383610f2e565b51918291602083526020830190610e88565b94508085527fb10e2d527612073b26eecdfd717e6a320cf44b4afac2b0732d9fcbe2b7fa0cf65b82861061077a5750505061072482602061052e9582010194610712565b8054602087870181019190915290950194810161075d565b61052e97508693506020925061072494915060ff1916828401521515810282010194610712565b8382346101f257816003193601126101f257602090600160a060020a03600654169051908152f35b91503461059d578260031936011261059d5760075491600160a060020a03913383851603610850575050600160a060020a03198092166007556006549133908316176006553391167f8be0079c531659141344cd1fd0a4f28419497f9722a3daafe3b4186f6b6457e08380a380f35b906020608492519160e560020a62461bcd028352820152602960248201527f4f776e61626c6532537465703a2063616c6c6572206973206e6f74207468652060448201527f6e6577206f776e657200000000000000000000000000000000000000000000006064820152fd5b83346101a157806003193601126101a1576108d5610fbc565b80600160a060020a0380198060075416600755600654908116600655167f8be0079c531659141344cd1fd0a4f28419497f9722a3daafe3b4186f6b6457e08280a380f35b8390346101f25760203660031901126101f257600160a060020a0361093c610ec8565b169081156109595760208480858581526003845220549051908152f35b608490602085519160e560020a62461bcd028352820152602960248201527f4552433732313a2061646472657373207a65726f206973206e6f74206120766160448201527f6c6964206f776e657200000000000000000000000000000000000000000000006064820152fd5b9083346101a15760203660031901126101a15750600160a060020a036109ed60209335611065565b915191168152f35b8382346101f257816003193601126101f257602090600160a060020a03600954169051908152f35b8092346101f25760203660031901126101f257823592610a3b610fbc565b610a4484611065565b50610a4e84611065565b90848452602052600160a060020a0382842091811992838154169055169182845260036020528084206000198154019055848452600260205283209081541690557fddf252ad1be2c89b69c2b068fc378daa952ba7f163c4a11628f55a4df523b3ef8280a480f35b8382346101f257610ac636610ef9565b91835193602085019085821067ffffffffffffffff831117610af15761060296975052858452611179565b60248760418a60e060020a634e487b7102835252fd5b83346101a157610602610b1936610ef9565b91610b2c610b278433611222565b611105565b611304565b8382346101f257816003193601126101f257602090600a549051908152f35b9091503461059d578160031936011261059d57610b6b610ec8565b9060243592600160a060020a03918280610b8487611065565b16941693808514610c8057803314908115610c61575b5015610bf6578486526020528420805473ffffffffffffffffffffffffffffffffffffffff191683179055610bce83611065565b167f8c5be1e5ebec7d5bd14f71427d1e84f3dd0314c0f7b2291e5b200ac8c7c3b9258480a480f35b6020608492519160e560020a62461bcd028352820152603d60248201527f4552433732313a20617070726f76652063616c6c6572206973206e6f7420746f60448201527f6b656e206f776e6572206f7220617070726f76656420666f7220616c6c0000006064820152fd5b90508652600560205281862033875260205260ff828720541638610b9a565b506020608492519160e560020a62461bcd028352820152602160248201527f4552433732313a20617070726f76616c20746f2063757272656e74206f776e6560448201527f72000000000000000000000000000000000000000000000000000000000000006064820152fd5b9083346101a15760203660031901126101a15750600160a060020a036109ed602093356110c8565b8382346101f257816003193601126101f257805190828054610d358161108a565b808552916001918083169081156107925750600114610d60575050506107248261052e940383610f2e565b80809650527f290decd9548b62a8d60345a988386fc84ba6bc95484008f6362f93160ef3e5635b828610610da45750505061072482602061052e9582010194610712565b80546020878701810191909152909501948101610d87565b84913461059d57602036600319011261059d57357bffffffffffffffffffffffffffffffffffffffffffffffffffffffff19811680910361059d57602092507f80ac58cd000000000000000000000000000000000000000000000000000000008114908115610e5e575b8115610e34575b5015158152f35b7f01ffc9a70000000000000000000000000000000000000000000000000000000091501483610e2d565b7f5b5e139f0000000000000000000000000000000000000000000000000000000081149150610e26565b919082519283825260005b848110610eb4575050826000602080949584010152601f8019910116010190565b602081830181015184830182015201610e93565b60043590600160a060020a0382168203610ede57565b600080fd5b60243590600160a060020a0382168203610ede57565b6060906003190112610ede57600160a060020a03906004358281168103610ede57916024359081168103610ede579060443590565b90601f8019910116810190811067ffffffffffffffff821117610f5057604052565b60e060020a634e487b7102600052604160045260246000fd5b67ffffffffffffffff8111610f5057601f01601f191660200190565b929192610f9182610f69565b91610f9f6040519384610f2e565b829481845281830111610ede578281602093846000960137010152565b600160a060020a03600654163303610fd057565b606460405160e560020a62461bcd02815260206004820152602060248201527f4f776e61626c653a2063616c6c6572206973206e6f7420746865206f776e65726044820152fd5b1561101e57565b606460405160e560020a62461bcd02815260206004820152601860248201527f4552433732313a20696e76616c696420746f6b656e20494400000000000000006044820152fd5b6000526002602052600160a060020a0360406000205416611087811515611017565b90565b90600160028304921680156110be575b60208310146110a557565b60e060020a634e487b7102600052602260045260246000fd5b91607f169161109a565b6110eb6104cf826000526002602052600160a060020a0360406000205416151590565b6000526004602052600160a060020a036040600020541690565b1561110c57565b608460405160e560020a62461bcd02815260206004820152602d60248201527f4552433732313a2063616c6c6572206973206e6f7420746f6b656e206f776e6560448201527f72206f7220617070726f766564000000000000000000000000000000000000006064820152fd5b9061119d93929161118d610b278433611222565b611198838383611304565b61142e565b156111a457565b60405160e560020a62461bcd028152806111c0600482016111c4565b0390fd5b60809060208152603260208201527f4552433732313a207472616e7366657220746f206e6f6e20455243373231526560408201527f63656976657220696d706c656d656e746572000000000000000000000000000060608201520190565b90600160a060020a03808061123684611065565b16931691838314938415611269575b508315611253575b50505090565b61125f919293506110c8565b161438808061124d565b909350600052600560205260406000208260005260205260ff604060002054169238611245565b1561129757565b608460405160e560020a62461bcd02815260206004820152602560248201527f4552433732313a207472616e736665722066726f6d20696e636f72726563742060448201527f6f776e65720000000000000000000000000000000000000000000000000000006064820152fd5b9061132c9161131284611065565b91600160a060020a03938493848094169485911614611290565b169182156113c257816113499161134286611065565b1614611290565b7fddf252ad1be2c89b69c2b068fc378daa952ba7f163c4a11628f55a4df523b3ef6000848152600460205260408120600160a060020a03199081815416905583825260036020526040822060001981540190558482526040822060018154019055858252600260205284604083209182541617905580a4565b608460405160e560020a62461bcd028152602060048201526024808201527f4552433732313a207472616e7366657220746f20746865207a65726f2061646460448201527f72657373000000000000000000000000000000000000000000000000000000006064820152fd5b9293600093909291803b1561158b579484916114a296604051809481937f150b7a020000000000000000000000000000000000000000000000000000000097888452336004850152600160a060020a0380921660248501526044840152608060648401528260209b8c976084830190610e88565b0393165af1849181611536575b50611510575050503d600014611508573d6114c981610f69565b906114d76040519283610f2e565b81528091833d92013e5b805191826115055760405160e560020a62461bcd028152806111c0600482016111c4565b01fd5b5060606114e1565b7bffffffffffffffffffffffffffffffffffffffffffffffffffffffff19161492509050565b9091508581813d8311611584575b61154e8183610f2e565b8101031261060557517bffffffffffffffffffffffffffffffffffffffffffffffffffffffff19811681036106055790386114af565b503d611544565b505050915050600190565b1561159d57565b606460405160e560020a62461bcd02815260206004820152601c60248201527f4552433732313a20746f6b656e20616c7265616479206d696e746564000000006044820152fdfea2646970667358221220d35b84d21cfc7206d93873be05cec59a4a15164f03df2e76d946f0239fe1745864736f6c63430008110033a26469706673582212206fe168a32bad4f92129ff55fcfc8ca58e4476ecffb97f13abb2cf79ed0ac379a64736f6c63430008110033",
  "immutableReferences": {},
  "source": "// SPDX-License-Identifier: MIT\r\npragma solidity ^0.8.17;\r\n\r\nimport \"./../interfaces/IW3Link.sol\";\r\nimport \"./../interfaces/IW3LinkApp.sol\";\r\nimport \"./../interfaces/IW3LinkConfig.sol\";\r\n\r\nimport \"./WhirlNFT.sol\";\r\n\r\nimport \"@openzeppelin/contracts/utils/Context.sol\";\r\nimport \"@openzeppelin/contracts/token/ERC721/extensions/IERC721Metadata.sol\";\r\n\r\ncontract WhirlExtension is IW3LinkApp, Context {\r\n    IW3Link private _w3link;\r\n    IW3LinkConfig private _w3linkConfig;\r\n    mapping(uint256 => address) private _whlContractIds;\r\n\r\n    mapping(address => address) private _nfts;\r\n\r\n    event NFTMinted(\r\n        address indexed owner,\r\n        address tokenAddress,\r\n        string tokenUri,\r\n        uint256 tokenId\r\n    );\r\n\r\n    event NFTBurnt(address tokenAddress, uint256 tokenId);\r\n\r\n    constructor(address w3link_) {\r\n        _w3link = IW3Link(w3link_);\r\n        _w3linkConfig = IW3LinkConfig(_w3link.config());\r\n    }\r\n\r\n    /// @dev For setting whirl contract ids\r\n    function setWhlContract(uint256 destChainId, address contractId) external {\r\n        _whlContractIds[destChainId] = contractId;\r\n    }\r\n\r\n    /// @dev This functions tell whirl Contract that the minted NFT was burn\r\n    /// and it should unlock the original NFT\r\n    function revoke(address nftContractId, uint256 tokenId) external payable {\r\n        WhirlNFT nft = WhirlNFT(nftContractId);\r\n        IERC721Metadata metadata = IERC721Metadata(nftContractId);\r\n\r\n        require(nft.ownerOf(tokenId) == _msgSender(), \"Not owner\");\r\n\r\n        // Encode data for whirl Contract\r\n        bytes memory data = abi.encode(\r\n            _msgSender(),\r\n            nft.parent(),\r\n            tokenId,\r\n            metadata.tokenURI(tokenId)\r\n        );\r\n\r\n        uint256 estFee = _w3linkConfig.fee(nft.parentId());\r\n        _w3link.deposit{value: estFee}();\r\n\r\n        // Send message to whirl Contract\r\n        _w3link.dispatch(\r\n            _whlContractIds[nft.parentId()],\r\n            data,\r\n            nft.parentId(),\r\n            bytes32(\r\n                bytes.concat(\r\n                    bytes20(uint160(_msgSender())),\r\n                    bytes12(keccak256(abi.encodePacked(\"whirl\")))\r\n                )\r\n            ) /* for indexing */\r\n        );\r\n        \r\n        nft.burn(tokenId);\r\n\r\n        emit NFTBurnt(nftContractId, tokenId);\r\n    }\r\n\r\n    /// @dev This function will mint a new similar NFT as locked on whirl Contract\r\n    function execute(\r\n        uint256 fromChainId,\r\n        bytes memory data,\r\n        bytes32 /* extra */\r\n    ) external override {\r\n        _w3linkConfig.onlyHandler();\r\n\r\n        // Decode data from whirl Contract\r\n        (\r\n            uint256 tokenId,\r\n            address fromContractId,\r\n            string memory tokenName,\r\n            string memory tokenSymbol,\r\n            string memory tokenURI,\r\n            address holder\r\n        ) = abi.decode(\r\n                data,\r\n                (uint256, address, string, string, string, address)\r\n            );\r\n\r\n        // Checks if NFT contract as already been created\r\n        // otherwise create it\r\n        if (_nfts[fromContractId] == address(0)) {\r\n            _nfts[fromContractId] = address(\r\n                new WhirlNFT(\r\n                    tokenName,\r\n                    tokenSymbol,\r\n                    fromContractId,\r\n                    fromChainId\r\n                )\r\n            );\r\n        }\r\n\r\n        // Mint the NFT\r\n        WhirlNFT nft = WhirlNFT(_nfts[fromContractId]);\r\n        nft.mint(holder, tokenId, tokenURI);\r\n\r\n        emit NFTMinted(holder, _nfts[fromContractId], tokenURI, tokenId);\r\n    }\r\n\r\n    function onResult(bytes memory data) external override {}\r\n}\r\n",
  "sourcePath": "C:\\Users\\DELL\\Documents\\w3link\\solidity\\contracts\\whirl\\WhirlExtension.sol",
  "compiler": {
    "name": "solc",
    "version": "0.8.17+commit.8df45f5f.Emscripten.clang"
  },
  "schemaVersion": "3.4.11",
  "updatedAt": "2023-09-25T08:43:50.680Z",
  "networkType": "ethereum",
  "devdoc": {
    "kind": "dev",
    "methods": {
      "execute(uint256,bytes,bytes32)": {
        "details": "This function will mint a new similar NFT as locked on whirl Contract"
      },
      "revoke(address,uint256)": {
        "details": "This functions tell whirl Contract that the minted NFT was burn and it should unlock the original NFT"
      },
      "setWhlContract(uint256,address)": {
        "details": "For setting whirl contract ids"
      }
    },
    "version": 1
  },
  "userdoc": {
    "kind": "user",
    "methods": {},
    "version": 1
  }
}