{
  "contractName": "WhirlFaucet",
  "abi": [
    {
      "inputs": [
        {
          "internalType": "string",
          "name": "name_",
          "type": "string"
        },
        {
          "internalType": "string",
          "name": "symbol_",
          "type": "string"
        }
      ],
      "stateMutability": "nonpayable",
      "type": "constructor"
    },
    {
      "anonymous": false,
      "inputs": [
        {
          "indexed": true,
          "internalType": "address",
          "name": "owner",
          "type": "address"
        },
        {
          "indexed": true,
          "internalType": "address",
          "name": "approved",
          "type": "address"
        },
        {
          "indexed": true,
          "internalType": "uint256",
          "name": "tokenId",
          "type": "uint256"
        }
      ],
      "name": "Approval",
      "type": "event"
    },
    {
      "anonymous": false,
      "inputs": [
        {
          "indexed": true,
          "internalType": "address",
          "name": "owner",
          "type": "address"
        },
        {
          "indexed": true,
          "internalType": "address",
          "name": "operator",
          "type": "address"
        },
        {
          "indexed": false,
          "internalType": "bool",
          "name": "approved",
          "type": "bool"
        }
      ],
      "name": "ApprovalForAll",
      "type": "event"
    },
    {
      "anonymous": false,
      "inputs": [
        {
          "indexed": true,
          "internalType": "address",
          "name": "previousOwner",
          "type": "address"
        },
        {
          "indexed": true,
          "internalType": "address",
          "name": "newOwner",
          "type": "address"
        }
      ],
      "name": "OwnershipTransferStarted",
      "type": "event"
    },
    {
      "anonymous": false,
      "inputs": [
        {
          "indexed": true,
          "internalType": "address",
          "name": "previousOwner",
          "type": "address"
        },
        {
          "indexed": true,
          "internalType": "address",
          "name": "newOwner",
          "type": "address"
        }
      ],
      "name": "OwnershipTransferred",
      "type": "event"
    },
    {
      "anonymous": false,
      "inputs": [
        {
          "indexed": true,
          "internalType": "address",
          "name": "from",
          "type": "address"
        },
        {
          "indexed": true,
          "internalType": "address",
          "name": "to",
          "type": "address"
        },
        {
          "indexed": true,
          "internalType": "uint256",
          "name": "tokenId",
          "type": "uint256"
        }
      ],
      "name": "Transfer",
      "type": "event"
    },
    {
      "inputs": [
        {
          "internalType": "uint256",
          "name": "",
          "type": "uint256"
        }
      ],
      "name": "_tokenURIS",
      "outputs": [
        {
          "internalType": "string",
          "name": "",
          "type": "string"
        }
      ],
      "stateMutability": "view",
      "type": "function",
      "constant": true
    },
    {
      "inputs": [],
      "name": "acceptOwnership",
      "outputs": [],
      "stateMutability": "nonpayable",
      "type": "function"
    },
    {
      "inputs": [
        {
          "internalType": "address",
          "name": "to",
          "type": "address"
        },
        {
          "internalType": "uint256",
          "name": "tokenId",
          "type": "uint256"
        }
      ],
      "name": "approve",
      "outputs": [],
      "stateMutability": "nonpayable",
      "type": "function"
    },
    {
      "inputs": [
        {
          "internalType": "address",
          "name": "owner",
          "type": "address"
        }
      ],
      "name": "balanceOf",
      "outputs": [
        {
          "internalType": "uint256",
          "name": "",
          "type": "uint256"
        }
      ],
      "stateMutability": "view",
      "type": "function",
      "constant": true
    },
    {
      "inputs": [
        {
          "internalType": "uint256",
          "name": "tokenId",
          "type": "uint256"
        }
      ],
      "name": "burn",
      "outputs": [],
      "stateMutability": "nonpayable",
      "type": "function"
    },
    {
      "inputs": [
        {
          "internalType": "uint256",
          "name": "tokenId",
          "type": "uint256"
        }
      ],
      "name": "getApproved",
      "outputs": [
        {
          "internalType": "address",
          "name": "",
          "type": "address"
        }
      ],
      "stateMutability": "view",
      "type": "function",
      "constant": true
    },
    {
      "inputs": [
        {
          "internalType": "address",
          "name": "owner",
          "type": "address"
        },
        {
          "internalType": "address",
          "name": "operator",
          "type": "address"
        }
      ],
      "name": "isApprovedForAll",
      "outputs": [
        {
          "internalType": "bool",
          "name": "",
          "type": "bool"
        }
      ],
      "stateMutability": "view",
      "type": "function",
      "constant": true
    },
    {
      "inputs": [
        {
          "internalType": "address",
          "name": "to",
          "type": "address"
        },
        {
          "internalType": "uint256",
          "name": "tokenId",
          "type": "uint256"
        },
        {
          "internalType": "string",
          "name": "uri",
          "type": "string"
        }
      ],
      "name": "mint",
      "outputs": [],
      "stateMutability": "nonpayable",
      "type": "function"
    },
    {
      "inputs": [],
      "name": "name",
      "outputs": [
        {
          "internalType": "string",
          "name": "",
          "type": "string"
        }
      ],
      "stateMutability": "view",
      "type": "function",
      "constant": true
    },
    {
      "inputs": [
        {
          "internalType": "address",
          "name": "owner",
          "type": "address"
        }
      ],
      "name": "ownedTokenIds",
      "outputs": [
        {
          "internalType": "uint256[]",
          "name": "",
          "type": "uint256[]"
        }
      ],
      "stateMutability": "view",
      "type": "function",
      "constant": true
    },
    {
      "inputs": [],
      "name": "owner",
      "outputs": [
        {
          "internalType": "address",
          "name": "",
          "type": "address"
        }
      ],
      "stateMutability": "view",
      "type": "function",
      "constant": true
    },
    {
      "inputs": [
        {
          "internalType": "uint256",
          "name": "tokenId",
          "type": "uint256"
        }
      ],
      "name": "ownerOf",
      "outputs": [
        {
          "internalType": "address",
          "name": "",
          "type": "address"
        }
      ],
      "stateMutability": "view",
      "type": "function",
      "constant": true
    },
    {
      "inputs": [],
      "name": "parent",
      "outputs": [
        {
          "internalType": "address",
          "name": "",
          "type": "address"
        }
      ],
      "stateMutability": "view",
      "type": "function",
      "constant": true
    },
    {
      "inputs": [],
      "name": "parentId",
      "outputs": [
        {
          "internalType": "uint256",
          "name": "",
          "type": "uint256"
        }
      ],
      "stateMutability": "view",
      "type": "function",
      "constant": true
    },
    {
      "inputs": [],
      "name": "pendingOwner",
      "outputs": [
        {
          "internalType": "address",
          "name": "",
          "type": "address"
        }
      ],
      "stateMutability": "view",
      "type": "function",
      "constant": true
    },
    {
      "inputs": [],
      "name": "renounceOwnership",
      "outputs": [],
      "stateMutability": "nonpayable",
      "type": "function"
    },
    {
      "inputs": [
        {
          "internalType": "address",
          "name": "from",
          "type": "address"
        },
        {
          "internalType": "address",
          "name": "to",
          "type": "address"
        },
        {
          "internalType": "uint256",
          "name": "tokenId",
          "type": "uint256"
        }
      ],
      "name": "safeTransferFrom",
      "outputs": [],
      "stateMutability": "nonpayable",
      "type": "function"
    },
    {
      "inputs": [
        {
          "internalType": "address",
          "name": "from",
          "type": "address"
        },
        {
          "internalType": "address",
          "name": "to",
          "type": "address"
        },
        {
          "internalType": "uint256",
          "name": "tokenId",
          "type": "uint256"
        },
        {
          "internalType": "bytes",
          "name": "data",
          "type": "bytes"
        }
      ],
      "name": "safeTransferFrom",
      "outputs": [],
      "stateMutability": "nonpayable",
      "type": "function"
    },
    {
      "inputs": [
        {
          "internalType": "address",
          "name": "operator",
          "type": "address"
        },
        {
          "internalType": "bool",
          "name": "approved",
          "type": "bool"
        }
      ],
      "name": "setApprovalForAll",
      "outputs": [],
      "stateMutability": "nonpayable",
      "type": "function"
    },
    {
      "inputs": [
        {
          "internalType": "bytes4",
          "name": "interfaceId",
          "type": "bytes4"
        }
      ],
      "name": "supportsInterface",
      "outputs": [
        {
          "internalType": "bool",
          "name": "",
          "type": "bool"
        }
      ],
      "stateMutability": "view",
      "type": "function",
      "constant": true
    },
    {
      "inputs": [],
      "name": "symbol",
      "outputs": [
        {
          "internalType": "string",
          "name": "",
          "type": "string"
        }
      ],
      "stateMutability": "view",
      "type": "function",
      "constant": true
    },
    {
      "inputs": [
        {
          "internalType": "uint256",
          "name": "tokenId",
          "type": "uint256"
        }
      ],
      "name": "tokenURI",
      "outputs": [
        {
          "internalType": "string",
          "name": "",
          "type": "string"
        }
      ],
      "stateMutability": "view",
      "type": "function",
      "constant": true
    },
    {
      "inputs": [
        {
          "internalType": "address",
          "name": "from",
          "type": "address"
        },
        {
          "internalType": "address",
          "name": "to",
          "type": "address"
        },
        {
          "internalType": "uint256",
          "name": "tokenId",
          "type": "uint256"
        }
      ],
      "name": "transferFrom",
      "outputs": [],
      "stateMutability": "nonpayable",
      "type": "function"
    },
    {
      "inputs": [
        {
          "internalType": "address",
          "name": "newOwner",
          "type": "address"
        }
      ],
      "name": "transferOwnership",
      "outputs": [],
      "stateMutability": "nonpayable",
      "type": "function"
    },
    {
      "inputs": [
        {
          "internalType": "string",
          "name": "uri",
          "type": "string"
        }
      ],
      "name": "getFreeNft",
      "outputs": [],
      "stateMutability": "nonpayable",
      "type": "function"
    }
  ],
  "bytecode": "0x608060405234620003ed5762002015803803806200001d81620003f2565b928339810190604081830312620003ed578051916001604060020a0392838111620003ed57816200005091840162000418565b9160209182820151858111620003ed576200006c920162000418565b928251818111620003be576000938454936002928386049260018097168015620003b3575b8385101462000386578190601f9485811162000334575b508390858311600114620002ca578992620002be575b505060088202850a6000190419169084021786555b865193841162000291578454858482049116801562000286575b82821014620002595782811162000213575b508091808511600114620001a75750508495839495936200019b575b505082810292600802900a6000190419161790555b60078054600160a060020a03199081169091556006805433818416811790925560405193929190600160a060020a03167f8be0079c531659141344cd1fd0a4f28419497f9722a3daafe3b4186f6b6457e08480a3600a5416600a55600b55611b8a90816200048b8239f35b0151915038806200011b565b9091601f949394198416978688528388209388905b8a8210620001fb5750508487989910620001df575b505050500201905562000130565b0151908316600802840a600019041916905538808080620001d1565b808985978294968601518155019601930190620001bc565b858752818720828481818901048301938289106200024f575b0104019086905b82811062000243575050620000ff565b88815501869062000233565b935082936200022c565b6024877f4e487b710000000000000000000000000000000000000000000000000000000081526022600452fd5b90607f1690620000ed565b6024867f4e487b710000000000000000000000000000000000000000000000000000000081526041600452fd5b015190503880620000be565b898052848a208994508793929091601f1984168c5b888282106200031a5750508411620002ff575b50505002018655620000d3565b0151600883881602840a6000190419169055388080620002f2565b8484015186558d988c9850909501949384019301620002df565b909150888052838920848681818701048301938287106200037c575b9186959493918c93010401915b8281106200036d575050620000a8565b8b81558594508a91016200035d565b9350829362000350565b6024887f4e487b710000000000000000000000000000000000000000000000000000000081526022600452fd5b93607f169362000091565b7f4e487b7100000000000000000000000000000000000000000000000000000000600052604160045260246000fd5b600080fd5b6040519190601f01601f191682016001604060020a03811183821017620003be57604052565b919080601f84011215620003ed5782516001604060020a038111620003be576020906200044e601f8201601f19168301620003f2565b92818452828287010111620003ed5760005b8181106200047657508260009394955001015290565b85810183015184820184015282016200046056fe60806040908082526004918236101561001757600080fd5b6000927c010000000000000000000000000000000000000000000000000000000084350492836301ffc9a714610f6f57508263054bf3b114610f4457826306fdde0314610e9c578263081812fc14610e74578263095ea7b314610cd8578263186e811b14610cb957826323b872dd14610c8f5782633f349ba414610be257826342842e0e14610b9157826342966c68146109f657826360f96a8f146109ce5782636352211e1461099e57826370a08231146108f2578263715018a61461089557826379ba5097146107ba5782637f2b8c8c146106725782638da5cb5b1461064a57826395d89b4114610568578263a22cb4651461049a578263b88d4fde14610432578263c87b56dd146103c4578263d3fc98641461023d57508163e30c397814610215578163e985e9c5146101c3575063f2fde38b1461015657600080fd5b346101c05760203660031901126101c05761016f611199565b610177611270565b600160a060020a038091169081600160a060020a03196007541617600755600654167f38d16b8cac22d99fc7c124b9cd0de2d3fa1faef420bfe791d8c362d765e227008380a380f35b80fd5b90503461021157806003193601126102115760ff816020936101e3611199565b6101eb6111b4565b600160a060020a0391821683526005875283832091168252855220549151911615158152f35b5080fd5b905034610211578160031936011261021157602090600160a060020a03600754169051908152f35b83823461021157606036600319011261021157610258611199565b9067ffffffffffffffff906024356044358381116103c0578161028161028f9236908a01611252565b9561028a611270565b61194b565b84526020906008825284209280519283116103aa579082916102b1855461103b565b601f811161035a575b5081601f84116001146102f3575085926102e8575b5050816002029160080260020a60001904191617905580f35b0151905084806102cf565b8587528087209350601f1985169087905b8282106103425750509160029391856001969410610327575b5050500201905580f35b01516008601f841602840a600019041916905585808061031d565b80600186978294978701518155019601940190610304565b909192508486528286208380601f8701048201928187106103a0575b94601f87969594939295010401905b81811061039257506102ba565b878155859450600101610385565b9192508291610376565b60248560418860e060020a634e487b7102835252fd5b8580fd5b9091503461042e57602036600319011261042e578161042a93610417923561040a610405826000526002602052600160a060020a0360406000205416151590565b6112cb565b81526008602052206110b4565b9051918291602083526020830190611159565b0390f35b8280fd5b8390346102115760803660031901126102115761044d611199565b6104556111b4565b9060643567ffffffffffffffff8111610496573660238201121561049657610493938160246104899336930135910161121b565b91604435916113ec565b80f35b8480fd5b91503461042e578060031936011261042e576104b4611199565b906024359182151580930361049657600160a060020a0316928333146105235750338452600560205280842083855260205280842060ff1981541660ff8416179055519081527f17307eab39ab6107e8899845ad3d59bd9653f200f220920489ca2b5937696c3160203392a380f35b6020606492519160e560020a62461bcd028352820152601960248201527f4552433732313a20617070726f766520746f2063616c6c6572000000000000006044820152fd5b83823461021157816003193601126102115780519082600180549161058c8361103b565b8086529282811690811561062357506001146105c7575b5050506105b58261042a940383611079565b51918291602083526020830190611159565b94508085527fb10e2d527612073b26eecdfd717e6a320cf44b4afac2b0732d9fcbe2b7fa0cf65b82861061060b575050506105b582602061042a95820101946105a3565b805460208787018101919091529095019481016105ee565b61042a9750869350602092506105b594915060ff19168284015215158102820101946105a3565b838234610211578160031936011261021157602090600160a060020a03600654169051908152f35b8390346102115760208060031936011261042e5767ffffffffffffffff908235828111610496576106a69036908501611252565b946001906106bc82600c540180600c553361194b565b600c5486526008835285209386519384116107a457506106dc845461103b565b601f8111610760575b5081601f84116001146107175750508394829394926102e8575050816002029160080260020a60001904191617905580f35b909291601f198316968587528287209287905b8982106107495750508360029596979810610327575050500201905580f35b80878596829496860151815501950193019061072a565b8486528286208380601f87010482019281871061079a575b601f0104019082905b82811061078f5750506106e5565b878155018290610781565b9192508291610778565b85604160249260e060020a634e487b7102835252fd5b91503461042e578260031936011261042e5760075491600160a060020a03913383851603610829575050600160a060020a03198092166007556006549133908316176006553391167f8be0079c531659141344cd1fd0a4f28419497f9722a3daafe3b4186f6b6457e08380a380f35b906020608492519160e560020a62461bcd028352820152602960248201527f4f776e61626c6532537465703a2063616c6c6572206973206e6f74207468652060448201527f6e6577206f776e657200000000000000000000000000000000000000000000006064820152fd5b83346101c057806003193601126101c0576108ae611270565b80600160a060020a0380198060075416600755600654908116600655167f8be0079c531659141344cd1fd0a4f28419497f9722a3daafe3b4186f6b6457e08280a380f35b83903461021157602036600319011261021157600160a060020a03610915611199565b169081156109325760208480858581526003845220549051908152f35b608490602085519160e560020a62461bcd028352820152602960248201527f4552433732313a2061646472657373207a65726f206973206e6f74206120766160448201527f6c6964206f776e657200000000000000000000000000000000000000000000006064820152fd5b9083346101c05760203660031901126101c05750600160a060020a036109c660209335611319565b915191168152f35b838234610211578160031936011261021157602090600160a060020a03600a54169051908152f35b91503461042e5760209182600319360112610b8d578035610a15611270565b610a1e81611319565b50610a2881611319565b90808652828552600160a060020a038487209281199384815416905516918287526003865284872092600019938481540190558288526002918288528689209081541690558288827fddf252ad1be2c89b69c2b068fc378daa952ba7f163c4a11628f55a4df523b3ef8280a487805260099586885280892096875498680100000000000000008a1015610b7757610aea86610acc60019d9c8e9c8d82018155611b23565b90919060088354910260020a91826000039283910216911916179055565b899a5b610af5578980f35b838a52818152828a20548b1015610b735785610b138c858d20611b23565b9190546008809302880a900414610b4d575b50868b14610b37579988019988610aed565b60248a60118a60e060020a634e487b7102835252fd5b848b52828252610b5f8c858d20611b23565b909182549102870a8c031916905538610b25565b8980f35b60248b60418a60e060020a634e487b7102835252fd5b8380fd5b83823461021157610ba1366111ca565b91835193602085019085821067ffffffffffffffff831117610bcc57610493969750528584526113ec565b60248760418a60e060020a634e487b7102835252fd5b5082346101c057602090816003193601126101c0578290600160a060020a03610c09611199565b16815260098352818120908251808584549182815201908194845286842090845b818110610c7b5750505081610c40910382611079565b83519485948186019282875251809352850193925b828110610c6457505050500390f35b835185528695509381019392810192600101610c55565b825484529288019260019283019201610c2a565b83346101c057610493610ca1366111ca565b91610cb4610caf8433611495565b611378565b611577565b838234610211578160031936011261021157602090600b549051908152f35b9091503461042e578160031936011261042e57610cf3611199565b9060243592600160a060020a03918280610d0c87611319565b16941693808514610e0857803314908115610de9575b5015610d7e578486526020528420805473ffffffffffffffffffffffffffffffffffffffff191683179055610d5683611319565b167f8c5be1e5ebec7d5bd14f71427d1e84f3dd0314c0f7b2291e5b200ac8c7c3b9258480a480f35b6020608492519160e560020a62461bcd028352820152603d60248201527f4552433732313a20617070726f76652063616c6c6572206973206e6f7420746f60448201527f6b656e206f776e6572206f7220617070726f76656420666f7220616c6c0000006064820152fd5b90508652600560205281862033875260205260ff828720541638610d22565b506020608492519160e560020a62461bcd028352820152602160248201527f4552433732313a20617070726f76616c20746f2063757272656e74206f776e6560448201527f72000000000000000000000000000000000000000000000000000000000000006064820152fd5b9083346101c05760203660031901126101c05750600160a060020a036109c66020933561133b565b838234610211578160031936011261021157805190828054610ebd8161103b565b808552916001918083169081156106235750600114610ee8575050506105b58261042a940383611079565b80809650527f290decd9548b62a8d60345a988386fc84ba6bc95484008f6362f93160ef3e5635b828610610f2c575050506105b582602061042a95820101946105a3565b80546020878701810191909152909501948101610f0f565b9091503461042e57602036600319011261042e578161042a93610417923581526008602052206110b4565b84913461042e57602036600319011261042e57357bffffffffffffffffffffffffffffffffffffffffffffffffffffffff19811680910361042e57602092507f80ac58cd000000000000000000000000000000000000000000000000000000008114908115611011575b8115610fe7575b5015158152f35b7f01ffc9a70000000000000000000000000000000000000000000000000000000091501483610fe0565b7f5b5e139f0000000000000000000000000000000000000000000000000000000081149150610fd9565b906001600283049216801561106f575b602083101461105657565b60e060020a634e487b7102600052602260045260246000fd5b91607f169161104b565b90601f8019910116810190811067ffffffffffffffff82111761109b57604052565b60e060020a634e487b7102600052604160045260246000fd5b90604051918260008254926110c88461103b565b90818452600194858116908160001461113757506001146110f4575b50506110f292500383611079565b565b9093915060005260209081600020936000915b81831061111f5750506110f2935082010138806110e4565b85548884018501529485019487945091830191611107565b9150506110f294506020925060ff1916828401521515810282010138806110e4565b919082519283825260005b848110611185575050826000602080949584010152601f8019910116010190565b602081830181015184830182015201611164565b60043590600160a060020a03821682036111af57565b600080fd5b60243590600160a060020a03821682036111af57565b60609060031901126111af57600160a060020a039060043582811681036111af579160243590811681036111af579060443590565b67ffffffffffffffff811161109b57601f01601f191660200190565b929192611227826111ff565b916112356040519384611079565b8294818452818301116111af578281602093846000960137010152565b9080601f830112156111af5781602061126d9335910161121b565b90565b600160a060020a0360065416330361128457565b606460405160e560020a62461bcd02815260206004820152602060248201527f4f776e61626c653a2063616c6c6572206973206e6f7420746865206f776e65726044820152fd5b156112d257565b606460405160e560020a62461bcd02815260206004820152601860248201527f4552433732313a20696e76616c696420746f6b656e20494400000000000000006044820152fd5b6000526002602052600160a060020a036040600020541661126d8115156112cb565b61135e610405826000526002602052600160a060020a0360406000205416151590565b6000526004602052600160a060020a036040600020541690565b1561137f57565b608460405160e560020a62461bcd02815260206004820152602d60248201527f4552433732313a2063616c6c6572206973206e6f7420746f6b656e206f776e6560448201527f72206f7220617070726f766564000000000000000000000000000000000000006064820152fd5b90611410939291611400610caf8433611495565b61140b838383611577565b611795565b1561141757565b60405160e560020a62461bcd0281528061143360048201611437565b0390fd5b60809060208152603260208201527f4552433732313a207472616e7366657220746f206e6f6e20455243373231526560408201527f63656976657220696d706c656d656e746572000000000000000000000000000060608201520190565b90600160a060020a0380806114a984611319565b169316918383149384156114dc575b5083156114c6575b50505090565b6114d29192935061133b565b16143880806114c0565b909350600052600560205260406000208260005260205260ff6040600020541692386114b8565b1561150a57565b608460405160e560020a62461bcd02815260206004820152602560248201527f4552433732313a207472616e736665722066726f6d20696e636f72726563742060448201527f6f776e65720000000000000000000000000000000000000000000000000000006064820152fd5b916115a0939261158682611319565b92600160a060020a03958694858094169788911614611503565b1691821561172957846115bd916115b684611319565b1614611503565b600090808252600490602082815260409687852097600160a060020a0319988981541690558186526003835280862093600019948581540190558787528187209760019889815401905581885260029a8b865281848a20918254161790558181857fddf252ad1be2c89b69c2b068fc378daa952ba7f163c4a11628f55a4df523b3ef8b80a487526009908185528288209a8b549b680100000000000000008d10156117135782610acc8e8d9f938e61167795018155611b23565b889b5b61168d575b505050505050505050509050565b848952828652838920548c101561170e578160086116ad8e878d20611b23565b90549102830a9004146116e2575b868c146116cc579a89019a8961167a565b60248960118a60e060020a634e487b7102835252fd5b8489528286526117096116f78d868c20611b23565b60088254910260020a60000319169055565b6116bb565b61167f565b60248a60418b60e060020a634e487b7102835252fd5b608460405160e560020a62461bcd028152602060048201526024808201527f4552433732313a207472616e7366657220746f20746865207a65726f2061646460448201527f72657373000000000000000000000000000000000000000000000000000000006064820152fd5b9293600093909291803b156118f25794849161180996604051809481937f150b7a020000000000000000000000000000000000000000000000000000000097888452336004850152600160a060020a0380921660248501526044840152608060648401528260209b8c976084830190611159565b0393165af184918161189d575b50611877575050503d60001461186f573d611830816111ff565b9061183e6040519283611079565b81528091833d92013e5b8051918261186c5760405160e560020a62461bcd0281528061143360048201611437565b01fd5b506060611848565b7bffffffffffffffffffffffffffffffffffffffffffffffffffffffff19161492509050565b9091508581813d83116118eb575b6118b58183611079565b8101031261049657517bffffffffffffffffffffffffffffffffffffffffffffffffffffffff1981168103610496579038611816565b503d6118ab565b505050915050600190565b1561190457565b606460405160e560020a62461bcd02815260206004820152601c60248201527f4552433732313a20746f6b656e20616c7265616479206d696e746564000000006044820152fd5b600160a060020a031691908215611adc5761198561197f826000526002602052600160a060020a0360406000205416151590565b156118fd565b6119a861197f826000526002602052600160a060020a0360406000205416151590565b6000838152602091600383526040928383209360019485815401905582845260029687835281852081600160a060020a03198254161790558381867fddf252ad1be2c89b69c2b068fc378daa952ba7f163c4a11628f55a4df523b3ef8180a4845260099283835281852097885498680100000000000000008a1015611ac55782610acc8b611a3b938b809e018155611b23565b85985b611a4e575b505050505050509050565b85805284845282862054891015611ac057816008611a6e8b868a20611b23565b90549102830a900414611aa6575b6000198914611a8f579786019786611a3e565b60248660e060020a634e487b710281526011600452fd5b858052848452611abb6116f78a858920611b23565b611a7c565b611a43565b60248760e060020a634e487b710281526041600452fd5b606460405160e560020a62461bcd02815260206004820152602060248201527f4552433732313a206d696e7420746f20746865207a65726f20616464726573736044820152fd5b8054821015611b3b5760005260206000200190600090565b60e060020a634e487b7102600052603260045260246000fdfea2646970667358221220a87820bc48c79f10f24555cca18e183a44fd29695ef1cde1c44e08669da4a78264736f6c63430008110033",
  "immutableReferences": {},
  "source": "// SPDX-License-Identifier: MIT\r\npragma solidity ^0.8.17;\r\n\r\nimport \"@openzeppelin/contracts/utils/Counters.sol\";\r\nimport \"./W3NFT.sol\";\r\n\r\ncontract WhirlFaucet is W3NFT {\r\n    using Counters for Counters.Counter;\r\n\r\n    Counters.Counter private _tokenId;\r\n\r\n    constructor(\r\n        string memory name_,\r\n        string memory symbol_\r\n    ) W3NFT(name_, symbol_, address(0), 0) {}\r\n\r\n    function getFreeNft(string memory uri) external {\r\n        _tokenId.increment();\r\n        _mint(msg.sender, _tokenId.current());\r\n        _tokenURIS[_tokenId.current()] = uri;\r\n    }\r\n}\r\n",
  "sourcePath": "C:\\Users\\DELL\\Documents\\w3link\\solidity\\contracts\\whirl\\WhirlFaucet.sol",
  "compiler": {
    "name": "solc",
    "version": "0.8.17+commit.8df45f5f.Emscripten.clang"
  },
  "schemaVersion": "3.4.11",
  "updatedAt": "2023-09-23T11:18:59.553Z",
  "networkType": "ethereum",
  "devdoc": {
    "kind": "dev",
    "methods": {
      "acceptOwnership()": {
        "details": "The new owner accepts the ownership transfer."
      },
      "approve(address,uint256)": {
        "details": "See {IERC721-approve}."
      },
      "balanceOf(address)": {
        "details": "See {IERC721-balanceOf}."
      },
      "getApproved(uint256)": {
        "details": "See {IERC721-getApproved}."
      },
      "isApprovedForAll(address,address)": {
        "details": "See {IERC721-isApprovedForAll}."
      },
      "name()": {
        "details": "See {IERC721Metadata-name}."
      },
      "owner()": {
        "details": "Returns the address of the current owner."
      },
      "ownerOf(uint256)": {
        "details": "See {IERC721-ownerOf}."
      },
      "pendingOwner()": {
        "details": "Returns the address of the pending owner."
      },
      "renounceOwnership()": {
        "details": "Leaves the contract without owner. It will not be possible to call `onlyOwner` functions. Can only be called by the current owner. NOTE: Renouncing ownership will leave the contract without an owner, thereby disabling any functionality that is only available to the owner."
      },
      "safeTransferFrom(address,address,uint256)": {
        "details": "See {IERC721-safeTransferFrom}."
      },
      "safeTransferFrom(address,address,uint256,bytes)": {
        "details": "See {IERC721-safeTransferFrom}."
      },
      "setApprovalForAll(address,bool)": {
        "details": "See {IERC721-setApprovalForAll}."
      },
      "supportsInterface(bytes4)": {
        "details": "See {IERC165-supportsInterface}."
      },
      "symbol()": {
        "details": "See {IERC721Metadata-symbol}."
      },
      "tokenURI(uint256)": {
        "details": "See {IERC721Metadata-tokenURI}."
      },
      "transferFrom(address,address,uint256)": {
        "details": "See {IERC721-transferFrom}."
      },
      "transferOwnership(address)": {
        "details": "Starts the ownership transfer of the contract to a new account. Replaces the pending transfer if there is one. Can only be called by the current owner."
      }
    },
    "version": 1
  },
  "userdoc": {
    "kind": "user",
    "methods": {},
    "version": 1
  }
}