{
  "contractName": "WhirlExtension",
  "abi": [
    {
      "inputs": [
        {
          "internalType": "address",
          "name": "w3link_",
          "type": "address"
        }
      ],
      "stateMutability": "nonpayable",
      "type": "constructor"
    },
    {
      "inputs": [
        {
          "internalType": "uint256",
          "name": "destChainId",
          "type": "uint256"
        },
        {
          "internalType": "address",
          "name": "contractId",
          "type": "address"
        }
      ],
      "name": "setTwlContract",
      "outputs": [],
      "stateMutability": "nonpayable",
      "type": "function"
    },
    {
      "inputs": [
        {
          "internalType": "address",
          "name": "nftContractId",
          "type": "address"
        },
        {
          "internalType": "uint256",
          "name": "tokenId",
          "type": "uint256"
        }
      ],
      "name": "revoke",
      "outputs": [],
      "stateMutability": "payable",
      "type": "function"
    },
    {
      "inputs": [
        {
          "internalType": "uint256",
          "name": "fromChainId",
          "type": "uint256"
        },
        {
          "internalType": "bytes",
          "name": "data",
          "type": "bytes"
        },
        {
          "internalType": "bytes32",
          "name": "",
          "type": "bytes32"
        }
      ],
      "name": "execute",
      "outputs": [],
      "stateMutability": "nonpayable",
      "type": "function"
    },
    {
      "inputs": [
        {
          "internalType": "bytes",
          "name": "data",
          "type": "bytes"
        }
      ],
      "name": "onResult",
      "outputs": [],
      "stateMutability": "nonpayable",
      "type": "function"
    }
  ],
  "bytecode": "0x608080604052346100df57612904803803809161001c82856100e4565b8339600160a060020a039182916100369190810190610135565b169060046020600160a060020a03199380856000541617600055604051928380927f79502c550000000000000000000000000000000000000000000000000000000082525afa9081156100d3576000916100a5575b50169060015416176001556040516127af90816101558239f35b6100c6915060203d81116100cc575b6100be81836100e4565b810190610135565b3861008b565b503d6100b4565b6040513d6000823e3d90fd5b600080fd5b90601f8019910116810190811067ffffffffffffffff82111761010657604052565b7f4e487b7100000000000000000000000000000000000000000000000000000000600052604160045260246000fd5b908160209103126100df5751600160a060020a03811681036100df579056fe6040608081526004803610156200001557600080fd5b6000907c01000000000000000000000000000000000000000000000000000000008235048063549b18f1146200085e57806382408bb81462000821578063913bebdc14620005915763eac449d9146200006d57600080fd5b826003193601126200058d57803592600160a060020a03808516809503620003955760248035958552602091600383528084872054169684517f6352211e0000000000000000000000000000000000000000000000000000000081528187820152848185818c5afa908115620004ea5788916200056b575b5082339116036200051057873b156200050c5784517f42966c68000000000000000000000000000000000000000000000000000000008152818782015287818581838d5af18015620004ea57908891620004f4575b505084517f60f96a8f000000000000000000000000000000000000000000000000000000008152848188818c5afa908115620004ea579083918991620004b6575b5086519286840152168582015233606082015260608152608081019080821067ffffffffffffffff8311176200048957879882875283600154167f186e811b000000000000000000000000000000000000000000000000000000009384815287818b81865afa908115620003e5578b9162000450575b508790878b8b5194859384927f39b37ab00000000000000000000000000000000000000000000000000000000084528301525afa9081156200040b578a9162000419575b50848a5416803b1562000415578a908a8a51809481937fd0e30db00000000000000000000000000000000000000000000000000000000083525af180156200040b57908a91620003ef575b508490541693875184815287818b81865afa908115620003e5578b91620003ac575b509087918b5260028252888b205416938989518094819382525afa958615620003a257899662000364575b5050823b15620003605760809688956200031f879389519a8b98899788967f4964e6990000000000000000000000000000000000000000000000000000000088528701528501526084840190620009bc565b9060448301526000606483015203925af1908115620003575750620003415750f35b6200034c90620008a5565b620003545780f35b80fd5b513d84823e3d90fd5b8780fd5b819950809296503d83116200039a575b620003808183620008e9565b810103126200039557879651933880620002cd565b600080fd5b503d62000374565b87513d8b823e3d90fd5b80929b50888092503d8311620003dd575b620003c98183620008e9565b810103126200039557518a999087620002a2565b503d620003bd565b89513d8d823e3d90fd5b620003fa90620008a5565b6200040757883862000280565b8880fd5b88513d8c823e3d90fd5b8a80fd5b809a50878092503d831162000448575b620004358183620008e9565b8101031262000395578998513862000235565b503d62000429565b9a50508683818c3d841162000480575b816200046c91620008e9565b810103126200039557868b9a5190620001f1565b3d915062000460565b836041887f4e487b7100000000000000000000000000000000000000000000000000000000600052526000fd5b620004db9150863d8811620004e2575b620004d28183620008e9565b81019062000976565b386200017b565b503d620004c6565b86513d8a823e3d90fd5b620004ff90620008a5565b6200050c5786386200013a565b8680fd5b606486600985878951937f08c379a00000000000000000000000000000000000000000000000000000000085528401528201527f4e6f74206f776e657200000000000000000000000000000000000000000000006044820152fd5b620005869150853d8711620004e257620004d28183620008e9565b38620000e5565b5080fd5b50346200058d5760603660031901126200058d5767ffffffffffffffff926024358481116200081d57620005c9903690840162000929565b91600160a060020a03908160015416803b156200081957858091838651809481937fb11d16fb0000000000000000000000000000000000000000000000000000000083525af180156200080f57620007f9575b50835184019360209260c0828588019703126200050c57838201519562000645868401620009e3565b9460608401518a8111620007f55782826200066392870101620009f8565b60808501518b8111620004155783836200068092880101620009f8565b9260a08601518c8111620007f15760c0620006a5879386620006ad948b0101620009f8565b9701620009e3565b971692838b526003835284898c205416156200073f575b5050505086975080858820541691823b15620003605787946200072a86928851998a97889687957fd3fc986400000000000000000000000000000000000000000000000000000000875216908501526024840152606060448401526064830190620009bc565b03925af1908115620003575750620003415750f35b885191611d34808401809e858210911117620007c5578392620007788e9f93620007869362000a468739608085526080850190620009bc565b9083820387850152620009bc565b90858b8201526060893591015203908af0918215620003a257906003918a5252818689209116600160a060020a031982541617905538808080620006c4565b60248d60418b7f4e487b7100000000000000000000000000000000000000000000000000000000835252fd5b8b80fd5b8980fd5b6200080790959195620008a5565b93386200061c565b84513d88823e3d90fd5b8580fd5b8380fd5b50346200058d5760203660031901126200058d5780359067ffffffffffffffff82116200085a57620008569136910162000929565b5080f35b8280fd5b5082346200085a57806003193601126200085a5760243591600160a060020a0383168093036200081d573583526002602052822090600160a060020a031982541617905580f35b67ffffffffffffffff8111620008ba57604052565b7f4e487b7100000000000000000000000000000000000000000000000000000000600052604160045260246000fd5b90601f8019910116810190811067ffffffffffffffff821117620008ba57604052565b67ffffffffffffffff8111620008ba57601f01601f191660200190565b81601f82011215620003955780359062000943826200090c565b92620009536040519485620008e9565b828452602083830101116200039557816000926020809301838601378301015290565b90816020910312620003955751600160a060020a0381168103620003955790565b60005b838110620009ab5750506000910152565b81810151838201526020016200099a565b90602091620009d78151809281855285808601910162000997565b601f01601f1916010190565b5190600160a060020a03821682036200039557565b81601f820112156200039557805162000a11816200090c565b9262000a216040519485620008e9565b81845260208284010111620003955762000a42916020808501910162000997565b9056fe6080604052346200040c5762001d34803803806200001d8162000411565b9283398101906080818303126200040c5780516001604060020a03908181116200040c57836200004f91840162000437565b9260209081840151908382116200040c576200006d91850162000437565b60408401519094600160a060020a03948583169391928490036200040c5760600151938251818111620003dd576000938454936002928386049260018097168015620003d2575b83851014620003a5578190601f9485811162000353575b508390858311600114620002e9578992620002dd575b505060088202850a6000190419169084021786555b8951938411620002b05784548584820491168015620002a5575b82821014620002785782811162000232575b508091808511600114620001c3575050849596979883949593620001b7575b505082810292600802900a6000190419161790555b600160a060020a03199081600754166007556006549033838316176006557f8be0079c531659141344cd1fd0a4f28419497f9722a3daafe3b4186f6b6457e0604051963393169180a3600a541617600a55600b5561188a9081620004aa8239f35b01519150388062000141565b9091601f9493941984169a8688528388209388905b8d82106200021a575050848798999a9b9c10620001fe575b505050500201905562000156565b0151908316600802840a600019041916905538808080620001f0565b808985978294968601518155019601930190620001d8565b858752818720828481818901048301938289106200026e575b0104019086905b8281106200026257505062000122565b88815501869062000252565b935082936200024b565b6024877f4e487b710000000000000000000000000000000000000000000000000000000081526022600452fd5b90607f169062000110565b6024867f4e487b710000000000000000000000000000000000000000000000000000000081526041600452fd5b015190503880620000e1565b898052848a208994508793929091601f1984168c5b888282106200033957505084116200031e575b50505002018655620000f6565b0151600883881602840a600019041916905538808062000311565b8484015186558d988c9850909501949384019301620002fe565b909150888052838920848681818701048301938287106200039b575b9186959493918c93010401915b8281106200038c575050620000cb565b8b81558594508a91016200037c565b935082936200036f565b6024887f4e487b710000000000000000000000000000000000000000000000000000000081526022600452fd5b93607f1693620000b4565b7f4e487b7100000000000000000000000000000000000000000000000000000000600052604160045260246000fd5b600080fd5b6040519190601f01601f191682016001604060020a03811183821017620003dd57604052565b919080601f840112156200040c5782516001604060020a038111620003dd576020906200046d601f8201601f1916830162000411565b928184528282870101116200040c5760005b8181106200049557508260009394955001015290565b85810183015184820184015282016200047f56fe60806040908082526004918236101561001757600080fd5b6000927c010000000000000000000000000000000000000000000000000000000084350492836301ffc9a714610ee357508263054bf3b114610eb857826306fdde0314610e10578263081812fc14610de8578263095ea7b314610c4c578263186e811b14610c2d57826323b872dd14610c0357826342842e0e14610bc857826342966c6814610ad157826360f96a8f14610aa95782636352211e14610a7957826370a08231146109cd578263715018a61461097057826379ba5097146108955782638da5cb5b1461086d57826395d89b411461078b578263a22cb465146106bd578263b12ab40f14610610578263b88d4fde146105a8578263c87b56dd1461053a578263d3fc98641461023257508163e30c39781461020a578163e985e9c5146101b8575063f2fde38b1461014b57600080fd5b346101b55760203660031901126101b55761016461110d565b61016c6111c6565b600160a060020a038091169081600160a060020a03196007541617600755600654167f38d16b8cac22d99fc7c124b9cd0de2d3fa1faef420bfe791d8c362d765e227008380a380f35b80fd5b90503461020657806003193601126102065760ff816020936101d861110d565b6101e0611128565b600160a060020a0391821683526005875283832091168252855220549151911615158152f35b5080fd5b905034610206578160031936011261020657602090600160a060020a03600754169051908152f35b8390346102065760603660031901126102065761024d61110d565b926024356044359167ffffffffffffffff9283811161053657366023820112156105365761028c600160a060020a03913690602481890135910161118f565b966102956111c6565b169081156104f0576102c66102c0846000526002602052600160a060020a0360406000205416151590565b156117d5565b6102e96102c0846000526002602052600160a060020a0360406000205416151590565b81865260209260038452818720926001938481540190558188526002855282882081600160a060020a03198254161790558181897fddf252ad1be2c89b69c2b068fc378daa952ba7f163c4a11628f55a4df523b3ef8180a4875260098452818720805490680100000000000000008210156104da576103718284928761038f95018155611823565b90919060088354910260020a91826000039283910216911916179055565b868052600984526103b76103a582848a20611823565b60088254910260020a60000319169055565b86526008835285209386519384116104c457506103d48454610faf565b601f8111610480575b5081601f841160011461041b575050839482939492610410575b5050816002029160080260020a60001904191617905580f35b0151905084806103f7565b909291601f198316968587528287209287905b898210610469575050836002959697981061044e575b5050500201905580f35b01516008601f841602840a6000190419169055858080610444565b80878596829496860151815501950193019061042e565b8486528286208380601f8701048201928187106104ba575b601f0104019082905b8281106104af5750506103dd565b8781550182906104a1565b9192508291610498565b85604160249260e060020a634e487b7102835252fd5b60248960418a60e060020a634e487b7102835252fd5b846020606492519160e560020a62461bcd028352820152602060248201527f4552433732313a206d696e7420746f20746865207a65726f20616464726573736044820152fd5b8580fd5b909150346105a45760203660031901126105a457816105a09361058d923561058061057b826000526002602052600160a060020a0360406000205416151590565b611221565b8152600860205220611028565b90519182916020835260208301906110cd565b0390f35b8280fd5b839034610206576080366003190112610206576105c361110d565b6105cb611128565b9060643567ffffffffffffffff811161060c573660238201121561060c57610609938160246105ff9336930135910161118f565b9160443591611345565b80f35b8480fd5b5082346101b557602090816003193601126101b5578290600160a060020a0361063761110d565b16815260098352818120908251808584549182815201908194845286842090845b8181106106a9575050508161066e910382610fed565b83519485948186019282875251809352850193925b82811061069257505050500390f35b835185528695509381019392810192600101610683565b825484529288019260019283019201610658565b9150346105a457806003193601126105a4576106d761110d565b906024359182151580930361060c57600160a060020a0316928333146107465750338452600560205280842083855260205280842060ff1981541660ff8416179055519081527f17307eab39ab6107e8899845ad3d59bd9653f200f220920489ca2b5937696c3160203392a380f35b6020606492519160e560020a62461bcd028352820152601960248201527f4552433732313a20617070726f766520746f2063616c6c6572000000000000006044820152fd5b8382346102065781600319360112610206578051908260018054916107af83610faf565b8086529282811690811561084657506001146107ea575b5050506107d8826105a0940383610fed565b519182916020835260208301906110cd565b94508085527fb10e2d527612073b26eecdfd717e6a320cf44b4afac2b0732d9fcbe2b7fa0cf65b82861061082e575050506107d88260206105a095820101946107c6565b80546020878701810191909152909501948101610811565b6105a09750869350602092506107d894915060ff19168284015215158102820101946107c6565b838234610206578160031936011261020657602090600160a060020a03600654169051908152f35b9150346105a457826003193601126105a45760075491600160a060020a03913383851603610904575050600160a060020a03198092166007556006549133908316176006553391167f8be0079c531659141344cd1fd0a4f28419497f9722a3daafe3b4186f6b6457e08380a380f35b906020608492519160e560020a62461bcd028352820152602960248201527f4f776e61626c6532537465703a2063616c6c6572206973206e6f74207468652060448201527f6e6577206f776e657200000000000000000000000000000000000000000000006064820152fd5b83346101b557806003193601126101b5576109896111c6565b80600160a060020a0380198060075416600755600654908116600655167f8be0079c531659141344cd1fd0a4f28419497f9722a3daafe3b4186f6b6457e08280a380f35b83903461020657602036600319011261020657600160a060020a036109f061110d565b16908115610a0d5760208480858581526003845220549051908152f35b608490602085519160e560020a62461bcd028352820152602960248201527f4552433732313a2061646472657373207a65726f206973206e6f74206120766160448201527f6c6964206f776e657200000000000000000000000000000000000000000000006064820152fd5b9083346101b55760203660031901126101b55750600160a060020a03610aa16020933561126f565b915191168152f35b838234610206578160031936011261020657602090600160a060020a03600a54169051908152f35b83823461020657602090816003193601126105a457833591610af16111c6565b610afa8361126f565b50610b048361126f565b838552858252600160a060020a03838620918119928381541690551690818652600383528386206000198154019055848652600283528386209081541690558385827fddf252ad1be2c89b69c2b068fc378daa952ba7f163c4a11628f55a4df523b3ef8280a48480526009825282852080549068010000000000000000821015610bb257926103a59492610ba887610371856106099a986001600998018155611823565b8752528420611823565b60248760418a60e060020a634e487b7102835252fd5b83823461020657610bd83661113e565b91835193602085019085821067ffffffffffffffff831117610bb25761060996975052858452611345565b83346101b557610609610c153661113e565b91610c28610c2384336113ee565b6112d1565b6114d0565b838234610206578160031936011261020657602090600b549051908152f35b909150346105a457816003193601126105a457610c6761110d565b9060243592600160a060020a03918280610c808761126f565b16941693808514610d7c57803314908115610d5d575b5015610cf2578486526020528420805473ffffffffffffffffffffffffffffffffffffffff191683179055610cca8361126f565b167f8c5be1e5ebec7d5bd14f71427d1e84f3dd0314c0f7b2291e5b200ac8c7c3b9258480a480f35b6020608492519160e560020a62461bcd028352820152603d60248201527f4552433732313a20617070726f76652063616c6c6572206973206e6f7420746f60448201527f6b656e206f776e6572206f7220617070726f76656420666f7220616c6c0000006064820152fd5b90508652600560205281862033875260205260ff828720541638610c96565b506020608492519160e560020a62461bcd028352820152602160248201527f4552433732313a20617070726f76616c20746f2063757272656e74206f776e6560448201527f72000000000000000000000000000000000000000000000000000000000000006064820152fd5b9083346101b55760203660031901126101b55750600160a060020a03610aa160209335611294565b838234610206578160031936011261020657805190828054610e3181610faf565b808552916001918083169081156108465750600114610e5c575050506107d8826105a0940383610fed565b80809650527f290decd9548b62a8d60345a988386fc84ba6bc95484008f6362f93160ef3e5635b828610610ea0575050506107d88260206105a095820101946107c6565b80546020878701810191909152909501948101610e83565b909150346105a45760203660031901126105a457816105a09361058d92358152600860205220611028565b8491346105a45760203660031901126105a457357bffffffffffffffffffffffffffffffffffffffffffffffffffffffff1981168091036105a457602092507f80ac58cd000000000000000000000000000000000000000000000000000000008114908115610f85575b8115610f5b575b5015158152f35b7f01ffc9a70000000000000000000000000000000000000000000000000000000091501483610f54565b7f5b5e139f0000000000000000000000000000000000000000000000000000000081149150610f4d565b9060016002830492168015610fe3575b6020831014610fca57565b60e060020a634e487b7102600052602260045260246000fd5b91607f1691610fbf565b90601f8019910116810190811067ffffffffffffffff82111761100f57604052565b60e060020a634e487b7102600052604160045260246000fd5b906040519182600082549261103c84610faf565b9081845260019485811690816000146110ab5750600114611068575b505061106692500383610fed565b565b9093915060005260209081600020936000915b81831061109357505061106693508201013880611058565b8554888401850152948501948794509183019161107b565b91505061106694506020925060ff191682840152151581028201013880611058565b919082519283825260005b8481106110f9575050826000602080949584010152601f8019910116010190565b6020818301810151848301820152016110d8565b60043590600160a060020a038216820361112357565b600080fd5b60243590600160a060020a038216820361112357565b606090600319011261112357600160a060020a0390600435828116810361112357916024359081168103611123579060443590565b67ffffffffffffffff811161100f57601f01601f191660200190565b92919261119b82611173565b916111a96040519384610fed565b829481845281830111611123578281602093846000960137010152565b600160a060020a036006541633036111da57565b606460405160e560020a62461bcd02815260206004820152602060248201527f4f776e61626c653a2063616c6c6572206973206e6f7420746865206f776e65726044820152fd5b1561122857565b606460405160e560020a62461bcd02815260206004820152601860248201527f4552433732313a20696e76616c696420746f6b656e20494400000000000000006044820152fd5b6000526002602052600160a060020a0360406000205416611291811515611221565b90565b6112b761057b826000526002602052600160a060020a0360406000205416151590565b6000526004602052600160a060020a036040600020541690565b156112d857565b608460405160e560020a62461bcd02815260206004820152602d60248201527f4552433732313a2063616c6c6572206973206e6f7420746f6b656e206f776e6560448201527f72206f7220617070726f766564000000000000000000000000000000000000006064820152fd5b90611369939291611359610c2384336113ee565b6113648383836114d0565b61166d565b1561137057565b60405160e560020a62461bcd0281528061138c60048201611390565b0390fd5b60809060208152603260208201527f4552433732313a207472616e7366657220746f206e6f6e20455243373231526560408201527f63656976657220696d706c656d656e746572000000000000000000000000000060608201520190565b90600160a060020a0380806114028461126f565b16931691838314938415611435575b50831561141f575b50505090565b61142b91929350611294565b1614388080611419565b909350600052600560205260406000208260005260205260ff604060002054169238611411565b1561146357565b608460405160e560020a62461bcd02815260206004820152602560248201527f4552433732313a207472616e736665722066726f6d20696e636f72726563742060448201527f6f776e65720000000000000000000000000000000000000000000000000000006064820152fd5b906114f992916114df8361126f565b91600160a060020a0394859384809416968791161461145c565b1690811561160157836115169161150f8561126f565b161461145c565b6000928284526004602052604091828520600160a060020a0319908181541690558286526003602052838620600019815401905581865283862060018154019055848652600260205281848720918254161790558381837fddf252ad1be2c89b69c2b068fc378daa952ba7f163c4a11628f55a4df523b3ef8880a484526009602052818420805490680100000000000000008210156115ea5784610371836115c99360016115d799989796018155611823565b845260096020528320611823565b909160088354920260020a900319169055565b60248660e060020a634e487b710281526041600452fd5b608460405160e560020a62461bcd028152602060048201526024808201527f4552433732313a207472616e7366657220746f20746865207a65726f2061646460448201527f72657373000000000000000000000000000000000000000000000000000000006064820152fd5b9293600093909291803b156117ca579484916116e196604051809481937f150b7a020000000000000000000000000000000000000000000000000000000097888452336004850152600160a060020a0380921660248501526044840152608060648401528260209b8c9760848301906110cd565b0393165af1849181611775575b5061174f575050503d600014611747573d61170881611173565b906117166040519283610fed565b81528091833d92013e5b805191826117445760405160e560020a62461bcd0281528061138c60048201611390565b01fd5b506060611720565b7bffffffffffffffffffffffffffffffffffffffffffffffffffffffff19161492509050565b9091508581813d83116117c3575b61178d8183610fed565b8101031261060c57517bffffffffffffffffffffffffffffffffffffffffffffffffffffffff198116810361060c5790386116ee565b503d611783565b505050915050600190565b156117dc57565b606460405160e560020a62461bcd02815260206004820152601c60248201527f4552433732313a20746f6b656e20616c7265616479206d696e746564000000006044820152fd5b805482101561183b5760005260206000200190600090565b60e060020a634e487b7102600052603260045260246000fdfea2646970667358221220d4519f02ada107f8f00f38f8045be0a75f84e95a8d80cf265e15c1e0b8d80f9464736f6c63430008110033a2646970667358221220ef2feae4ef1ec9fbfb91daea2e9b5c8a78ddf233f0bd01cfad66544e8242019c64736f6c63430008110033",
  "immutableReferences": {},
  "source": "// SPDX-License-Identifier: MIT\r\npragma solidity ^0.8.17;\r\n\r\nimport \"./../interfaces/IW3Link.sol\";\r\nimport \"./../interfaces/IW3LinkApp.sol\";\r\nimport \"./../interfaces/IW3LinkConfig.sol\";\r\n\r\nimport \"./W3NFT.sol\";\r\n\r\nimport \"@openzeppelin/contracts/utils/Context.sol\";\r\n\r\ncontract WhirlExtension is IW3LinkApp, Context {\r\n    IW3Link private _w3link;\r\n    IW3LinkConfig private _w3linkConfig;\r\n    mapping(uint256 => address) private _twlContractIds;\r\n\r\n    mapping(address => address) private _nfts;\r\n\r\n    constructor(address w3link_) {\r\n        _w3link = IW3Link(w3link_);\r\n        _w3linkConfig = IW3LinkConfig(_w3link.config());\r\n    }\r\n\r\n    /// @dev For setting whirl contract ids\r\n    function setTwlContract(uint256 destChainId, address contractId) external {\r\n        _twlContractIds[destChainId] = contractId;\r\n    }\r\n\r\n    /// @dev This functions tell whirl Contract that the minted NFT was burn\r\n    /// and it should unlock the original NFT\r\n    function revoke(address nftContractId, uint256 tokenId) external payable {\r\n        W3NFT nft = W3NFT(_nfts[nftContractId]);\r\n        require(nft.ownerOf(tokenId) == _msgSender(), \"Not owner\");\r\n        nft.burn(tokenId);\r\n\r\n        // Encode data for whirl Contract\r\n        bytes memory data = abi.encode(tokenId, nft.parent(), _msgSender());\r\n\r\n        uint256 estFee = _w3linkConfig.fee(nft.parentId());\r\n        _w3link.deposit{value: estFee}();\r\n\r\n        // Send message to whirl Contract\r\n        _w3link.dispatch(\r\n            _twlContractIds[nft.parentId()],\r\n            data,\r\n            nft.parentId(),\r\n            \"\" /* no extra */\r\n        );\r\n    }\r\n\r\n    /// @dev This function will mint a new similar NFT as locked on whirl Contract\r\n    function execute(\r\n        uint256 fromChainId,\r\n        bytes memory data,\r\n        bytes32 /* extra */\r\n    ) external override {\r\n        _w3linkConfig.onlyHandler();\r\n\r\n        // Decode data from whirl Contract\r\n        (\r\n            uint256 tokenId,\r\n            address fromContractId,\r\n            string memory tokenName,\r\n            string memory tokenSymbol,\r\n            string memory tokenURI,\r\n            address holder\r\n        ) = abi.decode(\r\n                data,\r\n                (uint256, address, string, string, string, address)\r\n            );\r\n\r\n        // Checks if NFT contract as already been created\r\n        // otherwise create it\r\n        if (_nfts[fromContractId] == address(0)) {\r\n            _nfts[fromContractId] = address(\r\n                new W3NFT(tokenName, tokenSymbol, fromContractId, fromChainId)\r\n            );\r\n        }\r\n\r\n        // Mint the NFT\r\n        W3NFT nft = W3NFT(_nfts[fromContractId]);\r\n        nft.mint(holder, tokenId, tokenURI);\r\n    }\r\n\r\n    function onResult(bytes memory data) external override {}\r\n}\r\n",
  "sourcePath": "C:\\Users\\DELL\\Documents\\w3link\\SOLIDITY\\contracts\\whirl\\WhirlExtension.sol",
  "compiler": {
    "name": "solc",
    "version": "0.8.17+commit.8df45f5f.Emscripten.clang"
  },
  "schemaVersion": "3.4.11",
  "updatedAt": "2023-09-23T07:11:14.753Z",
  "devdoc": {
    "kind": "dev",
    "methods": {
      "execute(uint256,bytes,bytes32)": {
        "details": "This function will mint a new similar NFT as locked on whirl Contract"
      },
      "revoke(address,uint256)": {
        "details": "This functions tell whirl Contract that the minted NFT was burn and it should unlock the original NFT"
      },
      "setTwlContract(uint256,address)": {
        "details": "For setting whirl contract ids"
      }
    },
    "version": 1
  },
  "userdoc": {
    "kind": "user",
    "methods": {},
    "version": 1
  }
}