{
  "contractName": "WhirlNFT",
  "abi": [
    {
      "inputs": [
        {
          "internalType": "string",
          "name": "name_",
          "type": "string"
        },
        {
          "internalType": "string",
          "name": "symbol_",
          "type": "string"
        },
        {
          "internalType": "address",
          "name": "parent_",
          "type": "address"
        },
        {
          "internalType": "uint256",
          "name": "parentId_",
          "type": "uint256"
        }
      ],
      "stateMutability": "nonpayable",
      "type": "constructor"
    },
    {
      "anonymous": false,
      "inputs": [
        {
          "indexed": true,
          "internalType": "address",
          "name": "owner",
          "type": "address"
        },
        {
          "indexed": true,
          "internalType": "address",
          "name": "approved",
          "type": "address"
        },
        {
          "indexed": true,
          "internalType": "uint256",
          "name": "tokenId",
          "type": "uint256"
        }
      ],
      "name": "Approval",
      "type": "event"
    },
    {
      "anonymous": false,
      "inputs": [
        {
          "indexed": true,
          "internalType": "address",
          "name": "owner",
          "type": "address"
        },
        {
          "indexed": true,
          "internalType": "address",
          "name": "operator",
          "type": "address"
        },
        {
          "indexed": false,
          "internalType": "bool",
          "name": "approved",
          "type": "bool"
        }
      ],
      "name": "ApprovalForAll",
      "type": "event"
    },
    {
      "anonymous": false,
      "inputs": [
        {
          "indexed": true,
          "internalType": "address",
          "name": "previousOwner",
          "type": "address"
        },
        {
          "indexed": true,
          "internalType": "address",
          "name": "newOwner",
          "type": "address"
        }
      ],
      "name": "OwnershipTransferStarted",
      "type": "event"
    },
    {
      "anonymous": false,
      "inputs": [
        {
          "indexed": true,
          "internalType": "address",
          "name": "previousOwner",
          "type": "address"
        },
        {
          "indexed": true,
          "internalType": "address",
          "name": "newOwner",
          "type": "address"
        }
      ],
      "name": "OwnershipTransferred",
      "type": "event"
    },
    {
      "anonymous": false,
      "inputs": [
        {
          "indexed": true,
          "internalType": "address",
          "name": "from",
          "type": "address"
        },
        {
          "indexed": true,
          "internalType": "address",
          "name": "to",
          "type": "address"
        },
        {
          "indexed": true,
          "internalType": "uint256",
          "name": "tokenId",
          "type": "uint256"
        }
      ],
      "name": "Transfer",
      "type": "event"
    },
    {
      "inputs": [],
      "name": "acceptOwnership",
      "outputs": [],
      "stateMutability": "nonpayable",
      "type": "function"
    },
    {
      "inputs": [
        {
          "internalType": "address",
          "name": "to",
          "type": "address"
        },
        {
          "internalType": "uint256",
          "name": "tokenId",
          "type": "uint256"
        }
      ],
      "name": "approve",
      "outputs": [],
      "stateMutability": "nonpayable",
      "type": "function"
    },
    {
      "inputs": [
        {
          "internalType": "address",
          "name": "owner",
          "type": "address"
        }
      ],
      "name": "balanceOf",
      "outputs": [
        {
          "internalType": "uint256",
          "name": "",
          "type": "uint256"
        }
      ],
      "stateMutability": "view",
      "type": "function"
    },
    {
      "inputs": [
        {
          "internalType": "uint256",
          "name": "tokenId",
          "type": "uint256"
        }
      ],
      "name": "getApproved",
      "outputs": [
        {
          "internalType": "address",
          "name": "",
          "type": "address"
        }
      ],
      "stateMutability": "view",
      "type": "function"
    },
    {
      "inputs": [
        {
          "internalType": "address",
          "name": "owner",
          "type": "address"
        },
        {
          "internalType": "address",
          "name": "operator",
          "type": "address"
        }
      ],
      "name": "isApprovedForAll",
      "outputs": [
        {
          "internalType": "bool",
          "name": "",
          "type": "bool"
        }
      ],
      "stateMutability": "view",
      "type": "function"
    },
    {
      "inputs": [],
      "name": "name",
      "outputs": [
        {
          "internalType": "string",
          "name": "",
          "type": "string"
        }
      ],
      "stateMutability": "view",
      "type": "function"
    },
    {
      "inputs": [],
      "name": "owner",
      "outputs": [
        {
          "internalType": "address",
          "name": "",
          "type": "address"
        }
      ],
      "stateMutability": "view",
      "type": "function"
    },
    {
      "inputs": [
        {
          "internalType": "uint256",
          "name": "tokenId",
          "type": "uint256"
        }
      ],
      "name": "ownerOf",
      "outputs": [
        {
          "internalType": "address",
          "name": "",
          "type": "address"
        }
      ],
      "stateMutability": "view",
      "type": "function"
    },
    {
      "inputs": [],
      "name": "pendingOwner",
      "outputs": [
        {
          "internalType": "address",
          "name": "",
          "type": "address"
        }
      ],
      "stateMutability": "view",
      "type": "function"
    },
    {
      "inputs": [],
      "name": "renounceOwnership",
      "outputs": [],
      "stateMutability": "nonpayable",
      "type": "function"
    },
    {
      "inputs": [
        {
          "internalType": "address",
          "name": "from",
          "type": "address"
        },
        {
          "internalType": "address",
          "name": "to",
          "type": "address"
        },
        {
          "internalType": "uint256",
          "name": "tokenId",
          "type": "uint256"
        }
      ],
      "name": "safeTransferFrom",
      "outputs": [],
      "stateMutability": "nonpayable",
      "type": "function"
    },
    {
      "inputs": [
        {
          "internalType": "address",
          "name": "from",
          "type": "address"
        },
        {
          "internalType": "address",
          "name": "to",
          "type": "address"
        },
        {
          "internalType": "uint256",
          "name": "tokenId",
          "type": "uint256"
        },
        {
          "internalType": "bytes",
          "name": "data",
          "type": "bytes"
        }
      ],
      "name": "safeTransferFrom",
      "outputs": [],
      "stateMutability": "nonpayable",
      "type": "function"
    },
    {
      "inputs": [
        {
          "internalType": "address",
          "name": "operator",
          "type": "address"
        },
        {
          "internalType": "bool",
          "name": "approved",
          "type": "bool"
        }
      ],
      "name": "setApprovalForAll",
      "outputs": [],
      "stateMutability": "nonpayable",
      "type": "function"
    },
    {
      "inputs": [
        {
          "internalType": "bytes4",
          "name": "interfaceId",
          "type": "bytes4"
        }
      ],
      "name": "supportsInterface",
      "outputs": [
        {
          "internalType": "bool",
          "name": "",
          "type": "bool"
        }
      ],
      "stateMutability": "view",
      "type": "function"
    },
    {
      "inputs": [],
      "name": "symbol",
      "outputs": [
        {
          "internalType": "string",
          "name": "",
          "type": "string"
        }
      ],
      "stateMutability": "view",
      "type": "function"
    },
    {
      "inputs": [
        {
          "internalType": "address",
          "name": "from",
          "type": "address"
        },
        {
          "internalType": "address",
          "name": "to",
          "type": "address"
        },
        {
          "internalType": "uint256",
          "name": "tokenId",
          "type": "uint256"
        }
      ],
      "name": "transferFrom",
      "outputs": [],
      "stateMutability": "nonpayable",
      "type": "function"
    },
    {
      "inputs": [
        {
          "internalType": "address",
          "name": "newOwner",
          "type": "address"
        }
      ],
      "name": "transferOwnership",
      "outputs": [],
      "stateMutability": "nonpayable",
      "type": "function"
    },
    {
      "inputs": [
        {
          "internalType": "address",
          "name": "to",
          "type": "address"
        },
        {
          "internalType": "uint256",
          "name": "tokenId",
          "type": "uint256"
        },
        {
          "internalType": "string",
          "name": "uri",
          "type": "string"
        }
      ],
      "name": "mint",
      "outputs": [],
      "stateMutability": "nonpayable",
      "type": "function"
    },
    {
      "inputs": [
        {
          "internalType": "uint256",
          "name": "tokenId",
          "type": "uint256"
        }
      ],
      "name": "burn",
      "outputs": [],
      "stateMutability": "nonpayable",
      "type": "function"
    },
    {
      "inputs": [
        {
          "internalType": "uint256",
          "name": "tokenId",
          "type": "uint256"
        }
      ],
      "name": "tokenURI",
      "outputs": [
        {
          "internalType": "string",
          "name": "",
          "type": "string"
        }
      ],
      "stateMutability": "view",
      "type": "function"
    },
    {
      "inputs": [],
      "name": "parent",
      "outputs": [
        {
          "internalType": "address",
          "name": "",
          "type": "address"
        }
      ],
      "stateMutability": "view",
      "type": "function"
    },
    {
      "inputs": [],
      "name": "parentId",
      "outputs": [
        {
          "internalType": "uint256",
          "name": "",
          "type": "uint256"
        }
      ],
      "stateMutability": "view",
      "type": "function"
    }
  ],
  "bytecode": "0x6080604052346200040c5762001ac4803803806200001d8162000411565b9283398101906080818303126200040c5780516001604060020a03908181116200040c57836200004f91840162000437565b9260209081840151908382116200040c576200006d91850162000437565b60408401519094600160a060020a03948583169391928490036200040c5760600151938251818111620003dd576000938454936002928386049260018097168015620003d2575b83851014620003a5578190601f9485811162000353575b508390858311600114620002e9578992620002dd575b505060088202850a6000190419169084021786555b8951938411620002b05784548584820491168015620002a5575b82821014620002785782811162000232575b508091808511600114620001c3575050849596979883949593620001b7575b505082810292600802900a6000190419161790555b600160a060020a03199081600754166007556006549033838316176006557f8be0079c531659141344cd1fd0a4f28419497f9722a3daafe3b4186f6b6457e0604051963393169180a36009541617600955600a5561161a9081620004aa8239f35b01519150388062000141565b9091601f9493941984169a8688528388209388905b8d82106200021a575050848798999a9b9c10620001fe575b505050500201905562000156565b0151908316600802840a600019041916905538808080620001f0565b808985978294968601518155019601930190620001d8565b858752818720828481818901048301938289106200026e575b0104019086905b8281106200026257505062000122565b88815501869062000252565b935082936200024b565b6024877f4e487b710000000000000000000000000000000000000000000000000000000081526022600452fd5b90607f169062000110565b6024867f4e487b710000000000000000000000000000000000000000000000000000000081526041600452fd5b015190503880620000e1565b898052848a208994508793929091601f1984168c5b888282106200033957505084116200031e575b50505002018655620000f6565b0151600883881602840a600019041916905538808062000311565b8484015186558d988c9850909501949384019301620002fe565b909150888052838920848681818701048301938287106200039b575b9186959493918c93010401915b8281106200038c575050620000cb565b8b81558594508a91016200037c565b935082936200036f565b6024887f4e487b710000000000000000000000000000000000000000000000000000000081526022600452fd5b93607f1693620000b4565b7f4e487b7100000000000000000000000000000000000000000000000000000000600052604160045260246000fd5b600080fd5b6040519190601f01601f191682016001604060020a03811183821017620003dd57604052565b919080601f840112156200040c5782516001604060020a038111620003dd576020906200046d601f8201601f1916830162000411565b928184528282870101116200040c5760005b8181106200049557508260009394955001015290565b85810183015184820184015282016200047f56fe60806040908082526004918236101561001757600080fd5b6000927c010000000000000000000000000000000000000000000000000000000084350492836301ffc9a714610dbc5750826306fdde0314610d14578263081812fc14610cec578263095ea7b314610b50578263186e811b14610b3157826323b872dd14610b0757826342842e0e14610ab65783836342966c6814610a1d5750826360f96a8f146109f55782636352211e146109c557826370a0823114610919578263715018a6146108bc57826379ba5097146107e15782638da5cb5b146107b957826395d89b41146106d7578263a22cb46514610609578263b88d4fde146105a1578263c87b56dd14610496578263d3fc98641461021e57508163e30c3978146101f6578163e985e9c5146101a4575063f2fde38b1461013757600080fd5b346101a15760203660031901126101a157610150610ec8565b610158610fbc565b600160a060020a038091169081600160a060020a03196007541617600755600654167f38d16b8cac22d99fc7c124b9cd0de2d3fa1faef420bfe791d8c362d765e227008380a380f35b80fd5b9050346101f257806003193601126101f25760ff816020936101c4610ec8565b6101cc610ee3565b600160a060020a0391821683526005875283832091168252855220549151911615158152f35b5080fd5b9050346101f257816003193601126101f257602090600160a060020a03600754169051908152f35b8390346101f25760603660031901126101f257610239610ec8565b926024356044359167ffffffffffffffff92838111610492573660238201121561049257610278600160a060020a039136906024818901359101610f85565b96610281610fbc565b1690811561044c576102b26102ac846000526002602052600160a060020a0360406000205416151590565b15611596565b6102d56102ac846000526002602052600160a060020a0360406000205416151590565b81865260209260038452818720926001938481540190558188526002855282882081600160a060020a0319825416179055877fddf252ad1be2c89b69c2b068fc378daa952ba7f163c4a11628f55a4df523b3ef8180a46008835285209386519384116104365750610346845461108a565b601f81116103f2575b5081601f841160011461038d575050839482939492610382575b5050816002029160080260020a60001904191617905580f35b015190508480610369565b909291601f198316968587528287209287905b8982106103db57505083600295969798106103c0575b5050500201905580f35b01516008601f841602840a60001904191690558580806103b6565b8087859682949686015181550195019301906103a0565b8486528286208380601f87010482019281871061042c575b601f0104019082905b82811061042157505061034f565b878155018290610413565b919250829161040a565b85604160249260e060020a634e487b7102835252fd5b846020606492519160e560020a62461bcd028352820152602060248201527f4552433732313a206d696e7420746f20746865207a65726f20616464726573736044820152fd5b8580fd5b91503461059d576020918260031936011261059957356104d46104cf826000526002602052600160a060020a0360406000205416151590565b611017565b8352600882528083208151938491818154906104ef8261108a565b92838652600192888482169182600014610570575050600114610532575b858861052e8961051f848a0385610f2e565b51928284938452830190610e88565b0390f35b87945081939291528383205b828410610558575050508201018161051f61052e3861050d565b8054848a01860152889550879490930192810161053e565b60ff19168882015294151585028701909401945085935061051f925061052e915038905061050d565b8380fd5b8280fd5b8390346101f25760803660031901126101f2576105bc610ec8565b6105c4610ee3565b9060643567ffffffffffffffff8111610605573660238201121561060557610602938160246105f893369301359101610f85565b9160443591611179565b80f35b8480fd5b91503461059d578060031936011261059d57610623610ec8565b906024359182151580930361060557600160a060020a0316928333146106925750338452600560205280842083855260205280842060ff1981541660ff8416179055519081527f17307eab39ab6107e8899845ad3d59bd9653f200f220920489ca2b5937696c3160203392a380f35b6020606492519160e560020a62461bcd028352820152601960248201527f4552433732313a20617070726f766520746f2063616c6c6572000000000000006044820152fd5b8382346101f257816003193601126101f2578051908260018054916106fb8361108a565b808652928281169081156107925750600114610736575b5050506107248261052e940383610f2e565b51918291602083526020830190610e88565b94508085527fb10e2d527612073b26eecdfd717e6a320cf44b4afac2b0732d9fcbe2b7fa0cf65b82861061077a5750505061072482602061052e9582010194610712565b8054602087870181019190915290950194810161075d565b61052e97508693506020925061072494915060ff1916828401521515810282010194610712565b8382346101f257816003193601126101f257602090600160a060020a03600654169051908152f35b91503461059d578260031936011261059d5760075491600160a060020a03913383851603610850575050600160a060020a03198092166007556006549133908316176006553391167f8be0079c531659141344cd1fd0a4f28419497f9722a3daafe3b4186f6b6457e08380a380f35b906020608492519160e560020a62461bcd028352820152602960248201527f4f776e61626c6532537465703a2063616c6c6572206973206e6f74207468652060448201527f6e6577206f776e657200000000000000000000000000000000000000000000006064820152fd5b83346101a157806003193601126101a1576108d5610fbc565b80600160a060020a0380198060075416600755600654908116600655167f8be0079c531659141344cd1fd0a4f28419497f9722a3daafe3b4186f6b6457e08280a380f35b8390346101f25760203660031901126101f257600160a060020a0361093c610ec8565b169081156109595760208480858581526003845220549051908152f35b608490602085519160e560020a62461bcd028352820152602960248201527f4552433732313a2061646472657373207a65726f206973206e6f74206120766160448201527f6c6964206f776e657200000000000000000000000000000000000000000000006064820152fd5b9083346101a15760203660031901126101a15750600160a060020a036109ed60209335611065565b915191168152f35b8382346101f257816003193601126101f257602090600160a060020a03600954169051908152f35b8092346101f25760203660031901126101f257823592610a3b610fbc565b610a4484611065565b50610a4e84611065565b90848452602052600160a060020a0382842091811992838154169055169182845260036020528084206000198154019055848452600260205283209081541690557fddf252ad1be2c89b69c2b068fc378daa952ba7f163c4a11628f55a4df523b3ef8280a480f35b8382346101f257610ac636610ef9565b91835193602085019085821067ffffffffffffffff831117610af15761060296975052858452611179565b60248760418a60e060020a634e487b7102835252fd5b83346101a157610602610b1936610ef9565b91610b2c610b278433611222565b611105565b611304565b8382346101f257816003193601126101f257602090600a549051908152f35b9091503461059d578160031936011261059d57610b6b610ec8565b9060243592600160a060020a03918280610b8487611065565b16941693808514610c8057803314908115610c61575b5015610bf6578486526020528420805473ffffffffffffffffffffffffffffffffffffffff191683179055610bce83611065565b167f8c5be1e5ebec7d5bd14f71427d1e84f3dd0314c0f7b2291e5b200ac8c7c3b9258480a480f35b6020608492519160e560020a62461bcd028352820152603d60248201527f4552433732313a20617070726f76652063616c6c6572206973206e6f7420746f60448201527f6b656e206f776e6572206f7220617070726f76656420666f7220616c6c0000006064820152fd5b90508652600560205281862033875260205260ff828720541638610b9a565b506020608492519160e560020a62461bcd028352820152602160248201527f4552433732313a20617070726f76616c20746f2063757272656e74206f776e6560448201527f72000000000000000000000000000000000000000000000000000000000000006064820152fd5b9083346101a15760203660031901126101a15750600160a060020a036109ed602093356110c8565b8382346101f257816003193601126101f257805190828054610d358161108a565b808552916001918083169081156107925750600114610d60575050506107248261052e940383610f2e565b80809650527f290decd9548b62a8d60345a988386fc84ba6bc95484008f6362f93160ef3e5635b828610610da45750505061072482602061052e9582010194610712565b80546020878701810191909152909501948101610d87565b84913461059d57602036600319011261059d57357bffffffffffffffffffffffffffffffffffffffffffffffffffffffff19811680910361059d57602092507f80ac58cd000000000000000000000000000000000000000000000000000000008114908115610e5e575b8115610e34575b5015158152f35b7f01ffc9a70000000000000000000000000000000000000000000000000000000091501483610e2d565b7f5b5e139f0000000000000000000000000000000000000000000000000000000081149150610e26565b919082519283825260005b848110610eb4575050826000602080949584010152601f8019910116010190565b602081830181015184830182015201610e93565b60043590600160a060020a0382168203610ede57565b600080fd5b60243590600160a060020a0382168203610ede57565b6060906003190112610ede57600160a060020a03906004358281168103610ede57916024359081168103610ede579060443590565b90601f8019910116810190811067ffffffffffffffff821117610f5057604052565b60e060020a634e487b7102600052604160045260246000fd5b67ffffffffffffffff8111610f5057601f01601f191660200190565b929192610f9182610f69565b91610f9f6040519384610f2e565b829481845281830111610ede578281602093846000960137010152565b600160a060020a03600654163303610fd057565b606460405160e560020a62461bcd02815260206004820152602060248201527f4f776e61626c653a2063616c6c6572206973206e6f7420746865206f776e65726044820152fd5b1561101e57565b606460405160e560020a62461bcd02815260206004820152601860248201527f4552433732313a20696e76616c696420746f6b656e20494400000000000000006044820152fd5b6000526002602052600160a060020a0360406000205416611087811515611017565b90565b90600160028304921680156110be575b60208310146110a557565b60e060020a634e487b7102600052602260045260246000fd5b91607f169161109a565b6110eb6104cf826000526002602052600160a060020a0360406000205416151590565b6000526004602052600160a060020a036040600020541690565b1561110c57565b608460405160e560020a62461bcd02815260206004820152602d60248201527f4552433732313a2063616c6c6572206973206e6f7420746f6b656e206f776e6560448201527f72206f7220617070726f766564000000000000000000000000000000000000006064820152fd5b9061119d93929161118d610b278433611222565b611198838383611304565b61142e565b156111a457565b60405160e560020a62461bcd028152806111c0600482016111c4565b0390fd5b60809060208152603260208201527f4552433732313a207472616e7366657220746f206e6f6e20455243373231526560408201527f63656976657220696d706c656d656e746572000000000000000000000000000060608201520190565b90600160a060020a03808061123684611065565b16931691838314938415611269575b508315611253575b50505090565b61125f919293506110c8565b161438808061124d565b909350600052600560205260406000208260005260205260ff604060002054169238611245565b1561129757565b608460405160e560020a62461bcd02815260206004820152602560248201527f4552433732313a207472616e736665722066726f6d20696e636f72726563742060448201527f6f776e65720000000000000000000000000000000000000000000000000000006064820152fd5b9061132c9161131284611065565b91600160a060020a03938493848094169485911614611290565b169182156113c257816113499161134286611065565b1614611290565b7fddf252ad1be2c89b69c2b068fc378daa952ba7f163c4a11628f55a4df523b3ef6000848152600460205260408120600160a060020a03199081815416905583825260036020526040822060001981540190558482526040822060018154019055858252600260205284604083209182541617905580a4565b608460405160e560020a62461bcd028152602060048201526024808201527f4552433732313a207472616e7366657220746f20746865207a65726f2061646460448201527f72657373000000000000000000000000000000000000000000000000000000006064820152fd5b9293600093909291803b1561158b579484916114a296604051809481937f150b7a020000000000000000000000000000000000000000000000000000000097888452336004850152600160a060020a0380921660248501526044840152608060648401528260209b8c976084830190610e88565b0393165af1849181611536575b50611510575050503d600014611508573d6114c981610f69565b906114d76040519283610f2e565b81528091833d92013e5b805191826115055760405160e560020a62461bcd028152806111c0600482016111c4565b01fd5b5060606114e1565b7bffffffffffffffffffffffffffffffffffffffffffffffffffffffff19161492509050565b9091508581813d8311611584575b61154e8183610f2e565b8101031261060557517bffffffffffffffffffffffffffffffffffffffffffffffffffffffff19811681036106055790386114af565b503d611544565b505050915050600190565b1561159d57565b606460405160e560020a62461bcd02815260206004820152601c60248201527f4552433732313a20746f6b656e20616c7265616479206d696e746564000000006044820152fdfea2646970667358221220d35b84d21cfc7206d93873be05cec59a4a15164f03df2e76d946f0239fe1745864736f6c63430008110033",
  "immutableReferences": {},
  "source": "// SPDX-License-Identifier: MIT\r\npragma solidity ^0.8.17;\r\n\r\nimport \"@openzeppelin/contracts/access/Ownable2Step.sol\";\r\nimport \"@openzeppelin/contracts/token/ERC721/ERC721.sol\";\r\n\r\ncontract WhirlNFT is ERC721, Ownable2Step {\r\n    mapping(uint256 => string) private _tokenURIS;\r\n\r\n    address private _parent;\r\n    uint256 private _parentId;\r\n\r\n    constructor(\r\n        string memory name_,\r\n        string memory symbol_,\r\n        address parent_,\r\n        uint256 parentId_\r\n    ) ERC721(name_, symbol_) Ownable2Step() {\r\n        _parent = parent_;\r\n        _parentId = parentId_;\r\n    }\r\n\r\n    function mint(\r\n        address to,\r\n        uint256 tokenId,\r\n        string memory uri\r\n    ) external onlyOwner {\r\n        _mint(to, tokenId);\r\n        _tokenURIS[tokenId] = uri;\r\n    }\r\n\r\n    function burn(uint256 tokenId) external onlyOwner {\r\n        _burn(tokenId);\r\n    }\r\n\r\n    function tokenURI(\r\n        uint256 tokenId\r\n    ) public view virtual override returns (string memory) {\r\n        _requireMinted(tokenId);\r\n        return _tokenURIS[tokenId];\r\n    }\r\n\r\n    function parent() external view returns (address) {\r\n        return _parent;\r\n    }\r\n\r\n    function parentId() external view returns (uint256) {\r\n        return _parentId;\r\n    }\r\n}\r\n",
  "sourcePath": "C:\\Users\\DELL\\Documents\\w3link\\solidity\\contracts\\whirl\\WhirlNFT.sol",
  "compiler": {
    "name": "solc",
    "version": "0.8.17+commit.8df45f5f.Emscripten.clang"
  },
  "schemaVersion": "3.4.11",
  "updatedAt": "2023-09-24T22:10:39.953Z",
  "devdoc": {
    "kind": "dev",
    "methods": {
      "acceptOwnership()": {
        "details": "The new owner accepts the ownership transfer."
      },
      "approve(address,uint256)": {
        "details": "See {IERC721-approve}."
      },
      "balanceOf(address)": {
        "details": "See {IERC721-balanceOf}."
      },
      "getApproved(uint256)": {
        "details": "See {IERC721-getApproved}."
      },
      "isApprovedForAll(address,address)": {
        "details": "See {IERC721-isApprovedForAll}."
      },
      "name()": {
        "details": "See {IERC721Metadata-name}."
      },
      "owner()": {
        "details": "Returns the address of the current owner."
      },
      "ownerOf(uint256)": {
        "details": "See {IERC721-ownerOf}."
      },
      "pendingOwner()": {
        "details": "Returns the address of the pending owner."
      },
      "renounceOwnership()": {
        "details": "Leaves the contract without owner. It will not be possible to call `onlyOwner` functions. Can only be called by the current owner. NOTE: Renouncing ownership will leave the contract without an owner, thereby disabling any functionality that is only available to the owner."
      },
      "safeTransferFrom(address,address,uint256)": {
        "details": "See {IERC721-safeTransferFrom}."
      },
      "safeTransferFrom(address,address,uint256,bytes)": {
        "details": "See {IERC721-safeTransferFrom}."
      },
      "setApprovalForAll(address,bool)": {
        "details": "See {IERC721-setApprovalForAll}."
      },
      "supportsInterface(bytes4)": {
        "details": "See {IERC165-supportsInterface}."
      },
      "symbol()": {
        "details": "See {IERC721Metadata-symbol}."
      },
      "tokenURI(uint256)": {
        "details": "See {IERC721Metadata-tokenURI}."
      },
      "transferFrom(address,address,uint256)": {
        "details": "See {IERC721-transferFrom}."
      },
      "transferOwnership(address)": {
        "details": "Starts the ownership transfer of the contract to a new account. Replaces the pending transfer if there is one. Can only be called by the current owner."
      }
    },
    "version": 1
  },
  "userdoc": {
    "kind": "user",
    "methods": {},
    "version": 1
  }
}