{
  "contractName": "WhirlFaucet",
  "abi": [
    {
      "inputs": [
        {
          "internalType": "string",
          "name": "name_",
          "type": "string"
        },
        {
          "internalType": "string",
          "name": "symbol_",
          "type": "string"
        }
      ],
      "stateMutability": "nonpayable",
      "type": "constructor"
    },
    {
      "anonymous": false,
      "inputs": [
        {
          "indexed": true,
          "internalType": "address",
          "name": "owner",
          "type": "address"
        },
        {
          "indexed": true,
          "internalType": "address",
          "name": "approved",
          "type": "address"
        },
        {
          "indexed": true,
          "internalType": "uint256",
          "name": "tokenId",
          "type": "uint256"
        }
      ],
      "name": "Approval",
      "type": "event"
    },
    {
      "anonymous": false,
      "inputs": [
        {
          "indexed": true,
          "internalType": "address",
          "name": "owner",
          "type": "address"
        },
        {
          "indexed": true,
          "internalType": "address",
          "name": "operator",
          "type": "address"
        },
        {
          "indexed": false,
          "internalType": "bool",
          "name": "approved",
          "type": "bool"
        }
      ],
      "name": "ApprovalForAll",
      "type": "event"
    },
    {
      "anonymous": false,
      "inputs": [
        {
          "indexed": true,
          "internalType": "address",
          "name": "owner",
          "type": "address"
        },
        {
          "indexed": false,
          "internalType": "address",
          "name": "tokenAddress",
          "type": "address"
        },
        {
          "indexed": false,
          "internalType": "string",
          "name": "tokenUri",
          "type": "string"
        },
        {
          "indexed": false,
          "internalType": "uint256",
          "name": "tokenId",
          "type": "uint256"
        }
      ],
      "name": "NFTMinted",
      "type": "event"
    },
    {
      "anonymous": false,
      "inputs": [
        {
          "indexed": true,
          "internalType": "address",
          "name": "previousOwner",
          "type": "address"
        },
        {
          "indexed": true,
          "internalType": "address",
          "name": "newOwner",
          "type": "address"
        }
      ],
      "name": "OwnershipTransferStarted",
      "type": "event"
    },
    {
      "anonymous": false,
      "inputs": [
        {
          "indexed": true,
          "internalType": "address",
          "name": "previousOwner",
          "type": "address"
        },
        {
          "indexed": true,
          "internalType": "address",
          "name": "newOwner",
          "type": "address"
        }
      ],
      "name": "OwnershipTransferred",
      "type": "event"
    },
    {
      "anonymous": false,
      "inputs": [
        {
          "indexed": true,
          "internalType": "address",
          "name": "from",
          "type": "address"
        },
        {
          "indexed": true,
          "internalType": "address",
          "name": "to",
          "type": "address"
        },
        {
          "indexed": true,
          "internalType": "uint256",
          "name": "tokenId",
          "type": "uint256"
        }
      ],
      "name": "Transfer",
      "type": "event"
    },
    {
      "inputs": [
        {
          "internalType": "uint256",
          "name": "",
          "type": "uint256"
        }
      ],
      "name": "_tokenURIS",
      "outputs": [
        {
          "internalType": "string",
          "name": "",
          "type": "string"
        }
      ],
      "stateMutability": "view",
      "type": "function",
      "constant": true
    },
    {
      "inputs": [],
      "name": "acceptOwnership",
      "outputs": [],
      "stateMutability": "nonpayable",
      "type": "function"
    },
    {
      "inputs": [
        {
          "internalType": "address",
          "name": "to",
          "type": "address"
        },
        {
          "internalType": "uint256",
          "name": "tokenId",
          "type": "uint256"
        }
      ],
      "name": "approve",
      "outputs": [],
      "stateMutability": "nonpayable",
      "type": "function"
    },
    {
      "inputs": [
        {
          "internalType": "address",
          "name": "owner",
          "type": "address"
        }
      ],
      "name": "balanceOf",
      "outputs": [
        {
          "internalType": "uint256",
          "name": "",
          "type": "uint256"
        }
      ],
      "stateMutability": "view",
      "type": "function",
      "constant": true
    },
    {
      "inputs": [
        {
          "internalType": "uint256",
          "name": "tokenId",
          "type": "uint256"
        }
      ],
      "name": "getApproved",
      "outputs": [
        {
          "internalType": "address",
          "name": "",
          "type": "address"
        }
      ],
      "stateMutability": "view",
      "type": "function",
      "constant": true
    },
    {
      "inputs": [
        {
          "internalType": "address",
          "name": "owner",
          "type": "address"
        },
        {
          "internalType": "address",
          "name": "operator",
          "type": "address"
        }
      ],
      "name": "isApprovedForAll",
      "outputs": [
        {
          "internalType": "bool",
          "name": "",
          "type": "bool"
        }
      ],
      "stateMutability": "view",
      "type": "function",
      "constant": true
    },
    {
      "inputs": [],
      "name": "name",
      "outputs": [
        {
          "internalType": "string",
          "name": "",
          "type": "string"
        }
      ],
      "stateMutability": "view",
      "type": "function",
      "constant": true
    },
    {
      "inputs": [],
      "name": "owner",
      "outputs": [
        {
          "internalType": "address",
          "name": "",
          "type": "address"
        }
      ],
      "stateMutability": "view",
      "type": "function",
      "constant": true
    },
    {
      "inputs": [
        {
          "internalType": "uint256",
          "name": "tokenId",
          "type": "uint256"
        }
      ],
      "name": "ownerOf",
      "outputs": [
        {
          "internalType": "address",
          "name": "",
          "type": "address"
        }
      ],
      "stateMutability": "view",
      "type": "function",
      "constant": true
    },
    {
      "inputs": [],
      "name": "pendingOwner",
      "outputs": [
        {
          "internalType": "address",
          "name": "",
          "type": "address"
        }
      ],
      "stateMutability": "view",
      "type": "function",
      "constant": true
    },
    {
      "inputs": [],
      "name": "renounceOwnership",
      "outputs": [],
      "stateMutability": "nonpayable",
      "type": "function"
    },
    {
      "inputs": [
        {
          "internalType": "address",
          "name": "from",
          "type": "address"
        },
        {
          "internalType": "address",
          "name": "to",
          "type": "address"
        },
        {
          "internalType": "uint256",
          "name": "tokenId",
          "type": "uint256"
        }
      ],
      "name": "safeTransferFrom",
      "outputs": [],
      "stateMutability": "nonpayable",
      "type": "function"
    },
    {
      "inputs": [
        {
          "internalType": "address",
          "name": "from",
          "type": "address"
        },
        {
          "internalType": "address",
          "name": "to",
          "type": "address"
        },
        {
          "internalType": "uint256",
          "name": "tokenId",
          "type": "uint256"
        },
        {
          "internalType": "bytes",
          "name": "data",
          "type": "bytes"
        }
      ],
      "name": "safeTransferFrom",
      "outputs": [],
      "stateMutability": "nonpayable",
      "type": "function"
    },
    {
      "inputs": [
        {
          "internalType": "address",
          "name": "operator",
          "type": "address"
        },
        {
          "internalType": "bool",
          "name": "approved",
          "type": "bool"
        }
      ],
      "name": "setApprovalForAll",
      "outputs": [],
      "stateMutability": "nonpayable",
      "type": "function"
    },
    {
      "inputs": [
        {
          "internalType": "bytes4",
          "name": "interfaceId",
          "type": "bytes4"
        }
      ],
      "name": "supportsInterface",
      "outputs": [
        {
          "internalType": "bool",
          "name": "",
          "type": "bool"
        }
      ],
      "stateMutability": "view",
      "type": "function",
      "constant": true
    },
    {
      "inputs": [],
      "name": "symbol",
      "outputs": [
        {
          "internalType": "string",
          "name": "",
          "type": "string"
        }
      ],
      "stateMutability": "view",
      "type": "function",
      "constant": true
    },
    {
      "inputs": [
        {
          "internalType": "uint256",
          "name": "tokenId",
          "type": "uint256"
        }
      ],
      "name": "tokenURI",
      "outputs": [
        {
          "internalType": "string",
          "name": "",
          "type": "string"
        }
      ],
      "stateMutability": "view",
      "type": "function",
      "constant": true
    },
    {
      "inputs": [
        {
          "internalType": "address",
          "name": "from",
          "type": "address"
        },
        {
          "internalType": "address",
          "name": "to",
          "type": "address"
        },
        {
          "internalType": "uint256",
          "name": "tokenId",
          "type": "uint256"
        }
      ],
      "name": "transferFrom",
      "outputs": [],
      "stateMutability": "nonpayable",
      "type": "function"
    },
    {
      "inputs": [
        {
          "internalType": "address",
          "name": "newOwner",
          "type": "address"
        }
      ],
      "name": "transferOwnership",
      "outputs": [],
      "stateMutability": "nonpayable",
      "type": "function"
    },
    {
      "inputs": [
        {
          "internalType": "string",
          "name": "uri",
          "type": "string"
        }
      ],
      "name": "getFreeNft",
      "outputs": [],
      "stateMutability": "nonpayable",
      "type": "function"
    }
  ],
  "bytecode": "0x608060405234620003e35762001a66803803806200001d81620003e8565b928339810190604081830312620003e3578051916001604060020a0392838111620003e35781620000509184016200040e565b9160209182820151858111620003e3576200006c92016200040e565b928251818111620003b4576000938454936002928386049260018097168015620003a9575b838510146200037c578190601f948581116200032a575b508390858311600114620002c0578992620002b4575b505060088202850a6000190419169084021786555b86519384116200028757845485848204911680156200027c575b828210146200024f5782811162000209575b5080918085116001146200019d57505084958394959362000191575b505082810292600802900a6000190419161790555b60078054600160a060020a03199081169091556006805433928116831790915560405192600160a060020a03909116907f8be0079c531659141344cd1fd0a4f28419497f9722a3daafe3b4186f6b6457e09080a36115e59081620004818239f35b0151915038806200011b565b9091601f949394198416978688528388209388905b8a8210620001f15750508487989910620001d5575b505050500201905562000130565b0151908316600802840a600019041916905538808080620001c7565b808985978294968601518155019601930190620001b2565b8587528187208284818189010483019382891062000245575b0104019086905b82811062000239575050620000ff565b88815501869062000229565b9350829362000222565b6024877f4e487b710000000000000000000000000000000000000000000000000000000081526022600452fd5b90607f1690620000ed565b6024867f4e487b710000000000000000000000000000000000000000000000000000000081526041600452fd5b015190503880620000be565b898052848a208994508793929091601f1984168c5b88828210620003105750508411620002f5575b50505002018655620000d3565b0151600883881602840a6000190419169055388080620002e8565b8484015186558d988c9850909501949384019301620002d5565b9091508880528389208486818187010483019382871062000372575b9186959493918c93010401915b82811062000363575050620000a8565b8b81558594508a910162000353565b9350829362000346565b6024887f4e487b710000000000000000000000000000000000000000000000000000000081526022600452fd5b93607f169362000091565b7f4e487b7100000000000000000000000000000000000000000000000000000000600052604160045260246000fd5b600080fd5b6040519190601f01601f191682016001604060020a03811183821017620003b457604052565b919080601f84011215620003e35782516001604060020a038111620003b45760209062000444601f8201601f19168301620003e8565b92818452828287010111620003e35760005b8181106200046c57508260009394955001015290565b85810183015184820184015282016200045656fe60806040908082526004918236101561001757600080fd5b6000927c010000000000000000000000000000000000000000000000000000000084350492836301ffc9a714610d6b57508263054bf3b114610c9457826306fdde0314610bec578263081812fc14610bc4578263095ea7b314610a2857826323b872dd146109fe57826342842e0e146109ad5782636352211e1461097d57826370a08231146108d1578263715018a61461087457826379ba5097146107995782637f2b8c8c146104ba5782638da5cb5b1461049257826395d89b41146103b0578263a22cb465146102de578263b88d4fde14610276578263c87b56dd1461020657508163e30c3978146101de578163e985e9c51461018c575063f2fde38b1461011f57600080fd5b3461018957602036600319011261018957610138610f0c565b610140610fc5565b600160a060020a038091169081600160a060020a03196007541617600755600654167f38d16b8cac22d99fc7c124b9cd0de2d3fa1faef420bfe791d8c362d765e227008380a380f35b80fd5b9050346101da57806003193601126101da5760ff816020936101ac610f0c565b6101b4610f27565b600160a060020a0391821683526005875283832091168252855220549151911615158152f35b5080fd5b9050346101da57816003193601126101da57602090600160a060020a03600754169051908152f35b8382346101da5760203660031901126101da5761024561024061027294356000526002602052600160a060020a0360406000205416151590565b611020565b81815161025181610e75565b5280519161025e83610e75565b825251918291602083526020830190610ecc565b0390f35b8390346101da5760803660031901126101da57610291610f0c565b610299610f27565b9060643567ffffffffffffffff81116102da57366023820112156102da576102d7938160246102cd93369301359101610f8e565b9160443591611144565b80f35b8480fd5b9150346103ac57806003193601126103ac576102f8610f0c565b90602435918215158093036102da57600160a060020a0316928333146103675750338452600560205280842083855260205280842060ff1981541660ff8416179055519081527f17307eab39ab6107e8899845ad3d59bd9653f200f220920489ca2b5937696c3160203392a380f35b6020606492519160e560020a62461bcd028352820152601960248201527f4552433732313a20617070726f766520746f2063616c6c6572000000000000006044820152fd5b8280fd5b8382346101da57816003193601126101da578051908260018054916103d483610e37565b8086529282811690811561046b575060011461040f575b5050506103fd82610272940383610eaa565b51918291602083526020830190610ecc565b94508085527fb10e2d527612073b26eecdfd717e6a320cf44b4afac2b0732d9fcbe2b7fa0cf65b828610610453575050506103fd82602061027295820101946103eb565b80546020878701810191909152909501948101610436565b6102729750869350602092506103fd94915060ff19168284015215158102820101946103eb565b8382346101da57816003193601126101da57602090600160a060020a03600654169051908152f35b909150346103ac57602090816003193601126107955767ffffffffffffffff81358181116107915736602382011215610791576105009036906024818601359101610f8e565b9160019160089280845401808555331561074d5761053d610537826000526002602052600160a060020a0360406000205416151590565b15611561565b610560610537826000526002602052600160a060020a0360406000205416151590565b33808a5260038852888a20805484019055818a5260028852888a20805473ffffffffffffffffffffffffffffffffffffffff191682179055897fddf252ad1be2c89b69c2b068fc378daa952ba7f163c4a11628f55a4df523b3ef8180a4835488526009865286882092855192831161073757506105dd8354610e37565b601f81116106f3575b508590601f831160011461066b575091817fc838a7fd61cef6ed117ca9829550cd25002c8912a0846c98e8b6ea66a79a80d896959492610653948a91610660575b508160020291840260020a6000190419161790555b549160608651943086528501526060840190610ecc565b938201528033930390a280f35b905085015138610627565b838952868920909291601f1983168a5b8181106106de5750927fc838a7fd61cef6ed117ca9829550cd25002c8912a0846c98e8b6ea66a79a80d89897969492600292826106539896106106c4575b50500201905561063c565b880151601f83168702840a600019041916905538806106b9565b8883015184559285019291890191890161067b565b8389528689208780601f86010482019281861061072d575b601f0104019082905b8281106107225750506105e6565b8a8155018290610714565b919250829161070b565b88604160249260e060020a634e487b7102835252fd5b60648488808b519260e560020a62461bcd02845283015260248201527f4552433732313a206d696e7420746f20746865207a65726f20616464726573736044820152fd5b8580fd5b8380fd5b9150346103ac57826003193601126103ac5760075491600160a060020a03913383851603610808575050600160a060020a03198092166007556006549133908316176006553391167f8be0079c531659141344cd1fd0a4f28419497f9722a3daafe3b4186f6b6457e08380a380f35b906020608492519160e560020a62461bcd028352820152602960248201527f4f776e61626c6532537465703a2063616c6c6572206973206e6f74207468652060448201527f6e6577206f776e657200000000000000000000000000000000000000000000006064820152fd5b833461018957806003193601126101895761088d610fc5565b80600160a060020a0380198060075416600755600654908116600655167f8be0079c531659141344cd1fd0a4f28419497f9722a3daafe3b4186f6b6457e08280a380f35b8390346101da5760203660031901126101da57600160a060020a036108f4610f0c565b169081156109115760208480858581526003845220549051908152f35b608490602085519160e560020a62461bcd028352820152602960248201527f4552433732313a2061646472657373207a65726f206973206e6f74206120766160448201527f6c6964206f776e657200000000000000000000000000000000000000000000006064820152fd5b9083346101895760203660031901126101895750600160a060020a036109a56020933561106e565b915191168152f35b8382346101da576109bd36610f3d565b91835193602085019085821067ffffffffffffffff8311176109e8576102d796975052858452611144565b60248760418a60e060020a634e487b7102835252fd5b8334610189576102d7610a1036610f3d565b91610a23610a1e84336111ed565b6110d0565b6112cf565b909150346103ac57816003193601126103ac57610a43610f0c565b9060243592600160a060020a03918280610a5c8761106e565b16941693808514610b5857803314908115610b39575b5015610ace578486526020528420805473ffffffffffffffffffffffffffffffffffffffff191683179055610aa68361106e565b167f8c5be1e5ebec7d5bd14f71427d1e84f3dd0314c0f7b2291e5b200ac8c7c3b9258480a480f35b6020608492519160e560020a62461bcd028352820152603d60248201527f4552433732313a20617070726f76652063616c6c6572206973206e6f7420746f60448201527f6b656e206f776e6572206f7220617070726f76656420666f7220616c6c0000006064820152fd5b90508652600560205281862033875260205260ff828720541638610a72565b506020608492519160e560020a62461bcd028352820152602160248201527f4552433732313a20617070726f76616c20746f2063757272656e74206f776e6560448201527f72000000000000000000000000000000000000000000000000000000000000006064820152fd5b9083346101895760203660031901126101895750600160a060020a036109a560209335611093565b8382346101da57816003193601126101da57805190828054610c0d81610e37565b8085529160019180831690811561046b5750600114610c38575050506103fd82610272940383610eaa565b80809650527f290decd9548b62a8d60345a988386fc84ba6bc95484008f6362f93160ef3e5635b828610610c7c575050506103fd82602061027295820101946103eb565b80546020878701810191909152909501948101610c5f565b9150346103ac57602091826003193601126107955735835260098252808320815193849181815490610cc582610e37565b92838652600192888482169182600014610d42575050600114610d04575b858861027289610cf5848a0385610eaa565b51928284938452830190610ecc565b87945081939291528383205b828410610d2a5750505082010181610cf561027238610ce3565b8054848a018601528895508794909301928101610d10565b60ff191688820152941515850287019094019450859350610cf592506102729150389050610ce3565b8491346103ac5760203660031901126103ac57357bffffffffffffffffffffffffffffffffffffffffffffffffffffffff1981168091036103ac57602092507f80ac58cd000000000000000000000000000000000000000000000000000000008114908115610e0d575b8115610de3575b5015158152f35b7f01ffc9a70000000000000000000000000000000000000000000000000000000091501483610ddc565b7f5b5e139f0000000000000000000000000000000000000000000000000000000081149150610dd5565b9060016002830492168015610e6b575b6020831014610e5257565b60e060020a634e487b7102600052602260045260246000fd5b91607f1691610e47565b6020810190811067ffffffffffffffff821117610e9157604052565b60e060020a634e487b7102600052604160045260246000fd5b90601f8019910116810190811067ffffffffffffffff821117610e9157604052565b919082519283825260005b848110610ef8575050826000602080949584010152601f8019910116010190565b602081830181015184830182015201610ed7565b60043590600160a060020a0382168203610f2257565b600080fd5b60243590600160a060020a0382168203610f2257565b6060906003190112610f2257600160a060020a03906004358281168103610f2257916024359081168103610f22579060443590565b67ffffffffffffffff8111610e9157601f01601f191660200190565b929192610f9a82610f72565b91610fa86040519384610eaa565b829481845281830111610f22578281602093846000960137010152565b600160a060020a03600654163303610fd957565b606460405160e560020a62461bcd02815260206004820152602060248201527f4f776e61626c653a2063616c6c6572206973206e6f7420746865206f776e65726044820152fd5b1561102757565b606460405160e560020a62461bcd02815260206004820152601860248201527f4552433732313a20696e76616c696420746f6b656e20494400000000000000006044820152fd5b6000526002602052600160a060020a0360406000205416611090811515611020565b90565b6110b6610240826000526002602052600160a060020a0360406000205416151590565b6000526004602052600160a060020a036040600020541690565b156110d757565b608460405160e560020a62461bcd02815260206004820152602d60248201527f4552433732313a2063616c6c6572206973206e6f7420746f6b656e206f776e6560448201527f72206f7220617070726f766564000000000000000000000000000000000000006064820152fd5b90611168939291611158610a1e84336111ed565b6111638383836112cf565b6113f9565b1561116f57565b60405160e560020a62461bcd0281528061118b6004820161118f565b0390fd5b60809060208152603260208201527f4552433732313a207472616e7366657220746f206e6f6e20455243373231526560408201527f63656976657220696d706c656d656e746572000000000000000000000000000060608201520190565b90600160a060020a0380806112018461106e565b16931691838314938415611234575b50831561121e575b50505090565b61122a91929350611093565b1614388080611218565b909350600052600560205260406000208260005260205260ff604060002054169238611210565b1561126257565b608460405160e560020a62461bcd02815260206004820152602560248201527f4552433732313a207472616e736665722066726f6d20696e636f72726563742060448201527f6f776e65720000000000000000000000000000000000000000000000000000006064820152fd5b906112f7916112dd8461106e565b91600160a060020a0393849384809416948591161461125b565b1691821561138d57816113149161130d8661106e565b161461125b565b7fddf252ad1be2c89b69c2b068fc378daa952ba7f163c4a11628f55a4df523b3ef6000848152600460205260408120600160a060020a03199081815416905583825260036020526040822060001981540190558482526040822060018154019055858252600260205284604083209182541617905580a4565b608460405160e560020a62461bcd028152602060048201526024808201527f4552433732313a207472616e7366657220746f20746865207a65726f2061646460448201527f72657373000000000000000000000000000000000000000000000000000000006064820152fd5b9293600093909291803b156115565794849161146d96604051809481937f150b7a020000000000000000000000000000000000000000000000000000000097888452336004850152600160a060020a0380921660248501526044840152608060648401528260209b8c976084830190610ecc565b0393165af1849181611501575b506114db575050503d6000146114d3573d61149481610f72565b906114a26040519283610eaa565b81528091833d92013e5b805191826114d05760405160e560020a62461bcd0281528061118b6004820161118f565b01fd5b5060606114ac565b7bffffffffffffffffffffffffffffffffffffffffffffffffffffffff19161492509050565b9091508581813d831161154f575b6115198183610eaa565b810103126102da57517bffffffffffffffffffffffffffffffffffffffffffffffffffffffff19811681036102da57903861147a565b503d61150f565b505050915050600190565b1561156857565b606460405160e560020a62461bcd02815260206004820152601c60248201527f4552433732313a20746f6b656e20616c7265616479206d696e746564000000006044820152fdfea2646970667358221220350c9d9e58a597cdf4ef6160a2aa944d2550ff7b36793bd203eb02fc6771de1864736f6c63430008110033",
  "immutableReferences": {},
  "source": "// SPDX-License-Identifier: MIT\r\npragma solidity ^0.8.17;\r\n\r\nimport \"@openzeppelin/contracts/utils/Counters.sol\";\r\nimport \"@openzeppelin/contracts/token/ERC721/ERC721.sol\";\r\nimport \"@openzeppelin/contracts/access/Ownable2Step.sol\";\r\n\r\ncontract WhirlFaucet is ERC721, Ownable2Step {\r\n    using Counters for Counters.Counter;\r\n\r\n    Counters.Counter private _tokenId;\r\n\r\n    mapping(uint256 => string) public _tokenURIS;\r\n\r\n    event NFTMinted(\r\n        address indexed owner,\r\n        address tokenAddress,\r\n        string tokenUri,\r\n        uint256 tokenId\r\n    );\r\n\r\n    constructor(\r\n        string memory name_,\r\n        string memory symbol_\r\n    ) ERC721(name_, symbol_) Ownable2Step() {}\r\n\r\n    function getFreeNft(string memory uri) external {\r\n        _tokenId.increment();\r\n\r\n        _mint(_msgSender(), _tokenId.current());\r\n        _tokenURIS[_tokenId.current()] = uri;\r\n\r\n        emit NFTMinted(_msgSender(), address(this), uri, _tokenId.current());\r\n    }\r\n}\r\n",
  "sourcePath": "C:\\Users\\DELL\\Documents\\w3link\\solidity\\contracts\\whirl\\WhirlFaucet.sol",
  "compiler": {
    "name": "solc",
    "version": "0.8.17+commit.8df45f5f.Emscripten.clang"
  },
  "schemaVersion": "3.4.11",
  "updatedAt": "2023-09-23T22:57:02.720Z",
  "networkType": "ethereum",
  "devdoc": {
    "kind": "dev",
    "methods": {
      "acceptOwnership()": {
        "details": "The new owner accepts the ownership transfer."
      },
      "approve(address,uint256)": {
        "details": "See {IERC721-approve}."
      },
      "balanceOf(address)": {
        "details": "See {IERC721-balanceOf}."
      },
      "getApproved(uint256)": {
        "details": "See {IERC721-getApproved}."
      },
      "isApprovedForAll(address,address)": {
        "details": "See {IERC721-isApprovedForAll}."
      },
      "name()": {
        "details": "See {IERC721Metadata-name}."
      },
      "owner()": {
        "details": "Returns the address of the current owner."
      },
      "ownerOf(uint256)": {
        "details": "See {IERC721-ownerOf}."
      },
      "pendingOwner()": {
        "details": "Returns the address of the pending owner."
      },
      "renounceOwnership()": {
        "details": "Leaves the contract without owner. It will not be possible to call `onlyOwner` functions. Can only be called by the current owner. NOTE: Renouncing ownership will leave the contract without an owner, thereby disabling any functionality that is only available to the owner."
      },
      "safeTransferFrom(address,address,uint256)": {
        "details": "See {IERC721-safeTransferFrom}."
      },
      "safeTransferFrom(address,address,uint256,bytes)": {
        "details": "See {IERC721-safeTransferFrom}."
      },
      "setApprovalForAll(address,bool)": {
        "details": "See {IERC721-setApprovalForAll}."
      },
      "supportsInterface(bytes4)": {
        "details": "See {IERC165-supportsInterface}."
      },
      "symbol()": {
        "details": "See {IERC721Metadata-symbol}."
      },
      "tokenURI(uint256)": {
        "details": "See {IERC721Metadata-tokenURI}."
      },
      "transferFrom(address,address,uint256)": {
        "details": "See {IERC721-transferFrom}."
      },
      "transferOwnership(address)": {
        "details": "Starts the ownership transfer of the contract to a new account. Replaces the pending transfer if there is one. Can only be called by the current owner."
      }
    },
    "version": 1
  },
  "userdoc": {
    "kind": "user",
    "methods": {},
    "version": 1
  }
}