{
  "contractName": "Whirl",
  "abi": [
    {
      "inputs": [
        {
          "internalType": "address",
          "name": "w3link_",
          "type": "address"
        }
      ],
      "stateMutability": "nonpayable",
      "type": "constructor"
    },
    {
      "anonymous": false,
      "inputs": [
        {
          "indexed": false,
          "internalType": "address",
          "name": "tokenAddress",
          "type": "address"
        },
        {
          "indexed": false,
          "internalType": "uint256",
          "name": "tokenId",
          "type": "uint256"
        },
        {
          "indexed": false,
          "internalType": "address",
          "name": "from",
          "type": "address"
        },
        {
          "indexed": false,
          "internalType": "address",
          "name": "to",
          "type": "address"
        }
      ],
      "name": "NFTransferred",
      "type": "event"
    },
    {
      "inputs": [
        {
          "internalType": "uint256",
          "name": "destChainId",
          "type": "uint256"
        }
      ],
      "name": "estimateFee",
      "outputs": [
        {
          "internalType": "uint256",
          "name": "",
          "type": "uint256"
        }
      ],
      "stateMutability": "view",
      "type": "function"
    },
    {
      "inputs": [
        {
          "internalType": "uint256",
          "name": "destChainId",
          "type": "uint256"
        },
        {
          "internalType": "address",
          "name": "contractId",
          "type": "address"
        }
      ],
      "name": "setExtContract",
      "outputs": [],
      "stateMutability": "nonpayable",
      "type": "function"
    },
    {
      "inputs": [
        {
          "internalType": "uint256",
          "name": "destChainId",
          "type": "uint256"
        },
        {
          "internalType": "uint256",
          "name": "tokenId",
          "type": "uint256"
        },
        {
          "internalType": "address",
          "name": "nftContractId",
          "type": "address"
        }
      ],
      "name": "bridge",
      "outputs": [],
      "stateMutability": "payable",
      "type": "function"
    },
    {
      "inputs": [
        {
          "internalType": "uint256",
          "name": "",
          "type": "uint256"
        },
        {
          "internalType": "bytes",
          "name": "data",
          "type": "bytes"
        },
        {
          "internalType": "bytes32",
          "name": "",
          "type": "bytes32"
        }
      ],
      "name": "execute",
      "outputs": [],
      "stateMutability": "nonpayable",
      "type": "function"
    },
    {
      "inputs": [
        {
          "internalType": "bytes",
          "name": "data",
          "type": "bytes"
        }
      ],
      "name": "onResult",
      "outputs": [],
      "stateMutability": "nonpayable",
      "type": "function"
    }
  ],
  "bytecode": "0x608080604052346100df57610b60803803809161001c82856100e4565b8339600160a060020a039182916100369190810190610135565b169060046020600160a060020a03199380856000541617600055604051928380927f79502c550000000000000000000000000000000000000000000000000000000082525afa9081156100d3576000916100a5575b5016906001541617600155604051610a0b90816101558239f35b6100c6915060203d81116100cc575b6100be81836100e4565b810190610135565b3861008b565b503d6100b4565b6040513d6000823e3d90fd5b600080fd5b90601f8019910116810190811067ffffffffffffffff82111761010657604052565b7f4e487b7100000000000000000000000000000000000000000000000000000000600052604160045260246000fd5b908160209103126100df5751600160a060020a03811681036100df579056fe6080604081815260048036101561001557600080fd5b6000927c0100000000000000000000000000000000000000000000000000000000843504908163127e8e4d1461077f575080631cf1b97c146102cd578063573043281461028457806382408bb81461024f5763913bebdc1461007657600080fd5b3461022d57606036600319011261022d5767ffffffffffffffff91602435838111610217576100a890369084016108c7565b9084600160a060020a038060015416803b1561022d57828091878651809481937fb11d16fb0000000000000000000000000000000000000000000000000000000083525af1801561024557908391610231575b50508351840160808582031261022d57610117602086016109c1565b6101228587016109c1565b9760608701519660808101519182116102295760206101479281879601920101610931565b5016951693843b156102255782517f23b872dd00000000000000000000000000000000000000000000000000000000815230918101918252600160a060020a03871660208301526040820185905290829082908190606001038183895af1801561021b57610203575b505051600160a060020a0392831681526020810191909152306040820152911660608201527fae62e955921d2efa2e797012d2562b552cf550fa049f70a00af4e0c1f4b5ce319080608081015b0390a180f35b61020c9061082a565b6102175784386101b0565b8480fd5b83513d84823e3d90fd5b5080fd5b8580fd5b8280fd5b61023a9061082a565b6102255781386100fb565b84513d85823e3d90fd5b8382346102255760203660031901126102255780359067ffffffffffffffff821161022d57610280913691016108c7565b5080f35b50903461022d578060031936011261022d5760243591600160a060020a0383168093036102c8573583526002602052822090600160a060020a031982541617905580f35b600080fd5b50606036600319011261022d5780356024359160443591600160a060020a03808416908185036106af57813b156106af5786517f23b872dd0000000000000000000000000000000000000000000000000000000081523385820190815230602082015260408101889052899082908190606001038183875af180156107755761075c575b50908793929187517f06fdde0300000000000000000000000000000000000000000000000000000000815285818681865afa908115610752578691610738575b508851907f95d89b4100000000000000000000000000000000000000000000000000000000825286828781875afa9182156106a557879261071c575b508951917fc87b56dd00000000000000000000000000000000000000000000000000000000835289878401528a8884602481895afa938415610712578b9461047994610467928c80936106e4575b50506104446104579185519a8b9660209a8b89015287015260c0606087015260e086019061099c565b601f19958686830301608087015261099c565b90848483030160a085015261099c565b3360c083015203908101855284610889565b60248183600154168b51928380927f39b37ab0000000000000000000000000000000000000000000000000000000008252898b8301525afa9081156106a55787916106b3575b5082875416803b156106af578790878c51809481937fd0e30db00000000000000000000000000000000000000000000000000000000083525af19081156106a5578791610691575b5082905416918487526002825289872054169089518181017f776869726c00000000000000000000000000000000000000000000000000000081526005825261054f8261086d565b600160a060020a031991519020168a51828101916bffffffffffffffffffffffff196c01000000000000000000000000330216835260348201528281526105958161086d565b51905191808210610680575b5050823b1561067c576105f295879586928c51988997889687957f4964e69900000000000000000000000000000000000000000000000000000000875286015260806024860152608485019061099c565b916044840152606483015203925af180156106725761065a575b50509151600160a060020a03909216825260208201523360408201523060608201527fae62e955921d2efa2e797012d2562b552cf550fa049f70a00af4e0c1f4b5ce319080608081016101fd565b6106639061082a565b61066e57833861060c565b8380fd5b85513d84823e3d90fd5b8680fd5b0360080260020a87031638806105a1565b61069a9061082a565b610229578538610507565b8a513d89823e3d90fd5b8780fd5b809750828092503d83116106dd575b6106cc8183610889565b810103126102c857899551386104bf565b503d6106c2565b61045792935061044491610709913d8091833e6107018183610889565b810190610976565b9291508c61041b565b81513d8b823e3d90fd5b6107319192503d8089833e6107018183610889565b90386103cd565b61074c91503d8088833e6107018183610889565b38610391565b89513d88823e3d90fd5b61076b9098919493929861082a565b9690919238610351565b88513d8b823e3d90fd5b848484923461022d576020938460031936011261066e57816024818793600160a060020a0360015416907f39b37ab00000000000000000000000000000000000000000000000000000000083528035908301525afa92831561081f5780936107ea575b505051908152f35b909192508382813d8311610818575b6108038183610889565b810103126108155750519083806107e2565b80fd5b503d6107f9565b8251903d90823e3d90fd5b67ffffffffffffffff811161083e57604052565b7f4e487b7100000000000000000000000000000000000000000000000000000000600052604160045260246000fd5b6040810190811067ffffffffffffffff82111761083e57604052565b90601f8019910116810190811067ffffffffffffffff82111761083e57604052565b67ffffffffffffffff811161083e57601f01601f191660200190565b81601f820112156102c8578035906108de826108ab565b926108ec6040519485610889565b828452602083830101116102c857816000926020809301838601378301015290565b60005b8381106109215750506000910152565b8181015183820152602001610911565b81601f820112156102c8578051610947816108ab565b926109556040519485610889565b818452602082840101116102c857610973916020808501910161090e565b90565b906020828203126102c857815167ffffffffffffffff81116102c8576109739201610931565b906020916109b58151809281855285808601910161090e565b601f01601f1916010190565b5190600160a060020a03821682036102c85756fea26469706673582212207dd20b8271e16bf8c6f3914c98cbfe14f6492940c49e230169c601e46415b05764736f6c63430008110033",
  "immutableReferences": {},
  "source": "// SPDX-License-Identifier: MIT\r\npragma solidity ^0.8.17;\r\n\r\nimport \"./../interfaces/IW3Link.sol\";\r\nimport \"./../interfaces/IW3LinkApp.sol\";\r\nimport \"./../interfaces/IW3LinkConfig.sol\";\r\n\r\nimport \"@openzeppelin/contracts/token/ERC721/IERC721.sol\";\r\nimport \"@openzeppelin/contracts/token/ERC721/extensions/IERC721Metadata.sol\";\r\n\r\nimport \"@openzeppelin/contracts/utils/Context.sol\";\r\n\r\ncontract Whirl is IW3LinkApp, Context {\r\n    IW3Link private _w3link;\r\n    IW3LinkConfig private _w3linkConfig;\r\n    mapping(uint256 => address) private _extContractIds;\r\n\r\n    event NFTransferred(\r\n        address tokenAddress,\r\n        uint256 tokenId,\r\n        address from,\r\n        address to\r\n    );\r\n\r\n    constructor(address w3link_) {\r\n        _w3link = IW3Link(w3link_);\r\n        _w3linkConfig = IW3LinkConfig(_w3link.config());\r\n    }\r\n\r\n    /// @dev For getting briging fee\r\n    function estimateFee(uint256 destChainId) external view returns (uint256) {\r\n        return _w3linkConfig.fee(destChainId);\r\n    }\r\n\r\n    /// @dev For setting extension contract ids\r\n    function setExtContract(uint256 destChainId, address contractId) external {\r\n        _extContractIds[destChainId] = contractId;\r\n    }\r\n\r\n    /// @dev This function locks the Original NFT\r\n    /// and tell whirlExtension Contract to mint a new similar NFT\r\n    function bridge(\r\n        uint256 destChainId,\r\n        uint256 tokenId,\r\n        address nftContractId\r\n    ) external payable {\r\n        IERC721 nft = IERC721(nftContractId);\r\n        IERC721Metadata metadata = IERC721Metadata(nftContractId);\r\n\r\n        nft.transferFrom(_msgSender(), address(this), tokenId);\r\n\r\n        // Encode data for whirlExtension Contract\r\n        bytes memory data = abi.encode(\r\n            tokenId,\r\n            nftContractId,\r\n            metadata.name(),\r\n            metadata.symbol(),\r\n            metadata.tokenURI(tokenId),\r\n            _msgSender()\r\n        );\r\n\r\n        uint256 estFee = _w3linkConfig.fee(destChainId);\r\n        _w3link.deposit{value: estFee}();\r\n\r\n        // Send message to whirlExtension Contract\r\n        _w3link.dispatch(\r\n            _extContractIds[destChainId],\r\n            data,\r\n            destChainId,\r\n            bytes32(\r\n                bytes.concat(\r\n                    bytes20(uint160(_msgSender())),\r\n                    bytes12(keccak256(abi.encodePacked(\"whirl\")))\r\n                )\r\n            ) /* for indexing */\r\n        );\r\n\r\n        emit NFTransferred(nftContractId, tokenId, _msgSender(), address(this));\r\n    }\r\n\r\n    /// @dev This function unlocks the Original NFT to the\r\n    /// owner of the burnt similar NFT on whirlExtension\r\n    function execute(\r\n        uint256 /* fromChainId */,\r\n        bytes memory data,\r\n        bytes32 /* extra */\r\n    ) external override {\r\n        _w3linkConfig.onlyHandler();\r\n\r\n        // Decode data from whirlExtension Contract\r\n        (address holder, address nftContractId, uint256 tokenId, ) = abi.decode(\r\n            data,\r\n            (address, address, uint256, string)\r\n        );\r\n\r\n        // Unlock NFT to owner\r\n        IERC721 nft = IERC721(nftContractId);\r\n        nft.transferFrom(address(this), holder, tokenId);\r\n\r\n        emit NFTransferred(nftContractId, tokenId, address(this), holder);\r\n    }\r\n\r\n    function onResult(bytes memory data) external override {}\r\n}\r\n",
  "sourcePath": "C:\\Users\\DELL\\Documents\\w3link\\solidity\\contracts\\whirl\\Whirl.sol",
  "compiler": {
    "name": "solc",
    "version": "0.8.17+commit.8df45f5f.Emscripten.clang"
  },
  "schemaVersion": "3.4.11",
  "updatedAt": "2023-09-27T20:59:04.185Z",
  "networkType": "ethereum",
  "devdoc": {
    "kind": "dev",
    "methods": {
      "bridge(uint256,uint256,address)": {
        "details": "This function locks the Original NFT and tell whirlExtension Contract to mint a new similar NFT"
      },
      "estimateFee(uint256)": {
        "details": "For getting briging fee"
      },
      "execute(uint256,bytes,bytes32)": {
        "details": "This function unlocks the Original NFT to the owner of the burnt similar NFT on whirlExtension"
      },
      "setExtContract(uint256,address)": {
        "details": "For setting extension contract ids"
      }
    },
    "version": 1
  },
  "userdoc": {
    "kind": "user",
    "methods": {},
    "version": 1
  }
}