{
  "contractName": "WhirlFaucet",
  "abi": [
    {
      "inputs": [
        {
          "internalType": "string",
          "name": "name_",
          "type": "string"
        },
        {
          "internalType": "string",
          "name": "symbol_",
          "type": "string"
        }
      ],
      "stateMutability": "nonpayable",
      "type": "constructor"
    },
    {
      "anonymous": false,
      "inputs": [
        {
          "indexed": true,
          "internalType": "address",
          "name": "owner",
          "type": "address"
        },
        {
          "indexed": true,
          "internalType": "address",
          "name": "approved",
          "type": "address"
        },
        {
          "indexed": true,
          "internalType": "uint256",
          "name": "tokenId",
          "type": "uint256"
        }
      ],
      "name": "Approval",
      "type": "event"
    },
    {
      "anonymous": false,
      "inputs": [
        {
          "indexed": true,
          "internalType": "address",
          "name": "owner",
          "type": "address"
        },
        {
          "indexed": true,
          "internalType": "address",
          "name": "operator",
          "type": "address"
        },
        {
          "indexed": false,
          "internalType": "bool",
          "name": "approved",
          "type": "bool"
        }
      ],
      "name": "ApprovalForAll",
      "type": "event"
    },
    {
      "anonymous": false,
      "inputs": [
        {
          "indexed": true,
          "internalType": "address",
          "name": "owner",
          "type": "address"
        },
        {
          "indexed": false,
          "internalType": "address",
          "name": "tokenAddress",
          "type": "address"
        },
        {
          "indexed": false,
          "internalType": "string",
          "name": "tokenUri",
          "type": "string"
        },
        {
          "indexed": false,
          "internalType": "uint256",
          "name": "tokenId",
          "type": "uint256"
        }
      ],
      "name": "NFTMinted",
      "type": "event"
    },
    {
      "anonymous": false,
      "inputs": [
        {
          "indexed": true,
          "internalType": "address",
          "name": "previousOwner",
          "type": "address"
        },
        {
          "indexed": true,
          "internalType": "address",
          "name": "newOwner",
          "type": "address"
        }
      ],
      "name": "OwnershipTransferStarted",
      "type": "event"
    },
    {
      "anonymous": false,
      "inputs": [
        {
          "indexed": true,
          "internalType": "address",
          "name": "previousOwner",
          "type": "address"
        },
        {
          "indexed": true,
          "internalType": "address",
          "name": "newOwner",
          "type": "address"
        }
      ],
      "name": "OwnershipTransferred",
      "type": "event"
    },
    {
      "anonymous": false,
      "inputs": [
        {
          "indexed": true,
          "internalType": "address",
          "name": "from",
          "type": "address"
        },
        {
          "indexed": true,
          "internalType": "address",
          "name": "to",
          "type": "address"
        },
        {
          "indexed": true,
          "internalType": "uint256",
          "name": "tokenId",
          "type": "uint256"
        }
      ],
      "name": "Transfer",
      "type": "event"
    },
    {
      "inputs": [
        {
          "internalType": "uint256",
          "name": "",
          "type": "uint256"
        }
      ],
      "name": "_tokenURIS",
      "outputs": [
        {
          "internalType": "string",
          "name": "",
          "type": "string"
        }
      ],
      "stateMutability": "view",
      "type": "function",
      "constant": true
    },
    {
      "inputs": [],
      "name": "acceptOwnership",
      "outputs": [],
      "stateMutability": "nonpayable",
      "type": "function"
    },
    {
      "inputs": [
        {
          "internalType": "address",
          "name": "to",
          "type": "address"
        },
        {
          "internalType": "uint256",
          "name": "tokenId",
          "type": "uint256"
        }
      ],
      "name": "approve",
      "outputs": [],
      "stateMutability": "nonpayable",
      "type": "function"
    },
    {
      "inputs": [
        {
          "internalType": "address",
          "name": "owner",
          "type": "address"
        }
      ],
      "name": "balanceOf",
      "outputs": [
        {
          "internalType": "uint256",
          "name": "",
          "type": "uint256"
        }
      ],
      "stateMutability": "view",
      "type": "function",
      "constant": true
    },
    {
      "inputs": [
        {
          "internalType": "uint256",
          "name": "tokenId",
          "type": "uint256"
        }
      ],
      "name": "getApproved",
      "outputs": [
        {
          "internalType": "address",
          "name": "",
          "type": "address"
        }
      ],
      "stateMutability": "view",
      "type": "function",
      "constant": true
    },
    {
      "inputs": [
        {
          "internalType": "address",
          "name": "owner",
          "type": "address"
        },
        {
          "internalType": "address",
          "name": "operator",
          "type": "address"
        }
      ],
      "name": "isApprovedForAll",
      "outputs": [
        {
          "internalType": "bool",
          "name": "",
          "type": "bool"
        }
      ],
      "stateMutability": "view",
      "type": "function",
      "constant": true
    },
    {
      "inputs": [],
      "name": "name",
      "outputs": [
        {
          "internalType": "string",
          "name": "",
          "type": "string"
        }
      ],
      "stateMutability": "view",
      "type": "function",
      "constant": true
    },
    {
      "inputs": [],
      "name": "owner",
      "outputs": [
        {
          "internalType": "address",
          "name": "",
          "type": "address"
        }
      ],
      "stateMutability": "view",
      "type": "function",
      "constant": true
    },
    {
      "inputs": [
        {
          "internalType": "uint256",
          "name": "tokenId",
          "type": "uint256"
        }
      ],
      "name": "ownerOf",
      "outputs": [
        {
          "internalType": "address",
          "name": "",
          "type": "address"
        }
      ],
      "stateMutability": "view",
      "type": "function",
      "constant": true
    },
    {
      "inputs": [],
      "name": "pendingOwner",
      "outputs": [
        {
          "internalType": "address",
          "name": "",
          "type": "address"
        }
      ],
      "stateMutability": "view",
      "type": "function",
      "constant": true
    },
    {
      "inputs": [],
      "name": "renounceOwnership",
      "outputs": [],
      "stateMutability": "nonpayable",
      "type": "function"
    },
    {
      "inputs": [
        {
          "internalType": "address",
          "name": "from",
          "type": "address"
        },
        {
          "internalType": "address",
          "name": "to",
          "type": "address"
        },
        {
          "internalType": "uint256",
          "name": "tokenId",
          "type": "uint256"
        }
      ],
      "name": "safeTransferFrom",
      "outputs": [],
      "stateMutability": "nonpayable",
      "type": "function"
    },
    {
      "inputs": [
        {
          "internalType": "address",
          "name": "from",
          "type": "address"
        },
        {
          "internalType": "address",
          "name": "to",
          "type": "address"
        },
        {
          "internalType": "uint256",
          "name": "tokenId",
          "type": "uint256"
        },
        {
          "internalType": "bytes",
          "name": "data",
          "type": "bytes"
        }
      ],
      "name": "safeTransferFrom",
      "outputs": [],
      "stateMutability": "nonpayable",
      "type": "function"
    },
    {
      "inputs": [
        {
          "internalType": "address",
          "name": "operator",
          "type": "address"
        },
        {
          "internalType": "bool",
          "name": "approved",
          "type": "bool"
        }
      ],
      "name": "setApprovalForAll",
      "outputs": [],
      "stateMutability": "nonpayable",
      "type": "function"
    },
    {
      "inputs": [
        {
          "internalType": "bytes4",
          "name": "interfaceId",
          "type": "bytes4"
        }
      ],
      "name": "supportsInterface",
      "outputs": [
        {
          "internalType": "bool",
          "name": "",
          "type": "bool"
        }
      ],
      "stateMutability": "view",
      "type": "function",
      "constant": true
    },
    {
      "inputs": [],
      "name": "symbol",
      "outputs": [
        {
          "internalType": "string",
          "name": "",
          "type": "string"
        }
      ],
      "stateMutability": "view",
      "type": "function",
      "constant": true
    },
    {
      "inputs": [
        {
          "internalType": "address",
          "name": "from",
          "type": "address"
        },
        {
          "internalType": "address",
          "name": "to",
          "type": "address"
        },
        {
          "internalType": "uint256",
          "name": "tokenId",
          "type": "uint256"
        }
      ],
      "name": "transferFrom",
      "outputs": [],
      "stateMutability": "nonpayable",
      "type": "function"
    },
    {
      "inputs": [
        {
          "internalType": "address",
          "name": "newOwner",
          "type": "address"
        }
      ],
      "name": "transferOwnership",
      "outputs": [],
      "stateMutability": "nonpayable",
      "type": "function"
    },
    {
      "inputs": [
        {
          "internalType": "string",
          "name": "uri",
          "type": "string"
        }
      ],
      "name": "getFreeNft",
      "outputs": [],
      "stateMutability": "nonpayable",
      "type": "function"
    },
    {
      "inputs": [
        {
          "internalType": "address",
          "name": "minter",
          "type": "address"
        }
      ],
      "name": "minted",
      "outputs": [
        {
          "internalType": "bool",
          "name": "",
          "type": "bool"
        }
      ],
      "stateMutability": "view",
      "type": "function",
      "constant": true
    },
    {
      "inputs": [
        {
          "internalType": "uint256",
          "name": "tokenId",
          "type": "uint256"
        }
      ],
      "name": "tokenURI",
      "outputs": [
        {
          "internalType": "string",
          "name": "",
          "type": "string"
        }
      ],
      "stateMutability": "view",
      "type": "function",
      "constant": true
    }
  ],
  "bytecode": "0x608060405234620003e35762001adf803803806200001d81620003e8565b928339810190604081830312620003e3578051916001604060020a0392838111620003e35781620000509184016200040e565b9160209182820151858111620003e3576200006c92016200040e565b928251818111620003b4576000938454936002928386049260018097168015620003a9575b838510146200037c578190601f948581116200032a575b508390858311600114620002c0578992620002b4575b505060088202850a6000190419169084021786555b86519384116200028757845485848204911680156200027c575b828210146200024f5782811162000209575b5080918085116001146200019d57505084958394959362000191575b505082810292600802900a6000190419161790555b60078054600160a060020a03199081169091556006805433928116831790915560405192600160a060020a03909116907f8be0079c531659141344cd1fd0a4f28419497f9722a3daafe3b4186f6b6457e09080a361165e9081620004818239f35b0151915038806200011b565b9091601f949394198416978688528388209388905b8a8210620001f15750508487989910620001d5575b505050500201905562000130565b0151908316600802840a600019041916905538808080620001c7565b808985978294968601518155019601930190620001b2565b8587528187208284818189010483019382891062000245575b0104019086905b82811062000239575050620000ff565b88815501869062000229565b9350829362000222565b6024877f4e487b710000000000000000000000000000000000000000000000000000000081526022600452fd5b90607f1690620000ed565b6024867f4e487b710000000000000000000000000000000000000000000000000000000081526041600452fd5b015190503880620000be565b898052848a208994508793929091601f1984168c5b88828210620003105750508411620002f5575b50505002018655620000d3565b0151600883881602840a6000190419169055388080620002e8565b8484015186558d988c9850909501949384019301620002d5565b9091508880528389208486818187010483019382871062000372575b9186959493918c93010401915b82811062000363575050620000a8565b8b81558594508a910162000353565b9350829362000346565b6024887f4e487b710000000000000000000000000000000000000000000000000000000081526022600452fd5b93607f169362000091565b7f4e487b7100000000000000000000000000000000000000000000000000000000600052604160045260246000fd5b600080fd5b6040519190601f01601f191682016001604060020a03811183821017620003b457604052565b919080601f84011215620003e35782516001604060020a038111620003b45760209062000444601f8201601f19168301620003e8565b92818452828287010111620003e35760005b8181106200046c57508260009394955001015290565b85810183015184820184015282016200045656fe60806040908082526004918236101561001757600080fd5b6000927c010000000000000000000000000000000000000000000000000000000084350492836301ffc9a714610d5b57508263054bf3b114610d3057826306fdde0314610c88578263081812fc14610c60578263095ea7b314610ac45782631e7269c514610a8857826323b872dd14610a5e57826342842e0e14610a0d5782636352211e146109dd57826370a0823114610931578263715018a6146108d457826379ba5097146107f95782637f2b8c8c146104bf5782638da5cb5b1461049757826395d89b41146103b5578263a22cb465146102e7578263b88d4fde1461027f578263c87b56dd1461021157508163e30c3978146101e9578163e985e9c514610197575063f2fde38b1461012a57600080fd5b3461019457602036600319011261019457610143610f85565b61014b61103e565b600160a060020a038091169081600160a060020a03196007541617600755600654167f38d16b8cac22d99fc7c124b9cd0de2d3fa1faef420bfe791d8c362d765e227008380a380f35b80fd5b9050346101e557806003193601126101e55760ff816020936101b7610f85565b6101bf610fa0565b600160a060020a0391821683526005875283832091168252855220549151911615158152f35b5080fd5b9050346101e557816003193601126101e557602090600160a060020a03600754169051908152f35b9091503461027b57602036600319011261027b5781610277936102649235610257610252826000526002602052600160a060020a0360406000205416151590565b611099565b8152600a60205220610ea0565b9051918291602083526020830190610f45565b0390f35b8280fd5b8390346101e55760803660031901126101e55761029a610f85565b6102a2610fa0565b9060643567ffffffffffffffff81116102e357366023820112156102e3576102e0938160246102d693369301359101611007565b91604435916111bd565b80f35b8480fd5b91503461027b578060031936011261027b57610301610f85565b90602435918215158093036102e357600160a060020a0316928333146103705750338452600560205280842083855260205280842060ff1981541660ff8416179055519081527f17307eab39ab6107e8899845ad3d59bd9653f200f220920489ca2b5937696c3160203392a380f35b6020606492519160e560020a62461bcd028352820152601960248201527f4552433732313a20617070726f766520746f2063616c6c6572000000000000006044820152fd5b8382346101e557816003193601126101e5578051908260018054916103d983610e27565b808652928281169081156104705750600114610414575b50505061040282610277940383610e65565b51918291602083526020830190610f45565b94508085527fb10e2d527612073b26eecdfd717e6a320cf44b4afac2b0732d9fcbe2b7fa0cf65b8286106104585750505061040282602061027795820101946103f0565b8054602087870181019190915290950194810161043b565b61027797508693506020925061040294915060ff19168284015215158102820101946103f0565b8382346101e557816003193601126101e557602090600160a060020a03600654169051908152f35b9091503461027b57602090816003193601126107f55767ffffffffffffffff9080358281116107f157366023820112156107f1576105069036906024818501359101611007565b903386526009845260ff85872054166107ac576001908160085401938460085533156107685761055561054f866000526002602052600160a060020a0360406000205416151590565b156115da565b61057861054f866000526002602052600160a060020a0360406000205416151590565b338852600386528688208381540190558488526002865286882033600160a060020a03198254161790558433897fddf252ad1be2c89b69c2b068fc378daa952ba7f163c4a11628f55a4df523b3ef8180a4600a865286882091845191821161075257506105e58254610e27565b601f811161070e575b5085601f821160011461068557918161066d94927fc838a7fd61cef6ed117ca9829550cd25002c8912a0846c98e8b6ea66a79a80d8989796948b9161067a575b50816002029160080260020a6000190419161790555b338852600985528688209060ff1982541617905560608651943086528501526060840190610f45565b938201528033930390a280f35b90508401513861062e565b82895286892090601f1983168a5b8181106106f95750837fc838a7fd61cef6ed117ca9829550cd25002c8912a0846c98e8b6ea66a79a80d8999897959387959361066d9894600294106106de575b505002019055610644565b8701516008601f841602840a600019041916905538806106d3565b87830151845592860192918901918901610693565b8289528689208780601f850104820192818510610748575b601f0104019084905b82811061073d5750506105ee565b8a815501849061072f565b9192508291610726565b88604160249260e060020a634e487b7102835252fd5b60648287808a519260e560020a62461bcd02845283015260248201527f4552433732313a206d696e7420746f20746865207a65726f20616464726573736044820152fd5b6064908486519160e560020a62461bcd028352820152601260248201527f596f752063616e74206d696e74206d6f726500000000000000000000000000006044820152fd5b8580fd5b8380fd5b91503461027b578260031936011261027b5760075491600160a060020a03913383851603610868575050600160a060020a03198092166007556006549133908316176006553391167f8be0079c531659141344cd1fd0a4f28419497f9722a3daafe3b4186f6b6457e08380a380f35b906020608492519160e560020a62461bcd028352820152602960248201527f4f776e61626c6532537465703a2063616c6c6572206973206e6f74207468652060448201527f6e6577206f776e657200000000000000000000000000000000000000000000006064820152fd5b83346101945780600319360112610194576108ed61103e565b80600160a060020a0380198060075416600755600654908116600655167f8be0079c531659141344cd1fd0a4f28419497f9722a3daafe3b4186f6b6457e08280a380f35b8390346101e55760203660031901126101e557600160a060020a03610954610f85565b169081156109715760208480858581526003845220549051908152f35b608490602085519160e560020a62461bcd028352820152602960248201527f4552433732313a2061646472657373207a65726f206973206e6f74206120766160448201527f6c6964206f776e657200000000000000000000000000000000000000000000006064820152fd5b9083346101945760203660031901126101945750600160a060020a03610a05602093356110e7565b915191168152f35b8382346101e557610a1d36610fb6565b91835193602085019085821067ffffffffffffffff831117610a48576102e0969750528584526111bd565b60248760418a60e060020a634e487b7102835252fd5b8334610194576102e0610a7036610fb6565b91610a83610a7e8433611266565b611149565b611348565b8382346101e55760203660031901126101e55760ff81602093600160a060020a03610ab1610f85565b1681526009855220541690519015158152f35b9091503461027b578160031936011261027b57610adf610f85565b9060243592600160a060020a03918280610af8876110e7565b16941693808514610bf457803314908115610bd5575b5015610b6a578486526020528420805473ffffffffffffffffffffffffffffffffffffffff191683179055610b42836110e7565b167f8c5be1e5ebec7d5bd14f71427d1e84f3dd0314c0f7b2291e5b200ac8c7c3b9258480a480f35b6020608492519160e560020a62461bcd028352820152603d60248201527f4552433732313a20617070726f76652063616c6c6572206973206e6f7420746f60448201527f6b656e206f776e6572206f7220617070726f76656420666f7220616c6c0000006064820152fd5b90508652600560205281862033875260205260ff828720541638610b0e565b506020608492519160e560020a62461bcd028352820152602160248201527f4552433732313a20617070726f76616c20746f2063757272656e74206f776e6560448201527f72000000000000000000000000000000000000000000000000000000000000006064820152fd5b9083346101945760203660031901126101945750600160a060020a03610a056020933561110c565b8382346101e557816003193601126101e557805190828054610ca981610e27565b808552916001918083169081156104705750600114610cd45750505061040282610277940383610e65565b80809650527f290decd9548b62a8d60345a988386fc84ba6bc95484008f6362f93160ef3e5635b828610610d185750505061040282602061027795820101946103f0565b80546020878701810191909152909501948101610cfb565b9091503461027b57602036600319011261027b57816102779361026492358152600a60205220610ea0565b84913461027b57602036600319011261027b57357bffffffffffffffffffffffffffffffffffffffffffffffffffffffff19811680910361027b57602092507f80ac58cd000000000000000000000000000000000000000000000000000000008114908115610dfd575b8115610dd3575b5015158152f35b7f01ffc9a70000000000000000000000000000000000000000000000000000000091501483610dcc565b7f5b5e139f0000000000000000000000000000000000000000000000000000000081149150610dc5565b9060016002830492168015610e5b575b6020831014610e4257565b60e060020a634e487b7102600052602260045260246000fd5b91607f1691610e37565b90601f8019910116810190811067ffffffffffffffff821117610e8757604052565b60e060020a634e487b7102600052604160045260246000fd5b9060405191826000825492610eb484610e27565b908184526001948581169081600014610f235750600114610ee0575b5050610ede92500383610e65565b565b9093915060005260209081600020936000915b818310610f0b575050610ede93508201013880610ed0565b85548884018501529485019487945091830191610ef3565b915050610ede94506020925060ff191682840152151581028201013880610ed0565b919082519283825260005b848110610f71575050826000602080949584010152601f8019910116010190565b602081830181015184830182015201610f50565b60043590600160a060020a0382168203610f9b57565b600080fd5b60243590600160a060020a0382168203610f9b57565b6060906003190112610f9b57600160a060020a03906004358281168103610f9b57916024359081168103610f9b579060443590565b67ffffffffffffffff8111610e8757601f01601f191660200190565b92919261101382610feb565b916110216040519384610e65565b829481845281830111610f9b578281602093846000960137010152565b600160a060020a0360065416330361105257565b606460405160e560020a62461bcd02815260206004820152602060248201527f4f776e61626c653a2063616c6c6572206973206e6f7420746865206f776e65726044820152fd5b156110a057565b606460405160e560020a62461bcd02815260206004820152601860248201527f4552433732313a20696e76616c696420746f6b656e20494400000000000000006044820152fd5b6000526002602052600160a060020a0360406000205416611109811515611099565b90565b61112f610252826000526002602052600160a060020a0360406000205416151590565b6000526004602052600160a060020a036040600020541690565b1561115057565b608460405160e560020a62461bcd02815260206004820152602d60248201527f4552433732313a2063616c6c6572206973206e6f7420746f6b656e206f776e6560448201527f72206f7220617070726f766564000000000000000000000000000000000000006064820152fd5b906111e19392916111d1610a7e8433611266565b6111dc838383611348565b611472565b156111e857565b60405160e560020a62461bcd0281528061120460048201611208565b0390fd5b60809060208152603260208201527f4552433732313a207472616e7366657220746f206e6f6e20455243373231526560408201527f63656976657220696d706c656d656e746572000000000000000000000000000060608201520190565b90600160a060020a03808061127a846110e7565b169316918383149384156112ad575b508315611297575b50505090565b6112a39192935061110c565b1614388080611291565b909350600052600560205260406000208260005260205260ff604060002054169238611289565b156112db57565b608460405160e560020a62461bcd02815260206004820152602560248201527f4552433732313a207472616e736665722066726f6d20696e636f72726563742060448201527f6f776e65720000000000000000000000000000000000000000000000000000006064820152fd5b9061137091611356846110e7565b91600160a060020a039384938480941694859116146112d4565b16918215611406578161138d91611386866110e7565b16146112d4565b7fddf252ad1be2c89b69c2b068fc378daa952ba7f163c4a11628f55a4df523b3ef6000848152600460205260408120600160a060020a03199081815416905583825260036020526040822060001981540190558482526040822060018154019055858252600260205284604083209182541617905580a4565b608460405160e560020a62461bcd028152602060048201526024808201527f4552433732313a207472616e7366657220746f20746865207a65726f2061646460448201527f72657373000000000000000000000000000000000000000000000000000000006064820152fd5b9293600093909291803b156115cf579484916114e696604051809481937f150b7a020000000000000000000000000000000000000000000000000000000097888452336004850152600160a060020a0380921660248501526044840152608060648401528260209b8c976084830190610f45565b0393165af184918161157a575b50611554575050503d60001461154c573d61150d81610feb565b9061151b6040519283610e65565b81528091833d92013e5b805191826115495760405160e560020a62461bcd0281528061120460048201611208565b01fd5b506060611525565b7bffffffffffffffffffffffffffffffffffffffffffffffffffffffff19161492509050565b9091508581813d83116115c8575b6115928183610e65565b810103126102e357517bffffffffffffffffffffffffffffffffffffffffffffffffffffffff19811681036102e35790386114f3565b503d611588565b505050915050600190565b156115e157565b606460405160e560020a62461bcd02815260206004820152601c60248201527f4552433732313a20746f6b656e20616c7265616479206d696e746564000000006044820152fdfea26469706673582212200aa1834caa9ebd71336b03cc7ad1211fb429d8e9470ef212deec6e5a37f79b4c64736f6c63430008110033",
  "immutableReferences": {},
  "source": "// SPDX-License-Identifier: MIT\r\npragma solidity ^0.8.17;\r\n\r\nimport \"@openzeppelin/contracts/utils/Counters.sol\";\r\nimport \"@openzeppelin/contracts/token/ERC721/ERC721.sol\";\r\nimport \"@openzeppelin/contracts/access/Ownable2Step.sol\";\r\n\r\ncontract WhirlFaucet is ERC721, Ownable2Step {\r\n    using Counters for Counters.Counter;\r\n\r\n    Counters.Counter private _tokenId;\r\n    mapping(address => bool) private _minted;\r\n\r\n    mapping(uint256 => string) public _tokenURIS;\r\n\r\n    event NFTMinted(\r\n        address indexed owner,\r\n        address tokenAddress,\r\n        string tokenUri,\r\n        uint256 tokenId\r\n    );\r\n\r\n    constructor(\r\n        string memory name_,\r\n        string memory symbol_\r\n    ) ERC721(name_, symbol_) Ownable2Step() {}\r\n\r\n    function getFreeNft(string memory uri) external {\r\n        require(_minted[_msgSender()] == false, \"You cant mint more\");\r\n        _tokenId.increment();\r\n        uint256 tokenId = _tokenId.current();\r\n\r\n        _mint(_msgSender(), tokenId);\r\n        _tokenURIS[tokenId] = uri;\r\n\r\n        _minted[_msgSender()] = true;\r\n\r\n        emit NFTMinted(_msgSender(), address(this), uri, tokenId);\r\n    }\r\n\r\n    function minted(address minter) external view returns (bool) {\r\n        return _minted[minter];\r\n    }\r\n\r\n    function tokenURI(\r\n        uint256 tokenId\r\n    ) public view virtual override returns (string memory) {\r\n        _requireMinted(tokenId);\r\n        return _tokenURIS[tokenId];\r\n    }\r\n}\r\n",
  "sourcePath": "C:\\Users\\DELL\\Documents\\w3link\\solidity\\contracts\\whirl\\WhirlFaucet.sol",
  "compiler": {
    "name": "solc",
    "version": "0.8.17+commit.8df45f5f.Emscripten.clang"
  },
  "schemaVersion": "3.4.11",
  "updatedAt": "2023-09-27T21:16:28.837Z",
  "networkType": "ethereum",
  "devdoc": {
    "kind": "dev",
    "methods": {
      "acceptOwnership()": {
        "details": "The new owner accepts the ownership transfer."
      },
      "approve(address,uint256)": {
        "details": "See {IERC721-approve}."
      },
      "balanceOf(address)": {
        "details": "See {IERC721-balanceOf}."
      },
      "getApproved(uint256)": {
        "details": "See {IERC721-getApproved}."
      },
      "isApprovedForAll(address,address)": {
        "details": "See {IERC721-isApprovedForAll}."
      },
      "name()": {
        "details": "See {IERC721Metadata-name}."
      },
      "owner()": {
        "details": "Returns the address of the current owner."
      },
      "ownerOf(uint256)": {
        "details": "See {IERC721-ownerOf}."
      },
      "pendingOwner()": {
        "details": "Returns the address of the pending owner."
      },
      "renounceOwnership()": {
        "details": "Leaves the contract without owner. It will not be possible to call `onlyOwner` functions. Can only be called by the current owner. NOTE: Renouncing ownership will leave the contract without an owner, thereby disabling any functionality that is only available to the owner."
      },
      "safeTransferFrom(address,address,uint256)": {
        "details": "See {IERC721-safeTransferFrom}."
      },
      "safeTransferFrom(address,address,uint256,bytes)": {
        "details": "See {IERC721-safeTransferFrom}."
      },
      "setApprovalForAll(address,bool)": {
        "details": "See {IERC721-setApprovalForAll}."
      },
      "supportsInterface(bytes4)": {
        "details": "See {IERC165-supportsInterface}."
      },
      "symbol()": {
        "details": "See {IERC721Metadata-symbol}."
      },
      "tokenURI(uint256)": {
        "details": "See {IERC721Metadata-tokenURI}."
      },
      "transferFrom(address,address,uint256)": {
        "details": "See {IERC721-transferFrom}."
      },
      "transferOwnership(address)": {
        "details": "Starts the ownership transfer of the contract to a new account. Replaces the pending transfer if there is one. Can only be called by the current owner."
      }
    },
    "version": 1
  },
  "userdoc": {
    "kind": "user",
    "methods": {},
    "version": 1
  }
}