{
  "contractName": "WhirlFaucet",
  "abi": [
    {
      "inputs": [
        {
          "internalType": "string",
          "name": "name_",
          "type": "string"
        },
        {
          "internalType": "string",
          "name": "symbol_",
          "type": "string"
        }
      ],
      "stateMutability": "nonpayable",
      "type": "constructor"
    },
    {
      "anonymous": false,
      "inputs": [
        {
          "indexed": true,
          "internalType": "address",
          "name": "owner",
          "type": "address"
        },
        {
          "indexed": true,
          "internalType": "address",
          "name": "approved",
          "type": "address"
        },
        {
          "indexed": true,
          "internalType": "uint256",
          "name": "tokenId",
          "type": "uint256"
        }
      ],
      "name": "Approval",
      "type": "event"
    },
    {
      "anonymous": false,
      "inputs": [
        {
          "indexed": true,
          "internalType": "address",
          "name": "owner",
          "type": "address"
        },
        {
          "indexed": true,
          "internalType": "address",
          "name": "operator",
          "type": "address"
        },
        {
          "indexed": false,
          "internalType": "bool",
          "name": "approved",
          "type": "bool"
        }
      ],
      "name": "ApprovalForAll",
      "type": "event"
    },
    {
      "anonymous": false,
      "inputs": [
        {
          "indexed": true,
          "internalType": "address",
          "name": "previousOwner",
          "type": "address"
        },
        {
          "indexed": true,
          "internalType": "address",
          "name": "newOwner",
          "type": "address"
        }
      ],
      "name": "OwnershipTransferStarted",
      "type": "event"
    },
    {
      "anonymous": false,
      "inputs": [
        {
          "indexed": true,
          "internalType": "address",
          "name": "previousOwner",
          "type": "address"
        },
        {
          "indexed": true,
          "internalType": "address",
          "name": "newOwner",
          "type": "address"
        }
      ],
      "name": "OwnershipTransferred",
      "type": "event"
    },
    {
      "anonymous": false,
      "inputs": [
        {
          "indexed": true,
          "internalType": "address",
          "name": "from",
          "type": "address"
        },
        {
          "indexed": true,
          "internalType": "address",
          "name": "to",
          "type": "address"
        },
        {
          "indexed": true,
          "internalType": "uint256",
          "name": "tokenId",
          "type": "uint256"
        }
      ],
      "name": "Transfer",
      "type": "event"
    },
    {
      "inputs": [
        {
          "internalType": "uint256",
          "name": "",
          "type": "uint256"
        }
      ],
      "name": "_tokenURIS",
      "outputs": [
        {
          "internalType": "string",
          "name": "",
          "type": "string"
        }
      ],
      "stateMutability": "view",
      "type": "function"
    },
    {
      "inputs": [],
      "name": "acceptOwnership",
      "outputs": [],
      "stateMutability": "nonpayable",
      "type": "function"
    },
    {
      "inputs": [
        {
          "internalType": "address",
          "name": "to",
          "type": "address"
        },
        {
          "internalType": "uint256",
          "name": "tokenId",
          "type": "uint256"
        }
      ],
      "name": "approve",
      "outputs": [],
      "stateMutability": "nonpayable",
      "type": "function"
    },
    {
      "inputs": [
        {
          "internalType": "address",
          "name": "owner",
          "type": "address"
        }
      ],
      "name": "balanceOf",
      "outputs": [
        {
          "internalType": "uint256",
          "name": "",
          "type": "uint256"
        }
      ],
      "stateMutability": "view",
      "type": "function"
    },
    {
      "inputs": [
        {
          "internalType": "uint256",
          "name": "tokenId",
          "type": "uint256"
        }
      ],
      "name": "burn",
      "outputs": [],
      "stateMutability": "nonpayable",
      "type": "function"
    },
    {
      "inputs": [
        {
          "internalType": "uint256",
          "name": "tokenId",
          "type": "uint256"
        }
      ],
      "name": "getApproved",
      "outputs": [
        {
          "internalType": "address",
          "name": "",
          "type": "address"
        }
      ],
      "stateMutability": "view",
      "type": "function"
    },
    {
      "inputs": [
        {
          "internalType": "address",
          "name": "owner",
          "type": "address"
        },
        {
          "internalType": "address",
          "name": "operator",
          "type": "address"
        }
      ],
      "name": "isApprovedForAll",
      "outputs": [
        {
          "internalType": "bool",
          "name": "",
          "type": "bool"
        }
      ],
      "stateMutability": "view",
      "type": "function"
    },
    {
      "inputs": [
        {
          "internalType": "address",
          "name": "to",
          "type": "address"
        },
        {
          "internalType": "uint256",
          "name": "tokenId",
          "type": "uint256"
        },
        {
          "internalType": "string",
          "name": "uri",
          "type": "string"
        }
      ],
      "name": "mint",
      "outputs": [],
      "stateMutability": "nonpayable",
      "type": "function"
    },
    {
      "inputs": [],
      "name": "name",
      "outputs": [
        {
          "internalType": "string",
          "name": "",
          "type": "string"
        }
      ],
      "stateMutability": "view",
      "type": "function"
    },
    {
      "inputs": [
        {
          "internalType": "address",
          "name": "owner",
          "type": "address"
        }
      ],
      "name": "ownedTokens",
      "outputs": [
        {
          "internalType": "uint256[]",
          "name": "",
          "type": "uint256[]"
        }
      ],
      "stateMutability": "view",
      "type": "function"
    },
    {
      "inputs": [],
      "name": "owner",
      "outputs": [
        {
          "internalType": "address",
          "name": "",
          "type": "address"
        }
      ],
      "stateMutability": "view",
      "type": "function"
    },
    {
      "inputs": [
        {
          "internalType": "uint256",
          "name": "tokenId",
          "type": "uint256"
        }
      ],
      "name": "ownerOf",
      "outputs": [
        {
          "internalType": "address",
          "name": "",
          "type": "address"
        }
      ],
      "stateMutability": "view",
      "type": "function"
    },
    {
      "inputs": [],
      "name": "parent",
      "outputs": [
        {
          "internalType": "address",
          "name": "",
          "type": "address"
        }
      ],
      "stateMutability": "view",
      "type": "function"
    },
    {
      "inputs": [],
      "name": "parentId",
      "outputs": [
        {
          "internalType": "uint256",
          "name": "",
          "type": "uint256"
        }
      ],
      "stateMutability": "view",
      "type": "function"
    },
    {
      "inputs": [],
      "name": "pendingOwner",
      "outputs": [
        {
          "internalType": "address",
          "name": "",
          "type": "address"
        }
      ],
      "stateMutability": "view",
      "type": "function"
    },
    {
      "inputs": [],
      "name": "renounceOwnership",
      "outputs": [],
      "stateMutability": "nonpayable",
      "type": "function"
    },
    {
      "inputs": [
        {
          "internalType": "address",
          "name": "from",
          "type": "address"
        },
        {
          "internalType": "address",
          "name": "to",
          "type": "address"
        },
        {
          "internalType": "uint256",
          "name": "tokenId",
          "type": "uint256"
        }
      ],
      "name": "safeTransferFrom",
      "outputs": [],
      "stateMutability": "nonpayable",
      "type": "function"
    },
    {
      "inputs": [
        {
          "internalType": "address",
          "name": "from",
          "type": "address"
        },
        {
          "internalType": "address",
          "name": "to",
          "type": "address"
        },
        {
          "internalType": "uint256",
          "name": "tokenId",
          "type": "uint256"
        },
        {
          "internalType": "bytes",
          "name": "data",
          "type": "bytes"
        }
      ],
      "name": "safeTransferFrom",
      "outputs": [],
      "stateMutability": "nonpayable",
      "type": "function"
    },
    {
      "inputs": [
        {
          "internalType": "address",
          "name": "operator",
          "type": "address"
        },
        {
          "internalType": "bool",
          "name": "approved",
          "type": "bool"
        }
      ],
      "name": "setApprovalForAll",
      "outputs": [],
      "stateMutability": "nonpayable",
      "type": "function"
    },
    {
      "inputs": [
        {
          "internalType": "bytes4",
          "name": "interfaceId",
          "type": "bytes4"
        }
      ],
      "name": "supportsInterface",
      "outputs": [
        {
          "internalType": "bool",
          "name": "",
          "type": "bool"
        }
      ],
      "stateMutability": "view",
      "type": "function"
    },
    {
      "inputs": [],
      "name": "symbol",
      "outputs": [
        {
          "internalType": "string",
          "name": "",
          "type": "string"
        }
      ],
      "stateMutability": "view",
      "type": "function"
    },
    {
      "inputs": [
        {
          "internalType": "uint256",
          "name": "tokenId",
          "type": "uint256"
        }
      ],
      "name": "tokenURI",
      "outputs": [
        {
          "internalType": "string",
          "name": "",
          "type": "string"
        }
      ],
      "stateMutability": "view",
      "type": "function"
    },
    {
      "inputs": [
        {
          "internalType": "address",
          "name": "from",
          "type": "address"
        },
        {
          "internalType": "address",
          "name": "to",
          "type": "address"
        },
        {
          "internalType": "uint256",
          "name": "tokenId",
          "type": "uint256"
        }
      ],
      "name": "transferFrom",
      "outputs": [],
      "stateMutability": "nonpayable",
      "type": "function"
    },
    {
      "inputs": [
        {
          "internalType": "address",
          "name": "newOwner",
          "type": "address"
        }
      ],
      "name": "transferOwnership",
      "outputs": [],
      "stateMutability": "nonpayable",
      "type": "function"
    },
    {
      "inputs": [
        {
          "internalType": "string",
          "name": "uri",
          "type": "string"
        }
      ],
      "name": "getFreeNft",
      "outputs": [],
      "stateMutability": "nonpayable",
      "type": "function"
    }
  ],
  "bytecode": "0x608060405234620003ed5762001e8d803803806200001d81620003f2565b928339810190604081830312620003ed578051916001604060020a0392838111620003ed57816200005091840162000418565b9160209182820151858111620003ed576200006c920162000418565b928251818111620003be576000938454936002928386049260018097168015620003b3575b8385101462000386578190601f9485811162000334575b508390858311600114620002ca578992620002be575b505060088202850a6000190419169084021786555b865193841162000291578454858482049116801562000286575b82821014620002595782811162000213575b508091808511600114620001a75750508495839495936200019b575b505082810292600802900a6000190419161790555b60078054600160a060020a03199081169091556006805433818416811790925560405193929190600160a060020a03167f8be0079c531659141344cd1fd0a4f28419497f9722a3daafe3b4186f6b6457e08480a3600a5416600a55600b55611a0290816200048b8239f35b0151915038806200011b565b9091601f949394198416978688528388209388905b8a8210620001fb5750508487989910620001df575b505050500201905562000130565b0151908316600802840a600019041916905538808080620001d1565b808985978294968601518155019601930190620001bc565b858752818720828481818901048301938289106200024f575b0104019086905b82811062000243575050620000ff565b88815501869062000233565b935082936200022c565b6024877f4e487b710000000000000000000000000000000000000000000000000000000081526022600452fd5b90607f1690620000ed565b6024867f4e487b710000000000000000000000000000000000000000000000000000000081526041600452fd5b015190503880620000be565b898052848a208994508793929091601f1984168c5b888282106200031a5750508411620002ff575b50505002018655620000d3565b0151600883881602840a6000190419169055388080620002f2565b8484015186558d988c9850909501949384019301620002df565b909150888052838920848681818701048301938287106200037c575b9186959493918c93010401915b8281106200036d575050620000a8565b8b81558594508a91016200035d565b9350829362000350565b6024887f4e487b710000000000000000000000000000000000000000000000000000000081526022600452fd5b93607f169362000091565b7f4e487b7100000000000000000000000000000000000000000000000000000000600052604160045260246000fd5b600080fd5b6040519190601f01601f191682016001604060020a03811183821017620003be57604052565b919080601f84011215620003ed5782516001604060020a038111620003be576020906200044e601f8201601f19168301620003f2565b92818452828287010111620003ed5760005b8181106200047657508260009394955001015290565b85810183015184820184015282016200046056fe60806040908082526004918236101561001757600080fd5b6000927c010000000000000000000000000000000000000000000000000000000084350492836301ffc9a714610ee257508263054bf3b114610eb757826306fdde0314610e0f578263081812fc14610de7578263095ea7b314610c4b578263186e811b14610c2c57826323b872dd14610c0257826342842e0e14610bc757826342966c6814610aa357826360f96a8f14610a7b5782636352211e14610a4b57826370a082311461099f578263715018a61461094257826379ba5097146108675782637f2b8c8c1461071f5782638da5cb5b146106f757826395d89b4114610615578263a22cb46514610547578263b12ab40f1461049a578263b88d4fde14610432578263c87b56dd146103c4578263d3fc98641461023d57508163e30c397814610215578163e985e9c5146101c3575063f2fde38b1461015657600080fd5b346101c05760203660031901126101c05761016f61110c565b6101776111e3565b600160a060020a038091169081600160a060020a03196007541617600755600654167f38d16b8cac22d99fc7c124b9cd0de2d3fa1faef420bfe791d8c362d765e227008380a380f35b80fd5b90503461021157806003193601126102115760ff816020936101e361110c565b6101eb611127565b600160a060020a0391821683526005875283832091168252855220549151911615158152f35b5080fd5b905034610211578160031936011261021157602090600160a060020a03600754169051908152f35b8382346102115760603660031901126102115761025861110c565b9067ffffffffffffffff906024356044358381116103c0578161028161028f9236908a016111c5565b9561028a6111e3565b61183e565b84526020906008825284209280519283116103aa579082916102b18554610fae565b601f811161035a575b5081601f84116001146102f3575085926102e8575b5050816002029160080260020a60001904191617905580f35b0151905084806102cf565b8587528087209350601f1985169087905b8282106103425750509160029391856001969410610327575b5050500201905580f35b01516008601f841602840a600019041916905585808061031d565b80600186978294978701518155019601940190610304565b909192508486528286208380601f8701048201928187106103a0575b94601f87969594939295010401905b81811061039257506102ba565b878155859450600101610385565b9192508291610376565b60248560418860e060020a634e487b7102835252fd5b8580fd5b9091503461042e57602036600319011261042e578161042a93610417923561040a610405826000526002602052600160a060020a0360406000205416151590565b61123e565b8152600860205220611027565b90519182916020835260208301906110cc565b0390f35b8280fd5b8390346102115760803660031901126102115761044d61110c565b610455611127565b9060643567ffffffffffffffff8111610496573660238201121561049657610493938160246104899336930135910161118e565b916044359161135f565b80f35b8480fd5b5082346101c057602090816003193601126101c0578290600160a060020a036104c161110c565b16815260098352818120908251808584549182815201908194845286842090845b81811061053357505050816104f8910382610fec565b83519485948186019282875251809352850193925b82811061051c57505050500390f35b83518552869550938101939281019260010161050d565b8254845292880192600192830192016104e2565b91503461042e578060031936011261042e5761056161110c565b906024359182151580930361049657600160a060020a0316928333146105d05750338452600560205280842083855260205280842060ff1981541660ff8416179055519081527f17307eab39ab6107e8899845ad3d59bd9653f200f220920489ca2b5937696c3160203392a380f35b6020606492519160e560020a62461bcd028352820152601960248201527f4552433732313a20617070726f766520746f2063616c6c6572000000000000006044820152fd5b83823461021157816003193601126102115780519082600180549161063983610fae565b808652928281169081156106d05750600114610674575b5050506106628261042a940383610fec565b519182916020835260208301906110cc565b94508085527fb10e2d527612073b26eecdfd717e6a320cf44b4afac2b0732d9fcbe2b7fa0cf65b8286106106b85750505061066282602061042a9582010194610650565b8054602087870181019190915290950194810161069b565b61042a97508693506020925061066294915060ff1916828401521515810282010194610650565b838234610211578160031936011261021157602090600160a060020a03600654169051908152f35b8390346102115760208060031936011261042e5767ffffffffffffffff9082358281116104965761075390369085016111c5565b9460019061076982600c540180600c553361183e565b600c54865260088352852093865193841161085157506107898454610fae565b601f811161080d575b5081601f84116001146107c45750508394829394926102e8575050816002029160080260020a60001904191617905580f35b909291601f198316968587528287209287905b8982106107f65750508360029596979810610327575050500201905580f35b8087859682949686015181550195019301906107d7565b8486528286208380601f870104820192818710610847575b601f0104019082905b82811061083c575050610792565b87815501829061082e565b9192508291610825565b85604160249260e060020a634e487b7102835252fd5b91503461042e578260031936011261042e5760075491600160a060020a039133838516036108d6575050600160a060020a03198092166007556006549133908316176006553391167f8be0079c531659141344cd1fd0a4f28419497f9722a3daafe3b4186f6b6457e08380a380f35b906020608492519160e560020a62461bcd028352820152602960248201527f4f776e61626c6532537465703a2063616c6c6572206973206e6f74207468652060448201527f6e6577206f776e657200000000000000000000000000000000000000000000006064820152fd5b83346101c057806003193601126101c05761095b6111e3565b80600160a060020a0380198060075416600755600654908116600655167f8be0079c531659141344cd1fd0a4f28419497f9722a3daafe3b4186f6b6457e08280a380f35b83903461021157602036600319011261021157600160a060020a036109c261110c565b169081156109df5760208480858581526003845220549051908152f35b608490602085519160e560020a62461bcd028352820152602960248201527f4552433732313a2061646472657373207a65726f206973206e6f74206120766160448201527f6c6964206f776e657200000000000000000000000000000000000000000000006064820152fd5b9083346101c05760203660031901126101c05750600160a060020a03610a736020933561128c565b915191168152f35b838234610211578160031936011261021157602090600160a060020a03600a54169051908152f35b838234610211576020908160031936011261042e57833591610ac36111e3565b610acc8361128c565b50610ad68361128c565b838552858252600160a060020a03838620918119928381541690551690818652600383528386206000198154019055848652600283528386209081541690558385827fddf252ad1be2c89b69c2b068fc378daa952ba7f163c4a11628f55a4df523b3ef8280a48480526009825282852080549068010000000000000000821015610bb15791610b9586610b77846009966001610b9f9b9a999701815561199b565b90919060088354910260020a91826000039283910216911916179055565b865252832061199b565b60088254910260020a83031916905580f35b60248760418a60e060020a634e487b7102835252fd5b83823461021157610bd73661113d565b91835193602085019085821067ffffffffffffffff831117610bb1576104939697505285845261135f565b83346101c057610493610c143661113d565b91610c27610c228433611408565b6112eb565b6114ea565b838234610211578160031936011261021157602090600b549051908152f35b9091503461042e578160031936011261042e57610c6661110c565b9060243592600160a060020a03918280610c7f8761128c565b16941693808514610d7b57803314908115610d5c575b5015610cf1578486526020528420805473ffffffffffffffffffffffffffffffffffffffff191683179055610cc98361128c565b167f8c5be1e5ebec7d5bd14f71427d1e84f3dd0314c0f7b2291e5b200ac8c7c3b9258480a480f35b6020608492519160e560020a62461bcd028352820152603d60248201527f4552433732313a20617070726f76652063616c6c6572206973206e6f7420746f60448201527f6b656e206f776e6572206f7220617070726f76656420666f7220616c6c0000006064820152fd5b90508652600560205281862033875260205260ff828720541638610c95565b506020608492519160e560020a62461bcd028352820152602160248201527f4552433732313a20617070726f76616c20746f2063757272656e74206f776e6560448201527f72000000000000000000000000000000000000000000000000000000000000006064820152fd5b9083346101c05760203660031901126101c05750600160a060020a03610a73602093356112ae565b838234610211578160031936011261021157805190828054610e3081610fae565b808552916001918083169081156106d05750600114610e5b575050506106628261042a940383610fec565b80809650527f290decd9548b62a8d60345a988386fc84ba6bc95484008f6362f93160ef3e5635b828610610e9f5750505061066282602061042a9582010194610650565b80546020878701810191909152909501948101610e82565b9091503461042e57602036600319011261042e578161042a9361041792358152600860205220611027565b84913461042e57602036600319011261042e57357bffffffffffffffffffffffffffffffffffffffffffffffffffffffff19811680910361042e57602092507f80ac58cd000000000000000000000000000000000000000000000000000000008114908115610f84575b8115610f5a575b5015158152f35b7f01ffc9a70000000000000000000000000000000000000000000000000000000091501483610f53565b7f5b5e139f0000000000000000000000000000000000000000000000000000000081149150610f4c565b9060016002830492168015610fe2575b6020831014610fc957565b60e060020a634e487b7102600052602260045260246000fd5b91607f1691610fbe565b90601f8019910116810190811067ffffffffffffffff82111761100e57604052565b60e060020a634e487b7102600052604160045260246000fd5b906040519182600082549261103b84610fae565b9081845260019485811690816000146110aa5750600114611067575b505061106592500383610fec565b565b9093915060005260209081600020936000915b81831061109257505061106593508201013880611057565b8554888401850152948501948794509183019161107a565b91505061106594506020925060ff191682840152151581028201013880611057565b919082519283825260005b8481106110f8575050826000602080949584010152601f8019910116010190565b6020818301810151848301820152016110d7565b60043590600160a060020a038216820361112257565b600080fd5b60243590600160a060020a038216820361112257565b606090600319011261112257600160a060020a0390600435828116810361112257916024359081168103611122579060443590565b67ffffffffffffffff811161100e57601f01601f191660200190565b92919261119a82611172565b916111a86040519384610fec565b829481845281830111611122578281602093846000960137010152565b9080601f83011215611122578160206111e09335910161118e565b90565b600160a060020a036006541633036111f757565b606460405160e560020a62461bcd02815260206004820152602060248201527f4f776e61626c653a2063616c6c6572206973206e6f7420746865206f776e65726044820152fd5b1561124557565b606460405160e560020a62461bcd02815260206004820152601860248201527f4552433732313a20696e76616c696420746f6b656e20494400000000000000006044820152fd5b6000526002602052600160a060020a03604060002054166111e081151561123e565b6112d1610405826000526002602052600160a060020a0360406000205416151590565b6000526004602052600160a060020a036040600020541690565b156112f257565b608460405160e560020a62461bcd02815260206004820152602d60248201527f4552433732313a2063616c6c6572206973206e6f7420746f6b656e206f776e6560448201527f72206f7220617070726f766564000000000000000000000000000000000000006064820152fd5b90611383939291611373610c228433611408565b61137e8383836114ea565b611688565b1561138a57565b60405160e560020a62461bcd028152806113a6600482016113aa565b0390fd5b60809060208152603260208201527f4552433732313a207472616e7366657220746f206e6f6e20455243373231526560408201527f63656976657220696d706c656d656e746572000000000000000000000000000060608201520190565b90600160a060020a03808061141c8461128c565b1693169183831493841561144f575b508315611439575b50505090565b611445919293506112ae565b1614388080611433565b909350600052600560205260406000208260005260205260ff60406000205416923861142b565b1561147d57565b608460405160e560020a62461bcd02815260206004820152602560248201527f4552433732313a207472616e736665722066726f6d20696e636f72726563742060448201527f6f776e65720000000000000000000000000000000000000000000000000000006064820152fd5b90611512916114f88461128c565b91600160a060020a03938493848094169485911614611476565b1691821561161c578161152f916115288661128c565b1614611476565b6000908382526004602052604092838320600160a060020a0319908181541690558284526003602052848420600019815401905581845284842060018154019055858452600260205281858520918254161790558481837fddf252ad1be2c89b69c2b068fc378daa952ba7f163c4a11628f55a4df523b3ef8680a4825260096020528282208054906801000000000000000082101561160557916115e686610b77846115f3989660016110659b999701815561199b565b815260096020522061199b565b60088254910260020a60000319169055565b60248460e060020a634e487b710281526041600452fd5b608460405160e560020a62461bcd028152602060048201526024808201527f4552433732313a207472616e7366657220746f20746865207a65726f2061646460448201527f72657373000000000000000000000000000000000000000000000000000000006064820152fd5b9293600093909291803b156117e5579484916116fc96604051809481937f150b7a020000000000000000000000000000000000000000000000000000000097888452336004850152600160a060020a0380921660248501526044840152608060648401528260209b8c9760848301906110cc565b0393165af1849181611790575b5061176a575050503d600014611762573d61172381611172565b906117316040519283610fec565b81528091833d92013e5b8051918261175f5760405160e560020a62461bcd028152806113a6600482016113aa565b01fd5b50606061173b565b7bffffffffffffffffffffffffffffffffffffffffffffffffffffffff19161492509050565b9091508581813d83116117de575b6117a88183610fec565b8101031261049657517bffffffffffffffffffffffffffffffffffffffffffffffffffffffff1981168103610496579038611709565b503d61179e565b505050915050600190565b156117f757565b606460405160e560020a62461bcd02815260206004820152601c60248201527f4552433732313a20746f6b656e20616c7265616479206d696e746564000000006044820152fd5b600160a060020a0316801561195457611876611870836000526002602052600160a060020a0360406000205416151590565b156117f0565b611899611870836000526002602052600160a060020a0360406000205416151590565b6000908082526003602052604082206001815401905582825260026020526040822081600160a060020a03198254161790558281837fddf252ad1be2c89b69c2b068fc378daa952ba7f163c4a11628f55a4df523b3ef8180a481526009602052604081208054906801000000000000000082101561193d576115f39261192f85610b778560409560016110659a9801815561199b565b80805260096020522061199b565b60248360e060020a634e487b710281526041600452fd5b606460405160e560020a62461bcd02815260206004820152602060248201527f4552433732313a206d696e7420746f20746865207a65726f20616464726573736044820152fd5b80548210156119b35760005260206000200190600090565b60e060020a634e487b7102600052603260045260246000fdfea26469706673582212201f1589a967a8180e8509ba22fc2a319c7bb6e5ef2fc6c893e77a8020afb4a3f264736f6c63430008110033",
  "immutableReferences": {},
  "source": "// SPDX-License-Identifier: MIT\r\npragma solidity ^0.8.17;\r\n\r\nimport \"@openzeppelin/contracts/utils/Counters.sol\";\r\nimport \"./W3NFT.sol\";\r\n\r\ncontract WhirlFaucet is W3NFT {\r\n    using Counters for Counters.Counter;\r\n\r\n    Counters.Counter private _tokenId;\r\n\r\n    constructor(\r\n        string memory name_,\r\n        string memory symbol_\r\n    ) W3NFT(name_, symbol_, address(0), 0) {}\r\n\r\n    function getFreeNft(string memory uri) external {\r\n        _tokenId.increment();\r\n        _mint(msg.sender, _tokenId.current());\r\n        _tokenURIS[_tokenId.current()] = uri;\r\n    }\r\n}\r\n",
  "sourcePath": "C:\\Users\\DELL\\Documents\\w3link\\SOLIDITY\\contracts\\whirl\\WhirlFaucet.sol",
  "compiler": {
    "name": "solc",
    "version": "0.8.17+commit.8df45f5f.Emscripten.clang"
  },
  "schemaVersion": "3.4.11",
  "updatedAt": "2023-09-23T07:11:14.761Z",
  "devdoc": {
    "kind": "dev",
    "methods": {
      "acceptOwnership()": {
        "details": "The new owner accepts the ownership transfer."
      },
      "approve(address,uint256)": {
        "details": "See {IERC721-approve}."
      },
      "balanceOf(address)": {
        "details": "See {IERC721-balanceOf}."
      },
      "getApproved(uint256)": {
        "details": "See {IERC721-getApproved}."
      },
      "isApprovedForAll(address,address)": {
        "details": "See {IERC721-isApprovedForAll}."
      },
      "name()": {
        "details": "See {IERC721Metadata-name}."
      },
      "owner()": {
        "details": "Returns the address of the current owner."
      },
      "ownerOf(uint256)": {
        "details": "See {IERC721-ownerOf}."
      },
      "pendingOwner()": {
        "details": "Returns the address of the pending owner."
      },
      "renounceOwnership()": {
        "details": "Leaves the contract without owner. It will not be possible to call `onlyOwner` functions. Can only be called by the current owner. NOTE: Renouncing ownership will leave the contract without an owner, thereby disabling any functionality that is only available to the owner."
      },
      "safeTransferFrom(address,address,uint256)": {
        "details": "See {IERC721-safeTransferFrom}."
      },
      "safeTransferFrom(address,address,uint256,bytes)": {
        "details": "See {IERC721-safeTransferFrom}."
      },
      "setApprovalForAll(address,bool)": {
        "details": "See {IERC721-setApprovalForAll}."
      },
      "supportsInterface(bytes4)": {
        "details": "See {IERC165-supportsInterface}."
      },
      "symbol()": {
        "details": "See {IERC721Metadata-symbol}."
      },
      "tokenURI(uint256)": {
        "details": "See {IERC721Metadata-tokenURI}."
      },
      "transferFrom(address,address,uint256)": {
        "details": "See {IERC721-transferFrom}."
      },
      "transferOwnership(address)": {
        "details": "Starts the ownership transfer of the contract to a new account. Replaces the pending transfer if there is one. Can only be called by the current owner."
      }
    },
    "version": 1
  },
  "userdoc": {
    "kind": "user",
    "methods": {},
    "version": 1
  }
}