{
  "contractName": "SwayCall",
  "abi": [
    {
      "inputs": [
        {
          "internalType": "address",
          "name": "swayConfig_",
          "type": "address"
        },
        {
          "internalType": "address",
          "name": "swayCallPay_",
          "type": "address"
        },
        {
          "internalType": "uint32",
          "name": "chainId_",
          "type": "uint32"
        }
      ],
      "stateMutability": "nonpayable",
      "type": "constructor"
    },
    {
      "anonymous": false,
      "inputs": [
        {
          "indexed": false,
          "internalType": "uint256",
          "name": "nonce",
          "type": "uint256"
        },
        {
          "indexed": false,
          "internalType": "uint32",
          "name": "fromChainId",
          "type": "uint32"
        },
        {
          "indexed": false,
          "internalType": "bytes32",
          "name": "fromContractId",
          "type": "bytes32"
        },
        {
          "indexed": false,
          "internalType": "uint32",
          "name": "destChainId",
          "type": "uint32"
        },
        {
          "indexed": false,
          "internalType": "bytes32",
          "name": "destContractId",
          "type": "bytes32"
        },
        {
          "indexed": false,
          "internalType": "uint256",
          "name": "bridgeFee",
          "type": "uint256"
        },
        {
          "indexed": false,
          "internalType": "uint32",
          "name": "slot0U32",
          "type": "uint32"
        },
        {
          "indexed": false,
          "internalType": "uint32",
          "name": "slot1U32",
          "type": "uint32"
        },
        {
          "indexed": false,
          "internalType": "uint256",
          "name": "slot0U64",
          "type": "uint256"
        },
        {
          "indexed": false,
          "internalType": "uint256",
          "name": "slot1U64",
          "type": "uint256"
        },
        {
          "indexed": false,
          "internalType": "uint256",
          "name": "slot2U64",
          "type": "uint256"
        },
        {
          "indexed": false,
          "internalType": "bytes32",
          "name": "slot0B256",
          "type": "bytes32"
        },
        {
          "indexed": false,
          "internalType": "bytes32",
          "name": "slot1B256",
          "type": "bytes32"
        },
        {
          "indexed": false,
          "internalType": "bytes32",
          "name": "slot2B256",
          "type": "bytes32"
        },
        {
          "indexed": false,
          "internalType": "bytes32",
          "name": "slot3B256",
          "type": "bytes32"
        }
      ],
      "name": "Dispatched",
      "type": "event"
    },
    {
      "anonymous": false,
      "inputs": [
        {
          "indexed": true,
          "internalType": "address",
          "name": "previousOwner",
          "type": "address"
        },
        {
          "indexed": true,
          "internalType": "address",
          "name": "newOwner",
          "type": "address"
        }
      ],
      "name": "OwnershipTransferStarted",
      "type": "event"
    },
    {
      "anonymous": false,
      "inputs": [
        {
          "indexed": true,
          "internalType": "address",
          "name": "previousOwner",
          "type": "address"
        },
        {
          "indexed": true,
          "internalType": "address",
          "name": "newOwner",
          "type": "address"
        }
      ],
      "name": "OwnershipTransferred",
      "type": "event"
    },
    {
      "anonymous": false,
      "inputs": [
        {
          "indexed": false,
          "internalType": "address",
          "name": "account",
          "type": "address"
        }
      ],
      "name": "Paused",
      "type": "event"
    },
    {
      "anonymous": false,
      "inputs": [
        {
          "indexed": false,
          "internalType": "uint256",
          "name": "nonce",
          "type": "uint256"
        }
      ],
      "name": "SwayExecuted",
      "type": "event"
    },
    {
      "anonymous": false,
      "inputs": [
        {
          "indexed": false,
          "internalType": "address",
          "name": "account",
          "type": "address"
        }
      ],
      "name": "Unpaused",
      "type": "event"
    },
    {
      "inputs": [],
      "name": "CHAIN_ID",
      "outputs": [
        {
          "internalType": "uint32",
          "name": "",
          "type": "uint32"
        }
      ],
      "stateMutability": "view",
      "type": "function",
      "constant": true
    },
    {
      "inputs": [],
      "name": "acceptOwnership",
      "outputs": [],
      "stateMutability": "nonpayable",
      "type": "function"
    },
    {
      "inputs": [],
      "name": "owner",
      "outputs": [
        {
          "internalType": "address",
          "name": "",
          "type": "address"
        }
      ],
      "stateMutability": "view",
      "type": "function",
      "constant": true
    },
    {
      "inputs": [],
      "name": "paused",
      "outputs": [
        {
          "internalType": "bool",
          "name": "",
          "type": "bool"
        }
      ],
      "stateMutability": "view",
      "type": "function",
      "constant": true
    },
    {
      "inputs": [],
      "name": "pendingOwner",
      "outputs": [
        {
          "internalType": "address",
          "name": "",
          "type": "address"
        }
      ],
      "stateMutability": "view",
      "type": "function",
      "constant": true
    },
    {
      "inputs": [],
      "name": "renounceOwnership",
      "outputs": [],
      "stateMutability": "nonpayable",
      "type": "function"
    },
    {
      "inputs": [
        {
          "internalType": "address",
          "name": "newOwner",
          "type": "address"
        }
      ],
      "name": "transferOwnership",
      "outputs": [],
      "stateMutability": "nonpayable",
      "type": "function"
    },
    {
      "inputs": [
        {
          "internalType": "bytes32",
          "name": "destContractId",
          "type": "bytes32"
        },
        {
          "internalType": "address",
          "name": "fromContractId",
          "type": "address"
        },
        {
          "components": [
            {
              "internalType": "uint32",
              "name": "slot0U32",
              "type": "uint32"
            },
            {
              "internalType": "uint32",
              "name": "slot1U32",
              "type": "uint32"
            },
            {
              "internalType": "uint256",
              "name": "slot0U64",
              "type": "uint256"
            },
            {
              "internalType": "uint256",
              "name": "slot1U64",
              "type": "uint256"
            },
            {
              "internalType": "uint256",
              "name": "slot2U64",
              "type": "uint256"
            },
            {
              "internalType": "bytes32",
              "name": "slot0B256",
              "type": "bytes32"
            },
            {
              "internalType": "bytes32",
              "name": "slot1B256",
              "type": "bytes32"
            },
            {
              "internalType": "bytes32",
              "name": "slot2B256",
              "type": "bytes32"
            },
            {
              "internalType": "bytes32",
              "name": "slot3B256",
              "type": "bytes32"
            }
          ],
          "internalType": "struct Structs.SCPayloadData",
          "name": "data",
          "type": "tuple"
        },
        {
          "internalType": "uint32",
          "name": "destChainId",
          "type": "uint32"
        },
        {
          "internalType": "uint32",
          "name": "callFlag",
          "type": "uint32"
        },
        {
          "internalType": "uint256",
          "name": "receiptId",
          "type": "uint256"
        }
      ],
      "name": "swayDispatch",
      "outputs": [],
      "stateMutability": "payable",
      "type": "function",
      "payable": true
    },
    {
      "inputs": [
        {
          "components": [
            {
              "internalType": "uint32",
              "name": "nonce",
              "type": "uint32"
            },
            {
              "internalType": "uint32",
              "name": "fromChainId",
              "type": "uint32"
            },
            {
              "internalType": "bytes32",
              "name": "fromContractId",
              "type": "bytes32"
            },
            {
              "internalType": "uint32",
              "name": "destChainId",
              "type": "uint32"
            },
            {
              "internalType": "bytes32",
              "name": "destContractId",
              "type": "bytes32"
            },
            {
              "components": [
                {
                  "internalType": "uint32",
                  "name": "slot0U32",
                  "type": "uint32"
                },
                {
                  "internalType": "uint32",
                  "name": "slot1U32",
                  "type": "uint32"
                },
                {
                  "internalType": "uint256",
                  "name": "slot0U64",
                  "type": "uint256"
                },
                {
                  "internalType": "uint256",
                  "name": "slot1U64",
                  "type": "uint256"
                },
                {
                  "internalType": "uint256",
                  "name": "slot2U64",
                  "type": "uint256"
                },
                {
                  "internalType": "bytes32",
                  "name": "slot0B256",
                  "type": "bytes32"
                },
                {
                  "internalType": "bytes32",
                  "name": "slot1B256",
                  "type": "bytes32"
                },
                {
                  "internalType": "bytes32",
                  "name": "slot2B256",
                  "type": "bytes32"
                },
                {
                  "internalType": "bytes32",
                  "name": "slot3B256",
                  "type": "bytes32"
                }
              ],
              "internalType": "struct Structs.SCPayloadData",
              "name": "data",
              "type": "tuple"
            }
          ],
          "internalType": "struct Structs.SCPayload",
          "name": "payload",
          "type": "tuple"
        }
      ],
      "name": "swayExecute",
      "outputs": [],
      "stateMutability": "nonpayable",
      "type": "function"
    },
    {
      "inputs": [
        {
          "internalType": "address",
          "name": "config",
          "type": "address"
        }
      ],
      "name": "updateConfig",
      "outputs": [],
      "stateMutability": "nonpayable",
      "type": "function"
    },
    {
      "inputs": [
        {
          "internalType": "address",
          "name": "callPay",
          "type": "address"
        }
      ],
      "name": "updateCallPay",
      "outputs": [],
      "stateMutability": "nonpayable",
      "type": "function"
    },
    {
      "inputs": [],
      "name": "pause",
      "outputs": [],
      "stateMutability": "nonpayable",
      "type": "function"
    },
    {
      "inputs": [],
      "name": "unpause",
      "outputs": [],
      "stateMutability": "nonpayable",
      "type": "function"
    }
  ],
  "bytecode": "0x60a03461010657610f2780380390601f19601f83011683019183831067ffffffffffffffff84111761010b57808492606094604052833981010312610106576100478161013a565b9060406100566020830161013a565b91015163ffffffff811681036101065760015460008054600160a060020a0319808216339081178455604051979196600160a060020a0395909486949192918516907f8be0079c531659141344cd1fd0a4f28419497f9722a3daafe3b4186f6b6457e09080a3600160a860020a031916600155168460045416176004551682600554161760055560805233906003541617600355610dd8908161014f823960805181818161019e01526104a10152f35b600080fd5b7f4e487b7100000000000000000000000000000000000000000000000000000000600052604160045260246000fd5b5190600160a060020a03821682036101065756fe6080604052600436101561001257600080fd5b60007c01000000000000000000000000000000000000000000000000000000008135048063188b1db8146107925780633f4ba83a146106c75780635c975abb1461068d578063632a5126146106565780636cc919c81461061f578063715018a6146105c3578063777307671461031d57806379ba5097146102455780638456cb59146101c257806385e1f4d0146101815780638da5cb5b1461015b578063e30c3978146101345763f2fde38b146100c857600080fd5b34610131576020366003190112610131576100e1610ab5565b6100e9610acb565b600160a060020a038091169081600160a060020a031960015416176001558254167f38d16b8cac22d99fc7c124b9cd0de2d3fa1faef420bfe791d8c362d765e227008380a380f35b80fd5b50346101315780600319360112610131576020600160a060020a0360015416604051908152f35b5034610131578060031936011261013157600160a060020a036020915416604051908152f35b5034610131578060031936011261013157602060405163ffffffff7f0000000000000000000000000000000000000000000000000000000000000000168152f35b50346101315780600319360112610131576101db610acb565b6101e3610b8f565b7401000000000000000000000000000000000000000074ff00000000000000000000000000000000000000001960015416176001557f62e78cea01bee320cd4e420270b5ea74000d11b0c9f74754ebdbfc544b05a2586020604051338152a180f35b5034610131578060031936011261013157600154600160a060020a0333818316036102b057600160a060020a03198092166001556000549133908316176000553391167f8be0079c531659141344cd1fd0a4f28419497f9722a3daafe3b4186f6b6457e0600080a380f35b608460405160e560020a62461bcd02815260206004820152602960248201527f4f776e61626c6532537465703a2063616c6c6572206973206e6f74207468652060448201527f6e6577206f776e657200000000000000000000000000000000000000000000006064820152fd5b506101c036600319011261013157600160a060020a038060243516602435036105ba576101203660431901126105bf5763ffffffff610164351661016435036105ba5763ffffffff610184351661018435036105ba5761037b610b8f565b8060045416604051917ff55398370000000000000000000000000000000000000000000000000000000083523360048401526044359263ffffffff841684036105ba5763ffffffff841660248201526064359263ffffffff841684036105ba57816101448160209363ffffffff88166044830152608435606483015260a435608483015260c43560a483015260e43560c48301526101043560e48301526101243561010483015282356101248301525afa9081156105af578591610580575b50156105395763ffffffff6101e092817f4e4fcea4589d902b2282c92e973d04b7a96ee403623a7bf89ecf8b77ce7c56299542885260026020526040882060ff19815416905561049761016435602435610184356101a435610bf9565b60405195428752837f00000000000000000000000000000000000000000000000000000000000000001660208801526024351660408701528261016435166060870152600435608087015260a08601521660c08401521660e082015260843561010082015260a43561012082015260c43561014082015260e43561016082015261010435610180820152610124356101a0820152610144356101c0820152a180f35b606460405160e560020a62461bcd02815260206004820152601060248201527f494e56414c49445f4449535041544348000000000000000000000000000000006044820152fd5b6105a2915060203d6020116105a8575b61059a8183610b26565b810190610b77565b3861043a565b503d610590565b6040513d87823e3d90fd5b600080fd5b5080fd5b50346101315780600319360112610131576105dc610acb565b6000600160a060020a038019806001541660015582549081168355167f8be0079c531659141344cd1fd0a4f28419497f9722a3daafe3b4186f6b6457e08280a380f35b503461013157602036600319011261013157600160a060020a03610641610ab5565b16600160a060020a0319600454161760045580f35b503461013157602036600319011261013157600160a060020a03610678610ab5565b16600160a060020a0319600554161760055580f35b5034610131578060031936011261013157602060ff7401000000000000000000000000000000000000000060015404166040519015158152f35b50346101315780600319360112610131576106e0610acb565b60015460ff740100000000000000000000000000000000000000008204161561074b5774ff000000000000000000000000000000000000000019166001557f5db9ee0a495bf2e6ff9c91a7834c1ba4fdd244a5e8aa4e537bd38aeae4b073aa6020604051338152a180f35b606460405160e560020a62461bcd02815260206004820152601460248201527f5061757361626c653a206e6f74207061757365640000000000000000000000006044820152fd5b5034610131576101c0366003190112610131576107ad610b8f565b6004359063ffffffff821682036101315763ffffffff82168152600260205260ff604082205416610a6e57600160a060020a038060045416604051917ff55398370000000000000000000000000000000000000000000000000000000083528060843516600484015260a4359263ffffffff84168403610a005763ffffffff8416602482015260c4359263ffffffff84168403610a6a57816101448160209363ffffffff8816604483015260e43560648301526101043560848301526101243560a4830152823560c48301526101643560e4830152610184356101048301526101a4356101248301525afa9081156105af578591610a4b575b5015610a04576024359163ffffffff83168303610a005781608435163b15610a005784928363ffffffff93846101449481604051998a9889977fdd4c660200000000000000000000000000000000000000000000000000000000895216600488015216602486015216604484015260e43560648401526101043560848401526101243560a4840152833560c48401526101643560e4840152610184356101048401526101a435610124840152608435165af180156109f5576109af575b5063ffffffff8216808252600260209081526040808420805460ff19166001179055519182527fc732da00db8fa6b37f71abfb604c9c02f92762ec3aff4979d9f6489fc0f697ee91a180f35b67ffffffffffffffff81116109c8576040526020610963565b6024827f4e487b710000000000000000000000000000000000000000000000000000000081526041600452fd5b6040513d84823e3d90fd5b8480fd5b606460405160e560020a62461bcd02815260206004820152600f60248201527f494e56414c49445f4558454355544500000000000000000000000000000000006044820152fd5b610a64915060203d6020116105a85761059a8183610b26565b386108a6565b8580fd5b606460405160e560020a62461bcd02815260206004820152601160248201527f455845435554455f434f4d504c455445440000000000000000000000000000006044820152fd5b60043590600160a060020a03821682036105ba57565b600160a060020a03600054163303610adf57565b606460405160e560020a62461bcd02815260206004820152602060248201527f4f776e61626c653a2063616c6c6572206973206e6f7420746865206f776e65726044820152fd5b90601f8019910116810190811067ffffffffffffffff821117610b4857604052565b7f4e487b7100000000000000000000000000000000000000000000000000000000600052604160045260246000fd5b908160209103126105ba575180151581036105ba5790565b60ff740100000000000000000000000000000000000000006001540416610bb257565b606460405160e560020a62461bcd02815260206004820152601060248201527f5061757361626c653a20706175736564000000000000000000000000000000006044820152fd5b929063ffffffff908116600103610ca55750506020906044600160a060020a03936000856005541660405196879586947f911e57ee00000000000000000000000000000000000000000000000000000000865260048601521660248401525af1908115610c9957600091610c6b575090565b906020823d8211610c91575b81610c8460209383610b26565b8101031261013157505190565b3d9150610c77565b6040513d6000823e3d90fd5b915091506020600160a060020a0391602483600454169460405195869384927ffe73c0cb0000000000000000000000000000000000000000000000000000000084521660048301525afa918215610c9957600092610d6f575b508115610d6857813410610d2157600080808481946003541682f115610c995790565b606460405160e560020a62461bcd02815260206004820152601360248201527f4e4f545f43414c4c5f454e4f5547485f464545000000000000000000000000006044820152fd5b5050600090565b90916020823d8211610d9a575b81610d8960209383610b26565b810103126101315750519038610cfe565b3d9150610d7c56fea2646970667358221220c72a1c0b60517c2c5bb9257a13524b4f732d447b32d559278ba6be85eb251bb264736f6c63430008110033",
  "immutableReferences": {
    "354": [
      {
        "length": 32,
        "start": 414
      },
      {
        "length": 32,
        "start": 1185
      }
    ]
  },
  "source": "// SPDX-License-Identifier: MIT\r\npragma solidity ^0.8.17;\r\n\r\nimport \"./libraries/Structs.sol\";\r\nimport \"./libraries/CallFlags.sol\";\r\nimport \"./interfaces/ISwayCall.sol\";\r\nimport \"./interfaces/ISwayConfig.sol\";\r\nimport \"./interfaces/ISwayCallApp.sol\";\r\nimport \"./interfaces/ISwayCallPay.sol\";\r\n\r\nimport \"./libraries/DestChains.sol\";\r\nimport \"./libraries/TypeCasts.sol\";\r\n\r\nimport \"@openzeppelin/contracts/utils/Context.sol\";\r\nimport \"@openzeppelin/contracts/security/Pausable.sol\";\r\nimport \"@openzeppelin/contracts/access/Ownable2Step.sol\";\r\n\r\ncontract SwayCall is Context, ISwayCall, Ownable2Step, Pausable {\r\n    using TypeCasts for bytes32;\r\n    using TypeCasts for address;\r\n\r\n    uint32 public immutable CHAIN_ID;\r\n\r\n    mapping(uint256 => bool) private _executed;\r\n\r\n    address payable private _handler;\r\n\r\n    ISwayConfig private _swayConfig;\r\n    ISwayCallPay private _swayCallPay;\r\n\r\n    event Dispatched(\r\n        uint256 nonce,\r\n        uint32 fromChainId,\r\n        bytes32 fromContractId,\r\n        uint32 destChainId,\r\n        bytes32 destContractId,\r\n        uint256 bridgeFee,\r\n        uint32 slot0U32,\r\n        uint32 slot1U32,\r\n        uint256 slot0U64,\r\n        uint256 slot1U64,\r\n        uint256 slot2U64,\r\n        bytes32 slot0B256,\r\n        bytes32 slot1B256,\r\n        bytes32 slot2B256,\r\n        bytes32 slot3B256\r\n    );\r\n\r\n    event SwayExecuted(uint256 nonce);\r\n\r\n    constructor(address swayConfig_, address swayCallPay_, uint32 chainId_) Ownable2Step() {\r\n        _swayConfig = ISwayConfig(swayConfig_);\r\n        _swayCallPay = ISwayCallPay(swayCallPay_);\r\n        CHAIN_ID = chainId_;\r\n        _handler = payable(_msgSender());\r\n    }\r\n\r\n    function swayDispatch(\r\n        bytes32 destContractId,\r\n        address fromContractId,\r\n        Structs.SCPayloadData calldata data,\r\n        uint32 destChainId,\r\n        uint32 callFlag,\r\n        uint256 receiptId\r\n    ) external payable override whenNotPaused {\r\n        bool validate = _swayConfig.verify(_msgSender(), data);\r\n        require(validate, \"INVALID_DISPATCH\");\r\n\r\n        uint256 nonce = block.timestamp;\r\n        _executed[nonce] = false;\r\n\r\n        uint256 bridgeFee = _payFee(\r\n            receiptId,\r\n            callFlag,\r\n            fromContractId,\r\n            destChainId\r\n        );\r\n\r\n        emit Dispatched(\r\n            nonce,\r\n            CHAIN_ID,\r\n            fromContractId.addressToBytes32(),\r\n            destChainId,\r\n            destContractId,\r\n            bridgeFee,\r\n            data.slot0U32,\r\n            data.slot1U32,\r\n            data.slot0U64,\r\n            data.slot1U64,\r\n            data.slot2U64,\r\n            data.slot0B256,\r\n            data.slot1B256,\r\n            data.slot2B256,\r\n            data.slot3B256\r\n        );\r\n    }\r\n\r\n    function swayExecute(\r\n        Structs.SCPayload calldata payload\r\n    ) external whenNotPaused {\r\n        uint256 nonce = payload.nonce;\r\n\r\n        require(!_executed[nonce], \"EXECUTE_COMPLETED\");\r\n\r\n        address destContractId = payload.destContractId.bytes32ToAddress();\r\n        bool validate = _swayConfig.verify(destContractId, payload.data);\r\n        require(validate, \"INVALID_EXECUTE\");\r\n\r\n        ISwayCallApp(destContractId).execute(payload.fromChainId, payload.data);\r\n\r\n        _executed[nonce] = true;\r\n\r\n        emit SwayExecuted(nonce);\r\n    }\r\n\r\n    function _payFee(\r\n        uint256 receiptId,\r\n        uint32 callFlag,\r\n        address contractId,\r\n        uint32 destChainId\r\n    ) internal returns (uint256) {\r\n        if (callFlag == CallFlags.PAY_FROM_SWAYCALL) {\r\n            return _swayCallPay.useReceipt(receiptId, contractId);\r\n        } else {\r\n            uint256 bridgeFee = _swayConfig.swayFee(destChainId);\r\n\r\n            if (bridgeFee == 0) return 0;\r\n\r\n            require(msg.value >= bridgeFee, \"NOT_CALL_ENOUGH_FEE\");\r\n            _handler.transfer(bridgeFee);\r\n\r\n            return bridgeFee;\r\n        }\r\n    }\r\n\r\n    function updateConfig(address config) external {\r\n        _swayConfig = ISwayConfig(config);\r\n    }\r\n\r\n    function updateCallPay(address callPay) external {\r\n        _swayCallPay = ISwayCallPay(callPay);\r\n    }\r\n\r\n    function pause() external onlyOwner {\r\n        _pause();\r\n    }\r\n\r\n    function unpause() external onlyOwner {\r\n        _unpause();\r\n    }\r\n}\r\n",
  "sourcePath": "C:\\Users\\DELL\\Documents\\swaycall\\solidity\\swaycall\\contracts\\SwayCall.sol",
  "compiler": {
    "name": "solc",
    "version": "0.8.17+commit.8df45f5f.Emscripten.clang"
  },
  "schemaVersion": "3.4.11",
  "updatedAt": "2023-08-01T00:46:49.073Z",
  "networkType": "ethereum",
  "devdoc": {
    "kind": "dev",
    "methods": {
      "acceptOwnership()": {
        "details": "The new owner accepts the ownership transfer."
      },
      "owner()": {
        "details": "Returns the address of the current owner."
      },
      "paused()": {
        "details": "Returns true if the contract is paused, and false otherwise."
      },
      "pendingOwner()": {
        "details": "Returns the address of the pending owner."
      },
      "renounceOwnership()": {
        "details": "Leaves the contract without owner. It will not be possible to call `onlyOwner` functions. Can only be called by the current owner. NOTE: Renouncing ownership will leave the contract without an owner, thereby disabling any functionality that is only available to the owner."
      },
      "transferOwnership(address)": {
        "details": "Starts the ownership transfer of the contract to a new account. Replaces the pending transfer if there is one. Can only be called by the current owner."
      }
    },
    "version": 1
  },
  "userdoc": {
    "kind": "user",
    "methods": {},
    "version": 1
  }
}