{
  "contractName": "W3Link",
  "abi": [
    {
      "inputs": [
        {
          "internalType": "uint256",
          "name": "chainId_",
          "type": "uint256"
        },
        {
          "internalType": "address",
          "name": "config_",
          "type": "address"
        }
      ],
      "stateMutability": "nonpayable",
      "type": "constructor"
    },
    {
      "anonymous": false,
      "inputs": [
        {
          "indexed": false,
          "internalType": "address",
          "name": "contractId",
          "type": "address"
        },
        {
          "indexed": false,
          "internalType": "uint256",
          "name": "value",
          "type": "uint256"
        }
      ],
      "name": "Deposit",
      "type": "event"
    },
    {
      "anonymous": false,
      "inputs": [
        {
          "indexed": false,
          "internalType": "bytes32",
          "name": "hash",
          "type": "bytes32"
        },
        {
          "indexed": false,
          "internalType": "address",
          "name": "destContractId",
          "type": "address"
        },
        {
          "indexed": false,
          "internalType": "address",
          "name": "fromContractId",
          "type": "address"
        },
        {
          "indexed": false,
          "internalType": "uint256",
          "name": "destChainId",
          "type": "uint256"
        },
        {
          "indexed": false,
          "internalType": "uint256",
          "name": "fee",
          "type": "uint256"
        },
        {
          "indexed": false,
          "internalType": "bytes",
          "name": "data",
          "type": "bytes"
        },
        {
          "indexed": false,
          "internalType": "bytes32",
          "name": "extra",
          "type": "bytes32"
        }
      ],
      "name": "Dispatch",
      "type": "event"
    },
    {
      "anonymous": false,
      "inputs": [
        {
          "indexed": false,
          "internalType": "bytes32",
          "name": "hash",
          "type": "bytes32"
        }
      ],
      "name": "Executed",
      "type": "event"
    },
    {
      "anonymous": false,
      "inputs": [
        {
          "indexed": true,
          "internalType": "address",
          "name": "previousOwner",
          "type": "address"
        },
        {
          "indexed": true,
          "internalType": "address",
          "name": "newOwner",
          "type": "address"
        }
      ],
      "name": "OwnershipTransferStarted",
      "type": "event"
    },
    {
      "anonymous": false,
      "inputs": [
        {
          "indexed": true,
          "internalType": "address",
          "name": "previousOwner",
          "type": "address"
        },
        {
          "indexed": true,
          "internalType": "address",
          "name": "newOwner",
          "type": "address"
        }
      ],
      "name": "OwnershipTransferred",
      "type": "event"
    },
    {
      "anonymous": false,
      "inputs": [
        {
          "indexed": false,
          "internalType": "address",
          "name": "newConfig",
          "type": "address"
        }
      ],
      "name": "SetConfig",
      "type": "event"
    },
    {
      "anonymous": false,
      "inputs": [
        {
          "indexed": false,
          "internalType": "address",
          "name": "contractId",
          "type": "address"
        },
        {
          "indexed": false,
          "internalType": "uint256",
          "name": "value",
          "type": "uint256"
        }
      ],
      "name": "Withdraw",
      "type": "event"
    },
    {
      "inputs": [],
      "name": "_chainId",
      "outputs": [
        {
          "internalType": "uint256",
          "name": "",
          "type": "uint256"
        }
      ],
      "stateMutability": "view",
      "type": "function",
      "constant": true
    },
    {
      "inputs": [],
      "name": "acceptOwnership",
      "outputs": [],
      "stateMutability": "nonpayable",
      "type": "function"
    },
    {
      "inputs": [
        {
          "internalType": "uint256",
          "name": "dispatchId",
          "type": "uint256"
        }
      ],
      "name": "getHash",
      "outputs": [
        {
          "internalType": "bytes32",
          "name": "",
          "type": "bytes32"
        }
      ],
      "stateMutability": "pure",
      "type": "function",
      "constant": true
    },
    {
      "inputs": [],
      "name": "owner",
      "outputs": [
        {
          "internalType": "address",
          "name": "",
          "type": "address"
        }
      ],
      "stateMutability": "view",
      "type": "function",
      "constant": true
    },
    {
      "inputs": [],
      "name": "pendingOwner",
      "outputs": [
        {
          "internalType": "address",
          "name": "",
          "type": "address"
        }
      ],
      "stateMutability": "view",
      "type": "function",
      "constant": true
    },
    {
      "inputs": [],
      "name": "renounceOwnership",
      "outputs": [],
      "stateMutability": "nonpayable",
      "type": "function"
    },
    {
      "inputs": [
        {
          "internalType": "address",
          "name": "newOwner",
          "type": "address"
        }
      ],
      "name": "transferOwnership",
      "outputs": [],
      "stateMutability": "nonpayable",
      "type": "function"
    },
    {
      "inputs": [
        {
          "internalType": "bytes32",
          "name": "",
          "type": "bytes32"
        }
      ],
      "name": "verifyHash",
      "outputs": [
        {
          "internalType": "bool",
          "name": "",
          "type": "bool"
        }
      ],
      "stateMutability": "pure",
      "type": "function",
      "constant": true
    },
    {
      "inputs": [
        {
          "internalType": "address",
          "name": "destContractId",
          "type": "address"
        },
        {
          "internalType": "bytes",
          "name": "data",
          "type": "bytes"
        },
        {
          "internalType": "uint256",
          "name": "destChainId",
          "type": "uint256"
        },
        {
          "internalType": "bytes32",
          "name": "extra",
          "type": "bytes32"
        }
      ],
      "name": "dispatch",
      "outputs": [],
      "stateMutability": "nonpayable",
      "type": "function"
    },
    {
      "inputs": [
        {
          "internalType": "bytes32",
          "name": "hash",
          "type": "bytes32"
        },
        {
          "internalType": "address",
          "name": "destContractId",
          "type": "address"
        },
        {
          "internalType": "bytes",
          "name": "data",
          "type": "bytes"
        },
        {
          "internalType": "uint256",
          "name": "fromChainId",
          "type": "uint256"
        },
        {
          "internalType": "bytes32",
          "name": "extra",
          "type": "bytes32"
        }
      ],
      "name": "execute",
      "outputs": [],
      "stateMutability": "nonpayable",
      "type": "function"
    },
    {
      "inputs": [],
      "name": "deposit",
      "outputs": [],
      "stateMutability": "payable",
      "type": "function",
      "payable": true
    },
    {
      "inputs": [
        {
          "internalType": "uint256",
          "name": "amount",
          "type": "uint256"
        }
      ],
      "name": "withdraw",
      "outputs": [],
      "stateMutability": "nonpayable",
      "type": "function"
    },
    {
      "inputs": [
        {
          "internalType": "address",
          "name": "newConfig",
          "type": "address"
        }
      ],
      "name": "setConfig",
      "outputs": [],
      "stateMutability": "nonpayable",
      "type": "function"
    },
    {
      "inputs": [],
      "name": "config",
      "outputs": [
        {
          "internalType": "address",
          "name": "",
          "type": "address"
        }
      ],
      "stateMutability": "view",
      "type": "function",
      "constant": true
    }
  ],
  "bytecode": "0x60a0346100c257610af980380390601f19601f83011683019183831067ffffffffffffffff8411176100c75780849260409485528339810103126100c2578051602090910151600160a060020a0391828216918290036100c257600160a060020a03199081600154166001556000543383821617600055604051943391167f8be0079c531659141344cd1fd0a4f28419497f9722a3daafe3b4186f6b6457e0600080a36080526002541617600255610a0290816100f782396080518161052f0152f35b600080fd5b7f4e487b7100000000000000000000000000000000000000000000000000000000600052604160045260246000fdfe60406080815260048036101561001457600080fd5b6000917c010000000000000000000000000000000000000000000000000000000083350491826320e3dbd41461073b5782632e1a7d4d1461069c5782634964e699146105cb5782636b2fafa9146105ad578263715018a614610552578263747734121461051757826379502c55146104ef57826379ba50971461040b5782638da5cb5b146103e5578263ccf1d3071461023c578263d0e30db01461018e57508163e30c397814610166578163ef020f4a14610145575063f2fde38b146100d957600080fd5b34610142576020366003190112610142576100f26107a6565b6100fa6107ef565b600160a060020a038091169081600160a060020a031960015416176001558254167f38d16b8cac22d99fc7c124b9cd0de2d3fa1faef420bfe791d8c362d765e227008380a380f35b80fd5b905034610162576020366003190112610162576020905160018152f35b5080fd5b905034610162578160031936011261016257602090600160a060020a03600154169051908152f35b9091508260031936011261023857338352600560205281832080549134830180931161022257505581808080600160a060020a0381541681903415610218575b3491f11561020e57513381523460208201527fe1fffcc4923d04b559f4d29a8bfc6cda04eb5b0d3c460751c2402c5c5cc9109c9080604081015b0390a180f35b51903d90823e3d90fd5b6108fc91506101ce565b84601160249260e060020a634e487b7102835252fd5b8280fd5b9150346102385760a036600319011261023857813591602435600160a060020a0381168091036103e15767ffffffffffffffff6044358181116103dd5761028690369085016107c1565b928688528460205260ff868920541661039757908188923b15610238576102eb948388518097819582947f913bebdc0000000000000000000000000000000000000000000000000000000084526064358c85015260606024850152606484019161084a565b608435604483015203925af1801561038d57610344575b857fa74c8847d513feba22a0f0cb38d53081abf97562cdb293926ba243689e7c41ca60208787878286528352808520600160ff1982541617905551908152a180f35b819592951161037757825292817fa74c8847d513feba22a0f0cb38d53081abf97562cdb293926ba243689e7c41ca610302565b60248260418760e060020a634e487b7102835252fd5b84513d88823e3d90fd5b606485602088519160e560020a62461bcd028352820152601160248201527f4578656375746520436f6d706c657465640000000000000000000000000000006044820152fd5b8680fd5b8480fd5b838234610162578160031936011261016257600160a060020a0360209254169051908152f35b91503461023857826003193601126102385760015491600160a060020a0391338385160361048357505073ffffffffffffffffffffffffffffffffffffffff1991821660015582543392811683178455167f8be0079c531659141344cd1fd0a4f28419497f9722a3daafe3b4186f6b6457e08380a380f35b906020608492519160e560020a62461bcd028352820152602960248201527f4f776e61626c6532537465703a2063616c6c6572206973206e6f74207468652060448201527f6e6577206f776e657200000000000000000000000000000000000000000000006064820152fd5b838234610162578160031936011261016257602090600160a060020a03600254169051908152f35b838234610162578160031936011261016257602090517f00000000000000000000000000000000000000000000000000000000000000008152f35b833461014257806003193601126101425761056b6107ef565b80600160a060020a038019806001541660015582549081168355167f8be0079c531659141344cd1fd0a4f28419497f9722a3daafe3b4186f6b6457e08280a380f35b91503461023857602036600319011261023857602092505190358152f35b90915034610238576080366003190112610238576105e76107a6565b9060243567ffffffffffffffff81116103e1577fa397d9d0a8c51ee700787e0a880c99fad0e469c56474a1c50ab88c0e3e4c28c69361062c61068592369085016107c1565b909160443560035495868a5260205281892060ff19815416905561064f816108df565b91600160a060020a038151988998895216602088015233908701526060860152608085015260e060a085015260e084019161084a565b60643560c08301520390a160016003540160035580f35b90915034610238576020366003190112610238573533835260056020528183206106d38282546106ce8282101561086b565b6108b9565b90558280828015610731575b8280929181923390f11561072657905133815260208101919091527f884edad9ce6fa2440d8a54cc123490eb96d2768479d49ff9c7366125a9424364908060408101610208565b5051903d90823e3d90fd5b6108fc91506106df565b8382346101625760203660031901126101625760207fc5618716db99966ac0bedb011a55472827d54343d73b50c3118c0b03cdf1c75f91600160a060020a036107826107a6565b61078a6107ef565b169081600160a060020a0319600254161760025551908152a180f35b60043590600160a060020a03821682036107bc57565b600080fd5b9181601f840112156107bc5782359167ffffffffffffffff83116107bc57602083818601950101116107bc57565b600160a060020a0360005416330361080357565b606460405160e560020a62461bcd02815260206004820152602060248201527f4f776e61626c653a2063616c6c6572206973206e6f7420746865206f776e65726044820152fd5b908060209392818452848401376000828201840152601f01601f1916010190565b1561087257565b606460405160e560020a62461bcd02815260206004820152601260248201527f496e73756666696369656e742076616c756500000000000000000000000000006044820152fd5b919082039182116108c657565b60e060020a634e487b7102600052601160045260246000fd5b6020600160a060020a0360025416916024604051809481937f39b37ab000000000000000000000000000000000000000000000000000000000835260048301525afa9081156109c057600091610962575b50801561095c5733600052600560205260406000206109578282546106ce8282101561086b565b905590565b50600090565b9060203d81116109b9575b601f8101601f1916830167ffffffffffffffff8111848210176109a25760209184916040528101031261014257505138610930565b60248360e060020a634e487b710281526041600452fd5b503d61096d565b6040513d6000823e3d90fdfea26469706673582212204163fc60e5682168d0dda9497d1068a26d6d67f5d4b4ac564a58042e3f7c152664736f6c63430008110033",
  "immutableReferences": {
    "5297": [
      {
        "length": 32,
        "start": 1327
      }
    ]
  },
  "source": "// SPDX-License-Identifier: MIT\r\npragma solidity ^0.8.17;\r\n\r\nimport \"./interfaces/IW3Link.sol\";\r\nimport \"./interfaces/IW3LinkApp.sol\";\r\nimport \"./interfaces/IW3LinkConfig.sol\";\r\nimport \"./signature/Signature.sol\";\r\n\r\nimport \"@openzeppelin/contracts/access/Ownable2Step.sol\";\r\nimport \"@openzeppelin/contracts/utils/Counters.sol\";\r\n\r\ncontract W3Link is IW3Link, Ownable2Step, Signature {    \r\n    using Counters for Counters.Counter;\r\n    \r\n    address private _config;\r\n    uint256 public immutable _chainId;\r\n\r\n    Counters.Counter private _dispatchId;\r\n\r\n    mapping(bytes32 => bool) private _executed;\r\n\r\n    struct Gas {\r\n        uint256 value;\r\n    }\r\n\r\n    mapping(address => Gas) private _gasContents;\r\n\r\n    event SetConfig(address newConfig);\r\n    event Dispatch(\r\n        bytes32 hash,\r\n        address destContractId,\r\n        address fromContractId,\r\n        uint256 destChainId,\r\n        uint256 fee,\r\n        bytes data,\r\n        bytes32 extra\r\n    );\r\n    event Executed(bytes32 hash);\r\n    event Deposit(address contractId, uint256 value);\r\n    event Withdraw(address contractId, uint256 value);\r\n\r\n    constructor(uint256 chainId_, address config_) Ownable2Step() {\r\n        _chainId = chainId_;\r\n        _config = config_;\r\n        \r\n    }\r\n\r\n    function dispatch(\r\n        address destContractId,\r\n        bytes calldata data,\r\n        uint256 destChainId,\r\n        bytes32 extra\r\n    ) external override {\r\n        bytes32 hash = getHash(_dispatchId.current());\r\n\r\n        _executed[hash] = false;\r\n\r\n        uint256 fee = _payGas(destChainId);\r\n\r\n        emit Dispatch(\r\n            hash,\r\n            destContractId,\r\n            _msgSender(),\r\n            destChainId,\r\n            fee,\r\n            data,\r\n            extra\r\n        );\r\n\r\n        _dispatchId.increment();\r\n    }\r\n\r\n    function execute(\r\n        bytes32 hash,\r\n        address destContractId,\r\n        bytes calldata data,\r\n        uint256 fromChainId,\r\n        bytes32 extra\r\n    ) external {      \r\n        require(!_executed[hash], \"Execute Completed\");\r\n        require(verifyHash(hash), \"Validation Failed\");\r\n\r\n        IW3LinkApp(destContractId).execute(fromChainId, data, extra);\r\n\r\n        _executed[hash] = true;\r\n\r\n        emit Executed(hash);\r\n    }\r\n\r\n    function _payGas(uint256 destChainId) internal returns (uint256) {\r\n        IW3LinkConfig w3linkConfig = IW3LinkConfig(_config);\r\n\r\n        uint256 fee = w3linkConfig.fee(destChainId);\r\n        if (fee == 0) return 0;\r\n\r\n        Gas storage gas = _gasContents[_msgSender()];\r\n        require(gas.value >= fee, \"Insufficient value\");\r\n        gas.value -= fee;\r\n\r\n        return fee;\r\n    }\r\n\r\n    function deposit() external payable override {\r\n        uint256 amount = msg.value;\r\n\r\n        _gasContents[_msgSender()].value += amount;\r\n        payable(owner()).transfer(amount);\r\n        emit Deposit(_msgSender(), amount);\r\n    }\r\n\r\n    function withdraw(uint256 amount) external override {\r\n        Gas storage gas = _gasContents[_msgSender()];\r\n        require(gas.value >= amount, \"Insufficient value\");\r\n        gas.value -= amount;\r\n\r\n        payable(_msgSender()).transfer(amount);\r\n        emit Withdraw(_msgSender(), amount);\r\n    }\r\n\r\n    function setConfig(address newConfig) external onlyOwner {\r\n        _config = newConfig;\r\n        emit SetConfig(newConfig);\r\n    }\r\n\r\n    function config() external view override returns (address) {\r\n        return _config;\r\n    }\r\n}\r\n",
  "sourcePath": "C:\\Users\\DELL\\Documents\\w3link\\solidity\\contracts\\W3Link.sol",
  "compiler": {
    "name": "solc",
    "version": "0.8.17+commit.8df45f5f.Emscripten.clang"
  },
  "schemaVersion": "3.4.11",
  "updatedAt": "2023-09-11T09:14:14.957Z",
  "networkType": "ethereum",
  "devdoc": {
    "kind": "dev",
    "methods": {
      "acceptOwnership()": {
        "details": "The new owner accepts the ownership transfer."
      },
      "owner()": {
        "details": "Returns the address of the current owner."
      },
      "pendingOwner()": {
        "details": "Returns the address of the pending owner."
      },
      "renounceOwnership()": {
        "details": "Leaves the contract without owner. It will not be possible to call `onlyOwner` functions. Can only be called by the current owner. NOTE: Renouncing ownership will leave the contract without an owner, thereby disabling any functionality that is only available to the owner."
      },
      "transferOwnership(address)": {
        "details": "Starts the ownership transfer of the contract to a new account. Replaces the pending transfer if there is one. Can only be called by the current owner."
      }
    },
    "version": 1
  },
  "userdoc": {
    "kind": "user",
    "methods": {},
    "version": 1
  }
}